{
	"contracts/PantherQuant.sol": {
		"PantherQuant": {
			"abi": [
				{
					"inputs": [],
					"stateMutability": "nonpayable",
					"type": "constructor"
				},
				{
					"anonymous": false,
					"inputs": [
						{
							"indexed": true,
							"internalType": "address",
							"name": "account",
							"type": "address"
						},
						{
							"indexed": true,
							"internalType": "address",
							"name": "operator",
							"type": "address"
						},
						{
							"indexed": false,
							"internalType": "bool",
							"name": "approved",
							"type": "bool"
						}
					],
					"name": "ApprovalForAll",
					"type": "event"
				},
				{
					"anonymous": false,
					"inputs": [
						{
							"indexed": true,
							"internalType": "address",
							"name": "previousOwner",
							"type": "address"
						},
						{
							"indexed": true,
							"internalType": "address",
							"name": "newOwner",
							"type": "address"
						}
					],
					"name": "OwnershipTransferred",
					"type": "event"
				},
				{
					"anonymous": false,
					"inputs": [
						{
							"indexed": true,
							"internalType": "address",
							"name": "operator",
							"type": "address"
						},
						{
							"indexed": true,
							"internalType": "address",
							"name": "from",
							"type": "address"
						},
						{
							"indexed": true,
							"internalType": "address",
							"name": "to",
							"type": "address"
						},
						{
							"indexed": false,
							"internalType": "uint256[]",
							"name": "ids",
							"type": "uint256[]"
						},
						{
							"indexed": false,
							"internalType": "uint256[]",
							"name": "values",
							"type": "uint256[]"
						}
					],
					"name": "TransferBatch",
					"type": "event"
				},
				{
					"anonymous": false,
					"inputs": [
						{
							"indexed": true,
							"internalType": "address",
							"name": "operator",
							"type": "address"
						},
						{
							"indexed": true,
							"internalType": "address",
							"name": "from",
							"type": "address"
						},
						{
							"indexed": true,
							"internalType": "address",
							"name": "to",
							"type": "address"
						},
						{
							"indexed": false,
							"internalType": "uint256",
							"name": "id",
							"type": "uint256"
						},
						{
							"indexed": false,
							"internalType": "uint256",
							"name": "value",
							"type": "uint256"
						}
					],
					"name": "TransferSingle",
					"type": "event"
				},
				{
					"anonymous": false,
					"inputs": [
						{
							"indexed": false,
							"internalType": "string",
							"name": "value",
							"type": "string"
						},
						{
							"indexed": true,
							"internalType": "uint256",
							"name": "id",
							"type": "uint256"
						}
					],
					"name": "URI",
					"type": "event"
				},
				{
					"inputs": [
						{
							"internalType": "address",
							"name": "account",
							"type": "address"
						},
						{
							"internalType": "uint256",
							"name": "id",
							"type": "uint256"
						}
					],
					"name": "balanceOf",
					"outputs": [
						{
							"internalType": "uint256",
							"name": "",
							"type": "uint256"
						}
					],
					"stateMutability": "view",
					"type": "function"
				},
				{
					"inputs": [
						{
							"internalType": "address[]",
							"name": "accounts",
							"type": "address[]"
						},
						{
							"internalType": "uint256[]",
							"name": "ids",
							"type": "uint256[]"
						}
					],
					"name": "balanceOfBatch",
					"outputs": [
						{
							"internalType": "uint256[]",
							"name": "",
							"type": "uint256[]"
						}
					],
					"stateMutability": "view",
					"type": "function"
				},
				{
					"inputs": [
						{
							"internalType": "address",
							"name": "account",
							"type": "address"
						},
						{
							"internalType": "address",
							"name": "operator",
							"type": "address"
						}
					],
					"name": "isApprovedForAll",
					"outputs": [
						{
							"internalType": "bool",
							"name": "",
							"type": "bool"
						}
					],
					"stateMutability": "view",
					"type": "function"
				},
				{
					"inputs": [
						{
							"internalType": "address[]",
							"name": "account",
							"type": "address[]"
						},
						{
							"internalType": "uint256",
							"name": "id",
							"type": "uint256"
						},
						{
							"internalType": "uint256",
							"name": "amount",
							"type": "uint256"
						}
					],
					"name": "mint",
					"outputs": [],
					"stateMutability": "nonpayable",
					"type": "function"
				},
				{
					"inputs": [
						{
							"internalType": "address",
							"name": "account",
							"type": "address"
						},
						{
							"internalType": "uint256",
							"name": "id",
							"type": "uint256"
						},
						{
							"internalType": "uint256",
							"name": "amount",
							"type": "uint256"
						}
					],
					"name": "mintOne",
					"outputs": [],
					"stateMutability": "nonpayable",
					"type": "function"
				},
				{
					"inputs": [],
					"name": "name",
					"outputs": [
						{
							"internalType": "string",
							"name": "",
							"type": "string"
						}
					],
					"stateMutability": "view",
					"type": "function"
				},
				{
					"inputs": [],
					"name": "owner",
					"outputs": [
						{
							"internalType": "address",
							"name": "",
							"type": "address"
						}
					],
					"stateMutability": "view",
					"type": "function"
				},
				{
					"inputs": [],
					"name": "renounceOwnership",
					"outputs": [],
					"stateMutability": "nonpayable",
					"type": "function"
				},
				{
					"inputs": [
						{
							"internalType": "address",
							"name": "from",
							"type": "address"
						},
						{
							"internalType": "address",
							"name": "to",
							"type": "address"
						},
						{
							"internalType": "uint256[]",
							"name": "ids",
							"type": "uint256[]"
						},
						{
							"internalType": "uint256[]",
							"name": "amounts",
							"type": "uint256[]"
						},
						{
							"internalType": "bytes",
							"name": "data",
							"type": "bytes"
						}
					],
					"name": "safeBatchTransferFrom",
					"outputs": [],
					"stateMutability": "nonpayable",
					"type": "function"
				},
				{
					"inputs": [
						{
							"internalType": "address",
							"name": "from",
							"type": "address"
						},
						{
							"internalType": "address",
							"name": "to",
							"type": "address"
						},
						{
							"internalType": "uint256",
							"name": "id",
							"type": "uint256"
						},
						{
							"internalType": "uint256",
							"name": "amount",
							"type": "uint256"
						},
						{
							"internalType": "bytes",
							"name": "data",
							"type": "bytes"
						}
					],
					"name": "safeTransferFrom",
					"outputs": [],
					"stateMutability": "nonpayable",
					"type": "function"
				},
				{
					"inputs": [
						{
							"internalType": "address",
							"name": "operator",
							"type": "address"
						},
						{
							"internalType": "bool",
							"name": "approved",
							"type": "bool"
						}
					],
					"name": "setApprovalForAll",
					"outputs": [],
					"stateMutability": "nonpayable",
					"type": "function"
				},
				{
					"inputs": [
						{
							"internalType": "string",
							"name": "newuri",
							"type": "string"
						}
					],
					"name": "setURI",
					"outputs": [],
					"stateMutability": "nonpayable",
					"type": "function"
				},
				{
					"inputs": [
						{
							"internalType": "bytes4",
							"name": "interfaceId",
							"type": "bytes4"
						}
					],
					"name": "supportsInterface",
					"outputs": [
						{
							"internalType": "bool",
							"name": "",
							"type": "bool"
						}
					],
					"stateMutability": "view",
					"type": "function"
				},
				{
					"inputs": [
						{
							"internalType": "address",
							"name": "newOwner",
							"type": "address"
						}
					],
					"name": "transferOwnership",
					"outputs": [],
					"stateMutability": "nonpayable",
					"type": "function"
				},
				{
					"inputs": [
						{
							"internalType": "uint256",
							"name": "",
							"type": "uint256"
						}
					],
					"name": "uri",
					"outputs": [
						{
							"internalType": "string",
							"name": "",
							"type": "string"
						}
					],
					"stateMutability": "view",
					"type": "function"
				}
			],
			"devdoc": {
				"kind": "dev",
				"methods": {
					"balanceOf(address,uint256)": {
						"details": "See {IERC1155-balanceOf}. Requirements: - `account` cannot be the zero address."
					},
					"balanceOfBatch(address[],uint256[])": {
						"details": "See {IERC1155-balanceOfBatch}. Requirements: - `accounts` and `ids` must have the same length."
					},
					"isApprovedForAll(address,address)": {
						"details": "See {IERC1155-isApprovedForAll}."
					},
					"owner()": {
						"details": "Returns the address of the current owner."
					},
					"renounceOwnership()": {
						"details": "Leaves the contract without owner. It will not be possible to call `onlyOwner` functions anymore. Can only be called by the current owner. NOTE: Renouncing ownership will leave the contract without an owner, thereby removing any functionality that is only available to the owner."
					},
					"safeBatchTransferFrom(address,address,uint256[],uint256[],bytes)": {
						"details": "See {IERC1155-safeBatchTransferFrom}."
					},
					"safeTransferFrom(address,address,uint256,uint256,bytes)": {
						"details": "See {IERC1155-safeTransferFrom}."
					},
					"setApprovalForAll(address,bool)": {
						"details": "See {IERC1155-setApprovalForAll}."
					},
					"supportsInterface(bytes4)": {
						"details": "See {IERC165-supportsInterface}."
					},
					"transferOwnership(address)": {
						"details": "Transfers ownership of the contract to a new account (`newOwner`). Can only be called by the current owner."
					},
					"uri(uint256)": {
						"details": "See {IERC1155MetadataURI-uri}. This implementation returns the same URI for *all* token types. It relies on the token type ID substitution mechanism https://eips.ethereum.org/EIPS/eip-1155#metadata[defined in the EIP]. Clients calling this function must replace the `\\{id\\}` substring with the actual token type ID."
					}
				},
				"version": 1
			},
			"evm": {
				"assembly": "    /* \"contracts/PantherQuant.sol\":253:300  string public name = \"Panther Quant Golden Egg\" */\n  0xc0\n    /* \"contracts/PantherQuant.sol\":106:780  contract PantherQuant is ERC1155, Ownable {... */\n  0x40\n    /* \"contracts/PantherQuant.sol\":253:300  string public name = \"Panther Quant Golden Egg\" */\n  mstore\n  0x18\n    /* \"contracts/PantherQuant.sol\":106:780  contract PantherQuant is ERC1155, Ownable {... */\n  0x80\n    /* \"contracts/PantherQuant.sol\":253:300  string public name = \"Panther Quant Golden Egg\" */\n  dup2\n  swap1\n  mstore\n  0x50616e74686572205175616e7420476f6c64656e204567670000000000000000\n  0xa0\n  swap1\n  dup2\n  mstore\n  tag_1\n  swap2\n  0x04\n  swap2\n  swap1\n  tag_2\n  jump\t// in\ntag_1:\n  pop\n    /* \"contracts/PantherQuant.sol\":154:247  constructor()... */\n  callvalue\n  dup1\n  iszero\n  tag_3\n  jumpi\n  0x00\n  dup1\n  revert\ntag_3:\n  pop\n    /* \"contracts/ERC1155.sol\":1052:1114  constructor(string memory uri_) {... */\n  mload(0x40)\n  dup1\n  0x60\n  add\n  0x40\n  mstore\n  dup1\n  0x35\n  dup2\n  mstore\n  0x20\n  add\n  data_fd57ac08a91efe7fa15dd703ff0937b155f373fd142269c0180bd57aad623971\n  0x35\n  swap2\n  codecopy\n    /* \"contracts/ERC1155.sol\":1094:1107  _setURI(uri_) */\n  tag_8\n    /* \"contracts/ERC1155.sol\":1102:1106  uri_ */\n  dup2\n    /* \"contracts/ERC1155.sol\":1094:1101  _setURI */\n  tag_9\n    /* \"contracts/ERC1155.sol\":1094:1107  _setURI(uri_) */\n  jump\t// in\ntag_8:\n  pop\n    /* \"contracts/Ownable.sol\":936:968  _transferOwnership(_msgSender()) */\n  tag_11\n    /* \"contracts/Context.sol\":719:729  msg.sender */\n  caller\n    /* \"contracts/Ownable.sol\":936:954  _transferOwnership */\n  tag_14\n    /* \"contracts/Ownable.sol\":936:968  _transferOwnership(_msgSender()) */\n  jump\t// in\ntag_11:\n    /* \"contracts/PantherQuant.sol\":106:780  contract PantherQuant is ERC1155, Ownable {... */\n  jump(tag_32)\n    /* \"contracts/ERC1155.sol\":8540:8626  function _setURI(string memory newuri) internal virtual {... */\ntag_9:\n    /* \"contracts/ERC1155.sol\":8606:8619  _uri = newuri */\n  dup1\n  mload\n  tag_18\n  swap1\n    /* \"contracts/ERC1155.sol\":8606:8610  _uri */\n  0x02\n  swap1\n    /* \"contracts/ERC1155.sol\":8606:8619  _uri = newuri */\n  0x20\n  dup5\n  add\n  swap1\n  tag_2\n  jump\t// in\ntag_18:\n  pop\n    /* \"contracts/ERC1155.sol\":8540:8626  function _setURI(string memory newuri) internal virtual {... */\n  pop\n  jump\t// out\n    /* \"contracts/Ownable.sol\":2319:2506  function _transferOwnership(address newOwner) internal virtual {... */\ntag_14:\n    /* \"contracts/Ownable.sol\":2411:2417  _owner */\n  0x03\n  dup1\n  sload\n  sub(shl(0xa0, 0x01), 0x01)\n    /* \"contracts/Ownable.sol\":2427:2444  _owner = newOwner */\n  dup4\n  dup2\n  and\n  not(sub(shl(0xa0, 0x01), 0x01))\n  dup4\n  and\n  dup2\n  or\n  swap1\n  swap4\n  sstore\n    /* \"contracts/Ownable.sol\":2459:2499  OwnershipTransferred(oldOwner, newOwner) */\n  mload(0x40)\n    /* \"contracts/Ownable.sol\":2411:2417  _owner */\n  swap2\n  and\n  swap2\n    /* \"contracts/Ownable.sol\":2427:2444  _owner = newOwner */\n  swap1\n    /* \"contracts/Ownable.sol\":2411:2417  _owner */\n  dup3\n  swap1\n    /* \"contracts/Ownable.sol\":2459:2499  OwnershipTransferred(oldOwner, newOwner) */\n  0x8be0079c531659141344cd1fd0a4f28419497f9722a3daafe3b4186f6b6457e0\n  swap1\n    /* \"contracts/Ownable.sol\":2392:2408  address oldOwner */\n  0x00\n  swap1\n    /* \"contracts/Ownable.sol\":2459:2499  OwnershipTransferred(oldOwner, newOwner) */\n  log3\n    /* \"contracts/Ownable.sol\":2382:2506  {... */\n  pop\n    /* \"contracts/Ownable.sol\":2319:2506  function _transferOwnership(address newOwner) internal virtual {... */\n  pop\n  jump\t// out\n    /* \"contracts/PantherQuant.sol\":106:780  contract PantherQuant is ERC1155, Ownable {... */\ntag_2:\n  dup3\n  dup1\n  sload\n  tag_21\n  swap1\n  tag_22\n  jump\t// in\ntag_21:\n  swap1\n  0x00\n  mstore\n  keccak256(0x00, 0x20)\n  swap1\n  0x1f\n  add\n  0x20\n  swap1\n  div\n  dup2\n  add\n  swap3\n  dup3\n  tag_24\n  jumpi\n  0x00\n  dup6\n  sstore\n  jump(tag_27)\ntag_24:\n  dup3\n  0x1f\n  lt\n  tag_25\n  jumpi\n  dup1\n  mload\n  not(0xff)\n  and\n  dup4\n  dup1\n  add\n  or\n  dup6\n  sstore\n  jump(tag_27)\ntag_25:\n  dup3\n  dup1\n  add\n  0x01\n  add\n  dup6\n  sstore\n  dup3\n  iszero\n  tag_27\n  jumpi\n  swap2\n  dup3\n  add\ntag_26:\n  dup3\n  dup2\n  gt\n  iszero\n  tag_27\n  jumpi\n  dup3\n  mload\n  dup3\n  sstore\n  swap2\n  0x20\n  add\n  swap2\n  swap1\n  0x01\n  add\n  swap1\n  jump(tag_26)\ntag_27:\n  pop\n  tag_28\n  swap3\n  swap2\n  pop\n  tag_29\n  jump\t// in\ntag_28:\n  pop\n  swap1\n  jump\t// out\ntag_29:\ntag_30:\n  dup1\n  dup3\n  gt\n  iszero\n  tag_28\n  jumpi\n  0x00\n  dup2\n  sstore\n  0x01\n  add\n  jump(tag_30)\n    /* \"#utility.yul\":14:394   */\ntag_22:\n    /* \"#utility.yul\":93:94   */\n  0x01\n    /* \"#utility.yul\":89:101   */\n  dup2\n  dup2\n  shr\n  swap1\n    /* \"#utility.yul\":136:148   */\n  dup3\n  and\n  dup1\n    /* \"#utility.yul\":157:218   */\n  tag_34\n  jumpi\n    /* \"#utility.yul\":211:215   */\n  0x7f\n    /* \"#utility.yul\":203:209   */\n  dup3\n    /* \"#utility.yul\":199:216   */\n  and\n    /* \"#utility.yul\":189:216   */\n  swap2\n  pop\n    /* \"#utility.yul\":157:218   */\ntag_34:\n    /* \"#utility.yul\":264:266   */\n  0x20\n    /* \"#utility.yul\":256:262   */\n  dup3\n    /* \"#utility.yul\":253:267   */\n  lt\n    /* \"#utility.yul\":233:251   */\n  dup2\n    /* \"#utility.yul\":230:268   */\n  eq\n    /* \"#utility.yul\":227:388   */\n  iszero\n  tag_35\n  jumpi\n    /* \"#utility.yul\":310:320   */\n  0x4e487b71\n    /* \"#utility.yul\":305:308   */\n  0xe0\n    /* \"#utility.yul\":301:321   */\n  shl\n    /* \"#utility.yul\":298:299   */\n  0x00\n    /* \"#utility.yul\":291:322   */\n  mstore\n    /* \"#utility.yul\":345:349   */\n  0x22\n    /* \"#utility.yul\":342:343   */\n  0x04\n    /* \"#utility.yul\":335:350   */\n  mstore\n    /* \"#utility.yul\":373:377   */\n  0x24\n    /* \"#utility.yul\":370:371   */\n  0x00\n    /* \"#utility.yul\":363:378   */\n  revert\n    /* \"#utility.yul\":227:388   */\ntag_35:\n  pop\n    /* \"#utility.yul\":14:394   */\n  swap2\n  swap1\n  pop\n  jump\t// out\ntag_32:\n    /* \"contracts/PantherQuant.sol\":106:780  contract PantherQuant is ERC1155, Ownable {... */\n  dataSize(sub_0)\n  dup1\n  dataOffset(sub_0)\n  0x00\n  codecopy\n  0x00\n  return\nstop\ndata_fd57ac08a91efe7fa15dd703ff0937b155f373fd142269c0180bd57aad623971 697066733a2f2f516d645332315270415a685468693658446f4c4b76706f6e516b315862716570614757457a4444794c6d73347569\n\nsub_0: assembly {\n        /* \"contracts/PantherQuant.sol\":106:780  contract PantherQuant is ERC1155, Ownable {... */\n      mstore(0x40, 0x80)\n      callvalue\n      dup1\n      iszero\n      tag_1\n      jumpi\n      0x00\n      dup1\n      revert\n    tag_1:\n      pop\n      jumpi(tag_2, lt(calldatasize, 0x04))\n      shr(0xe0, calldataload(0x00))\n      dup1\n      0x715018a6\n      gt\n      tag_18\n      jumpi\n      dup1\n      0xbe8c5922\n      gt\n      tag_19\n      jumpi\n      dup1\n      0xbe8c5922\n      eq\n      tag_14\n      jumpi\n      dup1\n      0xe985e9c5\n      eq\n      tag_15\n      jumpi\n      dup1\n      0xf242432a\n      eq\n      tag_16\n      jumpi\n      dup1\n      0xf2fde38b\n      eq\n      tag_17\n      jumpi\n      0x00\n      dup1\n      revert\n    tag_19:\n      dup1\n      0x715018a6\n      eq\n      tag_10\n      jumpi\n      dup1\n      0x8da5cb5b\n      eq\n      tag_11\n      jumpi\n      dup1\n      0xa22cb465\n      eq\n      tag_12\n      jumpi\n      dup1\n      0xb3a447b4\n      eq\n      tag_13\n      jumpi\n      0x00\n      dup1\n      revert\n    tag_18:\n      dup1\n      0x06fdde03\n      gt\n      tag_20\n      jumpi\n      dup1\n      0x06fdde03\n      eq\n      tag_6\n      jumpi\n      dup1\n      0x0e89341c\n      eq\n      tag_7\n      jumpi\n      dup1\n      0x2eb2c2d6\n      eq\n      tag_8\n      jumpi\n      dup1\n      0x4e1273f4\n      eq\n      tag_9\n      jumpi\n      0x00\n      dup1\n      revert\n    tag_20:\n      dup1\n      0xfdd58e\n      eq\n      tag_3\n      jumpi\n      dup1\n      0x01ffc9a7\n      eq\n      tag_4\n      jumpi\n      dup1\n      0x02fe5305\n      eq\n      tag_5\n      jumpi\n    tag_2:\n      0x00\n      dup1\n      revert\n        /* \"contracts/ERC1155.sol\":2174:2480  function balanceOf(address account, uint256 id)... */\n    tag_3:\n      tag_21\n      tag_22\n      calldatasize\n      0x04\n      tag_23\n      jump\t// in\n    tag_22:\n      tag_24\n      jump\t// in\n    tag_21:\n      mload(0x40)\n        /* \"#utility.yul\":16667:16692   */\n      swap1\n      dup2\n      mstore\n        /* \"#utility.yul\":16655:16657   */\n      0x20\n        /* \"#utility.yul\":16640:16658   */\n      add\n        /* \"contracts/ERC1155.sol\":2174:2480  function balanceOf(address account, uint256 id)... */\n    tag_25:\n      mload(0x40)\n      dup1\n      swap2\n      sub\n      swap1\n      return\n        /* \"contracts/ERC1155.sol\":1181:1530  function supportsInterface(bytes4 interfaceId)... */\n    tag_4:\n      tag_27\n      tag_28\n      calldatasize\n      0x04\n      tag_29\n      jump\t// in\n    tag_28:\n      tag_30\n      jump\t// in\n    tag_27:\n      mload(0x40)\n        /* \"#utility.yul\":10983:10997   */\n      swap1\n      iszero\n        /* \"#utility.yul\":10976:10998   */\n      iszero\n        /* \"#utility.yul\":10958:10999   */\n      dup2\n      mstore\n        /* \"#utility.yul\":10946:10948   */\n      0x20\n        /* \"#utility.yul\":10931:10949   */\n      add\n        /* \"contracts/ERC1155.sol\":1181:1530  function supportsInterface(bytes4 interfaceId)... */\n      tag_25\n        /* \"#utility.yul\":10818:11005   */\n      jump\n        /* \"contracts/PantherQuant.sol\":307:394  function setURI(string memory newuri) public onlyOwner {... */\n    tag_5:\n      tag_33\n      tag_34\n      calldatasize\n      0x04\n      tag_35\n      jump\t// in\n    tag_34:\n      tag_36\n      jump\t// in\n    tag_33:\n      stop\n        /* \"contracts/PantherQuant.sol\":253:300  string public name = \"Panther Quant Golden Egg\" */\n    tag_6:\n      tag_37\n      tag_38\n      jump\t// in\n    tag_37:\n      mload(0x40)\n      tag_25\n      swap2\n      swap1\n      tag_40\n      jump\t// in\n        /* \"contracts/ERC1155.sol\":1929:2032  function uri(uint256) public view virtual override returns (string memory) {... */\n    tag_7:\n      tag_37\n      tag_42\n      calldatasize\n      0x04\n      tag_43\n      jump\t// in\n    tag_42:\n      tag_44\n      jump\t// in\n        /* \"contracts/ERC1155.sol\":4233:4663  function safeBatchTransferFrom(... */\n    tag_8:\n      tag_33\n      tag_47\n      calldatasize\n      0x04\n      tag_48\n      jump\t// in\n    tag_47:\n      tag_49\n      jump\t// in\n        /* \"contracts/ERC1155.sol\":2637:3179  function balanceOfBatch(address[] memory accounts, uint256[] memory ids)... */\n    tag_9:\n      tag_50\n      tag_51\n      calldatasize\n      0x04\n      tag_52\n      jump\t// in\n    tag_51:\n      tag_53\n      jump\t// in\n    tag_50:\n      mload(0x40)\n      tag_25\n      swap2\n      swap1\n      tag_55\n      jump\t// in\n        /* \"contracts/Ownable.sol\":1683:1784  function renounceOwnership() public virtual onlyOwner {... */\n    tag_10:\n      tag_33\n      tag_57\n      jump\t// in\n        /* \"contracts/Ownable.sol\":1051:1136  function owner() public view virtual returns (address) {... */\n    tag_11:\n        /* \"contracts/Ownable.sol\":1123:1129  _owner */\n      sload(0x03)\n        /* \"contracts/Ownable.sol\":1051:1136  function owner() public view virtual returns (address) {... */\n      mload(0x40)\n      sub(shl(0xa0, 0x01), 0x01)\n        /* \"contracts/Ownable.sol\":1123:1129  _owner */\n      swap1\n      swap2\n      and\n        /* \"#utility.yul\":8624:8675   */\n      dup2\n      mstore\n        /* \"#utility.yul\":8612:8614   */\n      0x20\n        /* \"#utility.yul\":8597:8615   */\n      add\n        /* \"contracts/Ownable.sol\":1051:1136  function owner() public view virtual returns (address) {... */\n      tag_25\n        /* \"#utility.yul\":8478:8681   */\n      jump\n        /* \"contracts/ERC1155.sol\":3247:3428  function setApprovalForAll(address operator, bool approved)... */\n    tag_12:\n      tag_33\n      tag_63\n      calldatasize\n      0x04\n      tag_64\n      jump\t// in\n    tag_63:\n      tag_65\n      jump\t// in\n        /* \"contracts/PantherQuant.sol\":624:778  function mintOne(... */\n    tag_13:\n      tag_33\n      tag_67\n      calldatasize\n      0x04\n      tag_68\n      jump\t// in\n    tag_67:\n      tag_69\n      jump\t// in\n        /* \"contracts/PantherQuant.sol\":400:618  function mint(... */\n    tag_14:\n      tag_33\n      tag_71\n      calldatasize\n      0x04\n      tag_72\n      jump\t// in\n    tag_71:\n      tag_73\n      jump\t// in\n        /* \"contracts/ERC1155.sol\":3495:3705  function isApprovedForAll(address account, address operator)... */\n    tag_15:\n      tag_27\n      tag_75\n      calldatasize\n      0x04\n      tag_76\n      jump\t// in\n    tag_75:\n      sub(shl(0xa0, 0x01), 0x01)\n        /* \"contracts/ERC1155.sol\":3661:3688  _operatorApprovals[account] */\n      swap2\n      dup3\n      and\n        /* \"contracts/ERC1155.sol\":3634:3638  bool */\n      0x00\n        /* \"contracts/ERC1155.sol\":3661:3688  _operatorApprovals[account] */\n      swap1\n      dup2\n      mstore\n        /* \"contracts/ERC1155.sol\":3661:3679  _operatorApprovals */\n      0x01\n        /* \"contracts/ERC1155.sol\":3661:3688  _operatorApprovals[account] */\n      0x20\n      swap1\n      dup2\n      mstore\n      0x40\n      dup1\n      dup4\n      keccak256\n        /* \"contracts/ERC1155.sol\":3661:3698  _operatorApprovals[account][operator] */\n      swap4\n      swap1\n      swap5\n      and\n      dup3\n      mstore\n      swap2\n      swap1\n      swap2\n      mstore\n      keccak256\n      sload\n      0xff\n      and\n      swap1\n        /* \"contracts/ERC1155.sol\":3495:3705  function isApprovedForAll(address account, address operator)... */\n      jump\n        /* \"contracts/ERC1155.sol\":3772:4161  function safeTransferFrom(... */\n    tag_16:\n      tag_33\n      tag_80\n      calldatasize\n      0x04\n      tag_81\n      jump\t// in\n    tag_80:\n      tag_82\n      jump\t// in\n        /* \"contracts/Ownable.sol\":1933:2165  function transferOwnership(address newOwner) public virtual onlyOwner {... */\n    tag_17:\n      tag_33\n      tag_84\n      calldatasize\n      0x04\n      tag_85\n      jump\t// in\n    tag_84:\n      tag_86\n      jump\t// in\n        /* \"contracts/ERC1155.sol\":2174:2480  function balanceOf(address account, uint256 id)... */\n    tag_24:\n        /* \"contracts/ERC1155.sol\":2300:2307  uint256 */\n      0x00\n      sub(shl(0xa0, 0x01), 0x01)\n        /* \"contracts/ERC1155.sol\":2344:2365  account != address(0) */\n      dup4\n      and\n        /* \"contracts/ERC1155.sol\":2323:2434  require(... */\n      tag_88\n      jumpi\n      mload(0x40)\n      shl(0xe5, 0x461bcd)\n      dup2\n      mstore\n        /* \"#utility.yul\":12266:12268   */\n      0x20\n        /* \"contracts/ERC1155.sol\":2323:2434  require(... */\n      0x04\n      dup3\n      add\n        /* \"#utility.yul\":12248:12269   */\n      mstore\n        /* \"#utility.yul\":12305:12307   */\n      0x2b\n        /* \"#utility.yul\":12285:12303   */\n      0x24\n      dup3\n      add\n        /* \"#utility.yul\":12278:12308   */\n      mstore\n        /* \"#utility.yul\":12344:12378   */\n      0x455243313135353a2062616c616e636520717565727920666f7220746865207a\n        /* \"#utility.yul\":12324:12342   */\n      0x44\n      dup3\n      add\n        /* \"#utility.yul\":12317:12379   */\n      mstore\n      shl(0xa8, 0x65726f2061646472657373)\n        /* \"#utility.yul\":12395:12413   */\n      0x64\n      dup3\n      add\n        /* \"#utility.yul\":12388:12429   */\n      mstore\n        /* \"#utility.yul\":12446:12465   */\n      0x84\n      add\n        /* \"contracts/ERC1155.sol\":2323:2434  require(... */\n    tag_89:\n      mload(0x40)\n      dup1\n      swap2\n      sub\n      swap1\n      revert\n    tag_88:\n      pop\n        /* \"contracts/ERC1155.sol\":2451:2460  _balances */\n      0x00\n        /* \"contracts/ERC1155.sol\":2451:2464  _balances[id] */\n      swap1\n      dup2\n      mstore\n      0x20\n      dup2\n      dup2\n      mstore\n      0x40\n      dup1\n      dup4\n      keccak256\n      sub(shl(0xa0, 0x01), 0x01)\n        /* \"contracts/ERC1155.sol\":2451:2473  _balances[id][account] */\n      swap5\n      swap1\n      swap5\n      and\n      dup4\n      mstore\n      swap3\n      swap1\n      mstore\n      keccak256\n      sload\n      swap1\n        /* \"contracts/ERC1155.sol\":2174:2480  function balanceOf(address account, uint256 id)... */\n      jump\t// out\n        /* \"contracts/ERC1155.sol\":1181:1530  function supportsInterface(bytes4 interfaceId)... */\n    tag_30:\n        /* \"contracts/ERC1155.sol\":1323:1327  bool */\n      0x00\n      not(sub(shl(0xe0, 0x01), 0x01))\n        /* \"contracts/ERC1155.sol\":1362:1403  interfaceId == type(IERC1155).interfaceId */\n      dup3\n      and\n      shl(0xe1, 0x6cdb3d13)\n      eq\n      dup1\n        /* \"contracts/ERC1155.sol\":1362:1471  interfaceId == type(IERC1155).interfaceId ||... */\n      tag_92\n      jumpi\n      pop\n      not(sub(shl(0xe0, 0x01), 0x01))\n        /* \"contracts/ERC1155.sol\":1419:1471  interfaceId == type(IERC1155MetadataURI).interfaceId */\n      dup3\n      and\n      shl(0xe2, 0x03a24d07)\n      eq\n        /* \"contracts/ERC1155.sol\":1362:1471  interfaceId == type(IERC1155).interfaceId ||... */\n    tag_92:\n        /* \"contracts/ERC1155.sol\":1362:1523  interfaceId == type(IERC1155).interfaceId ||... */\n      dup1\n      tag_94\n      jumpi\n      pop\n      shl(0xe0, 0x01ffc9a7)\n      not(sub(shl(0xe0, 0x01), 0x01))\n        /* \"contracts/ERC165.sol\":937:977  interfaceId == type(IERC165).interfaceId */\n      dup4\n      and\n      eq\n        /* \"contracts/ERC1155.sol\":1487:1523  super.supportsInterface(interfaceId) */\n    tag_94:\n        /* \"contracts/ERC1155.sol\":1343:1523  return... */\n      swap3\n        /* \"contracts/ERC1155.sol\":1181:1530  function supportsInterface(bytes4 interfaceId)... */\n      swap2\n      pop\n      pop\n      jump\t// out\n        /* \"contracts/PantherQuant.sol\":307:394  function setURI(string memory newuri) public onlyOwner {... */\n    tag_36:\n        /* \"contracts/Ownable.sol\":1123:1129  _owner */\n      and(sub(shl(0xa0, 0x01), 0x01), sload(0x03))\n        /* \"contracts/Context.sol\":719:729  msg.sender */\n      caller\n        /* \"contracts/Ownable.sol\":1263:1286  owner() == _msgSender() */\n      eq\n        /* \"contracts/Ownable.sol\":1255:1323  require(owner() == _msgSender(), \"Ownable: caller is not the owner\") */\n      tag_100\n      jumpi\n      mload(0x40)\n      shl(0xe5, 0x461bcd)\n      dup2\n      mstore\n      0x04\n      add\n      tag_89\n      swap1\n      tag_102\n      jump\t// in\n    tag_100:\n        /* \"contracts/PantherQuant.sol\":372:387  _setURI(newuri) */\n      tag_104\n        /* \"contracts/PantherQuant.sol\":380:386  newuri */\n      dup2\n        /* \"contracts/PantherQuant.sol\":372:379  _setURI */\n      tag_105\n        /* \"contracts/PantherQuant.sol\":372:387  _setURI(newuri) */\n      jump\t// in\n    tag_104:\n        /* \"contracts/PantherQuant.sol\":307:394  function setURI(string memory newuri) public onlyOwner {... */\n      pop\n      jump\t// out\n        /* \"contracts/PantherQuant.sol\":253:300  string public name = \"Panther Quant Golden Egg\" */\n    tag_38:\n      0x04\n      dup1\n      sload\n      tag_106\n      swap1\n      tag_107\n      jump\t// in\n    tag_106:\n      dup1\n      0x1f\n      add\n      0x20\n      dup1\n      swap2\n      div\n      mul\n      0x20\n      add\n      mload(0x40)\n      swap1\n      dup2\n      add\n      0x40\n      mstore\n      dup1\n      swap3\n      swap2\n      swap1\n      dup2\n      dup2\n      mstore\n      0x20\n      add\n      dup3\n      dup1\n      sload\n      tag_108\n      swap1\n      tag_107\n      jump\t// in\n    tag_108:\n      dup1\n      iszero\n      tag_109\n      jumpi\n      dup1\n      0x1f\n      lt\n      tag_110\n      jumpi\n      0x0100\n      dup1\n      dup4\n      sload\n      div\n      mul\n      dup4\n      mstore\n      swap2\n      0x20\n      add\n      swap2\n      jump(tag_109)\n    tag_110:\n      dup3\n      add\n      swap2\n      swap1\n      0x00\n      mstore\n      keccak256(0x00, 0x20)\n      swap1\n    tag_111:\n      dup2\n      sload\n      dup2\n      mstore\n      swap1\n      0x01\n      add\n      swap1\n      0x20\n      add\n      dup1\n      dup4\n      gt\n      tag_111\n      jumpi\n      dup3\n      swap1\n      sub\n      0x1f\n      and\n      dup3\n      add\n      swap2\n    tag_109:\n      pop\n      pop\n      pop\n      pop\n      pop\n      dup2\n      jump\t// out\n        /* \"contracts/ERC1155.sol\":1929:2032  function uri(uint256) public view virtual override returns (string memory) {... */\n    tag_44:\n        /* \"contracts/ERC1155.sol\":1989:2002  string memory */\n      0x60\n        /* \"contracts/ERC1155.sol\":2021:2025  _uri */\n      0x02\n        /* \"contracts/ERC1155.sol\":2014:2025  return _uri */\n      dup1\n      sload\n      tag_113\n      swap1\n      tag_107\n      jump\t// in\n    tag_113:\n      dup1\n      0x1f\n      add\n      0x20\n      dup1\n      swap2\n      div\n      mul\n      0x20\n      add\n      mload(0x40)\n      swap1\n      dup2\n      add\n      0x40\n      mstore\n      dup1\n      swap3\n      swap2\n      swap1\n      dup2\n      dup2\n      mstore\n      0x20\n      add\n      dup3\n      dup1\n      sload\n      tag_114\n      swap1\n      tag_107\n      jump\t// in\n    tag_114:\n      dup1\n      iszero\n      tag_115\n      jumpi\n      dup1\n      0x1f\n      lt\n      tag_116\n      jumpi\n      0x0100\n      dup1\n      dup4\n      sload\n      div\n      mul\n      dup4\n      mstore\n      swap2\n      0x20\n      add\n      swap2\n      jump(tag_115)\n    tag_116:\n      dup3\n      add\n      swap2\n      swap1\n      0x00\n      mstore\n      keccak256(0x00, 0x20)\n      swap1\n    tag_117:\n      dup2\n      sload\n      dup2\n      mstore\n      swap1\n      0x01\n      add\n      swap1\n      0x20\n      add\n      dup1\n      dup4\n      gt\n      tag_117\n      jumpi\n      dup3\n      swap1\n      sub\n      0x1f\n      and\n      dup3\n      add\n      swap2\n    tag_115:\n      pop\n      pop\n      pop\n      pop\n      pop\n      swap1\n      pop\n        /* \"contracts/ERC1155.sol\":1929:2032  function uri(uint256) public view virtual override returns (string memory) {... */\n      swap2\n      swap1\n      pop\n      jump\t// out\n        /* \"contracts/ERC1155.sol\":4233:4663  function safeBatchTransferFrom(... */\n    tag_49:\n      sub(shl(0xa0, 0x01), 0x01)\n        /* \"contracts/ERC1155.sol\":4458:4478  from == _msgSender() */\n      dup6\n      and\n        /* \"contracts/Context.sol\":719:729  msg.sender */\n      caller\n        /* \"contracts/ERC1155.sol\":4458:4478  from == _msgSender() */\n      eq\n      dup1\n        /* \"contracts/ERC1155.sol\":4458:4518  from == _msgSender() || isApprovedForAll(from, _msgSender()) */\n      tag_121\n      jumpi\n      pop\n        /* \"contracts/ERC1155.sol\":4482:4518  isApprovedForAll(from, _msgSender()) */\n      tag_121\n        /* \"contracts/ERC1155.sol\":4499:4503  from */\n      dup6\n        /* \"contracts/Context.sol\":719:729  msg.sender */\n      caller\n        /* \"contracts/ERC1155.sol\":3495:3705  function isApprovedForAll(address account, address operator)... */\n      tag_75\n      jump\t// in\n        /* \"contracts/ERC1155.sol\":4482:4518  isApprovedForAll(from, _msgSender()) */\n    tag_121:\n        /* \"contracts/ERC1155.sol\":4437:4594  require(... */\n      tag_123\n      jumpi\n      mload(0x40)\n      shl(0xe5, 0x461bcd)\n      dup2\n      mstore\n        /* \"#utility.yul\":13901:13903   */\n      0x20\n        /* \"contracts/ERC1155.sol\":4437:4594  require(... */\n      0x04\n      dup3\n      add\n        /* \"#utility.yul\":13883:13904   */\n      mstore\n        /* \"#utility.yul\":13940:13942   */\n      0x32\n        /* \"#utility.yul\":13920:13938   */\n      0x24\n      dup3\n      add\n        /* \"#utility.yul\":13913:13943   */\n      mstore\n        /* \"#utility.yul\":13979:14013   */\n      0x455243313135353a207472616e736665722063616c6c6572206973206e6f7420\n        /* \"#utility.yul\":13959:13977   */\n      0x44\n      dup3\n      add\n        /* \"#utility.yul\":13952:14014   */\n      mstore\n      shl(0x72, 0x1bdddb995c881b9bdc88185c1c1c9bdd9959)\n        /* \"#utility.yul\":14030:14048   */\n      0x64\n      dup3\n      add\n        /* \"#utility.yul\":14023:14071   */\n      mstore\n        /* \"#utility.yul\":14088:14107   */\n      0x84\n      add\n        /* \"contracts/ERC1155.sol\":4437:4594  require(... */\n      tag_89\n        /* \"#utility.yul\":13699:14113   */\n      jump\n        /* \"contracts/ERC1155.sol\":4437:4594  require(... */\n    tag_123:\n        /* \"contracts/ERC1155.sol\":4604:4656  _safeBatchTransferFrom(from, to, ids, amounts, data) */\n      tag_126\n        /* \"contracts/ERC1155.sol\":4627:4631  from */\n      dup6\n        /* \"contracts/ERC1155.sol\":4633:4635  to */\n      dup6\n        /* \"contracts/ERC1155.sol\":4637:4640  ids */\n      dup6\n        /* \"contracts/ERC1155.sol\":4642:4649  amounts */\n      dup6\n        /* \"contracts/ERC1155.sol\":4651:4655  data */\n      dup6\n        /* \"contracts/ERC1155.sol\":4604:4626  _safeBatchTransferFrom */\n      tag_127\n        /* \"contracts/ERC1155.sol\":4604:4656  _safeBatchTransferFrom(from, to, ids, amounts, data) */\n      jump\t// in\n    tag_126:\n        /* \"contracts/ERC1155.sol\":4233:4663  function safeBatchTransferFrom(... */\n      pop\n      pop\n      pop\n      pop\n      pop\n      jump\t// out\n        /* \"contracts/ERC1155.sol\":2637:3179  function balanceOfBatch(address[] memory accounts, uint256[] memory ids)... */\n    tag_53:\n        /* \"contracts/ERC1155.sol\":2788:2804  uint256[] memory */\n      0x60\n        /* \"contracts/ERC1155.sol\":2860:2863  ids */\n      dup2\n        /* \"contracts/ERC1155.sol\":2860:2870  ids.length */\n      mload\n        /* \"contracts/ERC1155.sol\":2841:2849  accounts */\n      dup4\n        /* \"contracts/ERC1155.sol\":2841:2856  accounts.length */\n      mload\n        /* \"contracts/ERC1155.sol\":2841:2870  accounts.length == ids.length */\n      eq\n        /* \"contracts/ERC1155.sol\":2820:2937  require(... */\n      tag_129\n      jumpi\n      mload(0x40)\n      shl(0xe5, 0x461bcd)\n      dup2\n      mstore\n        /* \"#utility.yul\":15502:15504   */\n      0x20\n        /* \"contracts/ERC1155.sol\":2820:2937  require(... */\n      0x04\n      dup3\n      add\n        /* \"#utility.yul\":15484:15505   */\n      mstore\n        /* \"#utility.yul\":15541:15543   */\n      0x29\n        /* \"#utility.yul\":15521:15539   */\n      0x24\n      dup3\n      add\n        /* \"#utility.yul\":15514:15544   */\n      mstore\n        /* \"#utility.yul\":15580:15614   */\n      0x455243313135353a206163636f756e747320616e6420696473206c656e677468\n        /* \"#utility.yul\":15560:15578   */\n      0x44\n      dup3\n      add\n        /* \"#utility.yul\":15553:15615   */\n      mstore\n      shl(0xbb, 0x040dad2e6dac2e8c6d)\n        /* \"#utility.yul\":15631:15649   */\n      0x64\n      dup3\n      add\n        /* \"#utility.yul\":15624:15663   */\n      mstore\n        /* \"#utility.yul\":15680:15699   */\n      0x84\n      add\n        /* \"contracts/ERC1155.sol\":2820:2937  require(... */\n      tag_89\n        /* \"#utility.yul\":15300:15705   */\n      jump\n        /* \"contracts/ERC1155.sol\":2820:2937  require(... */\n    tag_129:\n        /* \"contracts/ERC1155.sol\":2948:2978  uint256[] memory batchBalances */\n      0x00\n        /* \"contracts/ERC1155.sol\":2995:3003  accounts */\n      dup4\n        /* \"contracts/ERC1155.sol\":2995:3010  accounts.length */\n      mload\n        /* \"contracts/ERC1155.sol\":2981:3011  new uint256[](accounts.length) */\n      0xffffffffffffffff\n      dup2\n      gt\n      iszero\n      tag_133\n      jumpi\n      tag_133\n      tag_134\n      jump\t// in\n    tag_133:\n      mload(0x40)\n      swap1\n      dup1\n      dup3\n      mstore\n      dup1\n      0x20\n      mul\n      0x20\n      add\n      dup3\n      add\n      0x40\n      mstore\n      dup1\n      iszero\n      tag_135\n      jumpi\n      dup2\n      0x20\n      add\n      0x20\n      dup3\n      mul\n      dup1\n      calldatasize\n      dup4\n      calldatacopy\n      add\n      swap1\n      pop\n    tag_135:\n      pop\n        /* \"contracts/ERC1155.sol\":2948:3011  uint256[] memory batchBalances = new uint256[](accounts.length) */\n      swap1\n      pop\n        /* \"contracts/ERC1155.sol\":3027:3036  uint256 i */\n      0x00\n        /* \"contracts/ERC1155.sol\":3022:3142  for (uint256 i = 0; i < accounts.length; ++i) {... */\n    tag_136:\n        /* \"contracts/ERC1155.sol\":3046:3054  accounts */\n      dup5\n        /* \"contracts/ERC1155.sol\":3046:3061  accounts.length */\n      mload\n        /* \"contracts/ERC1155.sol\":3042:3043  i */\n      dup2\n        /* \"contracts/ERC1155.sol\":3042:3061  i < accounts.length */\n      lt\n        /* \"contracts/ERC1155.sol\":3022:3142  for (uint256 i = 0; i < accounts.length; ++i) {... */\n      iszero\n      tag_137\n      jumpi\n        /* \"contracts/ERC1155.sol\":3101:3131  balanceOf(accounts[i], ids[i]) */\n      tag_139\n        /* \"contracts/ERC1155.sol\":3111:3119  accounts */\n      dup6\n        /* \"contracts/ERC1155.sol\":3120:3121  i */\n      dup3\n        /* \"contracts/ERC1155.sol\":3111:3122  accounts[i] */\n      dup2\n      mload\n      dup2\n      lt\n      tag_141\n      jumpi\n      tag_141\n      tag_142\n      jump\t// in\n    tag_141:\n      0x20\n      mul\n      0x20\n      add\n      add\n      mload\n        /* \"contracts/ERC1155.sol\":3124:3127  ids */\n      dup6\n        /* \"contracts/ERC1155.sol\":3128:3129  i */\n      dup4\n        /* \"contracts/ERC1155.sol\":3124:3130  ids[i] */\n      dup2\n      mload\n      dup2\n      lt\n      tag_144\n      jumpi\n      tag_144\n      tag_142\n      jump\t// in\n    tag_144:\n      0x20\n      mul\n      0x20\n      add\n      add\n      mload\n        /* \"contracts/ERC1155.sol\":3101:3110  balanceOf */\n      tag_24\n        /* \"contracts/ERC1155.sol\":3101:3131  balanceOf(accounts[i], ids[i]) */\n      jump\t// in\n    tag_139:\n        /* \"contracts/ERC1155.sol\":3082:3095  batchBalances */\n      dup3\n        /* \"contracts/ERC1155.sol\":3096:3097  i */\n      dup3\n        /* \"contracts/ERC1155.sol\":3082:3098  batchBalances[i] */\n      dup2\n      mload\n      dup2\n      lt\n      tag_146\n      jumpi\n      tag_146\n      tag_142\n      jump\t// in\n    tag_146:\n      0x20\n      swap1\n      dup2\n      mul\n      swap2\n      swap1\n      swap2\n      add\n      add\n        /* \"contracts/ERC1155.sol\":3082:3131  batchBalances[i] = balanceOf(accounts[i], ids[i]) */\n      mstore\n        /* \"contracts/ERC1155.sol\":3063:3066  ++i */\n      tag_147\n      dup2\n      tag_148\n      jump\t// in\n    tag_147:\n      swap1\n      pop\n        /* \"contracts/ERC1155.sol\":3022:3142  for (uint256 i = 0; i < accounts.length; ++i) {... */\n      jump(tag_136)\n    tag_137:\n      pop\n        /* \"contracts/ERC1155.sol\":3159:3172  batchBalances */\n      swap4\n        /* \"contracts/ERC1155.sol\":2637:3179  function balanceOfBatch(address[] memory accounts, uint256[] memory ids)... */\n      swap3\n      pop\n      pop\n      pop\n      jump\t// out\n        /* \"contracts/Ownable.sol\":1683:1784  function renounceOwnership() public virtual onlyOwner {... */\n    tag_57:\n        /* \"contracts/Ownable.sol\":1123:1129  _owner */\n      and(sub(shl(0xa0, 0x01), 0x01), sload(0x03))\n        /* \"contracts/Context.sol\":719:729  msg.sender */\n      caller\n        /* \"contracts/Ownable.sol\":1263:1286  owner() == _msgSender() */\n      eq\n        /* \"contracts/Ownable.sol\":1255:1323  require(owner() == _msgSender(), \"Ownable: caller is not the owner\") */\n      tag_152\n      jumpi\n      mload(0x40)\n      shl(0xe5, 0x461bcd)\n      dup2\n      mstore\n      0x04\n      add\n      tag_89\n      swap1\n      tag_102\n      jump\t// in\n    tag_152:\n        /* \"contracts/Ownable.sol\":1747:1777  _transferOwnership(address(0)) */\n      tag_155\n        /* \"contracts/Ownable.sol\":1774:1775  0 */\n      0x00\n        /* \"contracts/Ownable.sol\":1747:1765  _transferOwnership */\n      tag_156\n        /* \"contracts/Ownable.sol\":1747:1777  _transferOwnership(address(0)) */\n      jump\t// in\n    tag_155:\n        /* \"contracts/Ownable.sol\":1683:1784  function renounceOwnership() public virtual onlyOwner {... */\n      jump\t// out\n        /* \"contracts/ERC1155.sol\":3247:3428  function setApprovalForAll(address operator, bool approved)... */\n    tag_65:\n        /* \"contracts/ERC1155.sol\":3369:3421  _setApprovalForAll(_msgSender(), operator, approved) */\n      tag_159\n        /* \"contracts/Context.sol\":719:729  msg.sender */\n      caller\n        /* \"contracts/ERC1155.sol\":3402:3410  operator */\n      dup4\n        /* \"contracts/ERC1155.sol\":3412:3420  approved */\n      dup4\n        /* \"contracts/ERC1155.sol\":3369:3387  _setApprovalForAll */\n      tag_161\n        /* \"contracts/ERC1155.sol\":3369:3421  _setApprovalForAll(_msgSender(), operator, approved) */\n      jump\t// in\n    tag_159:\n        /* \"contracts/ERC1155.sol\":3247:3428  function setApprovalForAll(address operator, bool approved)... */\n      pop\n      pop\n      jump\t// out\n        /* \"contracts/PantherQuant.sol\":624:778  function mintOne(... */\n    tag_69:\n        /* \"contracts/Ownable.sol\":1123:1129  _owner */\n      and(sub(shl(0xa0, 0x01), 0x01), sload(0x03))\n        /* \"contracts/Context.sol\":719:729  msg.sender */\n      caller\n        /* \"contracts/Ownable.sol\":1263:1286  owner() == _msgSender() */\n      eq\n        /* \"contracts/Ownable.sol\":1255:1323  require(owner() == _msgSender(), \"Ownable: caller is not the owner\") */\n      tag_165\n      jumpi\n      mload(0x40)\n      shl(0xe5, 0x461bcd)\n      dup2\n      mstore\n      0x04\n      add\n      tag_89\n      swap1\n      tag_102\n      jump\t// in\n    tag_165:\n        /* \"contracts/PantherQuant.sol\":745:771  _mint(account, id, amount) */\n      tag_168\n        /* \"contracts/PantherQuant.sol\":751:758  account */\n      dup4\n        /* \"contracts/PantherQuant.sol\":760:762  id */\n      dup4\n        /* \"contracts/PantherQuant.sol\":764:770  amount */\n      dup4\n        /* \"contracts/PantherQuant.sol\":745:750  _mint */\n      tag_169\n        /* \"contracts/PantherQuant.sol\":745:771  _mint(account, id, amount) */\n      jump\t// in\n    tag_168:\n        /* \"contracts/PantherQuant.sol\":624:778  function mintOne(... */\n      pop\n      pop\n      pop\n      jump\t// out\n        /* \"contracts/PantherQuant.sol\":400:618  function mint(... */\n    tag_73:\n        /* \"contracts/Ownable.sol\":1123:1129  _owner */\n      and(sub(shl(0xa0, 0x01), 0x01), sload(0x03))\n        /* \"contracts/Context.sol\":719:729  msg.sender */\n      caller\n        /* \"contracts/Ownable.sol\":1263:1286  owner() == _msgSender() */\n      eq\n        /* \"contracts/Ownable.sol\":1255:1323  require(owner() == _msgSender(), \"Ownable: caller is not the owner\") */\n      tag_173\n      jumpi\n      mload(0x40)\n      shl(0xe5, 0x461bcd)\n      dup2\n      mstore\n      0x04\n      add\n      tag_89\n      swap1\n      tag_102\n      jump\t// in\n    tag_173:\n        /* \"contracts/PantherQuant.sol\":530:539  uint256 i */\n      0x00\n        /* \"contracts/PantherQuant.sol\":525:611  for (uint256 i = 0; i < account.length; i++)... */\n    tag_176:\n        /* \"contracts/PantherQuant.sol\":549:556  account */\n      dup4\n        /* \"contracts/PantherQuant.sol\":549:563  account.length */\n      mload\n        /* \"contracts/PantherQuant.sol\":545:546  i */\n      dup2\n        /* \"contracts/PantherQuant.sol\":545:563  i < account.length */\n      lt\n        /* \"contracts/PantherQuant.sol\":525:611  for (uint256 i = 0; i < account.length; i++)... */\n      iszero\n      tag_177\n      jumpi\n        /* \"contracts/PantherQuant.sol\":582:611  _mint(account[i], id, amount) */\n      tag_179\n        /* \"contracts/PantherQuant.sol\":588:595  account */\n      dup5\n        /* \"contracts/PantherQuant.sol\":596:597  i */\n      dup3\n        /* \"contracts/PantherQuant.sol\":588:598  account[i] */\n      dup2\n      mload\n      dup2\n      lt\n      tag_181\n      jumpi\n      tag_181\n      tag_142\n      jump\t// in\n    tag_181:\n      0x20\n      mul\n      0x20\n      add\n      add\n      mload\n        /* \"contracts/PantherQuant.sol\":600:602  id */\n      dup5\n        /* \"contracts/PantherQuant.sol\":604:610  amount */\n      dup5\n        /* \"contracts/PantherQuant.sol\":582:587  _mint */\n      tag_169\n        /* \"contracts/PantherQuant.sol\":582:611  _mint(account[i], id, amount) */\n      jump\t// in\n    tag_179:\n        /* \"contracts/PantherQuant.sol\":565:568  i++ */\n      dup1\n      tag_182\n      dup2\n      tag_148\n      jump\t// in\n    tag_182:\n      swap2\n      pop\n      pop\n        /* \"contracts/PantherQuant.sol\":525:611  for (uint256 i = 0; i < account.length; i++)... */\n      jump(tag_176)\n    tag_177:\n      pop\n        /* \"contracts/PantherQuant.sol\":400:618  function mint(... */\n      pop\n      pop\n      pop\n      jump\t// out\n        /* \"contracts/ERC1155.sol\":3772:4161  function safeTransferFrom(... */\n    tag_82:\n      sub(shl(0xa0, 0x01), 0x01)\n        /* \"contracts/ERC1155.sol\":3972:3992  from == _msgSender() */\n      dup6\n      and\n        /* \"contracts/Context.sol\":719:729  msg.sender */\n      caller\n        /* \"contracts/ERC1155.sol\":3972:3992  from == _msgSender() */\n      eq\n      dup1\n        /* \"contracts/ERC1155.sol\":3972:4032  from == _msgSender() || isApprovedForAll(from, _msgSender()) */\n      tag_187\n      jumpi\n      pop\n        /* \"contracts/ERC1155.sol\":3996:4032  isApprovedForAll(from, _msgSender()) */\n      tag_187\n        /* \"contracts/ERC1155.sol\":4013:4017  from */\n      dup6\n        /* \"contracts/Context.sol\":719:729  msg.sender */\n      caller\n        /* \"contracts/ERC1155.sol\":3495:3705  function isApprovedForAll(address account, address operator)... */\n      tag_75\n      jump\t// in\n        /* \"contracts/ERC1155.sol\":3996:4032  isApprovedForAll(from, _msgSender()) */\n    tag_187:\n        /* \"contracts/ERC1155.sol\":3951:4099  require(... */\n      tag_189\n      jumpi\n      mload(0x40)\n      shl(0xe5, 0x461bcd)\n      dup2\n      mstore\n        /* \"#utility.yul\":13085:13087   */\n      0x20\n        /* \"contracts/ERC1155.sol\":3951:4099  require(... */\n      0x04\n      dup3\n      add\n        /* \"#utility.yul\":13067:13088   */\n      mstore\n        /* \"#utility.yul\":13124:13126   */\n      0x29\n        /* \"#utility.yul\":13104:13122   */\n      0x24\n      dup3\n      add\n        /* \"#utility.yul\":13097:13127   */\n      mstore\n        /* \"#utility.yul\":13163:13197   */\n      0x455243313135353a2063616c6c6572206973206e6f74206f776e6572206e6f72\n        /* \"#utility.yul\":13143:13161   */\n      0x44\n      dup3\n      add\n        /* \"#utility.yul\":13136:13198   */\n      mstore\n      shl(0xba, 0x08185c1c1c9bdd9959)\n        /* \"#utility.yul\":13214:13232   */\n      0x64\n      dup3\n      add\n        /* \"#utility.yul\":13207:13246   */\n      mstore\n        /* \"#utility.yul\":13263:13282   */\n      0x84\n      add\n        /* \"contracts/ERC1155.sol\":3951:4099  require(... */\n      tag_89\n        /* \"#utility.yul\":12883:13288   */\n      jump\n        /* \"contracts/ERC1155.sol\":3951:4099  require(... */\n    tag_189:\n        /* \"contracts/ERC1155.sol\":4109:4154  _safeTransferFrom(from, to, id, amount, data) */\n      tag_126\n        /* \"contracts/ERC1155.sol\":4127:4131  from */\n      dup6\n        /* \"contracts/ERC1155.sol\":4133:4135  to */\n      dup6\n        /* \"contracts/ERC1155.sol\":4137:4139  id */\n      dup6\n        /* \"contracts/ERC1155.sol\":4141:4147  amount */\n      dup6\n        /* \"contracts/ERC1155.sol\":4149:4153  data */\n      dup6\n        /* \"contracts/ERC1155.sol\":4109:4126  _safeTransferFrom */\n      tag_193\n        /* \"contracts/ERC1155.sol\":4109:4154  _safeTransferFrom(from, to, id, amount, data) */\n      jump\t// in\n        /* \"contracts/Ownable.sol\":1933:2165  function transferOwnership(address newOwner) public virtual onlyOwner {... */\n    tag_86:\n        /* \"contracts/Ownable.sol\":1123:1129  _owner */\n      and(sub(shl(0xa0, 0x01), 0x01), sload(0x03))\n        /* \"contracts/Context.sol\":719:729  msg.sender */\n      caller\n        /* \"contracts/Ownable.sol\":1263:1286  owner() == _msgSender() */\n      eq\n        /* \"contracts/Ownable.sol\":1255:1323  require(owner() == _msgSender(), \"Ownable: caller is not the owner\") */\n      tag_197\n      jumpi\n      mload(0x40)\n      shl(0xe5, 0x461bcd)\n      dup2\n      mstore\n      0x04\n      add\n      tag_89\n      swap1\n      tag_102\n      jump\t// in\n    tag_197:\n      sub(shl(0xa0, 0x01), 0x01)\n        /* \"contracts/Ownable.sol\":2034:2056  newOwner != address(0) */\n      dup2\n      and\n        /* \"contracts/Ownable.sol\":2013:2120  require(... */\n      tag_200\n      jumpi\n      mload(0x40)\n      shl(0xe5, 0x461bcd)\n      dup2\n      mstore\n        /* \"#utility.yul\":12678:12680   */\n      0x20\n        /* \"contracts/Ownable.sol\":2013:2120  require(... */\n      0x04\n      dup3\n      add\n        /* \"#utility.yul\":12660:12681   */\n      mstore\n        /* \"#utility.yul\":12717:12719   */\n      0x26\n        /* \"#utility.yul\":12697:12715   */\n      0x24\n      dup3\n      add\n        /* \"#utility.yul\":12690:12720   */\n      mstore\n        /* \"#utility.yul\":12756:12790   */\n      0x4f776e61626c653a206e6577206f776e657220697320746865207a65726f2061\n        /* \"#utility.yul\":12736:12754   */\n      0x44\n      dup3\n      add\n        /* \"#utility.yul\":12729:12791   */\n      mstore\n      shl(0xd0, 0x646472657373)\n        /* \"#utility.yul\":12807:12825   */\n      0x64\n      dup3\n      add\n        /* \"#utility.yul\":12800:12836   */\n      mstore\n        /* \"#utility.yul\":12853:12872   */\n      0x84\n      add\n        /* \"contracts/Ownable.sol\":2013:2120  require(... */\n      tag_89\n        /* \"#utility.yul\":12476:12878   */\n      jump\n        /* \"contracts/Ownable.sol\":2013:2120  require(... */\n    tag_200:\n        /* \"contracts/Ownable.sol\":2130:2158  _transferOwnership(newOwner) */\n      tag_104\n        /* \"contracts/Ownable.sol\":2149:2157  newOwner */\n      dup2\n        /* \"contracts/Ownable.sol\":2130:2148  _transferOwnership */\n      tag_156\n        /* \"contracts/Ownable.sol\":2130:2158  _transferOwnership(newOwner) */\n      jump\t// in\n        /* \"contracts/ERC1155.sol\":8540:8626  function _setURI(string memory newuri) internal virtual {... */\n    tag_105:\n        /* \"contracts/ERC1155.sol\":8606:8619  _uri = newuri */\n      dup1\n      mload\n      tag_159\n      swap1\n        /* \"contracts/ERC1155.sol\":8606:8610  _uri */\n      0x02\n      swap1\n        /* \"contracts/ERC1155.sol\":8606:8619  _uri = newuri */\n      0x20\n      dup5\n      add\n      swap1\n      tag_208\n      jump\t// in\n        /* \"contracts/ERC1155.sol\":6440:7717  function _safeBatchTransferFrom(... */\n    tag_127:\n        /* \"contracts/ERC1155.sol\":6673:6680  amounts */\n      dup2\n        /* \"contracts/ERC1155.sol\":6673:6687  amounts.length */\n      mload\n        /* \"contracts/ERC1155.sol\":6659:6662  ids */\n      dup4\n        /* \"contracts/ERC1155.sol\":6659:6669  ids.length */\n      mload\n        /* \"contracts/ERC1155.sol\":6659:6687  ids.length == amounts.length */\n      eq\n        /* \"contracts/ERC1155.sol\":6638:6753  require(... */\n      tag_210\n      jumpi\n      mload(0x40)\n      shl(0xe5, 0x461bcd)\n      dup2\n      mstore\n        /* \"#utility.yul\":15912:15914   */\n      0x20\n        /* \"contracts/ERC1155.sol\":6638:6753  require(... */\n      0x04\n      dup3\n      add\n        /* \"#utility.yul\":15894:15915   */\n      mstore\n        /* \"#utility.yul\":15951:15953   */\n      0x28\n        /* \"#utility.yul\":15931:15949   */\n      0x24\n      dup3\n      add\n        /* \"#utility.yul\":15924:15954   */\n      mstore\n        /* \"#utility.yul\":15990:16024   */\n      0x455243313135353a2069647320616e6420616d6f756e7473206c656e67746820\n        /* \"#utility.yul\":15970:15988   */\n      0x44\n      dup3\n      add\n        /* \"#utility.yul\":15963:16025   */\n      mstore\n      shl(0xc3, 0x0dad2e6dac2e8c6d)\n        /* \"#utility.yul\":16041:16059   */\n      0x64\n      dup3\n      add\n        /* \"#utility.yul\":16034:16072   */\n      mstore\n        /* \"#utility.yul\":16089:16108   */\n      0x84\n      add\n        /* \"contracts/ERC1155.sol\":6638:6753  require(... */\n      tag_89\n        /* \"#utility.yul\":15710:16114   */\n      jump\n        /* \"contracts/ERC1155.sol\":6638:6753  require(... */\n    tag_210:\n      sub(shl(0xa0, 0x01), 0x01)\n        /* \"contracts/ERC1155.sol\":6771:6787  to != address(0) */\n      dup5\n      and\n        /* \"contracts/ERC1155.sol\":6763:6829  require(to != address(0), \"ERC1155: transfer to the zero address\") */\n      tag_213\n      jumpi\n      mload(0x40)\n      shl(0xe5, 0x461bcd)\n      dup2\n      mstore\n      0x04\n      add\n      tag_89\n      swap1\n      tag_215\n      jump\t// in\n    tag_213:\n        /* \"contracts/Context.sol\":719:729  msg.sender */\n      caller\n        /* \"contracts/ERC1155.sol\":6840:6856  address operator */\n      0x00\n        /* \"contracts/ERC1155.sol\":6953:7410  for (uint256 i = 0; i < ids.length; ++i) {... */\n    tag_219:\n        /* \"contracts/ERC1155.sol\":6977:6980  ids */\n      dup5\n        /* \"contracts/ERC1155.sol\":6977:6987  ids.length */\n      mload\n        /* \"contracts/ERC1155.sol\":6973:6974  i */\n      dup2\n        /* \"contracts/ERC1155.sol\":6973:6987  i < ids.length */\n      lt\n        /* \"contracts/ERC1155.sol\":6953:7410  for (uint256 i = 0; i < ids.length; ++i) {... */\n      iszero\n      tag_220\n      jumpi\n        /* \"contracts/ERC1155.sol\":7008:7018  uint256 id */\n      0x00\n        /* \"contracts/ERC1155.sol\":7021:7024  ids */\n      dup6\n        /* \"contracts/ERC1155.sol\":7025:7026  i */\n      dup3\n        /* \"contracts/ERC1155.sol\":7021:7027  ids[i] */\n      dup2\n      mload\n      dup2\n      lt\n      tag_223\n      jumpi\n      tag_223\n      tag_142\n      jump\t// in\n    tag_223:\n      0x20\n      mul\n      0x20\n      add\n      add\n      mload\n        /* \"contracts/ERC1155.sol\":7008:7027  uint256 id = ids[i] */\n      swap1\n      pop\n        /* \"contracts/ERC1155.sol\":7041:7055  uint256 amount */\n      0x00\n        /* \"contracts/ERC1155.sol\":7058:7065  amounts */\n      dup6\n        /* \"contracts/ERC1155.sol\":7066:7067  i */\n      dup4\n        /* \"contracts/ERC1155.sol\":7058:7068  amounts[i] */\n      dup2\n      mload\n      dup2\n      lt\n      tag_225\n      jumpi\n      tag_225\n      tag_142\n      jump\t// in\n    tag_225:\n      0x20\n      swap1\n      dup2\n      mul\n      swap2\n      swap1\n      swap2\n      add\n      dup2\n      add\n      mload\n        /* \"contracts/ERC1155.sol\":7083:7102  uint256 fromBalance */\n      0x00\n        /* \"contracts/ERC1155.sol\":7105:7118  _balances[id] */\n      dup5\n      dup2\n      mstore\n      dup1\n      dup4\n      mstore\n      0x40\n      dup1\n      dup3\n      keccak256\n      sub(shl(0xa0, 0x01), 0x01)\n        /* \"contracts/ERC1155.sol\":7105:7124  _balances[id][from] */\n      dup15\n      and\n      dup4\n      mstore\n      swap1\n      swap4\n      mstore\n      swap2\n      swap1\n      swap2\n      keccak256\n      sload\n        /* \"contracts/ERC1155.sol\":7058:7068  amounts[i] */\n      swap1\n      swap2\n      pop\n        /* \"contracts/ERC1155.sol\":7163:7184  fromBalance >= amount */\n      dup2\n      dup2\n      lt\n      iszero\n        /* \"contracts/ERC1155.sol\":7138:7260  require(... */\n      tag_226\n      jumpi\n      mload(0x40)\n      shl(0xe5, 0x461bcd)\n      dup2\n      mstore\n      0x04\n      add\n      tag_89\n      swap1\n      tag_228\n      jump\t// in\n    tag_226:\n        /* \"contracts/ERC1155.sol\":7302:7311  _balances */\n      0x00\n        /* \"contracts/ERC1155.sol\":7302:7315  _balances[id] */\n      dup4\n      dup2\n      mstore\n      0x20\n      dup2\n      dup2\n      mstore\n      0x40\n      dup1\n      dup4\n      keccak256\n      sub(shl(0xa0, 0x01), 0x01)\n        /* \"contracts/ERC1155.sol\":7302:7321  _balances[id][from] */\n      dup15\n      dup2\n      and\n      dup6\n      mstore\n      swap3\n      mstore\n      dup1\n      dup4\n      keccak256\n        /* \"contracts/ERC1155.sol\":7324:7344  fromBalance - amount */\n      dup6\n      dup6\n      sub\n        /* \"contracts/ERC1155.sol\":7302:7344  _balances[id][from] = fromBalance - amount */\n      swap1\n      sstore\n        /* \"contracts/ERC1155.sol\":7372:7389  _balances[id][to] */\n      swap1\n      dup12\n      and\n      dup3\n      mstore\n      dup2\n      keccak256\n        /* \"contracts/ERC1155.sol\":7372:7399  _balances[id][to] += amount */\n      dup1\n      sload\n        /* \"contracts/ERC1155.sol\":7324:7344  fromBalance - amount */\n      dup5\n      swap3\n        /* \"contracts/ERC1155.sol\":7302:7311  _balances */\n      swap1\n        /* \"contracts/ERC1155.sol\":7372:7399  _balances[id][to] += amount */\n      tag_229\n      swap1\n        /* \"contracts/ERC1155.sol\":7324:7344  fromBalance - amount */\n      dup5\n      swap1\n        /* \"contracts/ERC1155.sol\":7372:7399  _balances[id][to] += amount */\n      tag_230\n      jump\t// in\n    tag_229:\n      swap3\n      pop\n      pop\n      dup2\n      swap1\n      sstore\n      pop\n        /* \"contracts/ERC1155.sol\":6994:7410  {... */\n      pop\n      pop\n      pop\n        /* \"contracts/ERC1155.sol\":6989:6992  ++i */\n      dup1\n      tag_231\n      swap1\n      tag_148\n      jump\t// in\n    tag_231:\n      swap1\n      pop\n        /* \"contracts/ERC1155.sol\":6953:7410  for (uint256 i = 0; i < ids.length; ++i) {... */\n      jump(tag_219)\n    tag_220:\n      pop\n        /* \"contracts/ERC1155.sol\":7455:7457  to */\n      dup5\n      sub(shl(0xa0, 0x01), 0x01)\n        /* \"contracts/ERC1155.sol\":7425:7472  TransferBatch(operator, from, to, ids, amounts) */\n      and\n        /* \"contracts/ERC1155.sol\":7449:7453  from */\n      dup7\n      sub(shl(0xa0, 0x01), 0x01)\n        /* \"contracts/ERC1155.sol\":7425:7472  TransferBatch(operator, from, to, ids, amounts) */\n      and\n        /* \"contracts/ERC1155.sol\":7439:7447  operator */\n      dup3\n      sub(shl(0xa0, 0x01), 0x01)\n        /* \"contracts/ERC1155.sol\":7425:7472  TransferBatch(operator, from, to, ids, amounts) */\n      and\n      0x4a39dc06d4c0dbc64b70af90fd698a233a518aa5d07e595d983b8c0526c8f7fb\n        /* \"contracts/ERC1155.sol\":7459:7462  ids */\n      dup8\n        /* \"contracts/ERC1155.sol\":7464:7471  amounts */\n      dup8\n        /* \"contracts/ERC1155.sol\":7425:7472  TransferBatch(operator, from, to, ids, amounts) */\n      mload(0x40)\n      tag_232\n      swap3\n      swap2\n      swap1\n      tag_233\n      jump\t// in\n    tag_232:\n      mload(0x40)\n      dup1\n      swap2\n      sub\n      swap1\n      log4\n        /* \"contracts/ERC1155.sol\":7553:7710  _doSafeBatchTransferAcceptanceCheck(... */\n      tag_236\n        /* \"contracts/ERC1155.sol\":7602:7610  operator */\n      dup2\n        /* \"contracts/ERC1155.sol\":7624:7628  from */\n      dup8\n        /* \"contracts/ERC1155.sol\":7642:7644  to */\n      dup8\n        /* \"contracts/ERC1155.sol\":7658:7661  ids */\n      dup8\n        /* \"contracts/ERC1155.sol\":7675:7682  amounts */\n      dup8\n        /* \"contracts/ERC1155.sol\":7696:7700  data */\n      dup8\n        /* \"contracts/ERC1155.sol\":7553:7588  _doSafeBatchTransferAcceptanceCheck */\n      tag_237\n        /* \"contracts/ERC1155.sol\":7553:7710  _doSafeBatchTransferAcceptanceCheck(... */\n      jump\t// in\n    tag_236:\n        /* \"contracts/ERC1155.sol\":6628:7717  {... */\n      pop\n        /* \"contracts/ERC1155.sol\":6440:7717  function _safeBatchTransferFrom(... */\n      pop\n      pop\n      pop\n      pop\n      pop\n      jump\t// out\n        /* \"contracts/Ownable.sol\":2319:2506  function _transferOwnership(address newOwner) internal virtual {... */\n    tag_156:\n        /* \"contracts/Ownable.sol\":2411:2417  _owner */\n      0x03\n      dup1\n      sload\n      sub(shl(0xa0, 0x01), 0x01)\n        /* \"contracts/Ownable.sol\":2427:2444  _owner = newOwner */\n      dup4\n      dup2\n      and\n      not(sub(shl(0xa0, 0x01), 0x01))\n      dup4\n      and\n      dup2\n      or\n      swap1\n      swap4\n      sstore\n        /* \"contracts/Ownable.sol\":2459:2499  OwnershipTransferred(oldOwner, newOwner) */\n      mload(0x40)\n        /* \"contracts/Ownable.sol\":2411:2417  _owner */\n      swap2\n      and\n      swap2\n        /* \"contracts/Ownable.sol\":2427:2444  _owner = newOwner */\n      swap1\n        /* \"contracts/Ownable.sol\":2411:2417  _owner */\n      dup3\n      swap1\n        /* \"contracts/Ownable.sol\":2459:2499  OwnershipTransferred(oldOwner, newOwner) */\n      0x8be0079c531659141344cd1fd0a4f28419497f9722a3daafe3b4186f6b6457e0\n      swap1\n        /* \"contracts/Ownable.sol\":2392:2408  address oldOwner */\n      0x00\n      swap1\n        /* \"contracts/Ownable.sol\":2459:2499  OwnershipTransferred(oldOwner, newOwner) */\n      log3\n        /* \"contracts/Ownable.sol\":2382:2506  {... */\n      pop\n        /* \"contracts/Ownable.sol\":2319:2506  function _transferOwnership(address newOwner) internal virtual {... */\n      pop\n      jump\t// out\n        /* \"contracts/ERC1155.sol\":13326:13649  function _setApprovalForAll(... */\n    tag_161:\n        /* \"contracts/ERC1155.sol\":13476:13484  operator */\n      dup2\n      sub(shl(0xa0, 0x01), 0x01)\n        /* \"contracts/ERC1155.sol\":13467:13484  owner != operator */\n      and\n        /* \"contracts/ERC1155.sol\":13467:13472  owner */\n      dup4\n      sub(shl(0xa0, 0x01), 0x01)\n        /* \"contracts/ERC1155.sol\":13467:13484  owner != operator */\n      and\n      eq\n      iszero\n        /* \"contracts/ERC1155.sol\":13459:13530  require(owner != operator, \"ERC1155: setting approval status for self\") */\n      tag_240\n      jumpi\n      mload(0x40)\n      shl(0xe5, 0x461bcd)\n      dup2\n      mstore\n        /* \"#utility.yul\":15092:15094   */\n      0x20\n        /* \"contracts/ERC1155.sol\":13459:13530  require(owner != operator, \"ERC1155: setting approval status for self\") */\n      0x04\n      dup3\n      add\n        /* \"#utility.yul\":15074:15095   */\n      mstore\n        /* \"#utility.yul\":15131:15133   */\n      0x29\n        /* \"#utility.yul\":15111:15129   */\n      0x24\n      dup3\n      add\n        /* \"#utility.yul\":15104:15134   */\n      mstore\n        /* \"#utility.yul\":15170:15204   */\n      0x455243313135353a2073657474696e6720617070726f76616c20737461747573\n        /* \"#utility.yul\":15150:15168   */\n      0x44\n      dup3\n      add\n        /* \"#utility.yul\":15143:15205   */\n      mstore\n      shl(0xb9, 0x103337b91039b2b633)\n        /* \"#utility.yul\":15221:15239   */\n      0x64\n      dup3\n      add\n        /* \"#utility.yul\":15214:15253   */\n      mstore\n        /* \"#utility.yul\":15270:15289   */\n      0x84\n      add\n        /* \"contracts/ERC1155.sol\":13459:13530  require(owner != operator, \"ERC1155: setting approval status for self\") */\n      tag_89\n        /* \"#utility.yul\":14890:15295   */\n      jump\n        /* \"contracts/ERC1155.sol\":13459:13530  require(owner != operator, \"ERC1155: setting approval status for self\") */\n    tag_240:\n      sub(shl(0xa0, 0x01), 0x01)\n        /* \"contracts/ERC1155.sol\":13540:13565  _operatorApprovals[owner] */\n      dup4\n      dup2\n      and\n      0x00\n      dup2\n      dup2\n      mstore\n        /* \"contracts/ERC1155.sol\":13540:13558  _operatorApprovals */\n      0x01\n        /* \"contracts/ERC1155.sol\":13540:13565  _operatorApprovals[owner] */\n      0x20\n      swap1\n      dup2\n      mstore\n      0x40\n      dup1\n      dup4\n      keccak256\n        /* \"contracts/ERC1155.sol\":13540:13575  _operatorApprovals[owner][operator] */\n      swap5\n      dup8\n      and\n      dup1\n      dup5\n      mstore\n      swap5\n      dup3\n      mstore\n      swap2\n      dup3\n      swap1\n      keccak256\n        /* \"contracts/ERC1155.sol\":13540:13586  _operatorApprovals[owner][operator] = approved */\n      dup1\n      sload\n      not(0xff)\n      and\n      dup7\n      iszero\n      iszero\n      swap1\n      dup2\n      or\n      swap1\n      swap2\n      sstore\n        /* \"contracts/ERC1155.sol\":13601:13642  ApprovalForAll(owner, operator, approved) */\n      swap2\n      mload\n        /* \"#utility.yul\":10958:10999   */\n      swap2\n      dup3\n      mstore\n        /* \"contracts/ERC1155.sol\":13601:13642  ApprovalForAll(owner, operator, approved) */\n      0x17307eab39ab6107e8899845ad3d59bd9653f200f220920489ca2b5937696c31\n      swap2\n        /* \"#utility.yul\":10931:10949   */\n      add\n        /* \"contracts/ERC1155.sol\":13601:13642  ApprovalForAll(owner, operator, approved) */\n      mload(0x40)\n      dup1\n      swap2\n      sub\n      swap1\n      log3\n        /* \"contracts/ERC1155.sol\":13326:13649  function _setApprovalForAll(... */\n      pop\n      pop\n      pop\n      jump\t// out\n        /* \"contracts/ERC1155.sol\":8999:9696  function _mint(... */\n    tag_169:\n      sub(shl(0xa0, 0x01), 0x01)\n        /* \"contracts/ERC1155.sol\":9119:9135  to != address(0) */\n      dup4\n      and\n        /* \"contracts/ERC1155.sol\":9111:9173  require(to != address(0), \"ERC1155: mint to the zero address\") */\n      tag_245\n      jumpi\n      mload(0x40)\n      shl(0xe5, 0x461bcd)\n      dup2\n      mstore\n        /* \"#utility.yul\":16321:16323   */\n      0x20\n        /* \"contracts/ERC1155.sol\":9111:9173  require(to != address(0), \"ERC1155: mint to the zero address\") */\n      0x04\n      dup3\n      add\n        /* \"#utility.yul\":16303:16324   */\n      mstore\n        /* \"#utility.yul\":16360:16362   */\n      0x21\n        /* \"#utility.yul\":16340:16358   */\n      0x24\n      dup3\n      add\n        /* \"#utility.yul\":16333:16363   */\n      mstore\n        /* \"#utility.yul\":16399:16433   */\n      0x455243313135353a206d696e7420746f20746865207a65726f20616464726573\n        /* \"#utility.yul\":16379:16397   */\n      0x44\n      dup3\n      add\n        /* \"#utility.yul\":16372:16434   */\n      mstore\n      shl(0xf8, 0x73)\n        /* \"#utility.yul\":16450:16468   */\n      0x64\n      dup3\n      add\n        /* \"#utility.yul\":16443:16474   */\n      mstore\n        /* \"#utility.yul\":16491:16510   */\n      0x84\n      add\n        /* \"contracts/ERC1155.sol\":9111:9173  require(to != address(0), \"ERC1155: mint to the zero address\") */\n      tag_89\n        /* \"#utility.yul\":16119:16516   */\n      jump\n        /* \"contracts/ERC1155.sol\":9111:9173  require(to != address(0), \"ERC1155: mint to the zero address\") */\n    tag_245:\n        /* \"contracts/ERC1155.sol\":9184:9200  address operator */\n      0x00\n        /* \"contracts/ERC1155.sol\":9428:9441  _balances[id] */\n      dup3\n      dup2\n      mstore\n      0x20\n      dup2\n      dup2\n      mstore\n      0x40\n      dup1\n      dup4\n      keccak256\n      sub(shl(0xa0, 0x01), 0x01)\n        /* \"contracts/ERC1155.sol\":9428:9445  _balances[id][to] */\n      dup8\n      and\n      dup5\n      mstore\n      swap1\n      swap2\n      mstore\n      dup2\n      keccak256\n        /* \"contracts/ERC1155.sol\":9428:9455  _balances[id][to] += amount */\n      dup1\n      sload\n        /* \"contracts/Context.sol\":719:729  msg.sender */\n      caller\n      swap3\n        /* \"contracts/ERC1155.sol\":9449:9455  amount */\n      dup5\n      swap3\n        /* \"contracts/ERC1155.sol\":9428:9445  _balances[id][to] */\n      swap2\n        /* \"contracts/ERC1155.sol\":9428:9455  _balances[id][to] += amount */\n      tag_249\n      swap1\n        /* \"contracts/ERC1155.sol\":9449:9455  amount */\n      dup5\n      swap1\n        /* \"contracts/ERC1155.sol\":9428:9455  _balances[id][to] += amount */\n      tag_230\n      jump\t// in\n    tag_249:\n      swap1\n      swap2\n      sstore\n      pop\n      pop\n        /* \"contracts/ERC1155.sol\":9470:9522  TransferSingle(operator, address(0), to, id, amount) */\n      0x40\n      dup1\n      mload\n        /* \"#utility.yul\":16877:16902   */\n      dup5\n      dup2\n      mstore\n        /* \"#utility.yul\":16933:16935   */\n      0x20\n        /* \"#utility.yul\":16918:16936   */\n      dup2\n      add\n        /* \"#utility.yul\":16911:16945   */\n      dup5\n      swap1\n      mstore\n      sub(shl(0xa0, 0x01), 0x01)\n        /* \"contracts/ERC1155.sol\":9470:9522  TransferSingle(operator, address(0), to, id, amount) */\n      dup1\n      dup8\n      and\n      swap3\n        /* \"contracts/ERC1155.sol\":9503:9504  0 */\n      0x00\n      swap3\n        /* \"contracts/ERC1155.sol\":9470:9522  TransferSingle(operator, address(0), to, id, amount) */\n      swap2\n      dup6\n      and\n      swap2\n      0xc3d58168c5ae7397731d063d5bbf3d657854427343f4c083240f7aacaa2d0f62\n      swap2\n        /* \"#utility.yul\":16850:16868   */\n      add\n        /* \"contracts/ERC1155.sol\":9470:9522  TransferSingle(operator, address(0), to, id, amount) */\n      mload(0x40)\n      dup1\n      swap2\n      sub\n      swap1\n      log4\n        /* \"contracts/ERC1155.sol\":9101:9696  {... */\n      pop\n        /* \"contracts/ERC1155.sol\":8999:9696  function _mint(... */\n      pop\n      pop\n      pop\n      jump\t// out\n        /* \"contracts/ERC1155.sol\":5113:6094  function _safeTransferFrom(... */\n    tag_193:\n      sub(shl(0xa0, 0x01), 0x01)\n        /* \"contracts/ERC1155.sol\":5294:5310  to != address(0) */\n      dup5\n      and\n        /* \"contracts/ERC1155.sol\":5286:5352  require(to != address(0), \"ERC1155: transfer to the zero address\") */\n      tag_253\n      jumpi\n      mload(0x40)\n      shl(0xe5, 0x461bcd)\n      dup2\n      mstore\n      0x04\n      add\n      tag_89\n      swap1\n      tag_215\n      jump\t// in\n    tag_253:\n        /* \"contracts/Context.sol\":719:729  msg.sender */\n      caller\n        /* \"contracts/ERC1155.sol\":5363:5379  address operator */\n      0x00\n        /* \"contracts/ERC1155.sol\":5427:5448  _asSingletonArray(id) */\n      tag_256\n        /* \"contracts/ERC1155.sol\":5445:5447  id */\n      dup6\n        /* \"contracts/ERC1155.sol\":5427:5444  _asSingletonArray */\n      tag_257\n        /* \"contracts/ERC1155.sol\":5427:5448  _asSingletonArray(id) */\n      jump\t// in\n    tag_256:\n        /* \"contracts/ERC1155.sol\":5404:5448  uint256[] memory ids = _asSingletonArray(id) */\n      swap1\n      pop\n        /* \"contracts/ERC1155.sol\":5458:5482  uint256[] memory amounts */\n      0x00\n        /* \"contracts/ERC1155.sol\":5485:5510  _asSingletonArray(amount) */\n      tag_258\n        /* \"contracts/ERC1155.sol\":5503:5509  amount */\n      dup6\n        /* \"contracts/ERC1155.sol\":5485:5502  _asSingletonArray */\n      tag_257\n        /* \"contracts/ERC1155.sol\":5485:5510  _asSingletonArray(amount) */\n      jump\t// in\n    tag_258:\n        /* \"contracts/ERC1155.sol\":5458:5510  uint256[] memory amounts = _asSingletonArray(amount) */\n      swap1\n      pop\n        /* \"contracts/ERC1155.sol\":5592:5611  uint256 fromBalance */\n      0x00\n        /* \"contracts/ERC1155.sol\":5614:5627  _balances[id] */\n      dup7\n      dup2\n      mstore\n      0x20\n      dup2\n      dup2\n      mstore\n      0x40\n      dup1\n      dup4\n      keccak256\n      sub(shl(0xa0, 0x01), 0x01)\n        /* \"contracts/ERC1155.sol\":5614:5633  _balances[id][from] */\n      dup13\n      and\n      dup5\n      mstore\n      swap1\n      swap2\n      mstore\n      swap1\n      keccak256\n      sload\n        /* \"contracts/ERC1155.sol\":5664:5685  fromBalance >= amount */\n      dup6\n      dup2\n      lt\n      iszero\n        /* \"contracts/ERC1155.sol\":5643:5753  require(... */\n      tag_260\n      jumpi\n      mload(0x40)\n      shl(0xe5, 0x461bcd)\n      dup2\n      mstore\n      0x04\n      add\n      tag_89\n      swap1\n      tag_228\n      jump\t// in\n    tag_260:\n        /* \"contracts/ERC1155.sol\":5787:5796  _balances */\n      0x00\n        /* \"contracts/ERC1155.sol\":5787:5800  _balances[id] */\n      dup8\n      dup2\n      mstore\n      0x20\n      dup2\n      dup2\n      mstore\n      0x40\n      dup1\n      dup4\n      keccak256\n      sub(shl(0xa0, 0x01), 0x01)\n        /* \"contracts/ERC1155.sol\":5787:5806  _balances[id][from] */\n      dup14\n      dup2\n      and\n      dup6\n      mstore\n      swap3\n      mstore\n      dup1\n      dup4\n      keccak256\n        /* \"contracts/ERC1155.sol\":5809:5829  fromBalance - amount */\n      dup10\n      dup6\n      sub\n        /* \"contracts/ERC1155.sol\":5787:5829  _balances[id][from] = fromBalance - amount */\n      swap1\n      sstore\n        /* \"contracts/ERC1155.sol\":5849:5866  _balances[id][to] */\n      swap1\n      dup11\n      and\n      dup3\n      mstore\n      dup2\n      keccak256\n        /* \"contracts/ERC1155.sol\":5849:5876  _balances[id][to] += amount */\n      dup1\n      sload\n        /* \"contracts/ERC1155.sol\":5809:5829  fromBalance - amount */\n      dup9\n      swap3\n        /* \"contracts/ERC1155.sol\":5787:5796  _balances */\n      swap1\n        /* \"contracts/ERC1155.sol\":5849:5876  _balances[id][to] += amount */\n      tag_262\n      swap1\n        /* \"contracts/ERC1155.sol\":5809:5829  fromBalance - amount */\n      dup5\n      swap1\n        /* \"contracts/ERC1155.sol\":5849:5876  _balances[id][to] += amount */\n      tag_230\n      jump\t// in\n    tag_262:\n      swap1\n      swap2\n      sstore\n      pop\n      pop\n        /* \"contracts/ERC1155.sol\":5892:5938  TransferSingle(operator, from, to, id, amount) */\n      0x40\n      dup1\n      mload\n        /* \"#utility.yul\":16877:16902   */\n      dup9\n      dup2\n      mstore\n        /* \"#utility.yul\":16933:16935   */\n      0x20\n        /* \"#utility.yul\":16918:16936   */\n      dup2\n      add\n        /* \"#utility.yul\":16911:16945   */\n      dup9\n      swap1\n      mstore\n      sub(shl(0xa0, 0x01), 0x01)\n        /* \"contracts/ERC1155.sol\":5892:5938  TransferSingle(operator, from, to, id, amount) */\n      dup1\n      dup12\n      and\n      swap3\n      dup13\n      dup3\n      and\n      swap3\n      swap2\n      dup9\n      and\n      swap2\n      0xc3d58168c5ae7397731d063d5bbf3d657854427343f4c083240f7aacaa2d0f62\n      swap2\n        /* \"#utility.yul\":16850:16868   */\n      add\n        /* \"contracts/ERC1155.sol\":5892:5938  TransferSingle(operator, from, to, id, amount) */\n      mload(0x40)\n      dup1\n      swap2\n      sub\n      swap1\n      log4\n        /* \"contracts/ERC1155.sol\":6019:6087  _doSafeTransferAcceptanceCheck(operator, from, to, id, amount, data) */\n      tag_265\n        /* \"contracts/ERC1155.sol\":6050:6058  operator */\n      dup5\n        /* \"contracts/ERC1155.sol\":6060:6064  from */\n      dup11\n        /* \"contracts/ERC1155.sol\":6066:6068  to */\n      dup11\n        /* \"contracts/ERC1155.sol\":6070:6072  id */\n      dup11\n        /* \"contracts/ERC1155.sol\":6074:6080  amount */\n      dup11\n        /* \"contracts/ERC1155.sol\":6082:6086  data */\n      dup11\n        /* \"contracts/ERC1155.sol\":6019:6049  _doSafeTransferAcceptanceCheck */\n      tag_266\n        /* \"contracts/ERC1155.sol\":6019:6087  _doSafeTransferAcceptanceCheck(operator, from, to, id, amount, data) */\n      jump\t// in\n    tag_265:\n        /* \"contracts/ERC1155.sol\":5276:6094  {... */\n      pop\n      pop\n      pop\n      pop\n        /* \"contracts/ERC1155.sol\":5113:6094  function _safeTransferFrom(... */\n      pop\n      pop\n      pop\n      pop\n      pop\n      jump\t// out\n        /* \"contracts/ERC1155.sol\":16826:17772  function _doSafeBatchTransferAcceptanceCheck(... */\n    tag_237:\n      sub(shl(0xa0, 0x01), 0x01)\n        /* \"contracts/ERC1155.sol\":17058:17071  to.isContract */\n      dup5\n      and\n        /* \"contracts/Address.sol\":1465:1484  account.code.length */\n      extcodesize\n        /* \"contracts/Address.sol\":1465:1488  account.code.length > 0 */\n      iszero\n        /* \"contracts/ERC1155.sol\":17054:17766  if (to.isContract()) {... */\n      tag_236\n      jumpi\n        /* \"contracts/ERC1155.sol\":17109:17306  IERC1155Receiver(to).onERC1155BatchReceived(... */\n      mload(0x40)\n      shl(0xe0, 0xbc197c81)\n      dup2\n      mstore\n      sub(shl(0xa0, 0x01), 0x01)\n        /* \"contracts/ERC1155.sol\":17109:17152  IERC1155Receiver(to).onERC1155BatchReceived */\n      dup6\n      and\n      swap1\n      0xbc197c81\n      swap1\n        /* \"contracts/ERC1155.sol\":17109:17306  IERC1155Receiver(to).onERC1155BatchReceived(... */\n      tag_273\n      swap1\n        /* \"contracts/ERC1155.sol\":17174:17182  operator */\n      dup10\n      swap1\n        /* \"contracts/ERC1155.sol\":17204:17208  from */\n      dup10\n      swap1\n        /* \"contracts/ERC1155.sol\":17230:17233  ids */\n      dup9\n      swap1\n        /* \"contracts/ERC1155.sol\":17255:17262  amounts */\n      dup9\n      swap1\n        /* \"contracts/ERC1155.sol\":17284:17288  data */\n      dup9\n      swap1\n        /* \"contracts/ERC1155.sol\":17109:17306  IERC1155Receiver(to).onERC1155BatchReceived(... */\n      0x04\n      add\n      tag_274\n      jump\t// in\n    tag_273:\n      0x20\n      mload(0x40)\n      dup1\n      dup4\n      sub\n      dup2\n      0x00\n      dup8\n      dup1\n      extcodesize\n      iszero\n      dup1\n      iszero\n      tag_275\n      jumpi\n      0x00\n      dup1\n      revert\n    tag_275:\n      pop\n      gas\n      call\n      swap3\n      pop\n      pop\n      pop\n      dup1\n      iszero\n      tag_276\n      jumpi\n      pop\n      0x40\n      dup1\n      mload\n      0x1f\n      returndatasize\n      swap1\n      dup2\n      add\n      not(0x1f)\n      and\n      dup3\n      add\n      swap1\n      swap3\n      mstore\n      tag_277\n      swap2\n      dup2\n      add\n      swap1\n      tag_278\n      jump\t// in\n    tag_277:\n      0x01\n    tag_276:\n        /* \"contracts/ERC1155.sol\":17089:17756  try... */\n      tag_279\n      jumpi\n      tag_283\n      tag_284\n      jump\t// in\n    tag_283:\n      dup1\n      0x08c379a0\n      eq\n      iszero\n      tag_282\n      jumpi\n      pop\n      tag_285\n      tag_286\n      jump\t// in\n    tag_285:\n      dup1\n      tag_287\n      jumpi\n      pop\n      jump(tag_281)\n    tag_287:\n        /* \"contracts/ERC1155.sol\":17632:17638  reason */\n      dup1\n        /* \"contracts/ERC1155.sol\":17625:17639  revert(reason) */\n      mload(0x40)\n      shl(0xe5, 0x461bcd)\n      dup2\n      mstore\n      0x04\n      add\n      tag_89\n      swap2\n      swap1\n      tag_40\n      jump\t// in\n        /* \"contracts/ERC1155.sol\":17089:17756  try... */\n    tag_282:\n      pop\n    tag_281:\n        /* \"contracts/ERC1155.sol\":17679:17741  revert(\"ERC1155: transfer to non ERC1155Receiver implementer\") */\n      mload(0x40)\n      shl(0xe5, 0x461bcd)\n      dup2\n      mstore\n        /* \"#utility.yul\":11436:11438   */\n      0x20\n        /* \"contracts/ERC1155.sol\":17679:17741  revert(\"ERC1155: transfer to non ERC1155Receiver implementer\") */\n      0x04\n      dup3\n      add\n        /* \"#utility.yul\":11418:11439   */\n      mstore\n        /* \"#utility.yul\":11475:11477   */\n      0x34\n        /* \"#utility.yul\":11455:11473   */\n      0x24\n      dup3\n      add\n        /* \"#utility.yul\":11448:11478   */\n      mstore\n        /* \"#utility.yul\":11514:11548   */\n      0x455243313135353a207472616e7366657220746f206e6f6e2045524331313535\n        /* \"#utility.yul\":11494:11512   */\n      0x44\n      dup3\n      add\n        /* \"#utility.yul\":11487:11549   */\n      mstore\n      shl(0x61, 0x2932b1b2b4bb32b91034b6b83632b6b2b73a32b9)\n        /* \"#utility.yul\":11565:11583   */\n      0x64\n      dup3\n      add\n        /* \"#utility.yul\":11558:11608   */\n      mstore\n        /* \"#utility.yul\":11625:11644   */\n      0x84\n      add\n        /* \"contracts/ERC1155.sol\":17679:17741  revert(\"ERC1155: transfer to non ERC1155Receiver implementer\") */\n      tag_89\n        /* \"#utility.yul\":11234:11650   */\n      jump\n        /* \"contracts/ERC1155.sol\":17089:17756  try... */\n    tag_279:\n      not(sub(shl(0xe0, 0x01), 0x01))\n        /* \"contracts/ERC1155.sol\":17388:17448  response != IERC1155Receiver.onERC1155BatchReceived.selector */\n      dup2\n      and\n      shl(0xe0, 0xbc197c81)\n      eq\n        /* \"contracts/ERC1155.sol\":17363:17558  if (... */\n      tag_292\n      jumpi\n        /* \"contracts/ERC1155.sol\":17489:17539  revert(\"ERC1155: ERC1155Receiver rejected tokens\") */\n      mload(0x40)\n      shl(0xe5, 0x461bcd)\n      dup2\n      mstore\n      0x04\n      add\n      tag_89\n      swap1\n      tag_294\n      jump\t// in\n        /* \"contracts/ERC1155.sol\":17363:17558  if (... */\n    tag_292:\n        /* \"contracts/ERC1155.sol\":17319:17572  returns (bytes4 response) {... */\n      pop\n        /* \"contracts/ERC1155.sol\":16826:17772  function _doSafeBatchTransferAcceptanceCheck(... */\n      pop\n      pop\n      pop\n      pop\n      pop\n      pop\n      jump\t// out\n        /* \"contracts/ERC1155.sol\":17778:17999  function _asSingletonArray(uint256 element)... */\n    tag_257:\n        /* \"contracts/ERC1155.sol\":17925:17941  new uint256[](1) */\n      0x40\n      dup1\n      mload\n        /* \"contracts/ERC1155.sol\":17939:17940  1 */\n      0x01\n        /* \"contracts/ERC1155.sol\":17925:17941  new uint256[](1) */\n      dup1\n      dup3\n      mstore\n      dup2\n      dup4\n      add\n      swap1\n      swap3\n      mstore\n        /* \"contracts/ERC1155.sol\":17868:17884  uint256[] memory */\n      0x60\n      swap2\n        /* \"contracts/ERC1155.sol\":17900:17922  uint256[] memory array */\n      0x00\n      swap2\n        /* \"contracts/ERC1155.sol\":17925:17941  new uint256[](1) */\n      swap1\n      0x20\n      dup1\n      dup4\n      add\n      swap1\n      dup1\n      calldatasize\n      dup4\n      calldatacopy\n      add\n      swap1\n      pop\n      pop\n        /* \"contracts/ERC1155.sol\":17900:17941  uint256[] memory array = new uint256[](1) */\n      swap1\n      pop\n        /* \"contracts/ERC1155.sol\":17962:17969  element */\n      dup3\n        /* \"contracts/ERC1155.sol\":17951:17956  array */\n      dup2\n        /* \"contracts/ERC1155.sol\":17957:17958  0 */\n      0x00\n        /* \"contracts/ERC1155.sol\":17951:17959  array[0] */\n      dup2\n      mload\n      dup2\n      lt\n      tag_300\n      jumpi\n      tag_300\n      tag_142\n      jump\t// in\n    tag_300:\n      0x20\n      swap1\n      dup2\n      mul\n      swap2\n      swap1\n      swap2\n      add\n      add\n        /* \"contracts/ERC1155.sol\":17951:17969  array[0] = element */\n      mstore\n        /* \"contracts/ERC1155.sol\":17987:17992  array */\n      swap3\n        /* \"contracts/ERC1155.sol\":17778:17999  function _asSingletonArray(uint256 element)... */\n      swap2\n      pop\n      pop\n      jump\t// out\n        /* \"contracts/ERC1155.sol\":15949:16820  function _doSafeTransferAcceptanceCheck(... */\n    tag_266:\n      sub(shl(0xa0, 0x01), 0x01)\n        /* \"contracts/ERC1155.sol\":16156:16169  to.isContract */\n      dup5\n      and\n        /* \"contracts/Address.sol\":1465:1484  account.code.length */\n      extcodesize\n        /* \"contracts/Address.sol\":1465:1488  account.code.length > 0 */\n      iszero\n        /* \"contracts/ERC1155.sol\":16152:16814  if (to.isContract()) {... */\n      tag_236\n      jumpi\n        /* \"contracts/ERC1155.sol\":16207:16397  IERC1155Receiver(to).onERC1155Received(... */\n      mload(0x40)\n      shl(0xe0, 0xf23a6e61)\n      dup2\n      mstore\n      sub(shl(0xa0, 0x01), 0x01)\n        /* \"contracts/ERC1155.sol\":16207:16245  IERC1155Receiver(to).onERC1155Received */\n      dup6\n      and\n      swap1\n      0xf23a6e61\n      swap1\n        /* \"contracts/ERC1155.sol\":16207:16397  IERC1155Receiver(to).onERC1155Received(... */\n      tag_304\n      swap1\n        /* \"contracts/ERC1155.sol\":16267:16275  operator */\n      dup10\n      swap1\n        /* \"contracts/ERC1155.sol\":16297:16301  from */\n      dup10\n      swap1\n        /* \"contracts/ERC1155.sol\":16323:16325  id */\n      dup9\n      swap1\n        /* \"contracts/ERC1155.sol\":16347:16353  amount */\n      dup9\n      swap1\n        /* \"contracts/ERC1155.sol\":16375:16379  data */\n      dup9\n      swap1\n        /* \"contracts/ERC1155.sol\":16207:16397  IERC1155Receiver(to).onERC1155Received(... */\n      0x04\n      add\n      tag_305\n      jump\t// in\n    tag_304:\n      0x20\n      mload(0x40)\n      dup1\n      dup4\n      sub\n      dup2\n      0x00\n      dup8\n      dup1\n      extcodesize\n      iszero\n      dup1\n      iszero\n      tag_306\n      jumpi\n      0x00\n      dup1\n      revert\n    tag_306:\n      pop\n      gas\n      call\n      swap3\n      pop\n      pop\n      pop\n      dup1\n      iszero\n      tag_307\n      jumpi\n      pop\n      0x40\n      dup1\n      mload\n      0x1f\n      returndatasize\n      swap1\n      dup2\n      add\n      not(0x1f)\n      and\n      dup3\n      add\n      swap1\n      swap3\n      mstore\n      tag_308\n      swap2\n      dup2\n      add\n      swap1\n      tag_278\n      jump\t// in\n    tag_308:\n      0x01\n    tag_307:\n        /* \"contracts/ERC1155.sol\":16187:16804  try... */\n      tag_309\n      jumpi\n      tag_283\n      tag_284\n      jump\t// in\n    tag_309:\n      not(sub(shl(0xe0, 0x01), 0x01))\n        /* \"contracts/ERC1155.sol\":16458:16513  response != IERC1155Receiver.onERC1155Received.selector */\n      dup2\n      and\n      shl(0xe0, 0xf23a6e61)\n      eq\n        /* \"contracts/ERC1155.sol\":16454:16606  if (response != IERC1155Receiver.onERC1155Received.selector) {... */\n      tag_292\n      jumpi\n        /* \"contracts/ERC1155.sol\":16537:16587  revert(\"ERC1155: ERC1155Receiver rejected tokens\") */\n      mload(0x40)\n      shl(0xe5, 0x461bcd)\n      dup2\n      mstore\n      0x04\n      add\n      tag_89\n      swap1\n      tag_294\n      jump\t// in\n    tag_208:\n      dup3\n      dup1\n      sload\n      tag_322\n      swap1\n      tag_107\n      jump\t// in\n    tag_322:\n      swap1\n      0x00\n      mstore\n      keccak256(0x00, 0x20)\n      swap1\n      0x1f\n      add\n      0x20\n      swap1\n      div\n      dup2\n      add\n      swap3\n      dup3\n      tag_324\n      jumpi\n      0x00\n      dup6\n      sstore\n      jump(tag_327)\n    tag_324:\n      dup3\n      0x1f\n      lt\n      tag_325\n      jumpi\n      dup1\n      mload\n      not(0xff)\n      and\n      dup4\n      dup1\n      add\n      or\n      dup6\n      sstore\n      jump(tag_327)\n    tag_325:\n      dup3\n      dup1\n      add\n      0x01\n      add\n      dup6\n      sstore\n      dup3\n      iszero\n      tag_327\n      jumpi\n      swap2\n      dup3\n      add\n    tag_326:\n      dup3\n      dup2\n      gt\n      iszero\n      tag_327\n      jumpi\n      dup3\n      mload\n      dup3\n      sstore\n      swap2\n      0x20\n      add\n      swap2\n      swap1\n      0x01\n      add\n      swap1\n      jump(tag_326)\n    tag_327:\n      pop\n      tag_328\n      swap3\n      swap2\n      pop\n      tag_329\n      jump\t// in\n    tag_328:\n      pop\n      swap1\n      jump\t// out\n    tag_329:\n    tag_330:\n      dup1\n      dup3\n      gt\n      iszero\n      tag_328\n      jumpi\n      0x00\n      dup2\n      sstore\n      0x01\n      add\n      jump(tag_330)\n        /* \"#utility.yul\":14:482   */\n    tag_333:\n        /* \"#utility.yul\":78:83   */\n      0x00\n        /* \"#utility.yul\":112:130   */\n      0xffffffffffffffff\n        /* \"#utility.yul\":104:110   */\n      dup4\n        /* \"#utility.yul\":101:131   */\n      gt\n        /* \"#utility.yul\":98:154   */\n      iszero\n      tag_336\n      jumpi\n        /* \"#utility.yul\":134:152   */\n      tag_336\n      tag_134\n      jump\t// in\n    tag_336:\n        /* \"#utility.yul\":183:185   */\n      0x40\n        /* \"#utility.yul\":177:186   */\n      mload\n        /* \"#utility.yul\":195:264   */\n      tag_337\n        /* \"#utility.yul\":252:254   */\n      0x1f\n        /* \"#utility.yul\":231:246   */\n      dup6\n      add\n      not(0x1f)\n        /* \"#utility.yul\":227:256   */\n      and\n        /* \"#utility.yul\":258:262   */\n      0x20\n        /* \"#utility.yul\":223:263   */\n      add\n        /* \"#utility.yul\":177:186   */\n      dup3\n        /* \"#utility.yul\":195:264   */\n      tag_338\n      jump\t// in\n    tag_337:\n        /* \"#utility.yul\":282:288   */\n      dup1\n        /* \"#utility.yul\":273:288   */\n      swap2\n      pop\n        /* \"#utility.yul\":312:318   */\n      dup4\n        /* \"#utility.yul\":304:310   */\n      dup2\n        /* \"#utility.yul\":297:319   */\n      mstore\n        /* \"#utility.yul\":352:355   */\n      dup5\n        /* \"#utility.yul\":343:349   */\n      dup5\n        /* \"#utility.yul\":338:341   */\n      dup5\n        /* \"#utility.yul\":334:350   */\n      add\n        /* \"#utility.yul\":331:356   */\n      gt\n        /* \"#utility.yul\":328:373   */\n      iszero\n      tag_339\n      jumpi\n        /* \"#utility.yul\":369:370   */\n      0x00\n        /* \"#utility.yul\":366:367   */\n      dup1\n        /* \"#utility.yul\":359:371   */\n      revert\n        /* \"#utility.yul\":328:373   */\n    tag_339:\n        /* \"#utility.yul\":419:425   */\n      dup4\n        /* \"#utility.yul\":414:417   */\n      dup4\n        /* \"#utility.yul\":407:411   */\n      0x20\n        /* \"#utility.yul\":399:405   */\n      dup4\n        /* \"#utility.yul\":395:412   */\n      add\n        /* \"#utility.yul\":382:426   */\n      calldatacopy\n        /* \"#utility.yul\":474:475   */\n      0x00\n        /* \"#utility.yul\":467:471   */\n      0x20\n        /* \"#utility.yul\":458:464   */\n      dup6\n        /* \"#utility.yul\":450:456   */\n      dup4\n        /* \"#utility.yul\":446:465   */\n      add\n        /* \"#utility.yul\":442:472   */\n      add\n        /* \"#utility.yul\":435:476   */\n      mstore\n      pop\n        /* \"#utility.yul\":14:482   */\n      swap4\n      swap3\n      pop\n      pop\n      pop\n      jump\t// out\n        /* \"#utility.yul\":487:660   */\n    tag_340:\n        /* \"#utility.yul\":555:575   */\n      dup1\n      calldataload\n      sub(shl(0xa0, 0x01), 0x01)\n        /* \"#utility.yul\":604:635   */\n      dup2\n      and\n        /* \"#utility.yul\":594:636   */\n      dup2\n      eq\n        /* \"#utility.yul\":584:654   */\n      tag_342\n      jumpi\n        /* \"#utility.yul\":650:651   */\n      0x00\n        /* \"#utility.yul\":647:648   */\n      dup1\n        /* \"#utility.yul\":640:652   */\n      revert\n        /* \"#utility.yul\":584:654   */\n    tag_342:\n        /* \"#utility.yul\":487:660   */\n      swap2\n      swap1\n      pop\n      jump\t// out\n        /* \"#utility.yul\":665:1406   */\n    tag_343:\n        /* \"#utility.yul\":719:724   */\n      0x00\n        /* \"#utility.yul\":772:775   */\n      dup3\n        /* \"#utility.yul\":765:769   */\n      0x1f\n        /* \"#utility.yul\":757:763   */\n      dup4\n        /* \"#utility.yul\":753:770   */\n      add\n        /* \"#utility.yul\":749:776   */\n      slt\n        /* \"#utility.yul\":739:794   */\n      tag_345\n      jumpi\n        /* \"#utility.yul\":790:791   */\n      0x00\n        /* \"#utility.yul\":787:788   */\n      dup1\n        /* \"#utility.yul\":780:792   */\n      revert\n        /* \"#utility.yul\":739:794   */\n    tag_345:\n        /* \"#utility.yul\":826:832   */\n      dup2\n        /* \"#utility.yul\":813:833   */\n      calldataload\n        /* \"#utility.yul\":852:856   */\n      0x20\n        /* \"#utility.yul\":875:918   */\n      tag_346\n        /* \"#utility.yul\":915:917   */\n      dup3\n        /* \"#utility.yul\":875:918   */\n      tag_347\n      jump\t// in\n    tag_346:\n        /* \"#utility.yul\":947:949   */\n      0x40\n        /* \"#utility.yul\":941:950   */\n      mload\n        /* \"#utility.yul\":959:990   */\n      tag_348\n        /* \"#utility.yul\":987:989   */\n      dup3\n        /* \"#utility.yul\":979:985   */\n      dup3\n        /* \"#utility.yul\":959:990   */\n      tag_338\n      jump\t// in\n    tag_348:\n        /* \"#utility.yul\":1025:1043   */\n      dup4\n      dup2\n      mstore\n        /* \"#utility.yul\":1059:1074   */\n      dup3\n      dup2\n      add\n      swap2\n      pop\n        /* \"#utility.yul\":1094:1109   */\n      dup6\n      dup4\n      add\n        /* \"#utility.yul\":1144:1145   */\n      0x05\n        /* \"#utility.yul\":1140:1150   */\n      dup6\n      swap1\n      shl\n        /* \"#utility.yul\":1128:1151   */\n      dup8\n      add\n        /* \"#utility.yul\":1124:1156   */\n      dup5\n      add\n        /* \"#utility.yul\":1121:1162   */\n      dup9\n      lt\n        /* \"#utility.yul\":1118:1179   */\n      iszero\n      tag_349\n      jumpi\n        /* \"#utility.yul\":1175:1176   */\n      0x00\n        /* \"#utility.yul\":1172:1173   */\n      dup1\n        /* \"#utility.yul\":1165:1177   */\n      revert\n        /* \"#utility.yul\":1118:1179   */\n    tag_349:\n        /* \"#utility.yul\":1197:1198   */\n      0x00\n        /* \"#utility.yul\":1207:1376   */\n    tag_350:\n        /* \"#utility.yul\":1221:1223   */\n      dup6\n        /* \"#utility.yul\":1218:1219   */\n      dup2\n        /* \"#utility.yul\":1215:1224   */\n      lt\n        /* \"#utility.yul\":1207:1376   */\n      iszero\n      tag_352\n      jumpi\n        /* \"#utility.yul\":1278:1301   */\n      tag_353\n        /* \"#utility.yul\":1297:1300   */\n      dup3\n        /* \"#utility.yul\":1278:1301   */\n      tag_340\n      jump\t// in\n    tag_353:\n        /* \"#utility.yul\":1266:1302   */\n      dup5\n      mstore\n        /* \"#utility.yul\":1322:1334   */\n      swap3\n      dup5\n      add\n      swap3\n        /* \"#utility.yul\":1354:1366   */\n      swap1\n      dup5\n      add\n      swap1\n        /* \"#utility.yul\":1239:1240   */\n      0x01\n        /* \"#utility.yul\":1232:1241   */\n      add\n        /* \"#utility.yul\":1207:1376   */\n      jump(tag_350)\n    tag_352:\n      pop\n        /* \"#utility.yul\":1394:1400   */\n      swap1\n      swap8\n        /* \"#utility.yul\":665:1406   */\n      swap7\n      pop\n      pop\n      pop\n      pop\n      pop\n      pop\n      pop\n      jump\t// out\n        /* \"#utility.yul\":1411:2146   */\n    tag_354:\n        /* \"#utility.yul\":1465:1470   */\n      0x00\n        /* \"#utility.yul\":1518:1521   */\n      dup3\n        /* \"#utility.yul\":1511:1515   */\n      0x1f\n        /* \"#utility.yul\":1503:1509   */\n      dup4\n        /* \"#utility.yul\":1499:1516   */\n      add\n        /* \"#utility.yul\":1495:1522   */\n      slt\n        /* \"#utility.yul\":1485:1540   */\n      tag_356\n      jumpi\n        /* \"#utility.yul\":1536:1537   */\n      0x00\n        /* \"#utility.yul\":1533:1534   */\n      dup1\n        /* \"#utility.yul\":1526:1538   */\n      revert\n        /* \"#utility.yul\":1485:1540   */\n    tag_356:\n        /* \"#utility.yul\":1572:1578   */\n      dup2\n        /* \"#utility.yul\":1559:1579   */\n      calldataload\n        /* \"#utility.yul\":1598:1602   */\n      0x20\n        /* \"#utility.yul\":1621:1664   */\n      tag_357\n        /* \"#utility.yul\":1661:1663   */\n      dup3\n        /* \"#utility.yul\":1621:1664   */\n      tag_347\n      jump\t// in\n    tag_357:\n        /* \"#utility.yul\":1693:1695   */\n      0x40\n        /* \"#utility.yul\":1687:1696   */\n      mload\n        /* \"#utility.yul\":1705:1736   */\n      tag_358\n        /* \"#utility.yul\":1733:1735   */\n      dup3\n        /* \"#utility.yul\":1725:1731   */\n      dup3\n        /* \"#utility.yul\":1705:1736   */\n      tag_338\n      jump\t// in\n    tag_358:\n        /* \"#utility.yul\":1771:1789   */\n      dup4\n      dup2\n      mstore\n        /* \"#utility.yul\":1805:1820   */\n      dup3\n      dup2\n      add\n      swap2\n      pop\n        /* \"#utility.yul\":1840:1855   */\n      dup6\n      dup4\n      add\n        /* \"#utility.yul\":1890:1891   */\n      0x05\n        /* \"#utility.yul\":1886:1896   */\n      dup6\n      swap1\n      shl\n        /* \"#utility.yul\":1874:1897   */\n      dup8\n      add\n        /* \"#utility.yul\":1870:1902   */\n      dup5\n      add\n        /* \"#utility.yul\":1867:1908   */\n      dup9\n      lt\n        /* \"#utility.yul\":1864:1925   */\n      iszero\n      tag_359\n      jumpi\n        /* \"#utility.yul\":1921:1922   */\n      0x00\n        /* \"#utility.yul\":1918:1919   */\n      dup1\n        /* \"#utility.yul\":1911:1923   */\n      revert\n        /* \"#utility.yul\":1864:1925   */\n    tag_359:\n        /* \"#utility.yul\":1943:1944   */\n      0x00\n        /* \"#utility.yul\":1953:2116   */\n    tag_360:\n        /* \"#utility.yul\":1967:1969   */\n      dup6\n        /* \"#utility.yul\":1964:1965   */\n      dup2\n        /* \"#utility.yul\":1961:1970   */\n      lt\n        /* \"#utility.yul\":1953:2116   */\n      iszero\n      tag_352\n      jumpi\n        /* \"#utility.yul\":2024:2041   */\n      dup2\n      calldataload\n        /* \"#utility.yul\":2012:2042   */\n      dup5\n      mstore\n        /* \"#utility.yul\":2062:2074   */\n      swap3\n      dup5\n      add\n      swap3\n        /* \"#utility.yul\":2094:2106   */\n      swap1\n      dup5\n      add\n      swap1\n        /* \"#utility.yul\":1985:1986   */\n      0x01\n        /* \"#utility.yul\":1978:1987   */\n      add\n        /* \"#utility.yul\":1953:2116   */\n      jump(tag_360)\n        /* \"#utility.yul\":2151:2371   */\n    tag_363:\n        /* \"#utility.yul\":2193:2198   */\n      0x00\n        /* \"#utility.yul\":2246:2249   */\n      dup3\n        /* \"#utility.yul\":2239:2243   */\n      0x1f\n        /* \"#utility.yul\":2231:2237   */\n      dup4\n        /* \"#utility.yul\":2227:2244   */\n      add\n        /* \"#utility.yul\":2223:2250   */\n      slt\n        /* \"#utility.yul\":2213:2268   */\n      tag_365\n      jumpi\n        /* \"#utility.yul\":2264:2265   */\n      0x00\n        /* \"#utility.yul\":2261:2262   */\n      dup1\n        /* \"#utility.yul\":2254:2266   */\n      revert\n        /* \"#utility.yul\":2213:2268   */\n    tag_365:\n        /* \"#utility.yul\":2286:2365   */\n      tag_366\n        /* \"#utility.yul\":2361:2364   */\n      dup4\n        /* \"#utility.yul\":2352:2358   */\n      dup4\n        /* \"#utility.yul\":2339:2359   */\n      calldataload\n        /* \"#utility.yul\":2332:2336   */\n      0x20\n        /* \"#utility.yul\":2324:2330   */\n      dup6\n        /* \"#utility.yul\":2320:2337   */\n      add\n        /* \"#utility.yul\":2286:2365   */\n      tag_333\n      jump\t// in\n    tag_366:\n        /* \"#utility.yul\":2277:2365   */\n      swap4\n        /* \"#utility.yul\":2151:2371   */\n      swap3\n      pop\n      pop\n      pop\n      jump\t// out\n        /* \"#utility.yul\":2376:2562   */\n    tag_85:\n        /* \"#utility.yul\":2435:2441   */\n      0x00\n        /* \"#utility.yul\":2488:2490   */\n      0x20\n        /* \"#utility.yul\":2476:2485   */\n      dup3\n        /* \"#utility.yul\":2467:2474   */\n      dup5\n        /* \"#utility.yul\":2463:2486   */\n      sub\n        /* \"#utility.yul\":2459:2491   */\n      slt\n        /* \"#utility.yul\":2456:2508   */\n      iszero\n      tag_368\n      jumpi\n        /* \"#utility.yul\":2504:2505   */\n      0x00\n        /* \"#utility.yul\":2501:2502   */\n      dup1\n        /* \"#utility.yul\":2494:2506   */\n      revert\n        /* \"#utility.yul\":2456:2508   */\n    tag_368:\n        /* \"#utility.yul\":2527:2556   */\n      tag_366\n        /* \"#utility.yul\":2546:2555   */\n      dup3\n        /* \"#utility.yul\":2527:2556   */\n      tag_340\n      jump\t// in\n        /* \"#utility.yul\":2567:2827   */\n    tag_76:\n        /* \"#utility.yul\":2635:2641   */\n      0x00\n        /* \"#utility.yul\":2643:2649   */\n      dup1\n        /* \"#utility.yul\":2696:2698   */\n      0x40\n        /* \"#utility.yul\":2684:2693   */\n      dup4\n        /* \"#utility.yul\":2675:2682   */\n      dup6\n        /* \"#utility.yul\":2671:2694   */\n      sub\n        /* \"#utility.yul\":2667:2699   */\n      slt\n        /* \"#utility.yul\":2664:2716   */\n      iszero\n      tag_371\n      jumpi\n        /* \"#utility.yul\":2712:2713   */\n      0x00\n        /* \"#utility.yul\":2709:2710   */\n      dup1\n        /* \"#utility.yul\":2702:2714   */\n      revert\n        /* \"#utility.yul\":2664:2716   */\n    tag_371:\n        /* \"#utility.yul\":2735:2764   */\n      tag_372\n        /* \"#utility.yul\":2754:2763   */\n      dup4\n        /* \"#utility.yul\":2735:2764   */\n      tag_340\n      jump\t// in\n    tag_372:\n        /* \"#utility.yul\":2725:2764   */\n      swap2\n      pop\n        /* \"#utility.yul\":2783:2821   */\n      tag_373\n        /* \"#utility.yul\":2817:2819   */\n      0x20\n        /* \"#utility.yul\":2806:2815   */\n      dup5\n        /* \"#utility.yul\":2802:2820   */\n      add\n        /* \"#utility.yul\":2783:2821   */\n      tag_340\n      jump\t// in\n    tag_373:\n        /* \"#utility.yul\":2773:2821   */\n      swap1\n      pop\n        /* \"#utility.yul\":2567:2827   */\n      swap3\n      pop\n      swap3\n      swap1\n      pop\n      jump\t// out\n        /* \"#utility.yul\":2832:3775   */\n    tag_48:\n        /* \"#utility.yul\":2986:2992   */\n      0x00\n        /* \"#utility.yul\":2994:3000   */\n      dup1\n        /* \"#utility.yul\":3002:3008   */\n      0x00\n        /* \"#utility.yul\":3010:3016   */\n      dup1\n        /* \"#utility.yul\":3018:3024   */\n      0x00\n        /* \"#utility.yul\":3071:3074   */\n      0xa0\n        /* \"#utility.yul\":3059:3068   */\n      dup7\n        /* \"#utility.yul\":3050:3057   */\n      dup9\n        /* \"#utility.yul\":3046:3069   */\n      sub\n        /* \"#utility.yul\":3042:3075   */\n      slt\n        /* \"#utility.yul\":3039:3092   */\n      iszero\n      tag_375\n      jumpi\n        /* \"#utility.yul\":3088:3089   */\n      0x00\n        /* \"#utility.yul\":3085:3086   */\n      dup1\n        /* \"#utility.yul\":3078:3090   */\n      revert\n        /* \"#utility.yul\":3039:3092   */\n    tag_375:\n        /* \"#utility.yul\":3111:3140   */\n      tag_376\n        /* \"#utility.yul\":3130:3139   */\n      dup7\n        /* \"#utility.yul\":3111:3140   */\n      tag_340\n      jump\t// in\n    tag_376:\n        /* \"#utility.yul\":3101:3140   */\n      swap5\n      pop\n        /* \"#utility.yul\":3159:3197   */\n      tag_377\n        /* \"#utility.yul\":3193:3195   */\n      0x20\n        /* \"#utility.yul\":3182:3191   */\n      dup8\n        /* \"#utility.yul\":3178:3196   */\n      add\n        /* \"#utility.yul\":3159:3197   */\n      tag_340\n      jump\t// in\n    tag_377:\n        /* \"#utility.yul\":3149:3197   */\n      swap4\n      pop\n        /* \"#utility.yul\":3248:3250   */\n      0x40\n        /* \"#utility.yul\":3237:3246   */\n      dup7\n        /* \"#utility.yul\":3233:3251   */\n      add\n        /* \"#utility.yul\":3220:3252   */\n      calldataload\n        /* \"#utility.yul\":3271:3289   */\n      0xffffffffffffffff\n        /* \"#utility.yul\":3312:3314   */\n      dup1\n        /* \"#utility.yul\":3304:3310   */\n      dup3\n        /* \"#utility.yul\":3301:3315   */\n      gt\n        /* \"#utility.yul\":3298:3332   */\n      iszero\n      tag_378\n      jumpi\n        /* \"#utility.yul\":3328:3329   */\n      0x00\n        /* \"#utility.yul\":3325:3326   */\n      dup1\n        /* \"#utility.yul\":3318:3330   */\n      revert\n        /* \"#utility.yul\":3298:3332   */\n    tag_378:\n        /* \"#utility.yul\":3351:3412   */\n      tag_379\n        /* \"#utility.yul\":3404:3411   */\n      dup10\n        /* \"#utility.yul\":3395:3401   */\n      dup4\n        /* \"#utility.yul\":3384:3393   */\n      dup11\n        /* \"#utility.yul\":3380:3402   */\n      add\n        /* \"#utility.yul\":3351:3412   */\n      tag_354\n      jump\t// in\n    tag_379:\n        /* \"#utility.yul\":3341:3412   */\n      swap5\n      pop\n        /* \"#utility.yul\":3465:3467   */\n      0x60\n        /* \"#utility.yul\":3454:3463   */\n      dup9\n        /* \"#utility.yul\":3450:3468   */\n      add\n        /* \"#utility.yul\":3437:3469   */\n      calldataload\n        /* \"#utility.yul\":3421:3469   */\n      swap2\n      pop\n        /* \"#utility.yul\":3494:3496   */\n      dup1\n        /* \"#utility.yul\":3484:3492   */\n      dup3\n        /* \"#utility.yul\":3481:3497   */\n      gt\n        /* \"#utility.yul\":3478:3514   */\n      iszero\n      tag_380\n      jumpi\n        /* \"#utility.yul\":3510:3511   */\n      0x00\n        /* \"#utility.yul\":3507:3508   */\n      dup1\n        /* \"#utility.yul\":3500:3512   */\n      revert\n        /* \"#utility.yul\":3478:3514   */\n    tag_380:\n        /* \"#utility.yul\":3533:3596   */\n      tag_381\n        /* \"#utility.yul\":3588:3595   */\n      dup10\n        /* \"#utility.yul\":3577:3585   */\n      dup4\n        /* \"#utility.yul\":3566:3575   */\n      dup11\n        /* \"#utility.yul\":3562:3586   */\n      add\n        /* \"#utility.yul\":3533:3596   */\n      tag_354\n      jump\t// in\n    tag_381:\n        /* \"#utility.yul\":3523:3596   */\n      swap4\n      pop\n        /* \"#utility.yul\":3649:3652   */\n      0x80\n        /* \"#utility.yul\":3638:3647   */\n      dup9\n        /* \"#utility.yul\":3634:3653   */\n      add\n        /* \"#utility.yul\":3621:3654   */\n      calldataload\n        /* \"#utility.yul\":3605:3654   */\n      swap2\n      pop\n        /* \"#utility.yul\":3679:3681   */\n      dup1\n        /* \"#utility.yul\":3669:3677   */\n      dup3\n        /* \"#utility.yul\":3666:3682   */\n      gt\n        /* \"#utility.yul\":3663:3699   */\n      iszero\n      tag_382\n      jumpi\n        /* \"#utility.yul\":3695:3696   */\n      0x00\n        /* \"#utility.yul\":3692:3693   */\n      dup1\n        /* \"#utility.yul\":3685:3697   */\n      revert\n        /* \"#utility.yul\":3663:3699   */\n    tag_382:\n      pop\n        /* \"#utility.yul\":3718:3769   */\n      tag_383\n        /* \"#utility.yul\":3761:3768   */\n      dup9\n        /* \"#utility.yul\":3750:3758   */\n      dup3\n        /* \"#utility.yul\":3739:3748   */\n      dup10\n        /* \"#utility.yul\":3735:3759   */\n      add\n        /* \"#utility.yul\":3718:3769   */\n      tag_363\n      jump\t// in\n    tag_383:\n        /* \"#utility.yul\":3708:3769   */\n      swap2\n      pop\n      pop\n        /* \"#utility.yul\":2832:3775   */\n      swap3\n      swap6\n      pop\n      swap3\n      swap6\n      swap1\n      swap4\n      pop\n      jump\t// out\n        /* \"#utility.yul\":3780:4386   */\n    tag_81:\n        /* \"#utility.yul\":3884:3890   */\n      0x00\n        /* \"#utility.yul\":3892:3898   */\n      dup1\n        /* \"#utility.yul\":3900:3906   */\n      0x00\n        /* \"#utility.yul\":3908:3914   */\n      dup1\n        /* \"#utility.yul\":3916:3922   */\n      0x00\n        /* \"#utility.yul\":3969:3972   */\n      0xa0\n        /* \"#utility.yul\":3957:3966   */\n      dup7\n        /* \"#utility.yul\":3948:3955   */\n      dup9\n        /* \"#utility.yul\":3944:3967   */\n      sub\n        /* \"#utility.yul\":3940:3973   */\n      slt\n        /* \"#utility.yul\":3937:3990   */\n      iszero\n      tag_385\n      jumpi\n        /* \"#utility.yul\":3986:3987   */\n      0x00\n        /* \"#utility.yul\":3983:3984   */\n      dup1\n        /* \"#utility.yul\":3976:3988   */\n      revert\n        /* \"#utility.yul\":3937:3990   */\n    tag_385:\n        /* \"#utility.yul\":4009:4038   */\n      tag_386\n        /* \"#utility.yul\":4028:4037   */\n      dup7\n        /* \"#utility.yul\":4009:4038   */\n      tag_340\n      jump\t// in\n    tag_386:\n        /* \"#utility.yul\":3999:4038   */\n      swap5\n      pop\n        /* \"#utility.yul\":4057:4095   */\n      tag_387\n        /* \"#utility.yul\":4091:4093   */\n      0x20\n        /* \"#utility.yul\":4080:4089   */\n      dup8\n        /* \"#utility.yul\":4076:4094   */\n      add\n        /* \"#utility.yul\":4057:4095   */\n      tag_340\n      jump\t// in\n    tag_387:\n        /* \"#utility.yul\":4047:4095   */\n      swap4\n      pop\n        /* \"#utility.yul\":4142:4144   */\n      0x40\n        /* \"#utility.yul\":4131:4140   */\n      dup7\n        /* \"#utility.yul\":4127:4145   */\n      add\n        /* \"#utility.yul\":4114:4146   */\n      calldataload\n        /* \"#utility.yul\":4104:4146   */\n      swap3\n      pop\n        /* \"#utility.yul\":4193:4195   */\n      0x60\n        /* \"#utility.yul\":4182:4191   */\n      dup7\n        /* \"#utility.yul\":4178:4196   */\n      add\n        /* \"#utility.yul\":4165:4197   */\n      calldataload\n        /* \"#utility.yul\":4155:4197   */\n      swap2\n      pop\n        /* \"#utility.yul\":4248:4251   */\n      0x80\n        /* \"#utility.yul\":4237:4246   */\n      dup7\n        /* \"#utility.yul\":4233:4252   */\n      add\n        /* \"#utility.yul\":4220:4253   */\n      calldataload\n        /* \"#utility.yul\":4276:4294   */\n      0xffffffffffffffff\n        /* \"#utility.yul\":4268:4274   */\n      dup2\n        /* \"#utility.yul\":4265:4295   */\n      gt\n        /* \"#utility.yul\":4262:4312   */\n      iszero\n      tag_388\n      jumpi\n        /* \"#utility.yul\":4308:4309   */\n      0x00\n        /* \"#utility.yul\":4305:4306   */\n      dup1\n        /* \"#utility.yul\":4298:4310   */\n      revert\n        /* \"#utility.yul\":4262:4312   */\n    tag_388:\n        /* \"#utility.yul\":4331:4380   */\n      tag_383\n        /* \"#utility.yul\":4372:4379   */\n      dup9\n        /* \"#utility.yul\":4363:4369   */\n      dup3\n        /* \"#utility.yul\":4352:4361   */\n      dup10\n        /* \"#utility.yul\":4348:4370   */\n      add\n        /* \"#utility.yul\":4331:4380   */\n      tag_363\n      jump\t// in\n        /* \"#utility.yul\":4391:4738   */\n    tag_64:\n        /* \"#utility.yul\":4456:4462   */\n      0x00\n        /* \"#utility.yul\":4464:4470   */\n      dup1\n        /* \"#utility.yul\":4517:4519   */\n      0x40\n        /* \"#utility.yul\":4505:4514   */\n      dup4\n        /* \"#utility.yul\":4496:4503   */\n      dup6\n        /* \"#utility.yul\":4492:4515   */\n      sub\n        /* \"#utility.yul\":4488:4520   */\n      slt\n        /* \"#utility.yul\":4485:4537   */\n      iszero\n      tag_391\n      jumpi\n        /* \"#utility.yul\":4533:4534   */\n      0x00\n        /* \"#utility.yul\":4530:4531   */\n      dup1\n        /* \"#utility.yul\":4523:4535   */\n      revert\n        /* \"#utility.yul\":4485:4537   */\n    tag_391:\n        /* \"#utility.yul\":4556:4585   */\n      tag_392\n        /* \"#utility.yul\":4575:4584   */\n      dup4\n        /* \"#utility.yul\":4556:4585   */\n      tag_340\n      jump\t// in\n    tag_392:\n        /* \"#utility.yul\":4546:4585   */\n      swap2\n      pop\n        /* \"#utility.yul\":4635:4637   */\n      0x20\n        /* \"#utility.yul\":4624:4633   */\n      dup4\n        /* \"#utility.yul\":4620:4638   */\n      add\n        /* \"#utility.yul\":4607:4639   */\n      calldataload\n        /* \"#utility.yul\":4682:4687   */\n      dup1\n        /* \"#utility.yul\":4675:4688   */\n      iszero\n        /* \"#utility.yul\":4668:4689   */\n      iszero\n        /* \"#utility.yul\":4661:4666   */\n      dup2\n        /* \"#utility.yul\":4658:4690   */\n      eq\n        /* \"#utility.yul\":4648:4708   */\n      tag_393\n      jumpi\n        /* \"#utility.yul\":4704:4705   */\n      0x00\n        /* \"#utility.yul\":4701:4702   */\n      dup1\n        /* \"#utility.yul\":4694:4706   */\n      revert\n        /* \"#utility.yul\":4648:4708   */\n    tag_393:\n        /* \"#utility.yul\":4727:4732   */\n      dup1\n        /* \"#utility.yul\":4717:4732   */\n      swap2\n      pop\n      pop\n        /* \"#utility.yul\":4391:4738   */\n      swap3\n      pop\n      swap3\n      swap1\n      pop\n      jump\t// out\n        /* \"#utility.yul\":4743:4997   */\n    tag_23:\n        /* \"#utility.yul\":4811:4817   */\n      0x00\n        /* \"#utility.yul\":4819:4825   */\n      dup1\n        /* \"#utility.yul\":4872:4874   */\n      0x40\n        /* \"#utility.yul\":4860:4869   */\n      dup4\n        /* \"#utility.yul\":4851:4858   */\n      dup6\n        /* \"#utility.yul\":4847:4870   */\n      sub\n        /* \"#utility.yul\":4843:4875   */\n      slt\n        /* \"#utility.yul\":4840:4892   */\n      iszero\n      tag_395\n      jumpi\n        /* \"#utility.yul\":4888:4889   */\n      0x00\n        /* \"#utility.yul\":4885:4886   */\n      dup1\n        /* \"#utility.yul\":4878:4890   */\n      revert\n        /* \"#utility.yul\":4840:4892   */\n    tag_395:\n        /* \"#utility.yul\":4911:4940   */\n      tag_396\n        /* \"#utility.yul\":4930:4939   */\n      dup4\n        /* \"#utility.yul\":4911:4940   */\n      tag_340\n      jump\t// in\n    tag_396:\n        /* \"#utility.yul\":4901:4940   */\n      swap5\n        /* \"#utility.yul\":4987:4989   */\n      0x20\n        /* \"#utility.yul\":4972:4990   */\n      swap4\n      swap1\n      swap4\n      add\n        /* \"#utility.yul\":4959:4991   */\n      calldataload\n      swap4\n      pop\n      pop\n      pop\n        /* \"#utility.yul\":4743:4997   */\n      jump\t// out\n        /* \"#utility.yul\":5002:5324   */\n    tag_68:\n        /* \"#utility.yul\":5079:5085   */\n      0x00\n        /* \"#utility.yul\":5087:5093   */\n      dup1\n        /* \"#utility.yul\":5095:5101   */\n      0x00\n        /* \"#utility.yul\":5148:5150   */\n      0x60\n        /* \"#utility.yul\":5136:5145   */\n      dup5\n        /* \"#utility.yul\":5127:5134   */\n      dup7\n        /* \"#utility.yul\":5123:5146   */\n      sub\n        /* \"#utility.yul\":5119:5151   */\n      slt\n        /* \"#utility.yul\":5116:5168   */\n      iszero\n      tag_398\n      jumpi\n        /* \"#utility.yul\":5164:5165   */\n      0x00\n        /* \"#utility.yul\":5161:5162   */\n      dup1\n        /* \"#utility.yul\":5154:5166   */\n      revert\n        /* \"#utility.yul\":5116:5168   */\n    tag_398:\n        /* \"#utility.yul\":5187:5216   */\n      tag_399\n        /* \"#utility.yul\":5206:5215   */\n      dup5\n        /* \"#utility.yul\":5187:5216   */\n      tag_340\n      jump\t// in\n    tag_399:\n        /* \"#utility.yul\":5177:5216   */\n      swap6\n        /* \"#utility.yul\":5263:5265   */\n      0x20\n        /* \"#utility.yul\":5248:5266   */\n      dup6\n      add\n        /* \"#utility.yul\":5235:5267   */\n      calldataload\n      swap6\n      pop\n        /* \"#utility.yul\":5314:5316   */\n      0x40\n        /* \"#utility.yul\":5299:5317   */\n      swap1\n      swap5\n      add\n        /* \"#utility.yul\":5286:5318   */\n      calldataload\n      swap4\n        /* \"#utility.yul\":5002:5324   */\n      swap3\n      pop\n      pop\n      pop\n      jump\t// out\n        /* \"#utility.yul\":5329:5924   */\n    tag_52:\n        /* \"#utility.yul\":5447:5453   */\n      0x00\n        /* \"#utility.yul\":5455:5461   */\n      dup1\n        /* \"#utility.yul\":5508:5510   */\n      0x40\n        /* \"#utility.yul\":5496:5505   */\n      dup4\n        /* \"#utility.yul\":5487:5494   */\n      dup6\n        /* \"#utility.yul\":5483:5506   */\n      sub\n        /* \"#utility.yul\":5479:5511   */\n      slt\n        /* \"#utility.yul\":5476:5528   */\n      iszero\n      tag_401\n      jumpi\n        /* \"#utility.yul\":5524:5525   */\n      0x00\n        /* \"#utility.yul\":5521:5522   */\n      dup1\n        /* \"#utility.yul\":5514:5526   */\n      revert\n        /* \"#utility.yul\":5476:5528   */\n    tag_401:\n        /* \"#utility.yul\":5564:5573   */\n      dup3\n        /* \"#utility.yul\":5551:5574   */\n      calldataload\n        /* \"#utility.yul\":5593:5611   */\n      0xffffffffffffffff\n        /* \"#utility.yul\":5634:5636   */\n      dup1\n        /* \"#utility.yul\":5626:5632   */\n      dup3\n        /* \"#utility.yul\":5623:5637   */\n      gt\n        /* \"#utility.yul\":5620:5654   */\n      iszero\n      tag_402\n      jumpi\n        /* \"#utility.yul\":5650:5651   */\n      0x00\n        /* \"#utility.yul\":5647:5648   */\n      dup1\n        /* \"#utility.yul\":5640:5652   */\n      revert\n        /* \"#utility.yul\":5620:5654   */\n    tag_402:\n        /* \"#utility.yul\":5673:5734   */\n      tag_403\n        /* \"#utility.yul\":5726:5733   */\n      dup7\n        /* \"#utility.yul\":5717:5723   */\n      dup4\n        /* \"#utility.yul\":5706:5715   */\n      dup8\n        /* \"#utility.yul\":5702:5724   */\n      add\n        /* \"#utility.yul\":5673:5734   */\n      tag_343\n      jump\t// in\n    tag_403:\n        /* \"#utility.yul\":5663:5734   */\n      swap4\n      pop\n        /* \"#utility.yul\":5787:5789   */\n      0x20\n        /* \"#utility.yul\":5776:5785   */\n      dup6\n        /* \"#utility.yul\":5772:5790   */\n      add\n        /* \"#utility.yul\":5759:5791   */\n      calldataload\n        /* \"#utility.yul\":5743:5791   */\n      swap2\n      pop\n        /* \"#utility.yul\":5816:5818   */\n      dup1\n        /* \"#utility.yul\":5806:5814   */\n      dup3\n        /* \"#utility.yul\":5803:5819   */\n      gt\n        /* \"#utility.yul\":5800:5836   */\n      iszero\n      tag_404\n      jumpi\n        /* \"#utility.yul\":5832:5833   */\n      0x00\n        /* \"#utility.yul\":5829:5830   */\n      dup1\n        /* \"#utility.yul\":5822:5834   */\n      revert\n        /* \"#utility.yul\":5800:5836   */\n    tag_404:\n      pop\n        /* \"#utility.yul\":5855:5918   */\n      tag_405\n        /* \"#utility.yul\":5910:5917   */\n      dup6\n        /* \"#utility.yul\":5899:5907   */\n      dup3\n        /* \"#utility.yul\":5888:5897   */\n      dup7\n        /* \"#utility.yul\":5884:5908   */\n      add\n        /* \"#utility.yul\":5855:5918   */\n      tag_354\n      jump\t// in\n    tag_405:\n        /* \"#utility.yul\":5845:5918   */\n      swap2\n      pop\n      pop\n        /* \"#utility.yul\":5329:5924   */\n      swap3\n      pop\n      swap3\n      swap1\n      pop\n      jump\t// out\n        /* \"#utility.yul\":5929:6413   */\n    tag_72:\n        /* \"#utility.yul\":6031:6037   */\n      0x00\n        /* \"#utility.yul\":6039:6045   */\n      dup1\n        /* \"#utility.yul\":6047:6053   */\n      0x00\n        /* \"#utility.yul\":6100:6102   */\n      0x60\n        /* \"#utility.yul\":6088:6097   */\n      dup5\n        /* \"#utility.yul\":6079:6086   */\n      dup7\n        /* \"#utility.yul\":6075:6098   */\n      sub\n        /* \"#utility.yul\":6071:6103   */\n      slt\n        /* \"#utility.yul\":6068:6120   */\n      iszero\n      tag_407\n      jumpi\n        /* \"#utility.yul\":6116:6117   */\n      0x00\n        /* \"#utility.yul\":6113:6114   */\n      dup1\n        /* \"#utility.yul\":6106:6118   */\n      revert\n        /* \"#utility.yul\":6068:6120   */\n    tag_407:\n        /* \"#utility.yul\":6156:6165   */\n      dup4\n        /* \"#utility.yul\":6143:6166   */\n      calldataload\n        /* \"#utility.yul\":6189:6207   */\n      0xffffffffffffffff\n        /* \"#utility.yul\":6181:6187   */\n      dup2\n        /* \"#utility.yul\":6178:6208   */\n      gt\n        /* \"#utility.yul\":6175:6225   */\n      iszero\n      tag_408\n      jumpi\n        /* \"#utility.yul\":6221:6222   */\n      0x00\n        /* \"#utility.yul\":6218:6219   */\n      dup1\n        /* \"#utility.yul\":6211:6223   */\n      revert\n        /* \"#utility.yul\":6175:6225   */\n    tag_408:\n        /* \"#utility.yul\":6244:6305   */\n      tag_409\n        /* \"#utility.yul\":6297:6304   */\n      dup7\n        /* \"#utility.yul\":6288:6294   */\n      dup3\n        /* \"#utility.yul\":6277:6286   */\n      dup8\n        /* \"#utility.yul\":6273:6295   */\n      add\n        /* \"#utility.yul\":6244:6305   */\n      tag_343\n      jump\t// in\n    tag_409:\n        /* \"#utility.yul\":6234:6305   */\n      swap7\n        /* \"#utility.yul\":6352:6354   */\n      0x20\n        /* \"#utility.yul\":6337:6355   */\n      dup7\n      add\n        /* \"#utility.yul\":6324:6356   */\n      calldataload\n      swap7\n      pop\n        /* \"#utility.yul\":6403:6405   */\n      0x40\n        /* \"#utility.yul\":6388:6406   */\n      swap1\n      swap6\n      add\n        /* \"#utility.yul\":6375:6407   */\n      calldataload\n      swap5\n        /* \"#utility.yul\":5929:6413   */\n      swap4\n      pop\n      pop\n      pop\n      pop\n      jump\t// out\n        /* \"#utility.yul\":6418:6663   */\n    tag_29:\n        /* \"#utility.yul\":6476:6482   */\n      0x00\n        /* \"#utility.yul\":6529:6531   */\n      0x20\n        /* \"#utility.yul\":6517:6526   */\n      dup3\n        /* \"#utility.yul\":6508:6515   */\n      dup5\n        /* \"#utility.yul\":6504:6527   */\n      sub\n        /* \"#utility.yul\":6500:6532   */\n      slt\n        /* \"#utility.yul\":6497:6549   */\n      iszero\n      tag_411\n      jumpi\n        /* \"#utility.yul\":6545:6546   */\n      0x00\n        /* \"#utility.yul\":6542:6543   */\n      dup1\n        /* \"#utility.yul\":6535:6547   */\n      revert\n        /* \"#utility.yul\":6497:6549   */\n    tag_411:\n        /* \"#utility.yul\":6584:6593   */\n      dup2\n        /* \"#utility.yul\":6571:6594   */\n      calldataload\n        /* \"#utility.yul\":6603:6633   */\n      tag_366\n        /* \"#utility.yul\":6627:6632   */\n      dup2\n        /* \"#utility.yul\":6603:6633   */\n      tag_413\n      jump\t// in\n        /* \"#utility.yul\":6668:6917   */\n    tag_278:\n        /* \"#utility.yul\":6737:6743   */\n      0x00\n        /* \"#utility.yul\":6790:6792   */\n      0x20\n        /* \"#utility.yul\":6778:6787   */\n      dup3\n        /* \"#utility.yul\":6769:6776   */\n      dup5\n        /* \"#utility.yul\":6765:6788   */\n      sub\n        /* \"#utility.yul\":6761:6793   */\n      slt\n        /* \"#utility.yul\":6758:6810   */\n      iszero\n      tag_415\n      jumpi\n        /* \"#utility.yul\":6806:6807   */\n      0x00\n        /* \"#utility.yul\":6803:6804   */\n      dup1\n        /* \"#utility.yul\":6796:6808   */\n      revert\n        /* \"#utility.yul\":6758:6810   */\n    tag_415:\n        /* \"#utility.yul\":6838:6847   */\n      dup2\n        /* \"#utility.yul\":6832:6848   */\n      mload\n        /* \"#utility.yul\":6857:6887   */\n      tag_366\n        /* \"#utility.yul\":6881:6886   */\n      dup2\n        /* \"#utility.yul\":6857:6887   */\n      tag_413\n      jump\t// in\n        /* \"#utility.yul\":6922:7372   */\n    tag_35:\n        /* \"#utility.yul\":6991:6997   */\n      0x00\n        /* \"#utility.yul\":7044:7046   */\n      0x20\n        /* \"#utility.yul\":7032:7041   */\n      dup3\n        /* \"#utility.yul\":7023:7030   */\n      dup5\n        /* \"#utility.yul\":7019:7042   */\n      sub\n        /* \"#utility.yul\":7015:7047   */\n      slt\n        /* \"#utility.yul\":7012:7064   */\n      iszero\n      tag_418\n      jumpi\n        /* \"#utility.yul\":7060:7061   */\n      0x00\n        /* \"#utility.yul\":7057:7058   */\n      dup1\n        /* \"#utility.yul\":7050:7062   */\n      revert\n        /* \"#utility.yul\":7012:7064   */\n    tag_418:\n        /* \"#utility.yul\":7100:7109   */\n      dup2\n        /* \"#utility.yul\":7087:7110   */\n      calldataload\n        /* \"#utility.yul\":7133:7151   */\n      0xffffffffffffffff\n        /* \"#utility.yul\":7125:7131   */\n      dup2\n        /* \"#utility.yul\":7122:7152   */\n      gt\n        /* \"#utility.yul\":7119:7169   */\n      iszero\n      tag_419\n      jumpi\n        /* \"#utility.yul\":7165:7166   */\n      0x00\n        /* \"#utility.yul\":7162:7163   */\n      dup1\n        /* \"#utility.yul\":7155:7167   */\n      revert\n        /* \"#utility.yul\":7119:7169   */\n    tag_419:\n        /* \"#utility.yul\":7188:7210   */\n      dup3\n      add\n        /* \"#utility.yul\":7241:7245   */\n      0x1f\n        /* \"#utility.yul\":7233:7246   */\n      dup2\n      add\n        /* \"#utility.yul\":7229:7256   */\n      dup5\n      sgt\n        /* \"#utility.yul\":7219:7274   */\n      tag_420\n      jumpi\n        /* \"#utility.yul\":7270:7271   */\n      0x00\n        /* \"#utility.yul\":7267:7268   */\n      dup1\n        /* \"#utility.yul\":7260:7272   */\n      revert\n        /* \"#utility.yul\":7219:7274   */\n    tag_420:\n        /* \"#utility.yul\":7293:7366   */\n      tag_421\n        /* \"#utility.yul\":7358:7365   */\n      dup5\n        /* \"#utility.yul\":7353:7355   */\n      dup3\n        /* \"#utility.yul\":7340:7356   */\n      calldataload\n        /* \"#utility.yul\":7335:7337   */\n      0x20\n        /* \"#utility.yul\":7331:7333   */\n      dup5\n        /* \"#utility.yul\":7327:7338   */\n      add\n        /* \"#utility.yul\":7293:7366   */\n      tag_333\n      jump\t// in\n    tag_421:\n        /* \"#utility.yul\":7283:7366   */\n      swap5\n        /* \"#utility.yul\":6922:7372   */\n      swap4\n      pop\n      pop\n      pop\n      pop\n      jump\t// out\n        /* \"#utility.yul\":7377:7557   */\n    tag_43:\n        /* \"#utility.yul\":7436:7442   */\n      0x00\n        /* \"#utility.yul\":7489:7491   */\n      0x20\n        /* \"#utility.yul\":7477:7486   */\n      dup3\n        /* \"#utility.yul\":7468:7475   */\n      dup5\n        /* \"#utility.yul\":7464:7487   */\n      sub\n        /* \"#utility.yul\":7460:7492   */\n      slt\n        /* \"#utility.yul\":7457:7509   */\n      iszero\n      tag_423\n      jumpi\n        /* \"#utility.yul\":7505:7506   */\n      0x00\n        /* \"#utility.yul\":7502:7503   */\n      dup1\n        /* \"#utility.yul\":7495:7507   */\n      revert\n        /* \"#utility.yul\":7457:7509   */\n    tag_423:\n      pop\n        /* \"#utility.yul\":7528:7551   */\n      calldataload\n      swap2\n        /* \"#utility.yul\":7377:7557   */\n      swap1\n      pop\n      jump\t// out\n        /* \"#utility.yul\":7562:7997   */\n    tag_424:\n        /* \"#utility.yul\":7615:7618   */\n      0x00\n        /* \"#utility.yul\":7653:7658   */\n      dup2\n        /* \"#utility.yul\":7647:7659   */\n      mload\n        /* \"#utility.yul\":7680:7686   */\n      dup1\n        /* \"#utility.yul\":7675:7678   */\n      dup5\n        /* \"#utility.yul\":7668:7687   */\n      mstore\n        /* \"#utility.yul\":7706:7710   */\n      0x20\n        /* \"#utility.yul\":7735:7737   */\n      dup1\n        /* \"#utility.yul\":7730:7733   */\n      dup6\n        /* \"#utility.yul\":7726:7738   */\n      add\n        /* \"#utility.yul\":7719:7738   */\n      swap5\n      pop\n        /* \"#utility.yul\":7772:7774   */\n      dup1\n        /* \"#utility.yul\":7765:7770   */\n      dup5\n        /* \"#utility.yul\":7761:7775   */\n      add\n        /* \"#utility.yul\":7793:7794   */\n      0x00\n        /* \"#utility.yul\":7803:7972   */\n    tag_426:\n        /* \"#utility.yul\":7817:7823   */\n      dup4\n        /* \"#utility.yul\":7814:7815   */\n      dup2\n        /* \"#utility.yul\":7811:7824   */\n      lt\n        /* \"#utility.yul\":7803:7972   */\n      iszero\n      tag_428\n      jumpi\n        /* \"#utility.yul\":7878:7891   */\n      dup2\n      mload\n        /* \"#utility.yul\":7866:7892   */\n      dup8\n      mstore\n        /* \"#utility.yul\":7912:7924   */\n      swap6\n      dup3\n      add\n      swap6\n        /* \"#utility.yul\":7947:7962   */\n      swap1\n      dup3\n      add\n      swap1\n        /* \"#utility.yul\":7839:7840   */\n      0x01\n        /* \"#utility.yul\":7832:7841   */\n      add\n        /* \"#utility.yul\":7803:7972   */\n      jump(tag_426)\n    tag_428:\n      pop\n        /* \"#utility.yul\":7988:7991   */\n      swap5\n      swap6\n        /* \"#utility.yul\":7562:7997   */\n      swap5\n      pop\n      pop\n      pop\n      pop\n      pop\n      jump\t// out\n        /* \"#utility.yul\":8002:8473   */\n    tag_429:\n        /* \"#utility.yul\":8043:8046   */\n      0x00\n        /* \"#utility.yul\":8081:8086   */\n      dup2\n        /* \"#utility.yul\":8075:8087   */\n      mload\n        /* \"#utility.yul\":8108:8114   */\n      dup1\n        /* \"#utility.yul\":8103:8106   */\n      dup5\n        /* \"#utility.yul\":8096:8115   */\n      mstore\n        /* \"#utility.yul\":8133:8134   */\n      0x00\n        /* \"#utility.yul\":8143:8305   */\n    tag_431:\n        /* \"#utility.yul\":8157:8163   */\n      dup2\n        /* \"#utility.yul\":8154:8155   */\n      dup2\n        /* \"#utility.yul\":8151:8164   */\n      lt\n        /* \"#utility.yul\":8143:8305   */\n      iszero\n      tag_433\n      jumpi\n        /* \"#utility.yul\":8219:8223   */\n      0x20\n        /* \"#utility.yul\":8275:8288   */\n      dup2\n      dup6\n      add\n        /* \"#utility.yul\":8271:8293   */\n      dup2\n      add\n        /* \"#utility.yul\":8265:8294   */\n      mload\n        /* \"#utility.yul\":8247:8258   */\n      dup7\n      dup4\n      add\n        /* \"#utility.yul\":8243:8263   */\n      dup3\n      add\n        /* \"#utility.yul\":8236:8295   */\n      mstore\n        /* \"#utility.yul\":8172:8184   */\n      add\n        /* \"#utility.yul\":8143:8305   */\n      jump(tag_431)\n    tag_433:\n        /* \"#utility.yul\":8323:8329   */\n      dup2\n        /* \"#utility.yul\":8320:8321   */\n      dup2\n        /* \"#utility.yul\":8317:8330   */\n      gt\n        /* \"#utility.yul\":8314:8401   */\n      iszero\n      tag_434\n      jumpi\n        /* \"#utility.yul\":8389:8390   */\n      0x00\n        /* \"#utility.yul\":8382:8386   */\n      0x20\n        /* \"#utility.yul\":8373:8379   */\n      dup4\n        /* \"#utility.yul\":8368:8371   */\n      dup8\n        /* \"#utility.yul\":8364:8380   */\n      add\n        /* \"#utility.yul\":8360:8387   */\n      add\n        /* \"#utility.yul\":8353:8391   */\n      mstore\n        /* \"#utility.yul\":8314:8401   */\n    tag_434:\n      pop\n        /* \"#utility.yul\":8455:8457   */\n      0x1f\n        /* \"#utility.yul\":8434:8449   */\n      add\n      not(0x1f)\n        /* \"#utility.yul\":8430:8459   */\n      and\n        /* \"#utility.yul\":8421:8460   */\n      swap3\n      swap1\n      swap3\n      add\n        /* \"#utility.yul\":8462:8466   */\n      0x20\n        /* \"#utility.yul\":8417:8467   */\n      add\n      swap3\n        /* \"#utility.yul\":8002:8473   */\n      swap2\n      pop\n      pop\n      jump\t// out\n        /* \"#utility.yul\":8686:9512   */\n    tag_274:\n      sub(shl(0xa0, 0x01), 0x01)\n        /* \"#utility.yul\":9083:9098   */\n      dup7\n      dup2\n      and\n        /* \"#utility.yul\":9065:9099   */\n      dup3\n      mstore\n        /* \"#utility.yul\":9135:9150   */\n      dup6\n      and\n        /* \"#utility.yul\":9130:9132   */\n      0x20\n        /* \"#utility.yul\":9115:9133   */\n      dup3\n      add\n        /* \"#utility.yul\":9108:9151   */\n      mstore\n        /* \"#utility.yul\":9045:9048   */\n      0xa0\n        /* \"#utility.yul\":9182:9184   */\n      0x40\n        /* \"#utility.yul\":9167:9185   */\n      dup3\n      add\n        /* \"#utility.yul\":9160:9191   */\n      dup2\n      swap1\n      mstore\n        /* \"#utility.yul\":9008:9012   */\n      0x00\n      swap1\n        /* \"#utility.yul\":9214:9271   */\n      tag_437\n      swap1\n        /* \"#utility.yul\":9251:9270   */\n      dup4\n      add\n        /* \"#utility.yul\":9243:9249   */\n      dup7\n        /* \"#utility.yul\":9214:9271   */\n      tag_424\n      jump\t// in\n    tag_437:\n        /* \"#utility.yul\":9319:9328   */\n      dup3\n        /* \"#utility.yul\":9311:9317   */\n      dup2\n        /* \"#utility.yul\":9307:9329   */\n      sub\n        /* \"#utility.yul\":9302:9304   */\n      0x60\n        /* \"#utility.yul\":9291:9300   */\n      dup5\n        /* \"#utility.yul\":9287:9305   */\n      add\n        /* \"#utility.yul\":9280:9330   */\n      mstore\n        /* \"#utility.yul\":9353:9397   */\n      tag_438\n        /* \"#utility.yul\":9390:9396   */\n      dup2\n        /* \"#utility.yul\":9382:9388   */\n      dup7\n        /* \"#utility.yul\":9353:9397   */\n      tag_424\n      jump\t// in\n    tag_438:\n        /* \"#utility.yul\":9339:9397   */\n      swap1\n      pop\n        /* \"#utility.yul\":9446:9455   */\n      dup3\n        /* \"#utility.yul\":9438:9444   */\n      dup2\n        /* \"#utility.yul\":9434:9456   */\n      sub\n        /* \"#utility.yul\":9428:9431   */\n      0x80\n        /* \"#utility.yul\":9417:9426   */\n      dup5\n        /* \"#utility.yul\":9413:9432   */\n      add\n        /* \"#utility.yul\":9406:9457   */\n      mstore\n        /* \"#utility.yul\":9474:9506   */\n      tag_439\n        /* \"#utility.yul\":9499:9505   */\n      dup2\n        /* \"#utility.yul\":9491:9497   */\n      dup6\n        /* \"#utility.yul\":9474:9506   */\n      tag_429\n      jump\t// in\n    tag_439:\n        /* \"#utility.yul\":9466:9506   */\n      swap9\n        /* \"#utility.yul\":8686:9512   */\n      swap8\n      pop\n      pop\n      pop\n      pop\n      pop\n      pop\n      pop\n      pop\n      jump\t// out\n        /* \"#utility.yul\":9517:10077   */\n    tag_305:\n      sub(shl(0xa0, 0x01), 0x01)\n        /* \"#utility.yul\":9814:9829   */\n      dup7\n      dup2\n      and\n        /* \"#utility.yul\":9796:9830   */\n      dup3\n      mstore\n        /* \"#utility.yul\":9866:9881   */\n      dup6\n      and\n        /* \"#utility.yul\":9861:9863   */\n      0x20\n        /* \"#utility.yul\":9846:9864   */\n      dup3\n      add\n        /* \"#utility.yul\":9839:9882   */\n      mstore\n        /* \"#utility.yul\":9913:9915   */\n      0x40\n        /* \"#utility.yul\":9898:9916   */\n      dup2\n      add\n        /* \"#utility.yul\":9891:9925   */\n      dup5\n      swap1\n      mstore\n        /* \"#utility.yul\":9956:9958   */\n      0x60\n        /* \"#utility.yul\":9941:9959   */\n      dup2\n      add\n        /* \"#utility.yul\":9934:9968   */\n      dup4\n      swap1\n      mstore\n        /* \"#utility.yul\":9776:9779   */\n      0xa0\n        /* \"#utility.yul\":9999:10002   */\n      0x80\n        /* \"#utility.yul\":9984:10003   */\n      dup3\n      add\n        /* \"#utility.yul\":9977:10009   */\n      dup2\n      swap1\n      mstore\n        /* \"#utility.yul\":9739:9743   */\n      0x00\n      swap1\n        /* \"#utility.yul\":10026:10071   */\n      tag_441\n      swap1\n        /* \"#utility.yul\":10051:10070   */\n      dup4\n      add\n        /* \"#utility.yul\":10043:10049   */\n      dup5\n        /* \"#utility.yul\":10026:10071   */\n      tag_429\n      jump\t// in\n    tag_441:\n        /* \"#utility.yul\":10018:10071   */\n      swap8\n        /* \"#utility.yul\":9517:10077   */\n      swap7\n      pop\n      pop\n      pop\n      pop\n      pop\n      pop\n      pop\n      jump\t// out\n        /* \"#utility.yul\":10082:10343   */\n    tag_55:\n        /* \"#utility.yul\":10261:10263   */\n      0x20\n        /* \"#utility.yul\":10250:10259   */\n      dup2\n        /* \"#utility.yul\":10243:10264   */\n      mstore\n        /* \"#utility.yul\":10224:10228   */\n      0x00\n        /* \"#utility.yul\":10281:10337   */\n      tag_366\n        /* \"#utility.yul\":10333:10335   */\n      0x20\n        /* \"#utility.yul\":10322:10331   */\n      dup4\n        /* \"#utility.yul\":10318:10336   */\n      add\n        /* \"#utility.yul\":10310:10316   */\n      dup5\n        /* \"#utility.yul\":10281:10337   */\n      tag_424\n      jump\t// in\n        /* \"#utility.yul\":10348:10813   */\n    tag_233:\n        /* \"#utility.yul\":10605:10607   */\n      0x40\n        /* \"#utility.yul\":10594:10603   */\n      dup2\n        /* \"#utility.yul\":10587:10608   */\n      mstore\n        /* \"#utility.yul\":10568:10572   */\n      0x00\n        /* \"#utility.yul\":10631:10687   */\n      tag_445\n        /* \"#utility.yul\":10683:10685   */\n      0x40\n        /* \"#utility.yul\":10672:10681   */\n      dup4\n        /* \"#utility.yul\":10668:10686   */\n      add\n        /* \"#utility.yul\":10660:10666   */\n      dup6\n        /* \"#utility.yul\":10631:10687   */\n      tag_424\n      jump\t// in\n    tag_445:\n        /* \"#utility.yul\":10735:10744   */\n      dup3\n        /* \"#utility.yul\":10727:10733   */\n      dup2\n        /* \"#utility.yul\":10723:10745   */\n      sub\n        /* \"#utility.yul\":10718:10720   */\n      0x20\n        /* \"#utility.yul\":10707:10716   */\n      dup5\n        /* \"#utility.yul\":10703:10721   */\n      add\n        /* \"#utility.yul\":10696:10746   */\n      mstore\n        /* \"#utility.yul\":10763:10807   */\n      tag_446\n        /* \"#utility.yul\":10800:10806   */\n      dup2\n        /* \"#utility.yul\":10792:10798   */\n      dup6\n        /* \"#utility.yul\":10763:10807   */\n      tag_424\n      jump\t// in\n    tag_446:\n        /* \"#utility.yul\":10755:10807   */\n      swap6\n        /* \"#utility.yul\":10348:10813   */\n      swap5\n      pop\n      pop\n      pop\n      pop\n      pop\n      jump\t// out\n        /* \"#utility.yul\":11010:11229   */\n    tag_40:\n        /* \"#utility.yul\":11159:11161   */\n      0x20\n        /* \"#utility.yul\":11148:11157   */\n      dup2\n        /* \"#utility.yul\":11141:11162   */\n      mstore\n        /* \"#utility.yul\":11122:11126   */\n      0x00\n        /* \"#utility.yul\":11179:11223   */\n      tag_366\n        /* \"#utility.yul\":11219:11221   */\n      0x20\n        /* \"#utility.yul\":11208:11217   */\n      dup4\n        /* \"#utility.yul\":11204:11222   */\n      add\n        /* \"#utility.yul\":11196:11202   */\n      dup5\n        /* \"#utility.yul\":11179:11223   */\n      tag_429\n      jump\t// in\n        /* \"#utility.yul\":11655:12059   */\n    tag_294:\n        /* \"#utility.yul\":11857:11859   */\n      0x20\n        /* \"#utility.yul\":11839:11860   */\n      dup1\n      dup3\n      mstore\n        /* \"#utility.yul\":11896:11898   */\n      0x28\n        /* \"#utility.yul\":11876:11894   */\n      swap1\n      dup3\n      add\n        /* \"#utility.yul\":11869:11899   */\n      mstore\n        /* \"#utility.yul\":11935:11969   */\n      0x455243313135353a204552433131353552656365697665722072656a65637465\n        /* \"#utility.yul\":11930:11932   */\n      0x40\n        /* \"#utility.yul\":11915:11933   */\n      dup3\n      add\n        /* \"#utility.yul\":11908:11970   */\n      mstore\n      shl(0xc0, 0x6420746f6b656e73)\n        /* \"#utility.yul\":12001:12003   */\n      0x60\n        /* \"#utility.yul\":11986:12004   */\n      dup3\n      add\n        /* \"#utility.yul\":11979:12017   */\n      mstore\n        /* \"#utility.yul\":12049:12052   */\n      0x80\n        /* \"#utility.yul\":12034:12053   */\n      add\n      swap1\n        /* \"#utility.yul\":11655:12059   */\n      jump\t// out\n        /* \"#utility.yul\":13293:13694   */\n    tag_215:\n        /* \"#utility.yul\":13495:13497   */\n      0x20\n        /* \"#utility.yul\":13477:13498   */\n      dup1\n      dup3\n      mstore\n        /* \"#utility.yul\":13534:13536   */\n      0x25\n        /* \"#utility.yul\":13514:13532   */\n      swap1\n      dup3\n      add\n        /* \"#utility.yul\":13507:13537   */\n      mstore\n        /* \"#utility.yul\":13573:13607   */\n      0x455243313135353a207472616e7366657220746f20746865207a65726f206164\n        /* \"#utility.yul\":13568:13570   */\n      0x40\n        /* \"#utility.yul\":13553:13571   */\n      dup3\n      add\n        /* \"#utility.yul\":13546:13608   */\n      mstore\n      shl(0xd8, 0x6472657373)\n        /* \"#utility.yul\":13639:13641   */\n      0x60\n        /* \"#utility.yul\":13624:13642   */\n      dup3\n      add\n        /* \"#utility.yul\":13617:13652   */\n      mstore\n        /* \"#utility.yul\":13684:13687   */\n      0x80\n        /* \"#utility.yul\":13669:13688   */\n      add\n      swap1\n        /* \"#utility.yul\":13293:13694   */\n      jump\t// out\n        /* \"#utility.yul\":14118:14524   */\n    tag_228:\n        /* \"#utility.yul\":14320:14322   */\n      0x20\n        /* \"#utility.yul\":14302:14323   */\n      dup1\n      dup3\n      mstore\n        /* \"#utility.yul\":14359:14361   */\n      0x2a\n        /* \"#utility.yul\":14339:14357   */\n      swap1\n      dup3\n      add\n        /* \"#utility.yul\":14332:14362   */\n      mstore\n        /* \"#utility.yul\":14398:14432   */\n      0x455243313135353a20696e73756666696369656e742062616c616e636520666f\n        /* \"#utility.yul\":14393:14395   */\n      0x40\n        /* \"#utility.yul\":14378:14396   */\n      dup3\n      add\n        /* \"#utility.yul\":14371:14433   */\n      mstore\n      shl(0xb1, 0x39103a3930b739b332b9)\n        /* \"#utility.yul\":14464:14466   */\n      0x60\n        /* \"#utility.yul\":14449:14467   */\n      dup3\n      add\n        /* \"#utility.yul\":14442:14482   */\n      mstore\n        /* \"#utility.yul\":14514:14517   */\n      0x80\n        /* \"#utility.yul\":14499:14518   */\n      add\n      swap1\n        /* \"#utility.yul\":14118:14524   */\n      jump\t// out\n        /* \"#utility.yul\":14529:14885   */\n    tag_102:\n        /* \"#utility.yul\":14731:14733   */\n      0x20\n        /* \"#utility.yul\":14713:14734   */\n      dup1\n      dup3\n      mstore\n        /* \"#utility.yul\":14750:14768   */\n      dup2\n      dup2\n      add\n        /* \"#utility.yul\":14743:14773   */\n      mstore\n        /* \"#utility.yul\":14809:14843   */\n      0x4f776e61626c653a2063616c6c6572206973206e6f7420746865206f776e6572\n        /* \"#utility.yul\":14804:14806   */\n      0x40\n        /* \"#utility.yul\":14789:14807   */\n      dup3\n      add\n        /* \"#utility.yul\":14782:14844   */\n      mstore\n        /* \"#utility.yul\":14876:14878   */\n      0x60\n        /* \"#utility.yul\":14861:14879   */\n      add\n      swap1\n        /* \"#utility.yul\":14529:14885   */\n      jump\t// out\n        /* \"#utility.yul\":16956:17139   */\n    tag_347:\n        /* \"#utility.yul\":17016:17020   */\n      0x00\n        /* \"#utility.yul\":17049:17067   */\n      0xffffffffffffffff\n        /* \"#utility.yul\":17041:17047   */\n      dup3\n        /* \"#utility.yul\":17038:17068   */\n      gt\n        /* \"#utility.yul\":17035:17091   */\n      iszero\n      tag_467\n      jumpi\n        /* \"#utility.yul\":17071:17089   */\n      tag_467\n      tag_134\n      jump\t// in\n    tag_467:\n      pop\n        /* \"#utility.yul\":17116:17117   */\n      0x05\n        /* \"#utility.yul\":17112:17126   */\n      shl\n        /* \"#utility.yul\":17128:17132   */\n      0x20\n        /* \"#utility.yul\":17108:17133   */\n      add\n      swap1\n        /* \"#utility.yul\":16956:17139   */\n      jump\t// out\n        /* \"#utility.yul\":17144:17272   */\n    tag_230:\n        /* \"#utility.yul\":17184:17187   */\n      0x00\n        /* \"#utility.yul\":17215:17216   */\n      dup3\n        /* \"#utility.yul\":17211:17217   */\n      not\n        /* \"#utility.yul\":17208:17209   */\n      dup3\n        /* \"#utility.yul\":17205:17218   */\n      gt\n        /* \"#utility.yul\":17202:17241   */\n      iszero\n      tag_470\n      jumpi\n        /* \"#utility.yul\":17221:17239   */\n      tag_470\n      tag_471\n      jump\t// in\n    tag_470:\n      pop\n        /* \"#utility.yul\":17257:17266   */\n      add\n      swap1\n        /* \"#utility.yul\":17144:17272   */\n      jump\t// out\n        /* \"#utility.yul\":17277:17657   */\n    tag_107:\n        /* \"#utility.yul\":17356:17357   */\n      0x01\n        /* \"#utility.yul\":17352:17364   */\n      dup2\n      dup2\n      shr\n      swap1\n        /* \"#utility.yul\":17399:17411   */\n      dup3\n      and\n      dup1\n        /* \"#utility.yul\":17420:17481   */\n      tag_473\n      jumpi\n        /* \"#utility.yul\":17474:17478   */\n      0x7f\n        /* \"#utility.yul\":17466:17472   */\n      dup3\n        /* \"#utility.yul\":17462:17479   */\n      and\n        /* \"#utility.yul\":17452:17479   */\n      swap2\n      pop\n        /* \"#utility.yul\":17420:17481   */\n    tag_473:\n        /* \"#utility.yul\":17527:17529   */\n      0x20\n        /* \"#utility.yul\":17519:17525   */\n      dup3\n        /* \"#utility.yul\":17516:17530   */\n      lt\n        /* \"#utility.yul\":17496:17514   */\n      dup2\n        /* \"#utility.yul\":17493:17531   */\n      eq\n        /* \"#utility.yul\":17490:17651   */\n      iszero\n      tag_474\n      jumpi\n        /* \"#utility.yul\":17573:17583   */\n      0x4e487b71\n        /* \"#utility.yul\":17568:17571   */\n      0xe0\n        /* \"#utility.yul\":17564:17584   */\n      shl\n        /* \"#utility.yul\":17561:17562   */\n      0x00\n        /* \"#utility.yul\":17554:17585   */\n      mstore\n        /* \"#utility.yul\":17608:17612   */\n      0x22\n        /* \"#utility.yul\":17605:17606   */\n      0x04\n        /* \"#utility.yul\":17598:17613   */\n      mstore\n        /* \"#utility.yul\":17636:17640   */\n      0x24\n        /* \"#utility.yul\":17633:17634   */\n      0x00\n        /* \"#utility.yul\":17626:17641   */\n      revert\n        /* \"#utility.yul\":17490:17651   */\n    tag_474:\n      pop\n        /* \"#utility.yul\":17277:17657   */\n      swap2\n      swap1\n      pop\n      jump\t// out\n        /* \"#utility.yul\":17662:17911   */\n    tag_338:\n        /* \"#utility.yul\":17772:17774   */\n      0x1f\n        /* \"#utility.yul\":17753:17766   */\n      dup3\n      add\n      not(0x1f)\n        /* \"#utility.yul\":17749:17776   */\n      and\n        /* \"#utility.yul\":17737:17777   */\n      dup2\n      add\n        /* \"#utility.yul\":17807:17825   */\n      0xffffffffffffffff\n        /* \"#utility.yul\":17792:17826   */\n      dup2\n      gt\n        /* \"#utility.yul\":17828:17850   */\n      dup3\n      dup3\n      lt\n        /* \"#utility.yul\":17789:17851   */\n      or\n        /* \"#utility.yul\":17786:17874   */\n      iszero\n      tag_477\n      jumpi\n        /* \"#utility.yul\":17854:17872   */\n      tag_477\n      tag_134\n      jump\t// in\n    tag_477:\n        /* \"#utility.yul\":17890:17892   */\n      0x40\n        /* \"#utility.yul\":17883:17905   */\n      mstore\n      pop\n      pop\n        /* \"#utility.yul\":17662:17911   */\n      jump\t// out\n        /* \"#utility.yul\":17916:18051   */\n    tag_148:\n        /* \"#utility.yul\":17955:17958   */\n      0x00\n      not(0x00)\n        /* \"#utility.yul\":17976:17993   */\n      dup3\n      eq\n        /* \"#utility.yul\":17973:18016   */\n      iszero\n      tag_480\n      jumpi\n        /* \"#utility.yul\":17996:18014   */\n      tag_480\n      tag_471\n      jump\t// in\n    tag_480:\n      pop\n        /* \"#utility.yul\":18043:18044   */\n      0x01\n        /* \"#utility.yul\":18032:18045   */\n      add\n      swap1\n        /* \"#utility.yul\":17916:18051   */\n      jump\t// out\n        /* \"#utility.yul\":18056:18183   */\n    tag_471:\n        /* \"#utility.yul\":18117:18127   */\n      0x4e487b71\n        /* \"#utility.yul\":18112:18115   */\n      0xe0\n        /* \"#utility.yul\":18108:18128   */\n      shl\n        /* \"#utility.yul\":18105:18106   */\n      0x00\n        /* \"#utility.yul\":18098:18129   */\n      mstore\n        /* \"#utility.yul\":18148:18152   */\n      0x11\n        /* \"#utility.yul\":18145:18146   */\n      0x04\n        /* \"#utility.yul\":18138:18153   */\n      mstore\n        /* \"#utility.yul\":18172:18176   */\n      0x24\n        /* \"#utility.yul\":18169:18170   */\n      0x00\n        /* \"#utility.yul\":18162:18177   */\n      revert\n        /* \"#utility.yul\":18188:18315   */\n    tag_142:\n        /* \"#utility.yul\":18249:18259   */\n      0x4e487b71\n        /* \"#utility.yul\":18244:18247   */\n      0xe0\n        /* \"#utility.yul\":18240:18260   */\n      shl\n        /* \"#utility.yul\":18237:18238   */\n      0x00\n        /* \"#utility.yul\":18230:18261   */\n      mstore\n        /* \"#utility.yul\":18280:18284   */\n      0x32\n        /* \"#utility.yul\":18277:18278   */\n      0x04\n        /* \"#utility.yul\":18270:18285   */\n      mstore\n        /* \"#utility.yul\":18304:18308   */\n      0x24\n        /* \"#utility.yul\":18301:18302   */\n      0x00\n        /* \"#utility.yul\":18294:18309   */\n      revert\n        /* \"#utility.yul\":18320:18447   */\n    tag_134:\n        /* \"#utility.yul\":18381:18391   */\n      0x4e487b71\n        /* \"#utility.yul\":18376:18379   */\n      0xe0\n        /* \"#utility.yul\":18372:18392   */\n      shl\n        /* \"#utility.yul\":18369:18370   */\n      0x00\n        /* \"#utility.yul\":18362:18393   */\n      mstore\n        /* \"#utility.yul\":18412:18416   */\n      0x41\n        /* \"#utility.yul\":18409:18410   */\n      0x04\n        /* \"#utility.yul\":18402:18417   */\n      mstore\n        /* \"#utility.yul\":18436:18440   */\n      0x24\n        /* \"#utility.yul\":18433:18434   */\n      0x00\n        /* \"#utility.yul\":18426:18441   */\n      revert\n        /* \"#utility.yul\":18452:18631   */\n    tag_284:\n        /* \"#utility.yul\":18487:18490   */\n      0x00\n        /* \"#utility.yul\":18529:18530   */\n      0x03\n        /* \"#utility.yul\":18511:18527   */\n      returndatasize\n        /* \"#utility.yul\":18508:18531   */\n      gt\n        /* \"#utility.yul\":18505:18625   */\n      iszero\n      tag_485\n      jumpi\n        /* \"#utility.yul\":18575:18576   */\n      0x04\n        /* \"#utility.yul\":18572:18573   */\n      0x00\n        /* \"#utility.yul\":18569:18570   */\n      dup1\n        /* \"#utility.yul\":18554:18577   */\n      returndatacopy\n      pop\n        /* \"#utility.yul\":18612:18613   */\n      0x00\n        /* \"#utility.yul\":18606:18614   */\n      mload\n        /* \"#utility.yul\":18601:18604   */\n      0xe0\n        /* \"#utility.yul\":18597:18615   */\n      shr\n        /* \"#utility.yul\":18505:18625   */\n    tag_485:\n        /* \"#utility.yul\":18452:18631   */\n      swap1\n      jump\t// out\n        /* \"#utility.yul\":18636:19307   */\n    tag_286:\n        /* \"#utility.yul\":18675:18678   */\n      0x00\n        /* \"#utility.yul\":18717:18721   */\n      0x44\n        /* \"#utility.yul\":18699:18715   */\n      returndatasize\n        /* \"#utility.yul\":18696:18722   */\n      lt\n        /* \"#utility.yul\":18693:18732   */\n      iszero\n      tag_487\n      jumpi\n        /* \"#utility.yul\":18636:19307   */\n      swap1\n      jump\t// out\n        /* \"#utility.yul\":18693:18732   */\n    tag_487:\n        /* \"#utility.yul\":18759:18761   */\n      0x40\n        /* \"#utility.yul\":18753:18762   */\n      mload\n      not(0x03)\n        /* \"#utility.yul\":18824:18840   */\n      returndatasize\n        /* \"#utility.yul\":18820:18845   */\n      dup2\n      add\n        /* \"#utility.yul\":18817:18818   */\n      0x04\n        /* \"#utility.yul\":18753:18762   */\n      dup4\n        /* \"#utility.yul\":18796:18846   */\n      returndatacopy\n        /* \"#utility.yul\":18875:18879   */\n      dup2\n        /* \"#utility.yul\":18869:18880   */\n      mload\n        /* \"#utility.yul\":18899:18915   */\n      returndatasize\n        /* \"#utility.yul\":18934:18952   */\n      0xffffffffffffffff\n        /* \"#utility.yul\":19005:19007   */\n      dup2\n        /* \"#utility.yul\":18998:19002   */\n      0x24\n        /* \"#utility.yul\":18990:18996   */\n      dup5\n        /* \"#utility.yul\":18986:19003   */\n      add\n        /* \"#utility.yul\":18983:19008   */\n      gt\n        /* \"#utility.yul\":18978:18980   */\n      dup2\n        /* \"#utility.yul\":18970:18976   */\n      dup5\n        /* \"#utility.yul\":18967:18981   */\n      gt\n        /* \"#utility.yul\":18964:19009   */\n      or\n        /* \"#utility.yul\":18961:19019   */\n      iszero\n      tag_488\n      jumpi\n        /* \"#utility.yul\":19012:19017   */\n      pop\n      pop\n      pop\n      pop\n      pop\n        /* \"#utility.yul\":18636:19307   */\n      swap1\n      jump\t// out\n        /* \"#utility.yul\":18961:19019   */\n    tag_488:\n        /* \"#utility.yul\":19049:19055   */\n      dup3\n        /* \"#utility.yul\":19043:19047   */\n      dup6\n        /* \"#utility.yul\":19039:19056   */\n      add\n        /* \"#utility.yul\":19028:19056   */\n      swap2\n      pop\n        /* \"#utility.yul\":19085:19088   */\n      dup2\n        /* \"#utility.yul\":19079:19089   */\n      mload\n        /* \"#utility.yul\":19112:19114   */\n      dup2\n        /* \"#utility.yul\":19104:19110   */\n      dup2\n        /* \"#utility.yul\":19101:19115   */\n      gt\n        /* \"#utility.yul\":19098:19125   */\n      iszero\n      tag_489\n      jumpi\n        /* \"#utility.yul\":19118:19123   */\n      pop\n      pop\n      pop\n      pop\n      pop\n      pop\n        /* \"#utility.yul\":18636:19307   */\n      swap1\n      jump\t// out\n        /* \"#utility.yul\":19098:19125   */\n    tag_489:\n        /* \"#utility.yul\":19202:19204   */\n      dup5\n        /* \"#utility.yul\":19183:19199   */\n      returndatasize\n        /* \"#utility.yul\":19177:19181   */\n      dup8\n        /* \"#utility.yul\":19173:19200   */\n      add\n        /* \"#utility.yul\":19169:19205   */\n      add\n        /* \"#utility.yul\":19162:19166   */\n      0x20\n        /* \"#utility.yul\":19153:19159   */\n      dup3\n        /* \"#utility.yul\":19148:19151   */\n      dup6\n        /* \"#utility.yul\":19144:19160   */\n      add\n        /* \"#utility.yul\":19140:19167   */\n      add\n        /* \"#utility.yul\":19137:19206   */\n      gt\n        /* \"#utility.yul\":19134:19216   */\n      iszero\n      tag_490\n      jumpi\n        /* \"#utility.yul\":19209:19214   */\n      pop\n      pop\n      pop\n      pop\n      pop\n      pop\n        /* \"#utility.yul\":18636:19307   */\n      swap1\n      jump\t// out\n        /* \"#utility.yul\":19134:19216   */\n    tag_490:\n        /* \"#utility.yul\":19225:19282   */\n      tag_491\n        /* \"#utility.yul\":19276:19280   */\n      0x20\n        /* \"#utility.yul\":19267:19273   */\n      dup3\n        /* \"#utility.yul\":19259:19265   */\n      dup7\n        /* \"#utility.yul\":19255:19274   */\n      add\n        /* \"#utility.yul\":19251:19281   */\n      add\n        /* \"#utility.yul\":19245:19249   */\n      dup8\n        /* \"#utility.yul\":19225:19282   */\n      tag_338\n      jump\t// in\n    tag_491:\n      pop\n        /* \"#utility.yul\":19298:19301   */\n      swap1\n      swap6\n        /* \"#utility.yul\":18636:19307   */\n      swap5\n      pop\n      pop\n      pop\n      pop\n      pop\n      jump\t// out\n        /* \"#utility.yul\":19312:19443   */\n    tag_413:\n      not(sub(shl(0xe0, 0x01), 0x01))\n        /* \"#utility.yul\":19386:19418   */\n      dup2\n      and\n        /* \"#utility.yul\":19376:19419   */\n      dup2\n      eq\n        /* \"#utility.yul\":19366:19437   */\n      tag_104\n      jumpi\n        /* \"#utility.yul\":19433:19434   */\n      0x00\n        /* \"#utility.yul\":19430:19431   */\n      dup1\n        /* \"#utility.yul\":19423:19435   */\n      revert\n\n    auxdata: 0xa26469706673582212209bd745238bda37396bc1a2c2b4f42f9b5c98811a62aadc6f59fc938f672b50fd64736f6c63430008070033\n}\n",
				"bytecode": {
					"linkReferences": {},
					"object": "60c0604052601860808190527f50616e74686572205175616e7420476f6c64656e20456767000000000000000060a0908152620000409160049190620000f1565b503480156200004e57600080fd5b5060405180606001604052806035815260200162001c1160359139620000748162000086565b5062000080336200009f565b620001d4565b80516200009b906002906020840190620000f1565b5050565b600380546001600160a01b038381166001600160a01b0319831681179093556040519116919082907f8be0079c531659141344cd1fd0a4f28419497f9722a3daafe3b4186f6b6457e090600090a35050565b828054620000ff9062000197565b90600052602060002090601f0160209004810192826200012357600085556200016e565b82601f106200013e57805160ff19168380011785556200016e565b828001600101855582156200016e579182015b828111156200016e57825182559160200191906001019062000151565b506200017c92915062000180565b5090565b5b808211156200017c576000815560010162000181565b600181811c90821680620001ac57607f821691505b60208210811415620001ce57634e487b7160e01b600052602260045260246000fd5b50919050565b611a2d80620001e46000396000f3fe608060405234801561001057600080fd5b50600436106100f45760003560e01c8063715018a611610097578063be8c592211610066578063be8c5922146101fb578063e985e9c51461020e578063f242432a1461024a578063f2fde38b1461025d57600080fd5b8063715018a6146101b25780638da5cb5b146101ba578063a22cb465146101d5578063b3a447b4146101e857600080fd5b806306fdde03116100d357806306fdde03146101575780630e89341c1461016c5780632eb2c2d61461017f5780634e1273f41461019257600080fd5b8062fdd58e146100f957806301ffc9a71461011f57806302fe530514610142575b600080fd5b61010c6101073660046113fc565b610270565b6040519081526020015b60405180910390f35b61013261012d36600461150b565b610307565b6040519015158152602001610116565b610155610150366004611545565b610359565b005b61015f61038f565b604051610116919061171b565b61015f61017a366004611596565b61041d565b61015561018d3660046112b1565b6104b1565b6101a56101a0366004611459565b610548565b60405161011691906116da565b610155610672565b6003546040516001600160a01b039091168152602001610116565b6101556101e33660046113c0565b6106a8565b6101556101f6366004611426565b6106b7565b6101556102093660046114bd565b6106f1565b61013261021c36600461127e565b6001600160a01b03918216600090815260016020908152604080832093909416825291909152205460ff1690565b61015561025836600461135b565b610763565b61015561026b366004611263565b6107ea565b60006001600160a01b0383166102e15760405162461bcd60e51b815260206004820152602b60248201527f455243313135353a2062616c616e636520717565727920666f7220746865207a60448201526a65726f206164647265737360a81b60648201526084015b60405180910390fd5b506000908152602081815260408083206001600160a01b03949094168352929052205490565b60006001600160e01b03198216636cdb3d1360e11b148061033857506001600160e01b031982166303a24d0760e21b145b8061035357506301ffc9a760e01b6001600160e01b03198316145b92915050565b6003546001600160a01b031633146103835760405162461bcd60e51b81526004016102d890611805565b61038c81610882565b50565b6004805461039c90611876565b80601f01602080910402602001604051908101604052809291908181526020018280546103c890611876565b80156104155780601f106103ea57610100808354040283529160200191610415565b820191906000526020600020905b8154815290600101906020018083116103f857829003601f168201915b505050505081565b60606002805461042c90611876565b80601f016020809104026020016040519081016040528092919081815260200182805461045890611876565b80156104a55780601f1061047a576101008083540402835291602001916104a5565b820191906000526020600020905b81548152906001019060200180831161048857829003601f168201915b50505050509050919050565b6001600160a01b0385163314806104cd57506104cd853361021c565b6105345760405162461bcd60e51b815260206004820152603260248201527f455243313135353a207472616e736665722063616c6c6572206973206e6f74206044820152711bdddb995c881b9bdc88185c1c1c9bdd995960721b60648201526084016102d8565b6105418585858585610895565b5050505050565b606081518351146105ad5760405162461bcd60e51b815260206004820152602960248201527f455243313135353a206163636f756e747320616e6420696473206c656e677468604482015268040dad2e6dac2e8c6d60bb1b60648201526084016102d8565b6000835167ffffffffffffffff8111156105c9576105c9611925565b6040519080825280602002602001820160405280156105f2578160200160208202803683370190505b50905060005b845181101561066a5761063d8582815181106106165761061661190f565b60200260200101518583815181106106305761063061190f565b6020026020010151610270565b82828151811061064f5761064f61190f565b6020908102919091010152610663816118de565b90506105f8565b509392505050565b6003546001600160a01b0316331461069c5760405162461bcd60e51b81526004016102d890611805565b6106a66000610a72565b565b6106b3338383610ac4565b5050565b6003546001600160a01b031633146106e15760405162461bcd60e51b81526004016102d890611805565b6106ec838383610ba5565b505050565b6003546001600160a01b0316331461071b5760405162461bcd60e51b81526004016102d890611805565b60005b835181101561075d5761074b84828151811061073c5761073c61190f565b60200260200101518484610ba5565b80610755816118de565b91505061071e565b50505050565b6001600160a01b03851633148061077f575061077f853361021c565b6107dd5760405162461bcd60e51b815260206004820152602960248201527f455243313135353a2063616c6c6572206973206e6f74206f776e6572206e6f7260448201526808185c1c1c9bdd995960ba1b60648201526084016102d8565b6105418585858585610c8e565b6003546001600160a01b031633146108145760405162461bcd60e51b81526004016102d890611805565b6001600160a01b0381166108795760405162461bcd60e51b815260206004820152602660248201527f4f776e61626c653a206e6577206f776e657220697320746865207a65726f206160448201526564647265737360d01b60648201526084016102d8565b61038c81610a72565b80516106b3906002906020840190611041565b81518351146108f75760405162461bcd60e51b815260206004820152602860248201527f455243313135353a2069647320616e6420616d6f756e7473206c656e677468206044820152670dad2e6dac2e8c6d60c31b60648201526084016102d8565b6001600160a01b03841661091d5760405162461bcd60e51b81526004016102d890611776565b3360005b8451811015610a0457600085828151811061093e5761093e61190f565b60200260200101519050600085838151811061095c5761095c61190f565b602090810291909101810151600084815280835260408082206001600160a01b038e1683529093529190912054909150818110156109ac5760405162461bcd60e51b81526004016102d8906117bb565b6000838152602081815260408083206001600160a01b038e8116855292528083208585039055908b168252812080548492906109e990849061185e565b92505081905550505050806109fd906118de565b9050610921565b50846001600160a01b0316866001600160a01b0316826001600160a01b03167f4a39dc06d4c0dbc64b70af90fd698a233a518aa5d07e595d983b8c0526c8f7fb8787604051610a549291906116ed565b60405180910390a4610a6a818787878787610db8565b505050505050565b600380546001600160a01b038381166001600160a01b0319831681179093556040519116919082907f8be0079c531659141344cd1fd0a4f28419497f9722a3daafe3b4186f6b6457e090600090a35050565b816001600160a01b0316836001600160a01b03161415610b385760405162461bcd60e51b815260206004820152602960248201527f455243313135353a2073657474696e6720617070726f76616c20737461747573604482015268103337b91039b2b63360b91b60648201526084016102d8565b6001600160a01b03838116600081815260016020908152604080832094871680845294825291829020805460ff191686151590811790915591519182527f17307eab39ab6107e8899845ad3d59bd9653f200f220920489ca2b5937696c31910160405180910390a3505050565b6001600160a01b038316610c055760405162461bcd60e51b815260206004820152602160248201527f455243313135353a206d696e7420746f20746865207a65726f206164647265736044820152607360f81b60648201526084016102d8565b6000828152602081815260408083206001600160a01b0387168452909152812080543392849291610c3790849061185e565b909155505060408051848152602081018490526001600160a01b0380871692600092918516917fc3d58168c5ae7397731d063d5bbf3d657854427343f4c083240f7aacaa2d0f62910160405180910390a450505050565b6001600160a01b038416610cb45760405162461bcd60e51b81526004016102d890611776565b336000610cc085610f2c565b90506000610ccd85610f2c565b90506000868152602081815260408083206001600160a01b038c16845290915290205485811015610d105760405162461bcd60e51b81526004016102d8906117bb565b6000878152602081815260408083206001600160a01b038d8116855292528083208985039055908a16825281208054889290610d4d90849061185e565b909155505060408051888152602081018890526001600160a01b03808b16928c821692918816917fc3d58168c5ae7397731d063d5bbf3d657854427343f4c083240f7aacaa2d0f62910160405180910390a4610dad848a8a8a8a8a610f77565b505050505050505050565b6001600160a01b0384163b15610a6a5760405163bc197c8160e01b81526001600160a01b0385169063bc197c8190610dfc9089908990889088908890600401611637565b602060405180830381600087803b158015610e1657600080fd5b505af1925050508015610e46575060408051601f3d908101601f19168201909252610e4391810190611528565b60015b610ef357610e5261193b565b806308c379a01415610e8c5750610e67611957565b80610e725750610e8e565b8060405162461bcd60e51b81526004016102d8919061171b565b505b60405162461bcd60e51b815260206004820152603460248201527f455243313135353a207472616e7366657220746f206e6f6e20455243313135356044820152732932b1b2b4bb32b91034b6b83632b6b2b73a32b960611b60648201526084016102d8565b6001600160e01b0319811663bc197c8160e01b14610f235760405162461bcd60e51b81526004016102d89061172e565b50505050505050565b60408051600180825281830190925260609160009190602080830190803683370190505090508281600081518110610f6657610f6661190f565b602090810291909101015292915050565b6001600160a01b0384163b15610a6a5760405163f23a6e6160e01b81526001600160a01b0385169063f23a6e6190610fbb9089908990889088908890600401611695565b602060405180830381600087803b158015610fd557600080fd5b505af1925050508015611005575060408051601f3d908101601f1916820190925261100291810190611528565b60015b61101157610e5261193b565b6001600160e01b0319811663f23a6e6160e01b14610f235760405162461bcd60e51b81526004016102d89061172e565b82805461104d90611876565b90600052602060002090601f01602090048101928261106f57600085556110b5565b82601f1061108857805160ff19168380011785556110b5565b828001600101855582156110b5579182015b828111156110b557825182559160200191906001019061109a565b506110c19291506110c5565b5090565b5b808211156110c157600081556001016110c6565b600067ffffffffffffffff8311156110f4576110f4611925565b60405161110b601f8501601f1916602001826118b1565b80915083815284848401111561112057600080fd5b83836020830137600060208583010152509392505050565b80356001600160a01b038116811461114f57600080fd5b919050565b600082601f83011261116557600080fd5b813560206111728261183a565b60405161117f82826118b1565b8381528281019150858301600585901b8701840188101561119f57600080fd5b60005b858110156111c5576111b382611138565b845292840192908401906001016111a2565b5090979650505050505050565b600082601f8301126111e357600080fd5b813560206111f08261183a565b6040516111fd82826118b1565b8381528281019150858301600585901b8701840188101561121d57600080fd5b60005b858110156111c557813584529284019290840190600101611220565b600082601f83011261124d57600080fd5b61125c838335602085016110da565b9392505050565b60006020828403121561127557600080fd5b61125c82611138565b6000806040838503121561129157600080fd5b61129a83611138565b91506112a860208401611138565b90509250929050565b600080600080600060a086880312156112c957600080fd5b6112d286611138565b94506112e060208701611138565b9350604086013567ffffffffffffffff808211156112fd57600080fd5b61130989838a016111d2565b9450606088013591508082111561131f57600080fd5b61132b89838a016111d2565b9350608088013591508082111561134157600080fd5b5061134e8882890161123c565b9150509295509295909350565b600080600080600060a0868803121561137357600080fd5b61137c86611138565b945061138a60208701611138565b93506040860135925060608601359150608086013567ffffffffffffffff8111156113b457600080fd5b61134e8882890161123c565b600080604083850312156113d357600080fd5b6113dc83611138565b9150602083013580151581146113f157600080fd5b809150509250929050565b6000806040838503121561140f57600080fd5b61141883611138565b946020939093013593505050565b60008060006060848603121561143b57600080fd5b61144484611138565b95602085013595506040909401359392505050565b6000806040838503121561146c57600080fd5b823567ffffffffffffffff8082111561148457600080fd5b61149086838701611154565b935060208501359150808211156114a657600080fd5b506114b3858286016111d2565b9150509250929050565b6000806000606084860312156114d257600080fd5b833567ffffffffffffffff8111156114e957600080fd5b6114f586828701611154565b9660208601359650604090950135949350505050565b60006020828403121561151d57600080fd5b813561125c816119e1565b60006020828403121561153a57600080fd5b815161125c816119e1565b60006020828403121561155757600080fd5b813567ffffffffffffffff81111561156e57600080fd5b8201601f8101841361157f57600080fd5b61158e848235602084016110da565b949350505050565b6000602082840312156115a857600080fd5b5035919050565b600081518084526020808501945080840160005b838110156115df578151875295820195908201906001016115c3565b509495945050505050565b6000815180845260005b81811015611610576020818501810151868301820152016115f4565b81811115611622576000602083870101525b50601f01601f19169290920160200192915050565b6001600160a01b0386811682528516602082015260a060408201819052600090611663908301866115af565b828103606084015261167581866115af565b9050828103608084015261168981856115ea565b98975050505050505050565b6001600160a01b03868116825285166020820152604081018490526060810183905260a0608082018190526000906116cf908301846115ea565b979650505050505050565b60208152600061125c60208301846115af565b60408152600061170060408301856115af565b828103602084015261171281856115af565b95945050505050565b60208152600061125c60208301846115ea565b60208082526028908201527f455243313135353a204552433131353552656365697665722072656a656374656040820152676420746f6b656e7360c01b606082015260800190565b60208082526025908201527f455243313135353a207472616e7366657220746f20746865207a65726f206164604082015264647265737360d81b606082015260800190565b6020808252602a908201527f455243313135353a20696e73756666696369656e742062616c616e636520666f60408201526939103a3930b739b332b960b11b606082015260800190565b6020808252818101527f4f776e61626c653a2063616c6c6572206973206e6f7420746865206f776e6572604082015260600190565b600067ffffffffffffffff82111561185457611854611925565b5060051b60200190565b60008219821115611871576118716118f9565b500190565b600181811c9082168061188a57607f821691505b602082108114156118ab57634e487b7160e01b600052602260045260246000fd5b50919050565b601f8201601f1916810167ffffffffffffffff811182821017156118d7576118d7611925565b6040525050565b60006000198214156118f2576118f26118f9565b5060010190565b634e487b7160e01b600052601160045260246000fd5b634e487b7160e01b600052603260045260246000fd5b634e487b7160e01b600052604160045260246000fd5b600060033d11156119545760046000803e5060005160e01c5b90565b600060443d10156119655790565b6040516003193d81016004833e81513d67ffffffffffffffff816024840111818411171561199557505050505090565b82850191508151818111156119ad5750505050505090565b843d87010160208285010111156119c75750505050505090565b6119d6602082860101876118b1565b509095945050505050565b6001600160e01b03198116811461038c57600080fdfea26469706673582212209bd745238bda37396bc1a2c2b4f42f9b5c98811a62aadc6f59fc938f672b50fd64736f6c63430008070033697066733a2f2f516d645332315270415a685468693658446f4c4b76706f6e516b315862716570614757457a4444794c6d73347569",
					"opcodes": "PUSH1 0xC0 PUSH1 0x40 MSTORE PUSH1 0x18 PUSH1 0x80 DUP2 SWAP1 MSTORE PUSH32 0x50616E74686572205175616E7420476F6C64656E204567670000000000000000 PUSH1 0xA0 SWAP1 DUP2 MSTORE PUSH3 0x40 SWAP2 PUSH1 0x4 SWAP2 SWAP1 PUSH3 0xF1 JUMP JUMPDEST POP CALLVALUE DUP1 ISZERO PUSH3 0x4E JUMPI PUSH1 0x0 DUP1 REVERT JUMPDEST POP PUSH1 0x40 MLOAD DUP1 PUSH1 0x60 ADD PUSH1 0x40 MSTORE DUP1 PUSH1 0x35 DUP2 MSTORE PUSH1 0x20 ADD PUSH3 0x1C11 PUSH1 0x35 SWAP2 CODECOPY PUSH3 0x74 DUP2 PUSH3 0x86 JUMP JUMPDEST POP PUSH3 0x80 CALLER PUSH3 0x9F JUMP JUMPDEST PUSH3 0x1D4 JUMP JUMPDEST DUP1 MLOAD PUSH3 0x9B SWAP1 PUSH1 0x2 SWAP1 PUSH1 0x20 DUP5 ADD SWAP1 PUSH3 0xF1 JUMP JUMPDEST POP POP JUMP JUMPDEST PUSH1 0x3 DUP1 SLOAD PUSH1 0x1 PUSH1 0x1 PUSH1 0xA0 SHL SUB DUP4 DUP2 AND PUSH1 0x1 PUSH1 0x1 PUSH1 0xA0 SHL SUB NOT DUP4 AND DUP2 OR SWAP1 SWAP4 SSTORE PUSH1 0x40 MLOAD SWAP2 AND SWAP2 SWAP1 DUP3 SWAP1 PUSH32 0x8BE0079C531659141344CD1FD0A4F28419497F9722A3DAAFE3B4186F6B6457E0 SWAP1 PUSH1 0x0 SWAP1 LOG3 POP POP JUMP JUMPDEST DUP3 DUP1 SLOAD PUSH3 0xFF SWAP1 PUSH3 0x197 JUMP JUMPDEST SWAP1 PUSH1 0x0 MSTORE PUSH1 0x20 PUSH1 0x0 KECCAK256 SWAP1 PUSH1 0x1F ADD PUSH1 0x20 SWAP1 DIV DUP2 ADD SWAP3 DUP3 PUSH3 0x123 JUMPI PUSH1 0x0 DUP6 SSTORE PUSH3 0x16E JUMP JUMPDEST DUP3 PUSH1 0x1F LT PUSH3 0x13E JUMPI DUP1 MLOAD PUSH1 0xFF NOT AND DUP4 DUP1 ADD OR DUP6 SSTORE PUSH3 0x16E JUMP JUMPDEST DUP3 DUP1 ADD PUSH1 0x1 ADD DUP6 SSTORE DUP3 ISZERO PUSH3 0x16E JUMPI SWAP2 DUP3 ADD JUMPDEST DUP3 DUP2 GT ISZERO PUSH3 0x16E JUMPI DUP3 MLOAD DUP3 SSTORE SWAP2 PUSH1 0x20 ADD SWAP2 SWAP1 PUSH1 0x1 ADD SWAP1 PUSH3 0x151 JUMP JUMPDEST POP PUSH3 0x17C SWAP3 SWAP2 POP PUSH3 0x180 JUMP JUMPDEST POP SWAP1 JUMP JUMPDEST JUMPDEST DUP1 DUP3 GT ISZERO PUSH3 0x17C JUMPI PUSH1 0x0 DUP2 SSTORE PUSH1 0x1 ADD PUSH3 0x181 JUMP JUMPDEST PUSH1 0x1 DUP2 DUP2 SHR SWAP1 DUP3 AND DUP1 PUSH3 0x1AC JUMPI PUSH1 0x7F DUP3 AND SWAP2 POP JUMPDEST PUSH1 0x20 DUP3 LT DUP2 EQ ISZERO PUSH3 0x1CE JUMPI PUSH4 0x4E487B71 PUSH1 0xE0 SHL PUSH1 0x0 MSTORE PUSH1 0x22 PUSH1 0x4 MSTORE PUSH1 0x24 PUSH1 0x0 REVERT JUMPDEST POP SWAP2 SWAP1 POP JUMP JUMPDEST PUSH2 0x1A2D DUP1 PUSH3 0x1E4 PUSH1 0x0 CODECOPY PUSH1 0x0 RETURN INVALID PUSH1 0x80 PUSH1 0x40 MSTORE CALLVALUE DUP1 ISZERO PUSH2 0x10 JUMPI PUSH1 0x0 DUP1 REVERT JUMPDEST POP PUSH1 0x4 CALLDATASIZE LT PUSH2 0xF4 JUMPI PUSH1 0x0 CALLDATALOAD PUSH1 0xE0 SHR DUP1 PUSH4 0x715018A6 GT PUSH2 0x97 JUMPI DUP1 PUSH4 0xBE8C5922 GT PUSH2 0x66 JUMPI DUP1 PUSH4 0xBE8C5922 EQ PUSH2 0x1FB JUMPI DUP1 PUSH4 0xE985E9C5 EQ PUSH2 0x20E JUMPI DUP1 PUSH4 0xF242432A EQ PUSH2 0x24A JUMPI DUP1 PUSH4 0xF2FDE38B EQ PUSH2 0x25D JUMPI PUSH1 0x0 DUP1 REVERT JUMPDEST DUP1 PUSH4 0x715018A6 EQ PUSH2 0x1B2 JUMPI DUP1 PUSH4 0x8DA5CB5B EQ PUSH2 0x1BA JUMPI DUP1 PUSH4 0xA22CB465 EQ PUSH2 0x1D5 JUMPI DUP1 PUSH4 0xB3A447B4 EQ PUSH2 0x1E8 JUMPI PUSH1 0x0 DUP1 REVERT JUMPDEST DUP1 PUSH4 0x6FDDE03 GT PUSH2 0xD3 JUMPI DUP1 PUSH4 0x6FDDE03 EQ PUSH2 0x157 JUMPI DUP1 PUSH4 0xE89341C EQ PUSH2 0x16C JUMPI DUP1 PUSH4 0x2EB2C2D6 EQ PUSH2 0x17F JUMPI DUP1 PUSH4 0x4E1273F4 EQ PUSH2 0x192 JUMPI PUSH1 0x0 DUP1 REVERT JUMPDEST DUP1 PUSH3 0xFDD58E EQ PUSH2 0xF9 JUMPI DUP1 PUSH4 0x1FFC9A7 EQ PUSH2 0x11F JUMPI DUP1 PUSH4 0x2FE5305 EQ PUSH2 0x142 JUMPI JUMPDEST PUSH1 0x0 DUP1 REVERT JUMPDEST PUSH2 0x10C PUSH2 0x107 CALLDATASIZE PUSH1 0x4 PUSH2 0x13FC JUMP JUMPDEST PUSH2 0x270 JUMP JUMPDEST PUSH1 0x40 MLOAD SWAP1 DUP2 MSTORE PUSH1 0x20 ADD JUMPDEST PUSH1 0x40 MLOAD DUP1 SWAP2 SUB SWAP1 RETURN JUMPDEST PUSH2 0x132 PUSH2 0x12D CALLDATASIZE PUSH1 0x4 PUSH2 0x150B JUMP JUMPDEST PUSH2 0x307 JUMP JUMPDEST PUSH1 0x40 MLOAD SWAP1 ISZERO ISZERO DUP2 MSTORE PUSH1 0x20 ADD PUSH2 0x116 JUMP JUMPDEST PUSH2 0x155 PUSH2 0x150 CALLDATASIZE PUSH1 0x4 PUSH2 0x1545 JUMP JUMPDEST PUSH2 0x359 JUMP JUMPDEST STOP JUMPDEST PUSH2 0x15F PUSH2 0x38F JUMP JUMPDEST PUSH1 0x40 MLOAD PUSH2 0x116 SWAP2 SWAP1 PUSH2 0x171B JUMP JUMPDEST PUSH2 0x15F PUSH2 0x17A CALLDATASIZE PUSH1 0x4 PUSH2 0x1596 JUMP JUMPDEST PUSH2 0x41D JUMP JUMPDEST PUSH2 0x155 PUSH2 0x18D CALLDATASIZE PUSH1 0x4 PUSH2 0x12B1 JUMP JUMPDEST PUSH2 0x4B1 JUMP JUMPDEST PUSH2 0x1A5 PUSH2 0x1A0 CALLDATASIZE PUSH1 0x4 PUSH2 0x1459 JUMP JUMPDEST PUSH2 0x548 JUMP JUMPDEST PUSH1 0x40 MLOAD PUSH2 0x116 SWAP2 SWAP1 PUSH2 0x16DA JUMP JUMPDEST PUSH2 0x155 PUSH2 0x672 JUMP JUMPDEST PUSH1 0x3 SLOAD PUSH1 0x40 MLOAD PUSH1 0x1 PUSH1 0x1 PUSH1 0xA0 SHL SUB SWAP1 SWAP2 AND DUP2 MSTORE PUSH1 0x20 ADD PUSH2 0x116 JUMP JUMPDEST PUSH2 0x155 PUSH2 0x1E3 CALLDATASIZE PUSH1 0x4 PUSH2 0x13C0 JUMP JUMPDEST PUSH2 0x6A8 JUMP JUMPDEST PUSH2 0x155 PUSH2 0x1F6 CALLDATASIZE PUSH1 0x4 PUSH2 0x1426 JUMP JUMPDEST PUSH2 0x6B7 JUMP JUMPDEST PUSH2 0x155 PUSH2 0x209 CALLDATASIZE PUSH1 0x4 PUSH2 0x14BD JUMP JUMPDEST PUSH2 0x6F1 JUMP JUMPDEST PUSH2 0x132 PUSH2 0x21C CALLDATASIZE PUSH1 0x4 PUSH2 0x127E JUMP JUMPDEST PUSH1 0x1 PUSH1 0x1 PUSH1 0xA0 SHL SUB SWAP2 DUP3 AND PUSH1 0x0 SWAP1 DUP2 MSTORE PUSH1 0x1 PUSH1 0x20 SWAP1 DUP2 MSTORE PUSH1 0x40 DUP1 DUP4 KECCAK256 SWAP4 SWAP1 SWAP5 AND DUP3 MSTORE SWAP2 SWAP1 SWAP2 MSTORE KECCAK256 SLOAD PUSH1 0xFF AND SWAP1 JUMP JUMPDEST PUSH2 0x155 PUSH2 0x258 CALLDATASIZE PUSH1 0x4 PUSH2 0x135B JUMP JUMPDEST PUSH2 0x763 JUMP JUMPDEST PUSH2 0x155 PUSH2 0x26B CALLDATASIZE PUSH1 0x4 PUSH2 0x1263 JUMP JUMPDEST PUSH2 0x7EA JUMP JUMPDEST PUSH1 0x0 PUSH1 0x1 PUSH1 0x1 PUSH1 0xA0 SHL SUB DUP4 AND PUSH2 0x2E1 JUMPI PUSH1 0x40 MLOAD PUSH3 0x461BCD PUSH1 0xE5 SHL DUP2 MSTORE PUSH1 0x20 PUSH1 0x4 DUP3 ADD MSTORE PUSH1 0x2B PUSH1 0x24 DUP3 ADD MSTORE PUSH32 0x455243313135353A2062616C616E636520717565727920666F7220746865207A PUSH1 0x44 DUP3 ADD MSTORE PUSH11 0x65726F2061646472657373 PUSH1 0xA8 SHL PUSH1 0x64 DUP3 ADD MSTORE PUSH1 0x84 ADD JUMPDEST PUSH1 0x40 MLOAD DUP1 SWAP2 SUB SWAP1 REVERT JUMPDEST POP PUSH1 0x0 SWAP1 DUP2 MSTORE PUSH1 0x20 DUP2 DUP2 MSTORE PUSH1 0x40 DUP1 DUP4 KECCAK256 PUSH1 0x1 PUSH1 0x1 PUSH1 0xA0 SHL SUB SWAP5 SWAP1 SWAP5 AND DUP4 MSTORE SWAP3 SWAP1 MSTORE KECCAK256 SLOAD SWAP1 JUMP JUMPDEST PUSH1 0x0 PUSH1 0x1 PUSH1 0x1 PUSH1 0xE0 SHL SUB NOT DUP3 AND PUSH4 0x6CDB3D13 PUSH1 0xE1 SHL EQ DUP1 PUSH2 0x338 JUMPI POP PUSH1 0x1 PUSH1 0x1 PUSH1 0xE0 SHL SUB NOT DUP3 AND PUSH4 0x3A24D07 PUSH1 0xE2 SHL EQ JUMPDEST DUP1 PUSH2 0x353 JUMPI POP PUSH4 0x1FFC9A7 PUSH1 0xE0 SHL PUSH1 0x1 PUSH1 0x1 PUSH1 0xE0 SHL SUB NOT DUP4 AND EQ JUMPDEST SWAP3 SWAP2 POP POP JUMP JUMPDEST PUSH1 0x3 SLOAD PUSH1 0x1 PUSH1 0x1 PUSH1 0xA0 SHL SUB AND CALLER EQ PUSH2 0x383 JUMPI PUSH1 0x40 MLOAD PUSH3 0x461BCD PUSH1 0xE5 SHL DUP2 MSTORE PUSH1 0x4 ADD PUSH2 0x2D8 SWAP1 PUSH2 0x1805 JUMP JUMPDEST PUSH2 0x38C DUP2 PUSH2 0x882 JUMP JUMPDEST POP JUMP JUMPDEST PUSH1 0x4 DUP1 SLOAD PUSH2 0x39C SWAP1 PUSH2 0x1876 JUMP JUMPDEST DUP1 PUSH1 0x1F ADD PUSH1 0x20 DUP1 SWAP2 DIV MUL PUSH1 0x20 ADD PUSH1 0x40 MLOAD SWAP1 DUP2 ADD PUSH1 0x40 MSTORE DUP1 SWAP3 SWAP2 SWAP1 DUP2 DUP2 MSTORE PUSH1 0x20 ADD DUP3 DUP1 SLOAD PUSH2 0x3C8 SWAP1 PUSH2 0x1876 JUMP JUMPDEST DUP1 ISZERO PUSH2 0x415 JUMPI DUP1 PUSH1 0x1F LT PUSH2 0x3EA JUMPI PUSH2 0x100 DUP1 DUP4 SLOAD DIV MUL DUP4 MSTORE SWAP2 PUSH1 0x20 ADD SWAP2 PUSH2 0x415 JUMP JUMPDEST DUP3 ADD SWAP2 SWAP1 PUSH1 0x0 MSTORE PUSH1 0x20 PUSH1 0x0 KECCAK256 SWAP1 JUMPDEST DUP2 SLOAD DUP2 MSTORE SWAP1 PUSH1 0x1 ADD SWAP1 PUSH1 0x20 ADD DUP1 DUP4 GT PUSH2 0x3F8 JUMPI DUP3 SWAP1 SUB PUSH1 0x1F AND DUP3 ADD SWAP2 JUMPDEST POP POP POP POP POP DUP2 JUMP JUMPDEST PUSH1 0x60 PUSH1 0x2 DUP1 SLOAD PUSH2 0x42C SWAP1 PUSH2 0x1876 JUMP JUMPDEST DUP1 PUSH1 0x1F ADD PUSH1 0x20 DUP1 SWAP2 DIV MUL PUSH1 0x20 ADD PUSH1 0x40 MLOAD SWAP1 DUP2 ADD PUSH1 0x40 MSTORE DUP1 SWAP3 SWAP2 SWAP1 DUP2 DUP2 MSTORE PUSH1 0x20 ADD DUP3 DUP1 SLOAD PUSH2 0x458 SWAP1 PUSH2 0x1876 JUMP JUMPDEST DUP1 ISZERO PUSH2 0x4A5 JUMPI DUP1 PUSH1 0x1F LT PUSH2 0x47A JUMPI PUSH2 0x100 DUP1 DUP4 SLOAD DIV MUL DUP4 MSTORE SWAP2 PUSH1 0x20 ADD SWAP2 PUSH2 0x4A5 JUMP JUMPDEST DUP3 ADD SWAP2 SWAP1 PUSH1 0x0 MSTORE PUSH1 0x20 PUSH1 0x0 KECCAK256 SWAP1 JUMPDEST DUP2 SLOAD DUP2 MSTORE SWAP1 PUSH1 0x1 ADD SWAP1 PUSH1 0x20 ADD DUP1 DUP4 GT PUSH2 0x488 JUMPI DUP3 SWAP1 SUB PUSH1 0x1F AND DUP3 ADD SWAP2 JUMPDEST POP POP POP POP POP SWAP1 POP SWAP2 SWAP1 POP JUMP JUMPDEST PUSH1 0x1 PUSH1 0x1 PUSH1 0xA0 SHL SUB DUP6 AND CALLER EQ DUP1 PUSH2 0x4CD JUMPI POP PUSH2 0x4CD DUP6 CALLER PUSH2 0x21C JUMP JUMPDEST PUSH2 0x534 JUMPI PUSH1 0x40 MLOAD PUSH3 0x461BCD PUSH1 0xE5 SHL DUP2 MSTORE PUSH1 0x20 PUSH1 0x4 DUP3 ADD MSTORE PUSH1 0x32 PUSH1 0x24 DUP3 ADD MSTORE PUSH32 0x455243313135353A207472616E736665722063616C6C6572206973206E6F7420 PUSH1 0x44 DUP3 ADD MSTORE PUSH18 0x1BDDDB995C881B9BDC88185C1C1C9BDD9959 PUSH1 0x72 SHL PUSH1 0x64 DUP3 ADD MSTORE PUSH1 0x84 ADD PUSH2 0x2D8 JUMP JUMPDEST PUSH2 0x541 DUP6 DUP6 DUP6 DUP6 DUP6 PUSH2 0x895 JUMP JUMPDEST POP POP POP POP POP JUMP JUMPDEST PUSH1 0x60 DUP2 MLOAD DUP4 MLOAD EQ PUSH2 0x5AD JUMPI PUSH1 0x40 MLOAD PUSH3 0x461BCD PUSH1 0xE5 SHL DUP2 MSTORE PUSH1 0x20 PUSH1 0x4 DUP3 ADD MSTORE PUSH1 0x29 PUSH1 0x24 DUP3 ADD MSTORE PUSH32 0x455243313135353A206163636F756E747320616E6420696473206C656E677468 PUSH1 0x44 DUP3 ADD MSTORE PUSH9 0x40DAD2E6DAC2E8C6D PUSH1 0xBB SHL PUSH1 0x64 DUP3 ADD MSTORE PUSH1 0x84 ADD PUSH2 0x2D8 JUMP JUMPDEST PUSH1 0x0 DUP4 MLOAD PUSH8 0xFFFFFFFFFFFFFFFF DUP2 GT ISZERO PUSH2 0x5C9 JUMPI PUSH2 0x5C9 PUSH2 0x1925 JUMP JUMPDEST PUSH1 0x40 MLOAD SWAP1 DUP1 DUP3 MSTORE DUP1 PUSH1 0x20 MUL PUSH1 0x20 ADD DUP3 ADD PUSH1 0x40 MSTORE DUP1 ISZERO PUSH2 0x5F2 JUMPI DUP2 PUSH1 0x20 ADD PUSH1 0x20 DUP3 MUL DUP1 CALLDATASIZE DUP4 CALLDATACOPY ADD SWAP1 POP JUMPDEST POP SWAP1 POP PUSH1 0x0 JUMPDEST DUP5 MLOAD DUP2 LT ISZERO PUSH2 0x66A JUMPI PUSH2 0x63D DUP6 DUP3 DUP2 MLOAD DUP2 LT PUSH2 0x616 JUMPI PUSH2 0x616 PUSH2 0x190F JUMP JUMPDEST PUSH1 0x20 MUL PUSH1 0x20 ADD ADD MLOAD DUP6 DUP4 DUP2 MLOAD DUP2 LT PUSH2 0x630 JUMPI PUSH2 0x630 PUSH2 0x190F JUMP JUMPDEST PUSH1 0x20 MUL PUSH1 0x20 ADD ADD MLOAD PUSH2 0x270 JUMP JUMPDEST DUP3 DUP3 DUP2 MLOAD DUP2 LT PUSH2 0x64F JUMPI PUSH2 0x64F PUSH2 0x190F JUMP JUMPDEST PUSH1 0x20 SWAP1 DUP2 MUL SWAP2 SWAP1 SWAP2 ADD ADD MSTORE PUSH2 0x663 DUP2 PUSH2 0x18DE JUMP JUMPDEST SWAP1 POP PUSH2 0x5F8 JUMP JUMPDEST POP SWAP4 SWAP3 POP POP POP JUMP JUMPDEST PUSH1 0x3 SLOAD PUSH1 0x1 PUSH1 0x1 PUSH1 0xA0 SHL SUB AND CALLER EQ PUSH2 0x69C JUMPI PUSH1 0x40 MLOAD PUSH3 0x461BCD PUSH1 0xE5 SHL DUP2 MSTORE PUSH1 0x4 ADD PUSH2 0x2D8 SWAP1 PUSH2 0x1805 JUMP JUMPDEST PUSH2 0x6A6 PUSH1 0x0 PUSH2 0xA72 JUMP JUMPDEST JUMP JUMPDEST PUSH2 0x6B3 CALLER DUP4 DUP4 PUSH2 0xAC4 JUMP JUMPDEST POP POP JUMP JUMPDEST PUSH1 0x3 SLOAD PUSH1 0x1 PUSH1 0x1 PUSH1 0xA0 SHL SUB AND CALLER EQ PUSH2 0x6E1 JUMPI PUSH1 0x40 MLOAD PUSH3 0x461BCD PUSH1 0xE5 SHL DUP2 MSTORE PUSH1 0x4 ADD PUSH2 0x2D8 SWAP1 PUSH2 0x1805 JUMP JUMPDEST PUSH2 0x6EC DUP4 DUP4 DUP4 PUSH2 0xBA5 JUMP JUMPDEST POP POP POP JUMP JUMPDEST PUSH1 0x3 SLOAD PUSH1 0x1 PUSH1 0x1 PUSH1 0xA0 SHL SUB AND CALLER EQ PUSH2 0x71B JUMPI PUSH1 0x40 MLOAD PUSH3 0x461BCD PUSH1 0xE5 SHL DUP2 MSTORE PUSH1 0x4 ADD PUSH2 0x2D8 SWAP1 PUSH2 0x1805 JUMP JUMPDEST PUSH1 0x0 JUMPDEST DUP4 MLOAD DUP2 LT ISZERO PUSH2 0x75D JUMPI PUSH2 0x74B DUP5 DUP3 DUP2 MLOAD DUP2 LT PUSH2 0x73C JUMPI PUSH2 0x73C PUSH2 0x190F JUMP JUMPDEST PUSH1 0x20 MUL PUSH1 0x20 ADD ADD MLOAD DUP5 DUP5 PUSH2 0xBA5 JUMP JUMPDEST DUP1 PUSH2 0x755 DUP2 PUSH2 0x18DE JUMP JUMPDEST SWAP2 POP POP PUSH2 0x71E JUMP JUMPDEST POP POP POP POP JUMP JUMPDEST PUSH1 0x1 PUSH1 0x1 PUSH1 0xA0 SHL SUB DUP6 AND CALLER EQ DUP1 PUSH2 0x77F JUMPI POP PUSH2 0x77F DUP6 CALLER PUSH2 0x21C JUMP JUMPDEST PUSH2 0x7DD JUMPI PUSH1 0x40 MLOAD PUSH3 0x461BCD PUSH1 0xE5 SHL DUP2 MSTORE PUSH1 0x20 PUSH1 0x4 DUP3 ADD MSTORE PUSH1 0x29 PUSH1 0x24 DUP3 ADD MSTORE PUSH32 0x455243313135353A2063616C6C6572206973206E6F74206F776E6572206E6F72 PUSH1 0x44 DUP3 ADD MSTORE PUSH9 0x8185C1C1C9BDD9959 PUSH1 0xBA SHL PUSH1 0x64 DUP3 ADD MSTORE PUSH1 0x84 ADD PUSH2 0x2D8 JUMP JUMPDEST PUSH2 0x541 DUP6 DUP6 DUP6 DUP6 DUP6 PUSH2 0xC8E JUMP JUMPDEST PUSH1 0x3 SLOAD PUSH1 0x1 PUSH1 0x1 PUSH1 0xA0 SHL SUB AND CALLER EQ PUSH2 0x814 JUMPI PUSH1 0x40 MLOAD PUSH3 0x461BCD PUSH1 0xE5 SHL DUP2 MSTORE PUSH1 0x4 ADD PUSH2 0x2D8 SWAP1 PUSH2 0x1805 JUMP JUMPDEST PUSH1 0x1 PUSH1 0x1 PUSH1 0xA0 SHL SUB DUP2 AND PUSH2 0x879 JUMPI PUSH1 0x40 MLOAD PUSH3 0x461BCD PUSH1 0xE5 SHL DUP2 MSTORE PUSH1 0x20 PUSH1 0x4 DUP3 ADD MSTORE PUSH1 0x26 PUSH1 0x24 DUP3 ADD MSTORE PUSH32 0x4F776E61626C653A206E6577206F776E657220697320746865207A65726F2061 PUSH1 0x44 DUP3 ADD MSTORE PUSH6 0x646472657373 PUSH1 0xD0 SHL PUSH1 0x64 DUP3 ADD MSTORE PUSH1 0x84 ADD PUSH2 0x2D8 JUMP JUMPDEST PUSH2 0x38C DUP2 PUSH2 0xA72 JUMP JUMPDEST DUP1 MLOAD PUSH2 0x6B3 SWAP1 PUSH1 0x2 SWAP1 PUSH1 0x20 DUP5 ADD SWAP1 PUSH2 0x1041 JUMP JUMPDEST DUP2 MLOAD DUP4 MLOAD EQ PUSH2 0x8F7 JUMPI PUSH1 0x40 MLOAD PUSH3 0x461BCD PUSH1 0xE5 SHL DUP2 MSTORE PUSH1 0x20 PUSH1 0x4 DUP3 ADD MSTORE PUSH1 0x28 PUSH1 0x24 DUP3 ADD MSTORE PUSH32 0x455243313135353A2069647320616E6420616D6F756E7473206C656E67746820 PUSH1 0x44 DUP3 ADD MSTORE PUSH8 0xDAD2E6DAC2E8C6D PUSH1 0xC3 SHL PUSH1 0x64 DUP3 ADD MSTORE PUSH1 0x84 ADD PUSH2 0x2D8 JUMP JUMPDEST PUSH1 0x1 PUSH1 0x1 PUSH1 0xA0 SHL SUB DUP5 AND PUSH2 0x91D JUMPI PUSH1 0x40 MLOAD PUSH3 0x461BCD PUSH1 0xE5 SHL DUP2 MSTORE PUSH1 0x4 ADD PUSH2 0x2D8 SWAP1 PUSH2 0x1776 JUMP JUMPDEST CALLER PUSH1 0x0 JUMPDEST DUP5 MLOAD DUP2 LT ISZERO PUSH2 0xA04 JUMPI PUSH1 0x0 DUP6 DUP3 DUP2 MLOAD DUP2 LT PUSH2 0x93E JUMPI PUSH2 0x93E PUSH2 0x190F JUMP JUMPDEST PUSH1 0x20 MUL PUSH1 0x20 ADD ADD MLOAD SWAP1 POP PUSH1 0x0 DUP6 DUP4 DUP2 MLOAD DUP2 LT PUSH2 0x95C JUMPI PUSH2 0x95C PUSH2 0x190F JUMP JUMPDEST PUSH1 0x20 SWAP1 DUP2 MUL SWAP2 SWAP1 SWAP2 ADD DUP2 ADD MLOAD PUSH1 0x0 DUP5 DUP2 MSTORE DUP1 DUP4 MSTORE PUSH1 0x40 DUP1 DUP3 KECCAK256 PUSH1 0x1 PUSH1 0x1 PUSH1 0xA0 SHL SUB DUP15 AND DUP4 MSTORE SWAP1 SWAP4 MSTORE SWAP2 SWAP1 SWAP2 KECCAK256 SLOAD SWAP1 SWAP2 POP DUP2 DUP2 LT ISZERO PUSH2 0x9AC JUMPI PUSH1 0x40 MLOAD PUSH3 0x461BCD PUSH1 0xE5 SHL DUP2 MSTORE PUSH1 0x4 ADD PUSH2 0x2D8 SWAP1 PUSH2 0x17BB JUMP JUMPDEST PUSH1 0x0 DUP4 DUP2 MSTORE PUSH1 0x20 DUP2 DUP2 MSTORE PUSH1 0x40 DUP1 DUP4 KECCAK256 PUSH1 0x1 PUSH1 0x1 PUSH1 0xA0 SHL SUB DUP15 DUP2 AND DUP6 MSTORE SWAP3 MSTORE DUP1 DUP4 KECCAK256 DUP6 DUP6 SUB SWAP1 SSTORE SWAP1 DUP12 AND DUP3 MSTORE DUP2 KECCAK256 DUP1 SLOAD DUP5 SWAP3 SWAP1 PUSH2 0x9E9 SWAP1 DUP5 SWAP1 PUSH2 0x185E JUMP JUMPDEST SWAP3 POP POP DUP2 SWAP1 SSTORE POP POP POP POP DUP1 PUSH2 0x9FD SWAP1 PUSH2 0x18DE JUMP JUMPDEST SWAP1 POP PUSH2 0x921 JUMP JUMPDEST POP DUP5 PUSH1 0x1 PUSH1 0x1 PUSH1 0xA0 SHL SUB AND DUP7 PUSH1 0x1 PUSH1 0x1 PUSH1 0xA0 SHL SUB AND DUP3 PUSH1 0x1 PUSH1 0x1 PUSH1 0xA0 SHL SUB AND PUSH32 0x4A39DC06D4C0DBC64B70AF90FD698A233A518AA5D07E595D983B8C0526C8F7FB DUP8 DUP8 PUSH1 0x40 MLOAD PUSH2 0xA54 SWAP3 SWAP2 SWAP1 PUSH2 0x16ED JUMP JUMPDEST PUSH1 0x40 MLOAD DUP1 SWAP2 SUB SWAP1 LOG4 PUSH2 0xA6A DUP2 DUP8 DUP8 DUP8 DUP8 DUP8 PUSH2 0xDB8 JUMP JUMPDEST POP POP POP POP POP POP JUMP JUMPDEST PUSH1 0x3 DUP1 SLOAD PUSH1 0x1 PUSH1 0x1 PUSH1 0xA0 SHL SUB DUP4 DUP2 AND PUSH1 0x1 PUSH1 0x1 PUSH1 0xA0 SHL SUB NOT DUP4 AND DUP2 OR SWAP1 SWAP4 SSTORE PUSH1 0x40 MLOAD SWAP2 AND SWAP2 SWAP1 DUP3 SWAP1 PUSH32 0x8BE0079C531659141344CD1FD0A4F28419497F9722A3DAAFE3B4186F6B6457E0 SWAP1 PUSH1 0x0 SWAP1 LOG3 POP POP JUMP JUMPDEST DUP2 PUSH1 0x1 PUSH1 0x1 PUSH1 0xA0 SHL SUB AND DUP4 PUSH1 0x1 PUSH1 0x1 PUSH1 0xA0 SHL SUB AND EQ ISZERO PUSH2 0xB38 JUMPI PUSH1 0x40 MLOAD PUSH3 0x461BCD PUSH1 0xE5 SHL DUP2 MSTORE PUSH1 0x20 PUSH1 0x4 DUP3 ADD MSTORE PUSH1 0x29 PUSH1 0x24 DUP3 ADD MSTORE PUSH32 0x455243313135353A2073657474696E6720617070726F76616C20737461747573 PUSH1 0x44 DUP3 ADD MSTORE PUSH9 0x103337B91039B2B633 PUSH1 0xB9 SHL PUSH1 0x64 DUP3 ADD MSTORE PUSH1 0x84 ADD PUSH2 0x2D8 JUMP JUMPDEST PUSH1 0x1 PUSH1 0x1 PUSH1 0xA0 SHL SUB DUP4 DUP2 AND PUSH1 0x0 DUP2 DUP2 MSTORE PUSH1 0x1 PUSH1 0x20 SWAP1 DUP2 MSTORE PUSH1 0x40 DUP1 DUP4 KECCAK256 SWAP5 DUP8 AND DUP1 DUP5 MSTORE SWAP5 DUP3 MSTORE SWAP2 DUP3 SWAP1 KECCAK256 DUP1 SLOAD PUSH1 0xFF NOT AND DUP7 ISZERO ISZERO SWAP1 DUP2 OR SWAP1 SWAP2 SSTORE SWAP2 MLOAD SWAP2 DUP3 MSTORE PUSH32 0x17307EAB39AB6107E8899845AD3D59BD9653F200F220920489CA2B5937696C31 SWAP2 ADD PUSH1 0x40 MLOAD DUP1 SWAP2 SUB SWAP1 LOG3 POP POP POP JUMP JUMPDEST PUSH1 0x1 PUSH1 0x1 PUSH1 0xA0 SHL SUB DUP4 AND PUSH2 0xC05 JUMPI PUSH1 0x40 MLOAD PUSH3 0x461BCD PUSH1 0xE5 SHL DUP2 MSTORE PUSH1 0x20 PUSH1 0x4 DUP3 ADD MSTORE PUSH1 0x21 PUSH1 0x24 DUP3 ADD MSTORE PUSH32 0x455243313135353A206D696E7420746F20746865207A65726F20616464726573 PUSH1 0x44 DUP3 ADD MSTORE PUSH1 0x73 PUSH1 0xF8 SHL PUSH1 0x64 DUP3 ADD MSTORE PUSH1 0x84 ADD PUSH2 0x2D8 JUMP JUMPDEST PUSH1 0x0 DUP3 DUP2 MSTORE PUSH1 0x20 DUP2 DUP2 MSTORE PUSH1 0x40 DUP1 DUP4 KECCAK256 PUSH1 0x1 PUSH1 0x1 PUSH1 0xA0 SHL SUB DUP8 AND DUP5 MSTORE SWAP1 SWAP2 MSTORE DUP2 KECCAK256 DUP1 SLOAD CALLER SWAP3 DUP5 SWAP3 SWAP2 PUSH2 0xC37 SWAP1 DUP5 SWAP1 PUSH2 0x185E JUMP JUMPDEST SWAP1 SWAP2 SSTORE POP POP PUSH1 0x40 DUP1 MLOAD DUP5 DUP2 MSTORE PUSH1 0x20 DUP2 ADD DUP5 SWAP1 MSTORE PUSH1 0x1 PUSH1 0x1 PUSH1 0xA0 SHL SUB DUP1 DUP8 AND SWAP3 PUSH1 0x0 SWAP3 SWAP2 DUP6 AND SWAP2 PUSH32 0xC3D58168C5AE7397731D063D5BBF3D657854427343F4C083240F7AACAA2D0F62 SWAP2 ADD PUSH1 0x40 MLOAD DUP1 SWAP2 SUB SWAP1 LOG4 POP POP POP POP JUMP JUMPDEST PUSH1 0x1 PUSH1 0x1 PUSH1 0xA0 SHL SUB DUP5 AND PUSH2 0xCB4 JUMPI PUSH1 0x40 MLOAD PUSH3 0x461BCD PUSH1 0xE5 SHL DUP2 MSTORE PUSH1 0x4 ADD PUSH2 0x2D8 SWAP1 PUSH2 0x1776 JUMP JUMPDEST CALLER PUSH1 0x0 PUSH2 0xCC0 DUP6 PUSH2 0xF2C JUMP JUMPDEST SWAP1 POP PUSH1 0x0 PUSH2 0xCCD DUP6 PUSH2 0xF2C JUMP JUMPDEST SWAP1 POP PUSH1 0x0 DUP7 DUP2 MSTORE PUSH1 0x20 DUP2 DUP2 MSTORE PUSH1 0x40 DUP1 DUP4 KECCAK256 PUSH1 0x1 PUSH1 0x1 PUSH1 0xA0 SHL SUB DUP13 AND DUP5 MSTORE SWAP1 SWAP2 MSTORE SWAP1 KECCAK256 SLOAD DUP6 DUP2 LT ISZERO PUSH2 0xD10 JUMPI PUSH1 0x40 MLOAD PUSH3 0x461BCD PUSH1 0xE5 SHL DUP2 MSTORE PUSH1 0x4 ADD PUSH2 0x2D8 SWAP1 PUSH2 0x17BB JUMP JUMPDEST PUSH1 0x0 DUP8 DUP2 MSTORE PUSH1 0x20 DUP2 DUP2 MSTORE PUSH1 0x40 DUP1 DUP4 KECCAK256 PUSH1 0x1 PUSH1 0x1 PUSH1 0xA0 SHL SUB DUP14 DUP2 AND DUP6 MSTORE SWAP3 MSTORE DUP1 DUP4 KECCAK256 DUP10 DUP6 SUB SWAP1 SSTORE SWAP1 DUP11 AND DUP3 MSTORE DUP2 KECCAK256 DUP1 SLOAD DUP9 SWAP3 SWAP1 PUSH2 0xD4D SWAP1 DUP5 SWAP1 PUSH2 0x185E JUMP JUMPDEST SWAP1 SWAP2 SSTORE POP POP PUSH1 0x40 DUP1 MLOAD DUP9 DUP2 MSTORE PUSH1 0x20 DUP2 ADD DUP9 SWAP1 MSTORE PUSH1 0x1 PUSH1 0x1 PUSH1 0xA0 SHL SUB DUP1 DUP12 AND SWAP3 DUP13 DUP3 AND SWAP3 SWAP2 DUP9 AND SWAP2 PUSH32 0xC3D58168C5AE7397731D063D5BBF3D657854427343F4C083240F7AACAA2D0F62 SWAP2 ADD PUSH1 0x40 MLOAD DUP1 SWAP2 SUB SWAP1 LOG4 PUSH2 0xDAD DUP5 DUP11 DUP11 DUP11 DUP11 DUP11 PUSH2 0xF77 JUMP JUMPDEST POP POP POP POP POP POP POP POP POP JUMP JUMPDEST PUSH1 0x1 PUSH1 0x1 PUSH1 0xA0 SHL SUB DUP5 AND EXTCODESIZE ISZERO PUSH2 0xA6A JUMPI PUSH1 0x40 MLOAD PUSH4 0xBC197C81 PUSH1 0xE0 SHL DUP2 MSTORE PUSH1 0x1 PUSH1 0x1 PUSH1 0xA0 SHL SUB DUP6 AND SWAP1 PUSH4 0xBC197C81 SWAP1 PUSH2 0xDFC SWAP1 DUP10 SWAP1 DUP10 SWAP1 DUP9 SWAP1 DUP9 SWAP1 DUP9 SWAP1 PUSH1 0x4 ADD PUSH2 0x1637 JUMP JUMPDEST PUSH1 0x20 PUSH1 0x40 MLOAD DUP1 DUP4 SUB DUP2 PUSH1 0x0 DUP8 DUP1 EXTCODESIZE ISZERO DUP1 ISZERO PUSH2 0xE16 JUMPI PUSH1 0x0 DUP1 REVERT JUMPDEST POP GAS CALL SWAP3 POP POP POP DUP1 ISZERO PUSH2 0xE46 JUMPI POP PUSH1 0x40 DUP1 MLOAD PUSH1 0x1F RETURNDATASIZE SWAP1 DUP2 ADD PUSH1 0x1F NOT AND DUP3 ADD SWAP1 SWAP3 MSTORE PUSH2 0xE43 SWAP2 DUP2 ADD SWAP1 PUSH2 0x1528 JUMP JUMPDEST PUSH1 0x1 JUMPDEST PUSH2 0xEF3 JUMPI PUSH2 0xE52 PUSH2 0x193B JUMP JUMPDEST DUP1 PUSH4 0x8C379A0 EQ ISZERO PUSH2 0xE8C JUMPI POP PUSH2 0xE67 PUSH2 0x1957 JUMP JUMPDEST DUP1 PUSH2 0xE72 JUMPI POP PUSH2 0xE8E JUMP JUMPDEST DUP1 PUSH1 0x40 MLOAD PUSH3 0x461BCD PUSH1 0xE5 SHL DUP2 MSTORE PUSH1 0x4 ADD PUSH2 0x2D8 SWAP2 SWAP1 PUSH2 0x171B JUMP JUMPDEST POP JUMPDEST PUSH1 0x40 MLOAD PUSH3 0x461BCD PUSH1 0xE5 SHL DUP2 MSTORE PUSH1 0x20 PUSH1 0x4 DUP3 ADD MSTORE PUSH1 0x34 PUSH1 0x24 DUP3 ADD MSTORE PUSH32 0x455243313135353A207472616E7366657220746F206E6F6E2045524331313535 PUSH1 0x44 DUP3 ADD MSTORE PUSH20 0x2932B1B2B4BB32B91034B6B83632B6B2B73A32B9 PUSH1 0x61 SHL PUSH1 0x64 DUP3 ADD MSTORE PUSH1 0x84 ADD PUSH2 0x2D8 JUMP JUMPDEST PUSH1 0x1 PUSH1 0x1 PUSH1 0xE0 SHL SUB NOT DUP2 AND PUSH4 0xBC197C81 PUSH1 0xE0 SHL EQ PUSH2 0xF23 JUMPI PUSH1 0x40 MLOAD PUSH3 0x461BCD PUSH1 0xE5 SHL DUP2 MSTORE PUSH1 0x4 ADD PUSH2 0x2D8 SWAP1 PUSH2 0x172E JUMP JUMPDEST POP POP POP POP POP POP POP JUMP JUMPDEST PUSH1 0x40 DUP1 MLOAD PUSH1 0x1 DUP1 DUP3 MSTORE DUP2 DUP4 ADD SWAP1 SWAP3 MSTORE PUSH1 0x60 SWAP2 PUSH1 0x0 SWAP2 SWAP1 PUSH1 0x20 DUP1 DUP4 ADD SWAP1 DUP1 CALLDATASIZE DUP4 CALLDATACOPY ADD SWAP1 POP POP SWAP1 POP DUP3 DUP2 PUSH1 0x0 DUP2 MLOAD DUP2 LT PUSH2 0xF66 JUMPI PUSH2 0xF66 PUSH2 0x190F JUMP JUMPDEST PUSH1 0x20 SWAP1 DUP2 MUL SWAP2 SWAP1 SWAP2 ADD ADD MSTORE SWAP3 SWAP2 POP POP JUMP JUMPDEST PUSH1 0x1 PUSH1 0x1 PUSH1 0xA0 SHL SUB DUP5 AND EXTCODESIZE ISZERO PUSH2 0xA6A JUMPI PUSH1 0x40 MLOAD PUSH4 0xF23A6E61 PUSH1 0xE0 SHL DUP2 MSTORE PUSH1 0x1 PUSH1 0x1 PUSH1 0xA0 SHL SUB DUP6 AND SWAP1 PUSH4 0xF23A6E61 SWAP1 PUSH2 0xFBB SWAP1 DUP10 SWAP1 DUP10 SWAP1 DUP9 SWAP1 DUP9 SWAP1 DUP9 SWAP1 PUSH1 0x4 ADD PUSH2 0x1695 JUMP JUMPDEST PUSH1 0x20 PUSH1 0x40 MLOAD DUP1 DUP4 SUB DUP2 PUSH1 0x0 DUP8 DUP1 EXTCODESIZE ISZERO DUP1 ISZERO PUSH2 0xFD5 JUMPI PUSH1 0x0 DUP1 REVERT JUMPDEST POP GAS CALL SWAP3 POP POP POP DUP1 ISZERO PUSH2 0x1005 JUMPI POP PUSH1 0x40 DUP1 MLOAD PUSH1 0x1F RETURNDATASIZE SWAP1 DUP2 ADD PUSH1 0x1F NOT AND DUP3 ADD SWAP1 SWAP3 MSTORE PUSH2 0x1002 SWAP2 DUP2 ADD SWAP1 PUSH2 0x1528 JUMP JUMPDEST PUSH1 0x1 JUMPDEST PUSH2 0x1011 JUMPI PUSH2 0xE52 PUSH2 0x193B JUMP JUMPDEST PUSH1 0x1 PUSH1 0x1 PUSH1 0xE0 SHL SUB NOT DUP2 AND PUSH4 0xF23A6E61 PUSH1 0xE0 SHL EQ PUSH2 0xF23 JUMPI PUSH1 0x40 MLOAD PUSH3 0x461BCD PUSH1 0xE5 SHL DUP2 MSTORE PUSH1 0x4 ADD PUSH2 0x2D8 SWAP1 PUSH2 0x172E JUMP JUMPDEST DUP3 DUP1 SLOAD PUSH2 0x104D SWAP1 PUSH2 0x1876 JUMP JUMPDEST SWAP1 PUSH1 0x0 MSTORE PUSH1 0x20 PUSH1 0x0 KECCAK256 SWAP1 PUSH1 0x1F ADD PUSH1 0x20 SWAP1 DIV DUP2 ADD SWAP3 DUP3 PUSH2 0x106F JUMPI PUSH1 0x0 DUP6 SSTORE PUSH2 0x10B5 JUMP JUMPDEST DUP3 PUSH1 0x1F LT PUSH2 0x1088 JUMPI DUP1 MLOAD PUSH1 0xFF NOT AND DUP4 DUP1 ADD OR DUP6 SSTORE PUSH2 0x10B5 JUMP JUMPDEST DUP3 DUP1 ADD PUSH1 0x1 ADD DUP6 SSTORE DUP3 ISZERO PUSH2 0x10B5 JUMPI SWAP2 DUP3 ADD JUMPDEST DUP3 DUP2 GT ISZERO PUSH2 0x10B5 JUMPI DUP3 MLOAD DUP3 SSTORE SWAP2 PUSH1 0x20 ADD SWAP2 SWAP1 PUSH1 0x1 ADD SWAP1 PUSH2 0x109A JUMP JUMPDEST POP PUSH2 0x10C1 SWAP3 SWAP2 POP PUSH2 0x10C5 JUMP JUMPDEST POP SWAP1 JUMP JUMPDEST JUMPDEST DUP1 DUP3 GT ISZERO PUSH2 0x10C1 JUMPI PUSH1 0x0 DUP2 SSTORE PUSH1 0x1 ADD PUSH2 0x10C6 JUMP JUMPDEST PUSH1 0x0 PUSH8 0xFFFFFFFFFFFFFFFF DUP4 GT ISZERO PUSH2 0x10F4 JUMPI PUSH2 0x10F4 PUSH2 0x1925 JUMP JUMPDEST PUSH1 0x40 MLOAD PUSH2 0x110B PUSH1 0x1F DUP6 ADD PUSH1 0x1F NOT AND PUSH1 0x20 ADD DUP3 PUSH2 0x18B1 JUMP JUMPDEST DUP1 SWAP2 POP DUP4 DUP2 MSTORE DUP5 DUP5 DUP5 ADD GT ISZERO PUSH2 0x1120 JUMPI PUSH1 0x0 DUP1 REVERT JUMPDEST DUP4 DUP4 PUSH1 0x20 DUP4 ADD CALLDATACOPY PUSH1 0x0 PUSH1 0x20 DUP6 DUP4 ADD ADD MSTORE POP SWAP4 SWAP3 POP POP POP JUMP JUMPDEST DUP1 CALLDATALOAD PUSH1 0x1 PUSH1 0x1 PUSH1 0xA0 SHL SUB DUP2 AND DUP2 EQ PUSH2 0x114F JUMPI PUSH1 0x0 DUP1 REVERT JUMPDEST SWAP2 SWAP1 POP JUMP JUMPDEST PUSH1 0x0 DUP3 PUSH1 0x1F DUP4 ADD SLT PUSH2 0x1165 JUMPI PUSH1 0x0 DUP1 REVERT JUMPDEST DUP2 CALLDATALOAD PUSH1 0x20 PUSH2 0x1172 DUP3 PUSH2 0x183A JUMP JUMPDEST PUSH1 0x40 MLOAD PUSH2 0x117F DUP3 DUP3 PUSH2 0x18B1 JUMP JUMPDEST DUP4 DUP2 MSTORE DUP3 DUP2 ADD SWAP2 POP DUP6 DUP4 ADD PUSH1 0x5 DUP6 SWAP1 SHL DUP8 ADD DUP5 ADD DUP9 LT ISZERO PUSH2 0x119F JUMPI PUSH1 0x0 DUP1 REVERT JUMPDEST PUSH1 0x0 JUMPDEST DUP6 DUP2 LT ISZERO PUSH2 0x11C5 JUMPI PUSH2 0x11B3 DUP3 PUSH2 0x1138 JUMP JUMPDEST DUP5 MSTORE SWAP3 DUP5 ADD SWAP3 SWAP1 DUP5 ADD SWAP1 PUSH1 0x1 ADD PUSH2 0x11A2 JUMP JUMPDEST POP SWAP1 SWAP8 SWAP7 POP POP POP POP POP POP POP JUMP JUMPDEST PUSH1 0x0 DUP3 PUSH1 0x1F DUP4 ADD SLT PUSH2 0x11E3 JUMPI PUSH1 0x0 DUP1 REVERT JUMPDEST DUP2 CALLDATALOAD PUSH1 0x20 PUSH2 0x11F0 DUP3 PUSH2 0x183A JUMP JUMPDEST PUSH1 0x40 MLOAD PUSH2 0x11FD DUP3 DUP3 PUSH2 0x18B1 JUMP JUMPDEST DUP4 DUP2 MSTORE DUP3 DUP2 ADD SWAP2 POP DUP6 DUP4 ADD PUSH1 0x5 DUP6 SWAP1 SHL DUP8 ADD DUP5 ADD DUP9 LT ISZERO PUSH2 0x121D JUMPI PUSH1 0x0 DUP1 REVERT JUMPDEST PUSH1 0x0 JUMPDEST DUP6 DUP2 LT ISZERO PUSH2 0x11C5 JUMPI DUP2 CALLDATALOAD DUP5 MSTORE SWAP3 DUP5 ADD SWAP3 SWAP1 DUP5 ADD SWAP1 PUSH1 0x1 ADD PUSH2 0x1220 JUMP JUMPDEST PUSH1 0x0 DUP3 PUSH1 0x1F DUP4 ADD SLT PUSH2 0x124D JUMPI PUSH1 0x0 DUP1 REVERT JUMPDEST PUSH2 0x125C DUP4 DUP4 CALLDATALOAD PUSH1 0x20 DUP6 ADD PUSH2 0x10DA JUMP JUMPDEST SWAP4 SWAP3 POP POP POP JUMP JUMPDEST PUSH1 0x0 PUSH1 0x20 DUP3 DUP5 SUB SLT ISZERO PUSH2 0x1275 JUMPI PUSH1 0x0 DUP1 REVERT JUMPDEST PUSH2 0x125C DUP3 PUSH2 0x1138 JUMP JUMPDEST PUSH1 0x0 DUP1 PUSH1 0x40 DUP4 DUP6 SUB SLT ISZERO PUSH2 0x1291 JUMPI PUSH1 0x0 DUP1 REVERT JUMPDEST PUSH2 0x129A DUP4 PUSH2 0x1138 JUMP JUMPDEST SWAP2 POP PUSH2 0x12A8 PUSH1 0x20 DUP5 ADD PUSH2 0x1138 JUMP JUMPDEST SWAP1 POP SWAP3 POP SWAP3 SWAP1 POP JUMP JUMPDEST PUSH1 0x0 DUP1 PUSH1 0x0 DUP1 PUSH1 0x0 PUSH1 0xA0 DUP7 DUP9 SUB SLT ISZERO PUSH2 0x12C9 JUMPI PUSH1 0x0 DUP1 REVERT JUMPDEST PUSH2 0x12D2 DUP7 PUSH2 0x1138 JUMP JUMPDEST SWAP5 POP PUSH2 0x12E0 PUSH1 0x20 DUP8 ADD PUSH2 0x1138 JUMP JUMPDEST SWAP4 POP PUSH1 0x40 DUP7 ADD CALLDATALOAD PUSH8 0xFFFFFFFFFFFFFFFF DUP1 DUP3 GT ISZERO PUSH2 0x12FD JUMPI PUSH1 0x0 DUP1 REVERT JUMPDEST PUSH2 0x1309 DUP10 DUP4 DUP11 ADD PUSH2 0x11D2 JUMP JUMPDEST SWAP5 POP PUSH1 0x60 DUP9 ADD CALLDATALOAD SWAP2 POP DUP1 DUP3 GT ISZERO PUSH2 0x131F JUMPI PUSH1 0x0 DUP1 REVERT JUMPDEST PUSH2 0x132B DUP10 DUP4 DUP11 ADD PUSH2 0x11D2 JUMP JUMPDEST SWAP4 POP PUSH1 0x80 DUP9 ADD CALLDATALOAD SWAP2 POP DUP1 DUP3 GT ISZERO PUSH2 0x1341 JUMPI PUSH1 0x0 DUP1 REVERT JUMPDEST POP PUSH2 0x134E DUP9 DUP3 DUP10 ADD PUSH2 0x123C JUMP JUMPDEST SWAP2 POP POP SWAP3 SWAP6 POP SWAP3 SWAP6 SWAP1 SWAP4 POP JUMP JUMPDEST PUSH1 0x0 DUP1 PUSH1 0x0 DUP1 PUSH1 0x0 PUSH1 0xA0 DUP7 DUP9 SUB SLT ISZERO PUSH2 0x1373 JUMPI PUSH1 0x0 DUP1 REVERT JUMPDEST PUSH2 0x137C DUP7 PUSH2 0x1138 JUMP JUMPDEST SWAP5 POP PUSH2 0x138A PUSH1 0x20 DUP8 ADD PUSH2 0x1138 JUMP JUMPDEST SWAP4 POP PUSH1 0x40 DUP7 ADD CALLDATALOAD SWAP3 POP PUSH1 0x60 DUP7 ADD CALLDATALOAD SWAP2 POP PUSH1 0x80 DUP7 ADD CALLDATALOAD PUSH8 0xFFFFFFFFFFFFFFFF DUP2 GT ISZERO PUSH2 0x13B4 JUMPI PUSH1 0x0 DUP1 REVERT JUMPDEST PUSH2 0x134E DUP9 DUP3 DUP10 ADD PUSH2 0x123C JUMP JUMPDEST PUSH1 0x0 DUP1 PUSH1 0x40 DUP4 DUP6 SUB SLT ISZERO PUSH2 0x13D3 JUMPI PUSH1 0x0 DUP1 REVERT JUMPDEST PUSH2 0x13DC DUP4 PUSH2 0x1138 JUMP JUMPDEST SWAP2 POP PUSH1 0x20 DUP4 ADD CALLDATALOAD DUP1 ISZERO ISZERO DUP2 EQ PUSH2 0x13F1 JUMPI PUSH1 0x0 DUP1 REVERT JUMPDEST DUP1 SWAP2 POP POP SWAP3 POP SWAP3 SWAP1 POP JUMP JUMPDEST PUSH1 0x0 DUP1 PUSH1 0x40 DUP4 DUP6 SUB SLT ISZERO PUSH2 0x140F JUMPI PUSH1 0x0 DUP1 REVERT JUMPDEST PUSH2 0x1418 DUP4 PUSH2 0x1138 JUMP JUMPDEST SWAP5 PUSH1 0x20 SWAP4 SWAP1 SWAP4 ADD CALLDATALOAD SWAP4 POP POP POP JUMP JUMPDEST PUSH1 0x0 DUP1 PUSH1 0x0 PUSH1 0x60 DUP5 DUP7 SUB SLT ISZERO PUSH2 0x143B JUMPI PUSH1 0x0 DUP1 REVERT JUMPDEST PUSH2 0x1444 DUP5 PUSH2 0x1138 JUMP JUMPDEST SWAP6 PUSH1 0x20 DUP6 ADD CALLDATALOAD SWAP6 POP PUSH1 0x40 SWAP1 SWAP5 ADD CALLDATALOAD SWAP4 SWAP3 POP POP POP JUMP JUMPDEST PUSH1 0x0 DUP1 PUSH1 0x40 DUP4 DUP6 SUB SLT ISZERO PUSH2 0x146C JUMPI PUSH1 0x0 DUP1 REVERT JUMPDEST DUP3 CALLDATALOAD PUSH8 0xFFFFFFFFFFFFFFFF DUP1 DUP3 GT ISZERO PUSH2 0x1484 JUMPI PUSH1 0x0 DUP1 REVERT JUMPDEST PUSH2 0x1490 DUP7 DUP4 DUP8 ADD PUSH2 0x1154 JUMP JUMPDEST SWAP4 POP PUSH1 0x20 DUP6 ADD CALLDATALOAD SWAP2 POP DUP1 DUP3 GT ISZERO PUSH2 0x14A6 JUMPI PUSH1 0x0 DUP1 REVERT JUMPDEST POP PUSH2 0x14B3 DUP6 DUP3 DUP7 ADD PUSH2 0x11D2 JUMP JUMPDEST SWAP2 POP POP SWAP3 POP SWAP3 SWAP1 POP JUMP JUMPDEST PUSH1 0x0 DUP1 PUSH1 0x0 PUSH1 0x60 DUP5 DUP7 SUB SLT ISZERO PUSH2 0x14D2 JUMPI PUSH1 0x0 DUP1 REVERT JUMPDEST DUP4 CALLDATALOAD PUSH8 0xFFFFFFFFFFFFFFFF DUP2 GT ISZERO PUSH2 0x14E9 JUMPI PUSH1 0x0 DUP1 REVERT JUMPDEST PUSH2 0x14F5 DUP7 DUP3 DUP8 ADD PUSH2 0x1154 JUMP JUMPDEST SWAP7 PUSH1 0x20 DUP7 ADD CALLDATALOAD SWAP7 POP PUSH1 0x40 SWAP1 SWAP6 ADD CALLDATALOAD SWAP5 SWAP4 POP POP POP POP JUMP JUMPDEST PUSH1 0x0 PUSH1 0x20 DUP3 DUP5 SUB SLT ISZERO PUSH2 0x151D JUMPI PUSH1 0x0 DUP1 REVERT JUMPDEST DUP2 CALLDATALOAD PUSH2 0x125C DUP2 PUSH2 0x19E1 JUMP JUMPDEST PUSH1 0x0 PUSH1 0x20 DUP3 DUP5 SUB SLT ISZERO PUSH2 0x153A JUMPI PUSH1 0x0 DUP1 REVERT JUMPDEST DUP2 MLOAD PUSH2 0x125C DUP2 PUSH2 0x19E1 JUMP JUMPDEST PUSH1 0x0 PUSH1 0x20 DUP3 DUP5 SUB SLT ISZERO PUSH2 0x1557 JUMPI PUSH1 0x0 DUP1 REVERT JUMPDEST DUP2 CALLDATALOAD PUSH8 0xFFFFFFFFFFFFFFFF DUP2 GT ISZERO PUSH2 0x156E JUMPI PUSH1 0x0 DUP1 REVERT JUMPDEST DUP3 ADD PUSH1 0x1F DUP2 ADD DUP5 SGT PUSH2 0x157F JUMPI PUSH1 0x0 DUP1 REVERT JUMPDEST PUSH2 0x158E DUP5 DUP3 CALLDATALOAD PUSH1 0x20 DUP5 ADD PUSH2 0x10DA JUMP JUMPDEST SWAP5 SWAP4 POP POP POP POP JUMP JUMPDEST PUSH1 0x0 PUSH1 0x20 DUP3 DUP5 SUB SLT ISZERO PUSH2 0x15A8 JUMPI PUSH1 0x0 DUP1 REVERT JUMPDEST POP CALLDATALOAD SWAP2 SWAP1 POP JUMP JUMPDEST PUSH1 0x0 DUP2 MLOAD DUP1 DUP5 MSTORE PUSH1 0x20 DUP1 DUP6 ADD SWAP5 POP DUP1 DUP5 ADD PUSH1 0x0 JUMPDEST DUP4 DUP2 LT ISZERO PUSH2 0x15DF JUMPI DUP2 MLOAD DUP8 MSTORE SWAP6 DUP3 ADD SWAP6 SWAP1 DUP3 ADD SWAP1 PUSH1 0x1 ADD PUSH2 0x15C3 JUMP JUMPDEST POP SWAP5 SWAP6 SWAP5 POP POP POP POP POP JUMP JUMPDEST PUSH1 0x0 DUP2 MLOAD DUP1 DUP5 MSTORE PUSH1 0x0 JUMPDEST DUP2 DUP2 LT ISZERO PUSH2 0x1610 JUMPI PUSH1 0x20 DUP2 DUP6 ADD DUP2 ADD MLOAD DUP7 DUP4 ADD DUP3 ADD MSTORE ADD PUSH2 0x15F4 JUMP JUMPDEST DUP2 DUP2 GT ISZERO PUSH2 0x1622 JUMPI PUSH1 0x0 PUSH1 0x20 DUP4 DUP8 ADD ADD MSTORE JUMPDEST POP PUSH1 0x1F ADD PUSH1 0x1F NOT AND SWAP3 SWAP1 SWAP3 ADD PUSH1 0x20 ADD SWAP3 SWAP2 POP POP JUMP JUMPDEST PUSH1 0x1 PUSH1 0x1 PUSH1 0xA0 SHL SUB DUP7 DUP2 AND DUP3 MSTORE DUP6 AND PUSH1 0x20 DUP3 ADD MSTORE PUSH1 0xA0 PUSH1 0x40 DUP3 ADD DUP2 SWAP1 MSTORE PUSH1 0x0 SWAP1 PUSH2 0x1663 SWAP1 DUP4 ADD DUP7 PUSH2 0x15AF JUMP JUMPDEST DUP3 DUP2 SUB PUSH1 0x60 DUP5 ADD MSTORE PUSH2 0x1675 DUP2 DUP7 PUSH2 0x15AF JUMP JUMPDEST SWAP1 POP DUP3 DUP2 SUB PUSH1 0x80 DUP5 ADD MSTORE PUSH2 0x1689 DUP2 DUP6 PUSH2 0x15EA JUMP JUMPDEST SWAP9 SWAP8 POP POP POP POP POP POP POP POP JUMP JUMPDEST PUSH1 0x1 PUSH1 0x1 PUSH1 0xA0 SHL SUB DUP7 DUP2 AND DUP3 MSTORE DUP6 AND PUSH1 0x20 DUP3 ADD MSTORE PUSH1 0x40 DUP2 ADD DUP5 SWAP1 MSTORE PUSH1 0x60 DUP2 ADD DUP4 SWAP1 MSTORE PUSH1 0xA0 PUSH1 0x80 DUP3 ADD DUP2 SWAP1 MSTORE PUSH1 0x0 SWAP1 PUSH2 0x16CF SWAP1 DUP4 ADD DUP5 PUSH2 0x15EA JUMP JUMPDEST SWAP8 SWAP7 POP POP POP POP POP POP POP JUMP JUMPDEST PUSH1 0x20 DUP2 MSTORE PUSH1 0x0 PUSH2 0x125C PUSH1 0x20 DUP4 ADD DUP5 PUSH2 0x15AF JUMP JUMPDEST PUSH1 0x40 DUP2 MSTORE PUSH1 0x0 PUSH2 0x1700 PUSH1 0x40 DUP4 ADD DUP6 PUSH2 0x15AF JUMP JUMPDEST DUP3 DUP2 SUB PUSH1 0x20 DUP5 ADD MSTORE PUSH2 0x1712 DUP2 DUP6 PUSH2 0x15AF JUMP JUMPDEST SWAP6 SWAP5 POP POP POP POP POP JUMP JUMPDEST PUSH1 0x20 DUP2 MSTORE PUSH1 0x0 PUSH2 0x125C PUSH1 0x20 DUP4 ADD DUP5 PUSH2 0x15EA JUMP JUMPDEST PUSH1 0x20 DUP1 DUP3 MSTORE PUSH1 0x28 SWAP1 DUP3 ADD MSTORE PUSH32 0x455243313135353A204552433131353552656365697665722072656A65637465 PUSH1 0x40 DUP3 ADD MSTORE PUSH8 0x6420746F6B656E73 PUSH1 0xC0 SHL PUSH1 0x60 DUP3 ADD MSTORE PUSH1 0x80 ADD SWAP1 JUMP JUMPDEST PUSH1 0x20 DUP1 DUP3 MSTORE PUSH1 0x25 SWAP1 DUP3 ADD MSTORE PUSH32 0x455243313135353A207472616E7366657220746F20746865207A65726F206164 PUSH1 0x40 DUP3 ADD MSTORE PUSH5 0x6472657373 PUSH1 0xD8 SHL PUSH1 0x60 DUP3 ADD MSTORE PUSH1 0x80 ADD SWAP1 JUMP JUMPDEST PUSH1 0x20 DUP1 DUP3 MSTORE PUSH1 0x2A SWAP1 DUP3 ADD MSTORE PUSH32 0x455243313135353A20696E73756666696369656E742062616C616E636520666F PUSH1 0x40 DUP3 ADD MSTORE PUSH10 0x39103A3930B739B332B9 PUSH1 0xB1 SHL PUSH1 0x60 DUP3 ADD MSTORE PUSH1 0x80 ADD SWAP1 JUMP JUMPDEST PUSH1 0x20 DUP1 DUP3 MSTORE DUP2 DUP2 ADD MSTORE PUSH32 0x4F776E61626C653A2063616C6C6572206973206E6F7420746865206F776E6572 PUSH1 0x40 DUP3 ADD MSTORE PUSH1 0x60 ADD SWAP1 JUMP JUMPDEST PUSH1 0x0 PUSH8 0xFFFFFFFFFFFFFFFF DUP3 GT ISZERO PUSH2 0x1854 JUMPI PUSH2 0x1854 PUSH2 0x1925 JUMP JUMPDEST POP PUSH1 0x5 SHL PUSH1 0x20 ADD SWAP1 JUMP JUMPDEST PUSH1 0x0 DUP3 NOT DUP3 GT ISZERO PUSH2 0x1871 JUMPI PUSH2 0x1871 PUSH2 0x18F9 JUMP JUMPDEST POP ADD SWAP1 JUMP JUMPDEST PUSH1 0x1 DUP2 DUP2 SHR SWAP1 DUP3 AND DUP1 PUSH2 0x188A JUMPI PUSH1 0x7F DUP3 AND SWAP2 POP JUMPDEST PUSH1 0x20 DUP3 LT DUP2 EQ ISZERO PUSH2 0x18AB JUMPI PUSH4 0x4E487B71 PUSH1 0xE0 SHL PUSH1 0x0 MSTORE PUSH1 0x22 PUSH1 0x4 MSTORE PUSH1 0x24 PUSH1 0x0 REVERT JUMPDEST POP SWAP2 SWAP1 POP JUMP JUMPDEST PUSH1 0x1F DUP3 ADD PUSH1 0x1F NOT AND DUP2 ADD PUSH8 0xFFFFFFFFFFFFFFFF DUP2 GT DUP3 DUP3 LT OR ISZERO PUSH2 0x18D7 JUMPI PUSH2 0x18D7 PUSH2 0x1925 JUMP JUMPDEST PUSH1 0x40 MSTORE POP POP JUMP JUMPDEST PUSH1 0x0 PUSH1 0x0 NOT DUP3 EQ ISZERO PUSH2 0x18F2 JUMPI PUSH2 0x18F2 PUSH2 0x18F9 JUMP JUMPDEST POP PUSH1 0x1 ADD SWAP1 JUMP JUMPDEST PUSH4 0x4E487B71 PUSH1 0xE0 SHL PUSH1 0x0 MSTORE PUSH1 0x11 PUSH1 0x4 MSTORE PUSH1 0x24 PUSH1 0x0 REVERT JUMPDEST PUSH4 0x4E487B71 PUSH1 0xE0 SHL PUSH1 0x0 MSTORE PUSH1 0x32 PUSH1 0x4 MSTORE PUSH1 0x24 PUSH1 0x0 REVERT JUMPDEST PUSH4 0x4E487B71 PUSH1 0xE0 SHL PUSH1 0x0 MSTORE PUSH1 0x41 PUSH1 0x4 MSTORE PUSH1 0x24 PUSH1 0x0 REVERT JUMPDEST PUSH1 0x0 PUSH1 0x3 RETURNDATASIZE GT ISZERO PUSH2 0x1954 JUMPI PUSH1 0x4 PUSH1 0x0 DUP1 RETURNDATACOPY POP PUSH1 0x0 MLOAD PUSH1 0xE0 SHR JUMPDEST SWAP1 JUMP JUMPDEST PUSH1 0x0 PUSH1 0x44 RETURNDATASIZE LT ISZERO PUSH2 0x1965 JUMPI SWAP1 JUMP JUMPDEST PUSH1 0x40 MLOAD PUSH1 0x3 NOT RETURNDATASIZE DUP2 ADD PUSH1 0x4 DUP4 RETURNDATACOPY DUP2 MLOAD RETURNDATASIZE PUSH8 0xFFFFFFFFFFFFFFFF DUP2 PUSH1 0x24 DUP5 ADD GT DUP2 DUP5 GT OR ISZERO PUSH2 0x1995 JUMPI POP POP POP POP POP SWAP1 JUMP JUMPDEST DUP3 DUP6 ADD SWAP2 POP DUP2 MLOAD DUP2 DUP2 GT ISZERO PUSH2 0x19AD JUMPI POP POP POP POP POP POP SWAP1 JUMP JUMPDEST DUP5 RETURNDATASIZE DUP8 ADD ADD PUSH1 0x20 DUP3 DUP6 ADD ADD GT ISZERO PUSH2 0x19C7 JUMPI POP POP POP POP POP POP SWAP1 JUMP JUMPDEST PUSH2 0x19D6 PUSH1 0x20 DUP3 DUP7 ADD ADD DUP8 PUSH2 0x18B1 JUMP JUMPDEST POP SWAP1 SWAP6 SWAP5 POP POP POP POP POP JUMP JUMPDEST PUSH1 0x1 PUSH1 0x1 PUSH1 0xE0 SHL SUB NOT DUP2 AND DUP2 EQ PUSH2 0x38C JUMPI PUSH1 0x0 DUP1 REVERT INVALID LOG2 PUSH5 0x6970667358 0x22 SLT KECCAK256 SWAP12 0xD7 GASLIMIT 0x23 DUP12 0xDA CALLDATACOPY CODECOPY PUSH12 0xC1A2C2B4F42F9B5C98811A62 0xAA 0xDC PUSH16 0x59FC938F672B50FD64736F6C63430008 SMOD STOP CALLER PUSH10 0x7066733A2F2F516D6453 ORIGIN BALANCE MSTORE PUSH17 0x415A685468693658446F4C4B76706F6E51 PUSH12 0x315862716570614757457A44 DIFFICULTY PUSH26 0x4C6D733475690000000000000000000000000000000000000000 "
				},
				"gasEstimates": {
					"creation": {
						"codeDepositCost": "1340200",
						"executionCost": "infinite",
						"totalCost": "infinite"
					},
					"external": {
						"balanceOf(address,uint256)": "2695",
						"balanceOfBatch(address[],uint256[])": "infinite",
						"isApprovedForAll(address,address)": "infinite",
						"mint(address[],uint256,uint256)": "infinite",
						"mintOne(address,uint256,uint256)": "29614",
						"name()": "infinite",
						"owner()": "2346",
						"renounceOwnership()": "28140",
						"safeBatchTransferFrom(address,address,uint256[],uint256[],bytes)": "infinite",
						"safeTransferFrom(address,address,uint256,uint256,bytes)": "infinite",
						"setApprovalForAll(address,bool)": "26753",
						"setURI(string)": "infinite",
						"supportsInterface(bytes4)": "567",
						"transferOwnership(address)": "28400",
						"uri(uint256)": "infinite"
					}
				},
				"methodIdentifiers": {
					"balanceOf(address,uint256)": "00fdd58e",
					"balanceOfBatch(address[],uint256[])": "4e1273f4",
					"isApprovedForAll(address,address)": "e985e9c5",
					"mint(address[],uint256,uint256)": "be8c5922",
					"mintOne(address,uint256,uint256)": "b3a447b4",
					"name()": "06fdde03",
					"owner()": "8da5cb5b",
					"renounceOwnership()": "715018a6",
					"safeBatchTransferFrom(address,address,uint256[],uint256[],bytes)": "2eb2c2d6",
					"safeTransferFrom(address,address,uint256,uint256,bytes)": "f242432a",
					"setApprovalForAll(address,bool)": "a22cb465",
					"setURI(string)": "02fe5305",
					"supportsInterface(bytes4)": "01ffc9a7",
					"transferOwnership(address)": "f2fde38b",
					"uri(uint256)": "0e89341c"
				}
			},
			"storageLayout": {
				"storage": [
					{
						"astId": 342,
						"contract": "contracts/PantherQuant.sol:PantherQuant",
						"label": "_balances",
						"offset": 0,
						"slot": "0",
						"type": "t_mapping(t_uint256,t_mapping(t_address,t_uint256))"
					},
					{
						"astId": 348,
						"contract": "contracts/PantherQuant.sol:PantherQuant",
						"label": "_operatorApprovals",
						"offset": 0,
						"slot": "1",
						"type": "t_mapping(t_address,t_mapping(t_address,t_bool))"
					},
					{
						"astId": 350,
						"contract": "contracts/PantherQuant.sol:PantherQuant",
						"label": "_uri",
						"offset": 0,
						"slot": "2",
						"type": "t_string_storage"
					},
					{
						"astId": 1705,
						"contract": "contracts/PantherQuant.sol:PantherQuant",
						"label": "_owner",
						"offset": 0,
						"slot": "3",
						"type": "t_address"
					},
					{
						"astId": 1820,
						"contract": "contracts/PantherQuant.sol:PantherQuant",
						"label": "name",
						"offset": 0,
						"slot": "4",
						"type": "t_string_storage"
					}
				],
				"types": {
					"t_address": {
						"encoding": "inplace",
						"label": "address",
						"numberOfBytes": "20"
					},
					"t_bool": {
						"encoding": "inplace",
						"label": "bool",
						"numberOfBytes": "1"
					},
					"t_mapping(t_address,t_bool)": {
						"encoding": "mapping",
						"key": "t_address",
						"label": "mapping(address => bool)",
						"numberOfBytes": "32",
						"value": "t_bool"
					},
					"t_mapping(t_address,t_mapping(t_address,t_bool))": {
						"encoding": "mapping",
						"key": "t_address",
						"label": "mapping(address => mapping(address => bool))",
						"numberOfBytes": "32",
						"value": "t_mapping(t_address,t_bool)"
					},
					"t_mapping(t_address,t_uint256)": {
						"encoding": "mapping",
						"key": "t_address",
						"label": "mapping(address => uint256)",
						"numberOfBytes": "32",
						"value": "t_uint256"
					},
					"t_mapping(t_uint256,t_mapping(t_address,t_uint256))": {
						"encoding": "mapping",
						"key": "t_uint256",
						"label": "mapping(uint256 => mapping(address => uint256))",
						"numberOfBytes": "32",
						"value": "t_mapping(t_address,t_uint256)"
					},
					"t_string_storage": {
						"encoding": "bytes",
						"label": "string",
						"numberOfBytes": "32"
					},
					"t_uint256": {
						"encoding": "inplace",
						"label": "uint256",
						"numberOfBytes": "32"
					}
				}
			},
			"userdoc": {
				"kind": "user",
				"methods": {},
				"version": 1
			}
		}
	}
}