{
	"contracts/PantherQuant.sol": {
		"PantherQuant": {
			"abi": [
				{
					"inputs": [],
					"stateMutability": "nonpayable",
					"type": "constructor"
				},
				{
					"anonymous": false,
					"inputs": [
						{
							"indexed": true,
							"internalType": "address",
							"name": "account",
							"type": "address"
						},
						{
							"indexed": true,
							"internalType": "address",
							"name": "operator",
							"type": "address"
						},
						{
							"indexed": false,
							"internalType": "bool",
							"name": "approved",
							"type": "bool"
						}
					],
					"name": "ApprovalForAll",
					"type": "event"
				},
				{
					"anonymous": false,
					"inputs": [
						{
							"indexed": true,
							"internalType": "address",
							"name": "previousOwner",
							"type": "address"
						},
						{
							"indexed": true,
							"internalType": "address",
							"name": "newOwner",
							"type": "address"
						}
					],
					"name": "OwnershipTransferred",
					"type": "event"
				},
				{
					"anonymous": false,
					"inputs": [
						{
							"indexed": true,
							"internalType": "address",
							"name": "operator",
							"type": "address"
						},
						{
							"indexed": true,
							"internalType": "address",
							"name": "from",
							"type": "address"
						},
						{
							"indexed": true,
							"internalType": "address",
							"name": "to",
							"type": "address"
						},
						{
							"indexed": false,
							"internalType": "uint256[]",
							"name": "ids",
							"type": "uint256[]"
						},
						{
							"indexed": false,
							"internalType": "uint256[]",
							"name": "values",
							"type": "uint256[]"
						}
					],
					"name": "TransferBatch",
					"type": "event"
				},
				{
					"anonymous": false,
					"inputs": [
						{
							"indexed": true,
							"internalType": "address",
							"name": "operator",
							"type": "address"
						},
						{
							"indexed": true,
							"internalType": "address",
							"name": "from",
							"type": "address"
						},
						{
							"indexed": true,
							"internalType": "address",
							"name": "to",
							"type": "address"
						},
						{
							"indexed": false,
							"internalType": "uint256",
							"name": "id",
							"type": "uint256"
						},
						{
							"indexed": false,
							"internalType": "uint256",
							"name": "value",
							"type": "uint256"
						}
					],
					"name": "TransferSingle",
					"type": "event"
				},
				{
					"anonymous": false,
					"inputs": [
						{
							"indexed": false,
							"internalType": "string",
							"name": "value",
							"type": "string"
						},
						{
							"indexed": true,
							"internalType": "uint256",
							"name": "id",
							"type": "uint256"
						}
					],
					"name": "URI",
					"type": "event"
				},
				{
					"inputs": [
						{
							"internalType": "address",
							"name": "account",
							"type": "address"
						},
						{
							"internalType": "uint256",
							"name": "id",
							"type": "uint256"
						}
					],
					"name": "balanceOf",
					"outputs": [
						{
							"internalType": "uint256",
							"name": "",
							"type": "uint256"
						}
					],
					"stateMutability": "view",
					"type": "function"
				},
				{
					"inputs": [
						{
							"internalType": "address[]",
							"name": "accounts",
							"type": "address[]"
						},
						{
							"internalType": "uint256[]",
							"name": "ids",
							"type": "uint256[]"
						}
					],
					"name": "balanceOfBatch",
					"outputs": [
						{
							"internalType": "uint256[]",
							"name": "",
							"type": "uint256[]"
						}
					],
					"stateMutability": "view",
					"type": "function"
				},
				{
					"inputs": [
						{
							"internalType": "address",
							"name": "account",
							"type": "address"
						},
						{
							"internalType": "address",
							"name": "operator",
							"type": "address"
						}
					],
					"name": "isApprovedForAll",
					"outputs": [
						{
							"internalType": "bool",
							"name": "",
							"type": "bool"
						}
					],
					"stateMutability": "view",
					"type": "function"
				},
				{
					"inputs": [
						{
							"internalType": "address[]",
							"name": "account",
							"type": "address[]"
						},
						{
							"internalType": "uint256",
							"name": "id",
							"type": "uint256"
						},
						{
							"internalType": "uint256",
							"name": "amount",
							"type": "uint256"
						}
					],
					"name": "mint",
					"outputs": [],
					"stateMutability": "nonpayable",
					"type": "function"
				},
				{
					"inputs": [
						{
							"internalType": "address",
							"name": "account",
							"type": "address"
						},
						{
							"internalType": "uint256",
							"name": "id",
							"type": "uint256"
						},
						{
							"internalType": "uint256",
							"name": "amount",
							"type": "uint256"
						}
					],
					"name": "mintOne",
					"outputs": [],
					"stateMutability": "nonpayable",
					"type": "function"
				},
				{
					"inputs": [],
					"name": "name",
					"outputs": [
						{
							"internalType": "string",
							"name": "",
							"type": "string"
						}
					],
					"stateMutability": "view",
					"type": "function"
				},
				{
					"inputs": [],
					"name": "owner",
					"outputs": [
						{
							"internalType": "address",
							"name": "",
							"type": "address"
						}
					],
					"stateMutability": "view",
					"type": "function"
				},
				{
					"inputs": [],
					"name": "renounceOwnership",
					"outputs": [],
					"stateMutability": "nonpayable",
					"type": "function"
				},
				{
					"inputs": [
						{
							"internalType": "address",
							"name": "from",
							"type": "address"
						},
						{
							"internalType": "address",
							"name": "to",
							"type": "address"
						},
						{
							"internalType": "uint256[]",
							"name": "ids",
							"type": "uint256[]"
						},
						{
							"internalType": "uint256[]",
							"name": "amounts",
							"type": "uint256[]"
						},
						{
							"internalType": "bytes",
							"name": "data",
							"type": "bytes"
						}
					],
					"name": "safeBatchTransferFrom",
					"outputs": [],
					"stateMutability": "nonpayable",
					"type": "function"
				},
				{
					"inputs": [
						{
							"internalType": "address",
							"name": "from",
							"type": "address"
						},
						{
							"internalType": "address",
							"name": "to",
							"type": "address"
						},
						{
							"internalType": "uint256",
							"name": "id",
							"type": "uint256"
						},
						{
							"internalType": "uint256",
							"name": "amount",
							"type": "uint256"
						},
						{
							"internalType": "bytes",
							"name": "data",
							"type": "bytes"
						}
					],
					"name": "safeTransferFrom",
					"outputs": [],
					"stateMutability": "nonpayable",
					"type": "function"
				},
				{
					"inputs": [
						{
							"internalType": "address",
							"name": "operator",
							"type": "address"
						},
						{
							"internalType": "bool",
							"name": "approved",
							"type": "bool"
						}
					],
					"name": "setApprovalForAll",
					"outputs": [],
					"stateMutability": "nonpayable",
					"type": "function"
				},
				{
					"inputs": [
						{
							"internalType": "string",
							"name": "newuri",
							"type": "string"
						}
					],
					"name": "setURI",
					"outputs": [],
					"stateMutability": "nonpayable",
					"type": "function"
				},
				{
					"inputs": [
						{
							"internalType": "bytes4",
							"name": "interfaceId",
							"type": "bytes4"
						}
					],
					"name": "supportsInterface",
					"outputs": [
						{
							"internalType": "bool",
							"name": "",
							"type": "bool"
						}
					],
					"stateMutability": "view",
					"type": "function"
				},
				{
					"inputs": [
						{
							"internalType": "address",
							"name": "newOwner",
							"type": "address"
						}
					],
					"name": "transferOwnership",
					"outputs": [],
					"stateMutability": "nonpayable",
					"type": "function"
				},
				{
					"inputs": [
						{
							"internalType": "uint256",
							"name": "",
							"type": "uint256"
						}
					],
					"name": "uri",
					"outputs": [
						{
							"internalType": "string",
							"name": "",
							"type": "string"
						}
					],
					"stateMutability": "view",
					"type": "function"
				}
			],
			"devdoc": {
				"kind": "dev",
				"methods": {
					"balanceOf(address,uint256)": {
						"details": "See {IERC1155-balanceOf}. Requirements: - `account` cannot be the zero address."
					},
					"balanceOfBatch(address[],uint256[])": {
						"details": "See {IERC1155-balanceOfBatch}. Requirements: - `accounts` and `ids` must have the same length."
					},
					"isApprovedForAll(address,address)": {
						"details": "See {IERC1155-isApprovedForAll}."
					},
					"owner()": {
						"details": "Returns the address of the current owner."
					},
					"renounceOwnership()": {
						"details": "Leaves the contract without owner. It will not be possible to call `onlyOwner` functions anymore. Can only be called by the current owner. NOTE: Renouncing ownership will leave the contract without an owner, thereby removing any functionality that is only available to the owner."
					},
					"safeBatchTransferFrom(address,address,uint256[],uint256[],bytes)": {
						"details": "See {IERC1155-safeBatchTransferFrom}."
					},
					"safeTransferFrom(address,address,uint256,uint256,bytes)": {
						"details": "See {IERC1155-safeTransferFrom}."
					},
					"setApprovalForAll(address,bool)": {
						"details": "See {IERC1155-setApprovalForAll}."
					},
					"supportsInterface(bytes4)": {
						"details": "See {IERC165-supportsInterface}."
					},
					"transferOwnership(address)": {
						"details": "Transfers ownership of the contract to a new account (`newOwner`). Can only be called by the current owner."
					},
					"uri(uint256)": {
						"details": "See {IERC1155MetadataURI-uri}. This implementation returns the same URI for *all* token types. It relies on the token type ID substitution mechanism https://eips.ethereum.org/EIPS/eip-1155#metadata[defined in the EIP]. Clients calling this function must replace the `\\{id\\}` substring with the actual token type ID."
					}
				},
				"version": 1
			},
			"evm": {
				"assembly": "    /* \"contracts/PantherQuant.sol\":253:300  string public name = \"Panther Quant Golden Egg\" */\n  0xc0\n    /* \"contracts/PantherQuant.sol\":106:780  contract PantherQuant is ERC1155, Ownable {... */\n  0x40\n    /* \"contracts/PantherQuant.sol\":253:300  string public name = \"Panther Quant Golden Egg\" */\n  mstore\n  0x18\n    /* \"contracts/PantherQuant.sol\":106:780  contract PantherQuant is ERC1155, Ownable {... */\n  0x80\n    /* \"contracts/PantherQuant.sol\":253:300  string public name = \"Panther Quant Golden Egg\" */\n  dup2\n  swap1\n  mstore\n  0x50616e74686572205175616e7420476f6c64656e204567670000000000000000\n  0xa0\n  swap1\n  dup2\n  mstore\n  tag_1\n  swap2\n  0x04\n  swap2\n  swap1\n  tag_2\n  jump\t// in\ntag_1:\n  pop\n    /* \"contracts/PantherQuant.sol\":154:247  constructor()... */\n  callvalue\n  dup1\n  iszero\n  tag_3\n  jumpi\n  0x00\n  dup1\n  revert\ntag_3:\n  pop\n    /* \"contracts/ERC1155.sol\":1052:1114  constructor(string memory uri_) {... */\n  mload(0x40)\n  dup1\n  0x60\n  add\n  0x40\n  mstore\n  dup1\n  0x35\n  dup2\n  mstore\n  0x20\n  add\n  data_fd57ac08a91efe7fa15dd703ff0937b155f373fd142269c0180bd57aad623971\n  0x35\n  swap2\n  codecopy\n    /* \"contracts/ERC1155.sol\":1094:1107  _setURI(uri_) */\n  tag_8\n    /* \"contracts/ERC1155.sol\":1102:1106  uri_ */\n  dup2\n    /* \"contracts/ERC1155.sol\":1094:1101  _setURI */\n  tag_9\n    /* \"contracts/ERC1155.sol\":1094:1107  _setURI(uri_) */\n  jump\t// in\ntag_8:\n  pop\n    /* \"contracts/Ownable.sol\":936:968  _transferOwnership(_msgSender()) */\n  tag_11\n    /* \"contracts/Context.sol\":719:729  msg.sender */\n  caller\n    /* \"contracts/Ownable.sol\":936:954  _transferOwnership */\n  tag_14\n    /* \"contracts/Ownable.sol\":936:968  _transferOwnership(_msgSender()) */\n  jump\t// in\ntag_11:\n    /* \"contracts/PantherQuant.sol\":106:780  contract PantherQuant is ERC1155, Ownable {... */\n  jump(tag_32)\n    /* \"contracts/ERC1155.sol\":8540:8626  function _setURI(string memory newuri) internal virtual {... */\ntag_9:\n    /* \"contracts/ERC1155.sol\":8606:8619  _uri = newuri */\n  dup1\n  mload\n  tag_18\n  swap1\n    /* \"contracts/ERC1155.sol\":8606:8610  _uri */\n  0x02\n  swap1\n    /* \"contracts/ERC1155.sol\":8606:8619  _uri = newuri */\n  0x20\n  dup5\n  add\n  swap1\n  tag_2\n  jump\t// in\ntag_18:\n  pop\n    /* \"contracts/ERC1155.sol\":8540:8626  function _setURI(string memory newuri) internal virtual {... */\n  pop\n  jump\t// out\n    /* \"contracts/Ownable.sol\":2319:2506  function _transferOwnership(address newOwner) internal virtual {... */\ntag_14:\n    /* \"contracts/Ownable.sol\":2411:2417  _owner */\n  0x03\n  dup1\n  sload\n  sub(shl(0xa0, 0x01), 0x01)\n    /* \"contracts/Ownable.sol\":2427:2444  _owner = newOwner */\n  dup4\n  dup2\n  and\n  not(sub(shl(0xa0, 0x01), 0x01))\n  dup4\n  and\n  dup2\n  or\n  swap1\n  swap4\n  sstore\n    /* \"contracts/Ownable.sol\":2459:2499  OwnershipTransferred(oldOwner, newOwner) */\n  mload(0x40)\n    /* \"contracts/Ownable.sol\":2411:2417  _owner */\n  swap2\n  and\n  swap2\n    /* \"contracts/Ownable.sol\":2427:2444  _owner = newOwner */\n  swap1\n    /* \"contracts/Ownable.sol\":2411:2417  _owner */\n  dup3\n  swap1\n    /* \"contracts/Ownable.sol\":2459:2499  OwnershipTransferred(oldOwner, newOwner) */\n  0x8be0079c531659141344cd1fd0a4f28419497f9722a3daafe3b4186f6b6457e0\n  swap1\n    /* \"contracts/Ownable.sol\":2392:2408  address oldOwner */\n  0x00\n  swap1\n    /* \"contracts/Ownable.sol\":2459:2499  OwnershipTransferred(oldOwner, newOwner) */\n  log3\n    /* \"contracts/Ownable.sol\":2382:2506  {... */\n  pop\n    /* \"contracts/Ownable.sol\":2319:2506  function _transferOwnership(address newOwner) internal virtual {... */\n  pop\n  jump\t// out\n    /* \"contracts/PantherQuant.sol\":106:780  contract PantherQuant is ERC1155, Ownable {... */\ntag_2:\n  dup3\n  dup1\n  sload\n  tag_21\n  swap1\n  tag_22\n  jump\t// in\ntag_21:\n  swap1\n  0x00\n  mstore\n  keccak256(0x00, 0x20)\n  swap1\n  0x1f\n  add\n  0x20\n  swap1\n  div\n  dup2\n  add\n  swap3\n  dup3\n  tag_24\n  jumpi\n  0x00\n  dup6\n  sstore\n  jump(tag_27)\ntag_24:\n  dup3\n  0x1f\n  lt\n  tag_25\n  jumpi\n  dup1\n  mload\n  not(0xff)\n  and\n  dup4\n  dup1\n  add\n  or\n  dup6\n  sstore\n  jump(tag_27)\ntag_25:\n  dup3\n  dup1\n  add\n  0x01\n  add\n  dup6\n  sstore\n  dup3\n  iszero\n  tag_27\n  jumpi\n  swap2\n  dup3\n  add\ntag_26:\n  dup3\n  dup2\n  gt\n  iszero\n  tag_27\n  jumpi\n  dup3\n  mload\n  dup3\n  sstore\n  swap2\n  0x20\n  add\n  swap2\n  swap1\n  0x01\n  add\n  swap1\n  jump(tag_26)\ntag_27:\n  pop\n  tag_28\n  swap3\n  swap2\n  pop\n  tag_29\n  jump\t// in\ntag_28:\n  pop\n  swap1\n  jump\t// out\ntag_29:\ntag_30:\n  dup1\n  dup3\n  gt\n  iszero\n  tag_28\n  jumpi\n  0x00\n  dup2\n  sstore\n  0x01\n  add\n  jump(tag_30)\n    /* \"#utility.yul\":14:394   */\ntag_22:\n    /* \"#utility.yul\":93:94   */\n  0x01\n    /* \"#utility.yul\":89:101   */\n  dup2\n  dup2\n  shr\n  swap1\n    /* \"#utility.yul\":136:148   */\n  dup3\n  and\n  dup1\n    /* \"#utility.yul\":157:218   */\n  tag_34\n  jumpi\n    /* \"#utility.yul\":211:215   */\n  0x7f\n    /* \"#utility.yul\":203:209   */\n  dup3\n    /* \"#utility.yul\":199:216   */\n  and\n    /* \"#utility.yul\":189:216   */\n  swap2\n  pop\n    /* \"#utility.yul\":157:218   */\ntag_34:\n    /* \"#utility.yul\":264:266   */\n  0x20\n    /* \"#utility.yul\":256:262   */\n  dup3\n    /* \"#utility.yul\":253:267   */\n  lt\n    /* \"#utility.yul\":233:251   */\n  dup2\n    /* \"#utility.yul\":230:268   */\n  eq\n    /* \"#utility.yul\":227:388   */\n  iszero\n  tag_35\n  jumpi\n    /* \"#utility.yul\":310:320   */\n  0x4e487b71\n    /* \"#utility.yul\":305:308   */\n  0xe0\n    /* \"#utility.yul\":301:321   */\n  shl\n    /* \"#utility.yul\":298:299   */\n  0x00\n    /* \"#utility.yul\":291:322   */\n  mstore\n    /* \"#utility.yul\":345:349   */\n  0x22\n    /* \"#utility.yul\":342:343   */\n  0x04\n    /* \"#utility.yul\":335:350   */\n  mstore\n    /* \"#utility.yul\":373:377   */\n  0x24\n    /* \"#utility.yul\":370:371   */\n  0x00\n    /* \"#utility.yul\":363:378   */\n  revert\n    /* \"#utility.yul\":227:388   */\ntag_35:\n  pop\n    /* \"#utility.yul\":14:394   */\n  swap2\n  swap1\n  pop\n  jump\t// out\ntag_32:\n    /* \"contracts/PantherQuant.sol\":106:780  contract PantherQuant is ERC1155, Ownable {... */\n  dataSize(sub_0)\n  dup1\n  dataOffset(sub_0)\n  0x00\n  codecopy\n  0x00\n  return\nstop\ndata_fd57ac08a91efe7fa15dd703ff0937b155f373fd142269c0180bd57aad623971 697066733a2f2f516d645332315270415a685468693658446f4c4b76706f6e516b315862716570614757457a4444794c6d73347569\n\nsub_0: assembly {\n        /* \"contracts/PantherQuant.sol\":106:780  contract PantherQuant is ERC1155, Ownable {... */\n      mstore(0x40, 0x80)\n      callvalue\n      dup1\n      iszero\n      tag_1\n      jumpi\n      0x00\n      dup1\n      revert\n    tag_1:\n      pop\n      jumpi(tag_2, lt(calldatasize, 0x04))\n      shr(0xe0, calldataload(0x00))\n      dup1\n      0x715018a6\n      gt\n      tag_18\n      jumpi\n      dup1\n      0xbe8c5922\n      gt\n      tag_19\n      jumpi\n      dup1\n      0xbe8c5922\n      eq\n      tag_14\n      jumpi\n      dup1\n      0xe985e9c5\n      eq\n      tag_15\n      jumpi\n      dup1\n      0xf242432a\n      eq\n      tag_16\n      jumpi\n      dup1\n      0xf2fde38b\n      eq\n      tag_17\n      jumpi\n      0x00\n      dup1\n      revert\n    tag_19:\n      dup1\n      0x715018a6\n      eq\n      tag_10\n      jumpi\n      dup1\n      0x8da5cb5b\n      eq\n      tag_11\n      jumpi\n      dup1\n      0xa22cb465\n      eq\n      tag_12\n      jumpi\n      dup1\n      0xb3a447b4\n      eq\n      tag_13\n      jumpi\n      0x00\n      dup1\n      revert\n    tag_18:\n      dup1\n      0x06fdde03\n      gt\n      tag_20\n      jumpi\n      dup1\n      0x06fdde03\n      eq\n      tag_6\n      jumpi\n      dup1\n      0x0e89341c\n      eq\n      tag_7\n      jumpi\n      dup1\n      0x2eb2c2d6\n      eq\n      tag_8\n      jumpi\n      dup1\n      0x4e1273f4\n      eq\n      tag_9\n      jumpi\n      0x00\n      dup1\n      revert\n    tag_20:\n      dup1\n      0xfdd58e\n      eq\n      tag_3\n      jumpi\n      dup1\n      0x01ffc9a7\n      eq\n      tag_4\n      jumpi\n      dup1\n      0x02fe5305\n      eq\n      tag_5\n      jumpi\n    tag_2:\n      0x00\n      dup1\n      revert\n        /* \"contracts/ERC1155.sol\":2174:2480  function balanceOf(address account, uint256 id)... */\n    tag_3:\n      tag_21\n      tag_22\n      calldatasize\n      0x04\n      tag_23\n      jump\t// in\n    tag_22:\n      tag_24\n      jump\t// in\n    tag_21:\n      mload(0x40)\n        /* \"#utility.yul\":16877:16902   */\n      swap1\n      dup2\n      mstore\n        /* \"#utility.yul\":16865:16867   */\n      0x20\n        /* \"#utility.yul\":16850:16868   */\n      add\n        /* \"contracts/ERC1155.sol\":2174:2480  function balanceOf(address account, uint256 id)... */\n    tag_25:\n      mload(0x40)\n      dup1\n      swap2\n      sub\n      swap1\n      return\n        /* \"contracts/ERC1155.sol\":1181:1530  function supportsInterface(bytes4 interfaceId)... */\n    tag_4:\n      tag_27\n      tag_28\n      calldatasize\n      0x04\n      tag_29\n      jump\t// in\n    tag_28:\n      tag_30\n      jump\t// in\n    tag_27:\n      mload(0x40)\n        /* \"#utility.yul\":11193:11207   */\n      swap1\n      iszero\n        /* \"#utility.yul\":11186:11208   */\n      iszero\n        /* \"#utility.yul\":11168:11209   */\n      dup2\n      mstore\n        /* \"#utility.yul\":11156:11158   */\n      0x20\n        /* \"#utility.yul\":11141:11159   */\n      add\n        /* \"contracts/ERC1155.sol\":1181:1530  function supportsInterface(bytes4 interfaceId)... */\n      tag_25\n        /* \"#utility.yul\":11028:11215   */\n      jump\n        /* \"contracts/PantherQuant.sol\":307:394  function setURI(string memory newuri) public onlyOwner {... */\n    tag_5:\n      tag_33\n      tag_34\n      calldatasize\n      0x04\n      tag_35\n      jump\t// in\n    tag_34:\n      tag_36\n      jump\t// in\n    tag_33:\n      stop\n        /* \"contracts/PantherQuant.sol\":253:300  string public name = \"Panther Quant Golden Egg\" */\n    tag_6:\n      tag_37\n      tag_38\n      jump\t// in\n    tag_37:\n      mload(0x40)\n      tag_25\n      swap2\n      swap1\n      tag_40\n      jump\t// in\n        /* \"contracts/ERC1155.sol\":1929:2032  function uri(uint256) public view virtual override returns (string memory) {... */\n    tag_7:\n      tag_37\n      tag_42\n      calldatasize\n      0x04\n      tag_43\n      jump\t// in\n    tag_42:\n      tag_44\n      jump\t// in\n        /* \"contracts/ERC1155.sol\":4233:4663  function safeBatchTransferFrom(... */\n    tag_8:\n      tag_33\n      tag_47\n      calldatasize\n      0x04\n      tag_48\n      jump\t// in\n    tag_47:\n      tag_49\n      jump\t// in\n        /* \"contracts/ERC1155.sol\":2637:3179  function balanceOfBatch(address[] memory accounts, uint256[] memory ids)... */\n    tag_9:\n      tag_50\n      tag_51\n      calldatasize\n      0x04\n      tag_52\n      jump\t// in\n    tag_51:\n      tag_53\n      jump\t// in\n    tag_50:\n      mload(0x40)\n      tag_25\n      swap2\n      swap1\n      tag_55\n      jump\t// in\n        /* \"contracts/Ownable.sol\":1683:1784  function renounceOwnership() public virtual onlyOwner {... */\n    tag_10:\n      tag_33\n      tag_57\n      jump\t// in\n        /* \"contracts/Ownable.sol\":1051:1136  function owner() public view virtual returns (address) {... */\n    tag_11:\n        /* \"contracts/Ownable.sol\":1123:1129  _owner */\n      sload(0x03)\n        /* \"contracts/Ownable.sol\":1051:1136  function owner() public view virtual returns (address) {... */\n      mload(0x40)\n        /* \"contracts/Ownable.sol\":1123:1129  _owner */\n      0xffffffffffffffffffffffffffffffffffffffff\n      swap1\n      swap2\n      and\n        /* \"#utility.yul\":8765:8839   */\n      dup2\n      mstore\n        /* \"#utility.yul\":8753:8755   */\n      0x20\n        /* \"#utility.yul\":8738:8756   */\n      add\n        /* \"contracts/Ownable.sol\":1051:1136  function owner() public view virtual returns (address) {... */\n      tag_25\n        /* \"#utility.yul\":8619:8845   */\n      jump\n        /* \"contracts/ERC1155.sol\":3247:3428  function setApprovalForAll(address operator, bool approved)... */\n    tag_12:\n      tag_33\n      tag_63\n      calldatasize\n      0x04\n      tag_64\n      jump\t// in\n    tag_63:\n      tag_65\n      jump\t// in\n        /* \"contracts/PantherQuant.sol\":624:778  function mintOne(... */\n    tag_13:\n      tag_33\n      tag_67\n      calldatasize\n      0x04\n      tag_68\n      jump\t// in\n    tag_67:\n      tag_69\n      jump\t// in\n        /* \"contracts/PantherQuant.sol\":400:618  function mint(... */\n    tag_14:\n      tag_33\n      tag_71\n      calldatasize\n      0x04\n      tag_72\n      jump\t// in\n    tag_71:\n      tag_73\n      jump\t// in\n        /* \"contracts/ERC1155.sol\":3495:3705  function isApprovedForAll(address account, address operator)... */\n    tag_15:\n      tag_27\n      tag_75\n      calldatasize\n      0x04\n      tag_76\n      jump\t// in\n    tag_75:\n        /* \"contracts/ERC1155.sol\":3661:3688  _operatorApprovals[account] */\n      0xffffffffffffffffffffffffffffffffffffffff\n      swap2\n      dup3\n      and\n        /* \"contracts/ERC1155.sol\":3634:3638  bool */\n      0x00\n        /* \"contracts/ERC1155.sol\":3661:3688  _operatorApprovals[account] */\n      swap1\n      dup2\n      mstore\n        /* \"contracts/ERC1155.sol\":3661:3679  _operatorApprovals */\n      0x01\n        /* \"contracts/ERC1155.sol\":3661:3688  _operatorApprovals[account] */\n      0x20\n      swap1\n      dup2\n      mstore\n      0x40\n      dup1\n      dup4\n      keccak256\n        /* \"contracts/ERC1155.sol\":3661:3698  _operatorApprovals[account][operator] */\n      swap4\n      swap1\n      swap5\n      and\n      dup3\n      mstore\n      swap2\n      swap1\n      swap2\n      mstore\n      keccak256\n      sload\n      0xff\n      and\n      swap1\n        /* \"contracts/ERC1155.sol\":3495:3705  function isApprovedForAll(address account, address operator)... */\n      jump\n        /* \"contracts/ERC1155.sol\":3772:4161  function safeTransferFrom(... */\n    tag_16:\n      tag_33\n      tag_80\n      calldatasize\n      0x04\n      tag_81\n      jump\t// in\n    tag_80:\n      tag_82\n      jump\t// in\n        /* \"contracts/Ownable.sol\":1933:2165  function transferOwnership(address newOwner) public virtual onlyOwner {... */\n    tag_17:\n      tag_33\n      tag_84\n      calldatasize\n      0x04\n      tag_85\n      jump\t// in\n    tag_84:\n      tag_86\n      jump\t// in\n        /* \"contracts/ERC1155.sol\":2174:2480  function balanceOf(address account, uint256 id)... */\n    tag_24:\n        /* \"contracts/ERC1155.sol\":2300:2307  uint256 */\n      0x00\n        /* \"contracts/ERC1155.sol\":2344:2365  account != address(0) */\n      0xffffffffffffffffffffffffffffffffffffffff\n      dup4\n      and\n        /* \"contracts/ERC1155.sol\":2323:2434  require(... */\n      tag_88\n      jumpi\n      mload(0x40)\n      shl(0xe5, 0x461bcd)\n      dup2\n      mstore\n        /* \"#utility.yul\":12476:12478   */\n      0x20\n        /* \"contracts/ERC1155.sol\":2323:2434  require(... */\n      0x04\n      dup3\n      add\n        /* \"#utility.yul\":12458:12479   */\n      mstore\n        /* \"#utility.yul\":12515:12517   */\n      0x2b\n        /* \"#utility.yul\":12495:12513   */\n      0x24\n      dup3\n      add\n        /* \"#utility.yul\":12488:12518   */\n      mstore\n        /* \"#utility.yul\":12554:12588   */\n      0x455243313135353a2062616c616e636520717565727920666f7220746865207a\n        /* \"#utility.yul\":12534:12552   */\n      0x44\n      dup3\n      add\n        /* \"#utility.yul\":12527:12589   */\n      mstore\n        /* \"#utility.yul\":12625:12638   */\n      0x65726f2061646472657373000000000000000000000000000000000000000000\n        /* \"#utility.yul\":12605:12623   */\n      0x64\n      dup3\n      add\n        /* \"#utility.yul\":12598:12639   */\n      mstore\n        /* \"#utility.yul\":12656:12675   */\n      0x84\n      add\n        /* \"contracts/ERC1155.sol\":2323:2434  require(... */\n    tag_89:\n      mload(0x40)\n      dup1\n      swap2\n      sub\n      swap1\n      revert\n    tag_88:\n      pop\n        /* \"contracts/ERC1155.sol\":2451:2460  _balances */\n      0x00\n        /* \"contracts/ERC1155.sol\":2451:2464  _balances[id] */\n      swap1\n      dup2\n      mstore\n      0x20\n      dup2\n      dup2\n      mstore\n      0x40\n      dup1\n      dup4\n      keccak256\n        /* \"contracts/ERC1155.sol\":2451:2473  _balances[id][account] */\n      0xffffffffffffffffffffffffffffffffffffffff\n      swap5\n      swap1\n      swap5\n      and\n      dup4\n      mstore\n      swap3\n      swap1\n      mstore\n      keccak256\n      sload\n      swap1\n        /* \"contracts/ERC1155.sol\":2174:2480  function balanceOf(address account, uint256 id)... */\n      jump\t// out\n        /* \"contracts/ERC1155.sol\":1181:1530  function supportsInterface(bytes4 interfaceId)... */\n    tag_30:\n        /* \"contracts/ERC1155.sol\":1323:1327  bool */\n      0x00\n        /* \"contracts/ERC1155.sol\":1362:1403  interfaceId == type(IERC1155).interfaceId */\n      0xffffffff00000000000000000000000000000000000000000000000000000000\n      dup3\n      and\n        /* \"contracts/ERC1155.sol\":1377:1403  type(IERC1155).interfaceId */\n      0xd9b67a2600000000000000000000000000000000000000000000000000000000\n        /* \"contracts/ERC1155.sol\":1362:1403  interfaceId == type(IERC1155).interfaceId */\n      eq\n      dup1\n        /* \"contracts/ERC1155.sol\":1362:1471  interfaceId == type(IERC1155).interfaceId ||... */\n      tag_92\n      jumpi\n      pop\n        /* \"contracts/ERC1155.sol\":1419:1471  interfaceId == type(IERC1155MetadataURI).interfaceId */\n      0xffffffff00000000000000000000000000000000000000000000000000000000\n      dup3\n      and\n        /* \"contracts/ERC1155.sol\":1434:1471  type(IERC1155MetadataURI).interfaceId */\n      0x0e89341c00000000000000000000000000000000000000000000000000000000\n        /* \"contracts/ERC1155.sol\":1419:1471  interfaceId == type(IERC1155MetadataURI).interfaceId */\n      eq\n        /* \"contracts/ERC1155.sol\":1362:1471  interfaceId == type(IERC1155).interfaceId ||... */\n    tag_92:\n        /* \"contracts/ERC1155.sol\":1362:1523  interfaceId == type(IERC1155).interfaceId ||... */\n      dup1\n      tag_94\n      jumpi\n      pop\n        /* \"contracts/ERC165.sol\":952:977  type(IERC165).interfaceId */\n      0x01ffc9a700000000000000000000000000000000000000000000000000000000\n        /* \"contracts/ERC165.sol\":937:977  interfaceId == type(IERC165).interfaceId */\n      0xffffffff00000000000000000000000000000000000000000000000000000000\n      dup4\n      and\n      eq\n        /* \"contracts/ERC1155.sol\":1487:1523  super.supportsInterface(interfaceId) */\n    tag_94:\n        /* \"contracts/ERC1155.sol\":1343:1523  return... */\n      swap3\n        /* \"contracts/ERC1155.sol\":1181:1530  function supportsInterface(bytes4 interfaceId)... */\n      swap2\n      pop\n      pop\n      jump\t// out\n        /* \"contracts/PantherQuant.sol\":307:394  function setURI(string memory newuri) public onlyOwner {... */\n    tag_36:\n        /* \"contracts/Ownable.sol\":1123:1129  _owner */\n      sload(0x03)\n        /* \"contracts/Ownable.sol\":1263:1286  owner() == _msgSender() */\n      0xffffffffffffffffffffffffffffffffffffffff\n        /* \"contracts/Ownable.sol\":1123:1129  _owner */\n      and\n        /* \"contracts/Context.sol\":719:729  msg.sender */\n      caller\n        /* \"contracts/Ownable.sol\":1263:1286  owner() == _msgSender() */\n      eq\n        /* \"contracts/Ownable.sol\":1255:1323  require(owner() == _msgSender(), \"Ownable: caller is not the owner\") */\n      tag_100\n      jumpi\n      mload(0x40)\n      shl(0xe5, 0x461bcd)\n      dup2\n      mstore\n        /* \"#utility.yul\":14941:14943   */\n      0x20\n        /* \"contracts/Ownable.sol\":1255:1323  require(owner() == _msgSender(), \"Ownable: caller is not the owner\") */\n      0x04\n      dup3\n      add\n        /* \"#utility.yul\":14923:14944   */\n      dup2\n      swap1\n      mstore\n        /* \"#utility.yul\":14960:14978   */\n      0x24\n      dup3\n      add\n        /* \"#utility.yul\":14953:14983   */\n      mstore\n        /* \"#utility.yul\":15019:15053   */\n      0x4f776e61626c653a2063616c6c6572206973206e6f7420746865206f776e6572\n        /* \"#utility.yul\":14999:15017   */\n      0x44\n      dup3\n      add\n        /* \"#utility.yul\":14992:15054   */\n      mstore\n        /* \"#utility.yul\":15071:15089   */\n      0x64\n      add\n        /* \"contracts/Ownable.sol\":1255:1323  require(owner() == _msgSender(), \"Ownable: caller is not the owner\") */\n      tag_89\n        /* \"#utility.yul\":14739:15095   */\n      jump\n        /* \"contracts/Ownable.sol\":1255:1323  require(owner() == _msgSender(), \"Ownable: caller is not the owner\") */\n    tag_100:\n        /* \"contracts/PantherQuant.sol\":372:387  _setURI(newuri) */\n      tag_104\n        /* \"contracts/PantherQuant.sol\":380:386  newuri */\n      dup2\n        /* \"contracts/PantherQuant.sol\":372:379  _setURI */\n      tag_105\n        /* \"contracts/PantherQuant.sol\":372:387  _setURI(newuri) */\n      jump\t// in\n    tag_104:\n        /* \"contracts/PantherQuant.sol\":307:394  function setURI(string memory newuri) public onlyOwner {... */\n      pop\n      jump\t// out\n        /* \"contracts/PantherQuant.sol\":253:300  string public name = \"Panther Quant Golden Egg\" */\n    tag_38:\n      0x04\n      dup1\n      sload\n      tag_106\n      swap1\n      tag_107\n      jump\t// in\n    tag_106:\n      dup1\n      0x1f\n      add\n      0x20\n      dup1\n      swap2\n      div\n      mul\n      0x20\n      add\n      mload(0x40)\n      swap1\n      dup2\n      add\n      0x40\n      mstore\n      dup1\n      swap3\n      swap2\n      swap1\n      dup2\n      dup2\n      mstore\n      0x20\n      add\n      dup3\n      dup1\n      sload\n      tag_108\n      swap1\n      tag_107\n      jump\t// in\n    tag_108:\n      dup1\n      iszero\n      tag_109\n      jumpi\n      dup1\n      0x1f\n      lt\n      tag_110\n      jumpi\n      0x0100\n      dup1\n      dup4\n      sload\n      div\n      mul\n      dup4\n      mstore\n      swap2\n      0x20\n      add\n      swap2\n      jump(tag_109)\n    tag_110:\n      dup3\n      add\n      swap2\n      swap1\n      0x00\n      mstore\n      keccak256(0x00, 0x20)\n      swap1\n    tag_111:\n      dup2\n      sload\n      dup2\n      mstore\n      swap1\n      0x01\n      add\n      swap1\n      0x20\n      add\n      dup1\n      dup4\n      gt\n      tag_111\n      jumpi\n      dup3\n      swap1\n      sub\n      0x1f\n      and\n      dup3\n      add\n      swap2\n    tag_109:\n      pop\n      pop\n      pop\n      pop\n      pop\n      dup2\n      jump\t// out\n        /* \"contracts/ERC1155.sol\":1929:2032  function uri(uint256) public view virtual override returns (string memory) {... */\n    tag_44:\n        /* \"contracts/ERC1155.sol\":1989:2002  string memory */\n      0x60\n        /* \"contracts/ERC1155.sol\":2021:2025  _uri */\n      0x02\n        /* \"contracts/ERC1155.sol\":2014:2025  return _uri */\n      dup1\n      sload\n      tag_113\n      swap1\n      tag_107\n      jump\t// in\n    tag_113:\n      dup1\n      0x1f\n      add\n      0x20\n      dup1\n      swap2\n      div\n      mul\n      0x20\n      add\n      mload(0x40)\n      swap1\n      dup2\n      add\n      0x40\n      mstore\n      dup1\n      swap3\n      swap2\n      swap1\n      dup2\n      dup2\n      mstore\n      0x20\n      add\n      dup3\n      dup1\n      sload\n      tag_114\n      swap1\n      tag_107\n      jump\t// in\n    tag_114:\n      dup1\n      iszero\n      tag_115\n      jumpi\n      dup1\n      0x1f\n      lt\n      tag_116\n      jumpi\n      0x0100\n      dup1\n      dup4\n      sload\n      div\n      mul\n      dup4\n      mstore\n      swap2\n      0x20\n      add\n      swap2\n      jump(tag_115)\n    tag_116:\n      dup3\n      add\n      swap2\n      swap1\n      0x00\n      mstore\n      keccak256(0x00, 0x20)\n      swap1\n    tag_117:\n      dup2\n      sload\n      dup2\n      mstore\n      swap1\n      0x01\n      add\n      swap1\n      0x20\n      add\n      dup1\n      dup4\n      gt\n      tag_117\n      jumpi\n      dup3\n      swap1\n      sub\n      0x1f\n      and\n      dup3\n      add\n      swap2\n    tag_115:\n      pop\n      pop\n      pop\n      pop\n      pop\n      swap1\n      pop\n        /* \"contracts/ERC1155.sol\":1929:2032  function uri(uint256) public view virtual override returns (string memory) {... */\n      swap2\n      swap1\n      pop\n      jump\t// out\n        /* \"contracts/ERC1155.sol\":4233:4663  function safeBatchTransferFrom(... */\n    tag_49:\n        /* \"contracts/ERC1155.sol\":4458:4478  from == _msgSender() */\n      0xffffffffffffffffffffffffffffffffffffffff\n      dup6\n      and\n        /* \"contracts/Context.sol\":719:729  msg.sender */\n      caller\n        /* \"contracts/ERC1155.sol\":4458:4478  from == _msgSender() */\n      eq\n      dup1\n        /* \"contracts/ERC1155.sol\":4458:4518  from == _msgSender() || isApprovedForAll(from, _msgSender()) */\n      tag_121\n      jumpi\n      pop\n        /* \"contracts/ERC1155.sol\":4482:4518  isApprovedForAll(from, _msgSender()) */\n      tag_121\n        /* \"contracts/ERC1155.sol\":4499:4503  from */\n      dup6\n        /* \"contracts/Context.sol\":719:729  msg.sender */\n      caller\n        /* \"contracts/ERC1155.sol\":3495:3705  function isApprovedForAll(address account, address operator)... */\n      tag_75\n      jump\t// in\n        /* \"contracts/ERC1155.sol\":4482:4518  isApprovedForAll(from, _msgSender()) */\n    tag_121:\n        /* \"contracts/ERC1155.sol\":4437:4594  require(... */\n      tag_123\n      jumpi\n      mload(0x40)\n      shl(0xe5, 0x461bcd)\n      dup2\n      mstore\n        /* \"#utility.yul\":14111:14113   */\n      0x20\n        /* \"contracts/ERC1155.sol\":4437:4594  require(... */\n      0x04\n      dup3\n      add\n        /* \"#utility.yul\":14093:14114   */\n      mstore\n        /* \"#utility.yul\":14150:14152   */\n      0x32\n        /* \"#utility.yul\":14130:14148   */\n      0x24\n      dup3\n      add\n        /* \"#utility.yul\":14123:14153   */\n      mstore\n        /* \"#utility.yul\":14189:14223   */\n      0x455243313135353a207472616e736665722063616c6c6572206973206e6f7420\n        /* \"#utility.yul\":14169:14187   */\n      0x44\n      dup3\n      add\n        /* \"#utility.yul\":14162:14224   */\n      mstore\n        /* \"#utility.yul\":14260:14280   */\n      0x6f776e6572206e6f7220617070726f7665640000000000000000000000000000\n        /* \"#utility.yul\":14240:14258   */\n      0x64\n      dup3\n      add\n        /* \"#utility.yul\":14233:14281   */\n      mstore\n        /* \"#utility.yul\":14298:14317   */\n      0x84\n      add\n        /* \"contracts/ERC1155.sol\":4437:4594  require(... */\n      tag_89\n        /* \"#utility.yul\":13909:14323   */\n      jump\n        /* \"contracts/ERC1155.sol\":4437:4594  require(... */\n    tag_123:\n        /* \"contracts/ERC1155.sol\":4604:4656  _safeBatchTransferFrom(from, to, ids, amounts, data) */\n      tag_126\n        /* \"contracts/ERC1155.sol\":4627:4631  from */\n      dup6\n        /* \"contracts/ERC1155.sol\":4633:4635  to */\n      dup6\n        /* \"contracts/ERC1155.sol\":4637:4640  ids */\n      dup6\n        /* \"contracts/ERC1155.sol\":4642:4649  amounts */\n      dup6\n        /* \"contracts/ERC1155.sol\":4651:4655  data */\n      dup6\n        /* \"contracts/ERC1155.sol\":4604:4626  _safeBatchTransferFrom */\n      tag_127\n        /* \"contracts/ERC1155.sol\":4604:4656  _safeBatchTransferFrom(from, to, ids, amounts, data) */\n      jump\t// in\n    tag_126:\n        /* \"contracts/ERC1155.sol\":4233:4663  function safeBatchTransferFrom(... */\n      pop\n      pop\n      pop\n      pop\n      pop\n      jump\t// out\n        /* \"contracts/ERC1155.sol\":2637:3179  function balanceOfBatch(address[] memory accounts, uint256[] memory ids)... */\n    tag_53:\n        /* \"contracts/ERC1155.sol\":2788:2804  uint256[] memory */\n      0x60\n        /* \"contracts/ERC1155.sol\":2860:2863  ids */\n      dup2\n        /* \"contracts/ERC1155.sol\":2860:2870  ids.length */\n      mload\n        /* \"contracts/ERC1155.sol\":2841:2849  accounts */\n      dup4\n        /* \"contracts/ERC1155.sol\":2841:2856  accounts.length */\n      mload\n        /* \"contracts/ERC1155.sol\":2841:2870  accounts.length == ids.length */\n      eq\n        /* \"contracts/ERC1155.sol\":2820:2937  require(... */\n      tag_129\n      jumpi\n      mload(0x40)\n      shl(0xe5, 0x461bcd)\n      dup2\n      mstore\n        /* \"#utility.yul\":15712:15714   */\n      0x20\n        /* \"contracts/ERC1155.sol\":2820:2937  require(... */\n      0x04\n      dup3\n      add\n        /* \"#utility.yul\":15694:15715   */\n      mstore\n        /* \"#utility.yul\":15751:15753   */\n      0x29\n        /* \"#utility.yul\":15731:15749   */\n      0x24\n      dup3\n      add\n        /* \"#utility.yul\":15724:15754   */\n      mstore\n        /* \"#utility.yul\":15790:15824   */\n      0x455243313135353a206163636f756e747320616e6420696473206c656e677468\n        /* \"#utility.yul\":15770:15788   */\n      0x44\n      dup3\n      add\n        /* \"#utility.yul\":15763:15825   */\n      mstore\n        /* \"#utility.yul\":15861:15872   */\n      0x206d69736d617463680000000000000000000000000000000000000000000000\n        /* \"#utility.yul\":15841:15859   */\n      0x64\n      dup3\n      add\n        /* \"#utility.yul\":15834:15873   */\n      mstore\n        /* \"#utility.yul\":15890:15909   */\n      0x84\n      add\n        /* \"contracts/ERC1155.sol\":2820:2937  require(... */\n      tag_89\n        /* \"#utility.yul\":15510:15915   */\n      jump\n        /* \"contracts/ERC1155.sol\":2820:2937  require(... */\n    tag_129:\n        /* \"contracts/ERC1155.sol\":2948:2978  uint256[] memory batchBalances */\n      0x00\n        /* \"contracts/ERC1155.sol\":2995:3003  accounts */\n      dup4\n        /* \"contracts/ERC1155.sol\":2995:3010  accounts.length */\n      mload\n        /* \"contracts/ERC1155.sol\":2981:3011  new uint256[](accounts.length) */\n      0xffffffffffffffff\n      dup2\n      gt\n      iszero\n      tag_133\n      jumpi\n      tag_133\n      tag_134\n      jump\t// in\n    tag_133:\n      mload(0x40)\n      swap1\n      dup1\n      dup3\n      mstore\n      dup1\n      0x20\n      mul\n      0x20\n      add\n      dup3\n      add\n      0x40\n      mstore\n      dup1\n      iszero\n      tag_135\n      jumpi\n      dup2\n      0x20\n      add\n      0x20\n      dup3\n      mul\n      dup1\n      calldatasize\n      dup4\n      calldatacopy\n      add\n      swap1\n      pop\n    tag_135:\n      pop\n        /* \"contracts/ERC1155.sol\":2948:3011  uint256[] memory batchBalances = new uint256[](accounts.length) */\n      swap1\n      pop\n        /* \"contracts/ERC1155.sol\":3027:3036  uint256 i */\n      0x00\n        /* \"contracts/ERC1155.sol\":3022:3142  for (uint256 i = 0; i < accounts.length; ++i) {... */\n    tag_136:\n        /* \"contracts/ERC1155.sol\":3046:3054  accounts */\n      dup5\n        /* \"contracts/ERC1155.sol\":3046:3061  accounts.length */\n      mload\n        /* \"contracts/ERC1155.sol\":3042:3043  i */\n      dup2\n        /* \"contracts/ERC1155.sol\":3042:3061  i < accounts.length */\n      lt\n        /* \"contracts/ERC1155.sol\":3022:3142  for (uint256 i = 0; i < accounts.length; ++i) {... */\n      iszero\n      tag_137\n      jumpi\n        /* \"contracts/ERC1155.sol\":3101:3131  balanceOf(accounts[i], ids[i]) */\n      tag_139\n        /* \"contracts/ERC1155.sol\":3111:3119  accounts */\n      dup6\n        /* \"contracts/ERC1155.sol\":3120:3121  i */\n      dup3\n        /* \"contracts/ERC1155.sol\":3111:3122  accounts[i] */\n      dup2\n      mload\n      dup2\n      lt\n      tag_141\n      jumpi\n      tag_141\n      tag_142\n      jump\t// in\n    tag_141:\n      0x20\n      mul\n      0x20\n      add\n      add\n      mload\n        /* \"contracts/ERC1155.sol\":3124:3127  ids */\n      dup6\n        /* \"contracts/ERC1155.sol\":3128:3129  i */\n      dup4\n        /* \"contracts/ERC1155.sol\":3124:3130  ids[i] */\n      dup2\n      mload\n      dup2\n      lt\n      tag_144\n      jumpi\n      tag_144\n      tag_142\n      jump\t// in\n    tag_144:\n      0x20\n      mul\n      0x20\n      add\n      add\n      mload\n        /* \"contracts/ERC1155.sol\":3101:3110  balanceOf */\n      tag_24\n        /* \"contracts/ERC1155.sol\":3101:3131  balanceOf(accounts[i], ids[i]) */\n      jump\t// in\n    tag_139:\n        /* \"contracts/ERC1155.sol\":3082:3095  batchBalances */\n      dup3\n        /* \"contracts/ERC1155.sol\":3096:3097  i */\n      dup3\n        /* \"contracts/ERC1155.sol\":3082:3098  batchBalances[i] */\n      dup2\n      mload\n      dup2\n      lt\n      tag_146\n      jumpi\n      tag_146\n      tag_142\n      jump\t// in\n    tag_146:\n      0x20\n      swap1\n      dup2\n      mul\n      swap2\n      swap1\n      swap2\n      add\n      add\n        /* \"contracts/ERC1155.sol\":3082:3131  batchBalances[i] = balanceOf(accounts[i], ids[i]) */\n      mstore\n        /* \"contracts/ERC1155.sol\":3063:3066  ++i */\n      tag_147\n      dup2\n      tag_148\n      jump\t// in\n    tag_147:\n      swap1\n      pop\n        /* \"contracts/ERC1155.sol\":3022:3142  for (uint256 i = 0; i < accounts.length; ++i) {... */\n      jump(tag_136)\n    tag_137:\n      pop\n        /* \"contracts/ERC1155.sol\":3159:3172  batchBalances */\n      swap4\n        /* \"contracts/ERC1155.sol\":2637:3179  function balanceOfBatch(address[] memory accounts, uint256[] memory ids)... */\n      swap3\n      pop\n      pop\n      pop\n      jump\t// out\n        /* \"contracts/Ownable.sol\":1683:1784  function renounceOwnership() public virtual onlyOwner {... */\n    tag_57:\n        /* \"contracts/Ownable.sol\":1123:1129  _owner */\n      sload(0x03)\n        /* \"contracts/Ownable.sol\":1263:1286  owner() == _msgSender() */\n      0xffffffffffffffffffffffffffffffffffffffff\n        /* \"contracts/Ownable.sol\":1123:1129  _owner */\n      and\n        /* \"contracts/Context.sol\":719:729  msg.sender */\n      caller\n        /* \"contracts/Ownable.sol\":1263:1286  owner() == _msgSender() */\n      eq\n        /* \"contracts/Ownable.sol\":1255:1323  require(owner() == _msgSender(), \"Ownable: caller is not the owner\") */\n      tag_152\n      jumpi\n      mload(0x40)\n      shl(0xe5, 0x461bcd)\n      dup2\n      mstore\n        /* \"#utility.yul\":14941:14943   */\n      0x20\n        /* \"contracts/Ownable.sol\":1255:1323  require(owner() == _msgSender(), \"Ownable: caller is not the owner\") */\n      0x04\n      dup3\n      add\n        /* \"#utility.yul\":14923:14944   */\n      dup2\n      swap1\n      mstore\n        /* \"#utility.yul\":14960:14978   */\n      0x24\n      dup3\n      add\n        /* \"#utility.yul\":14953:14983   */\n      mstore\n        /* \"#utility.yul\":15019:15053   */\n      0x4f776e61626c653a2063616c6c6572206973206e6f7420746865206f776e6572\n        /* \"#utility.yul\":14999:15017   */\n      0x44\n      dup3\n      add\n        /* \"#utility.yul\":14992:15054   */\n      mstore\n        /* \"#utility.yul\":15071:15089   */\n      0x64\n      add\n        /* \"contracts/Ownable.sol\":1255:1323  require(owner() == _msgSender(), \"Ownable: caller is not the owner\") */\n      tag_89\n        /* \"#utility.yul\":14739:15095   */\n      jump\n        /* \"contracts/Ownable.sol\":1255:1323  require(owner() == _msgSender(), \"Ownable: caller is not the owner\") */\n    tag_152:\n        /* \"contracts/Ownable.sol\":1747:1777  _transferOwnership(address(0)) */\n      tag_155\n        /* \"contracts/Ownable.sol\":1774:1775  0 */\n      0x00\n        /* \"contracts/Ownable.sol\":1747:1765  _transferOwnership */\n      tag_156\n        /* \"contracts/Ownable.sol\":1747:1777  _transferOwnership(address(0)) */\n      jump\t// in\n    tag_155:\n        /* \"contracts/Ownable.sol\":1683:1784  function renounceOwnership() public virtual onlyOwner {... */\n      jump\t// out\n        /* \"contracts/ERC1155.sol\":3247:3428  function setApprovalForAll(address operator, bool approved)... */\n    tag_65:\n        /* \"contracts/ERC1155.sol\":3369:3421  _setApprovalForAll(_msgSender(), operator, approved) */\n      tag_159\n        /* \"contracts/Context.sol\":719:729  msg.sender */\n      caller\n        /* \"contracts/ERC1155.sol\":3402:3410  operator */\n      dup4\n        /* \"contracts/ERC1155.sol\":3412:3420  approved */\n      dup4\n        /* \"contracts/ERC1155.sol\":3369:3387  _setApprovalForAll */\n      tag_161\n        /* \"contracts/ERC1155.sol\":3369:3421  _setApprovalForAll(_msgSender(), operator, approved) */\n      jump\t// in\n    tag_159:\n        /* \"contracts/ERC1155.sol\":3247:3428  function setApprovalForAll(address operator, bool approved)... */\n      pop\n      pop\n      jump\t// out\n        /* \"contracts/PantherQuant.sol\":624:778  function mintOne(... */\n    tag_69:\n        /* \"contracts/Ownable.sol\":1123:1129  _owner */\n      sload(0x03)\n        /* \"contracts/Ownable.sol\":1263:1286  owner() == _msgSender() */\n      0xffffffffffffffffffffffffffffffffffffffff\n        /* \"contracts/Ownable.sol\":1123:1129  _owner */\n      and\n        /* \"contracts/Context.sol\":719:729  msg.sender */\n      caller\n        /* \"contracts/Ownable.sol\":1263:1286  owner() == _msgSender() */\n      eq\n        /* \"contracts/Ownable.sol\":1255:1323  require(owner() == _msgSender(), \"Ownable: caller is not the owner\") */\n      tag_165\n      jumpi\n      mload(0x40)\n      shl(0xe5, 0x461bcd)\n      dup2\n      mstore\n        /* \"#utility.yul\":14941:14943   */\n      0x20\n        /* \"contracts/Ownable.sol\":1255:1323  require(owner() == _msgSender(), \"Ownable: caller is not the owner\") */\n      0x04\n      dup3\n      add\n        /* \"#utility.yul\":14923:14944   */\n      dup2\n      swap1\n      mstore\n        /* \"#utility.yul\":14960:14978   */\n      0x24\n      dup3\n      add\n        /* \"#utility.yul\":14953:14983   */\n      mstore\n        /* \"#utility.yul\":15019:15053   */\n      0x4f776e61626c653a2063616c6c6572206973206e6f7420746865206f776e6572\n        /* \"#utility.yul\":14999:15017   */\n      0x44\n      dup3\n      add\n        /* \"#utility.yul\":14992:15054   */\n      mstore\n        /* \"#utility.yul\":15071:15089   */\n      0x64\n      add\n        /* \"contracts/Ownable.sol\":1255:1323  require(owner() == _msgSender(), \"Ownable: caller is not the owner\") */\n      tag_89\n        /* \"#utility.yul\":14739:15095   */\n      jump\n        /* \"contracts/Ownable.sol\":1255:1323  require(owner() == _msgSender(), \"Ownable: caller is not the owner\") */\n    tag_165:\n        /* \"contracts/PantherQuant.sol\":745:771  _mint(account, id, amount) */\n      tag_168\n        /* \"contracts/PantherQuant.sol\":751:758  account */\n      dup4\n        /* \"contracts/PantherQuant.sol\":760:762  id */\n      dup4\n        /* \"contracts/PantherQuant.sol\":764:770  amount */\n      dup4\n        /* \"contracts/PantherQuant.sol\":745:750  _mint */\n      tag_169\n        /* \"contracts/PantherQuant.sol\":745:771  _mint(account, id, amount) */\n      jump\t// in\n    tag_168:\n        /* \"contracts/PantherQuant.sol\":624:778  function mintOne(... */\n      pop\n      pop\n      pop\n      jump\t// out\n        /* \"contracts/PantherQuant.sol\":400:618  function mint(... */\n    tag_73:\n        /* \"contracts/Ownable.sol\":1123:1129  _owner */\n      sload(0x03)\n        /* \"contracts/Ownable.sol\":1263:1286  owner() == _msgSender() */\n      0xffffffffffffffffffffffffffffffffffffffff\n        /* \"contracts/Ownable.sol\":1123:1129  _owner */\n      and\n        /* \"contracts/Context.sol\":719:729  msg.sender */\n      caller\n        /* \"contracts/Ownable.sol\":1263:1286  owner() == _msgSender() */\n      eq\n        /* \"contracts/Ownable.sol\":1255:1323  require(owner() == _msgSender(), \"Ownable: caller is not the owner\") */\n      tag_173\n      jumpi\n      mload(0x40)\n      shl(0xe5, 0x461bcd)\n      dup2\n      mstore\n        /* \"#utility.yul\":14941:14943   */\n      0x20\n        /* \"contracts/Ownable.sol\":1255:1323  require(owner() == _msgSender(), \"Ownable: caller is not the owner\") */\n      0x04\n      dup3\n      add\n        /* \"#utility.yul\":14923:14944   */\n      dup2\n      swap1\n      mstore\n        /* \"#utility.yul\":14960:14978   */\n      0x24\n      dup3\n      add\n        /* \"#utility.yul\":14953:14983   */\n      mstore\n        /* \"#utility.yul\":15019:15053   */\n      0x4f776e61626c653a2063616c6c6572206973206e6f7420746865206f776e6572\n        /* \"#utility.yul\":14999:15017   */\n      0x44\n      dup3\n      add\n        /* \"#utility.yul\":14992:15054   */\n      mstore\n        /* \"#utility.yul\":15071:15089   */\n      0x64\n      add\n        /* \"contracts/Ownable.sol\":1255:1323  require(owner() == _msgSender(), \"Ownable: caller is not the owner\") */\n      tag_89\n        /* \"#utility.yul\":14739:15095   */\n      jump\n        /* \"contracts/Ownable.sol\":1255:1323  require(owner() == _msgSender(), \"Ownable: caller is not the owner\") */\n    tag_173:\n        /* \"contracts/PantherQuant.sol\":530:539  uint256 i */\n      0x00\n        /* \"contracts/PantherQuant.sol\":525:611  for (uint256 i = 0; i < account.length; i++)... */\n    tag_176:\n        /* \"contracts/PantherQuant.sol\":549:556  account */\n      dup4\n        /* \"contracts/PantherQuant.sol\":549:563  account.length */\n      mload\n        /* \"contracts/PantherQuant.sol\":545:546  i */\n      dup2\n        /* \"contracts/PantherQuant.sol\":545:563  i < account.length */\n      lt\n        /* \"contracts/PantherQuant.sol\":525:611  for (uint256 i = 0; i < account.length; i++)... */\n      iszero\n      tag_177\n      jumpi\n        /* \"contracts/PantherQuant.sol\":582:611  _mint(account[i], id, amount) */\n      tag_179\n        /* \"contracts/PantherQuant.sol\":588:595  account */\n      dup5\n        /* \"contracts/PantherQuant.sol\":596:597  i */\n      dup3\n        /* \"contracts/PantherQuant.sol\":588:598  account[i] */\n      dup2\n      mload\n      dup2\n      lt\n      tag_181\n      jumpi\n      tag_181\n      tag_142\n      jump\t// in\n    tag_181:\n      0x20\n      mul\n      0x20\n      add\n      add\n      mload\n        /* \"contracts/PantherQuant.sol\":600:602  id */\n      dup5\n        /* \"contracts/PantherQuant.sol\":604:610  amount */\n      dup5\n        /* \"contracts/PantherQuant.sol\":582:587  _mint */\n      tag_169\n        /* \"contracts/PantherQuant.sol\":582:611  _mint(account[i], id, amount) */\n      jump\t// in\n    tag_179:\n        /* \"contracts/PantherQuant.sol\":565:568  i++ */\n      dup1\n      tag_182\n      dup2\n      tag_148\n      jump\t// in\n    tag_182:\n      swap2\n      pop\n      pop\n        /* \"contracts/PantherQuant.sol\":525:611  for (uint256 i = 0; i < account.length; i++)... */\n      jump(tag_176)\n    tag_177:\n      pop\n        /* \"contracts/PantherQuant.sol\":400:618  function mint(... */\n      pop\n      pop\n      pop\n      jump\t// out\n        /* \"contracts/ERC1155.sol\":3772:4161  function safeTransferFrom(... */\n    tag_82:\n        /* \"contracts/ERC1155.sol\":3972:3992  from == _msgSender() */\n      0xffffffffffffffffffffffffffffffffffffffff\n      dup6\n      and\n        /* \"contracts/Context.sol\":719:729  msg.sender */\n      caller\n        /* \"contracts/ERC1155.sol\":3972:3992  from == _msgSender() */\n      eq\n      dup1\n        /* \"contracts/ERC1155.sol\":3972:4032  from == _msgSender() || isApprovedForAll(from, _msgSender()) */\n      tag_187\n      jumpi\n      pop\n        /* \"contracts/ERC1155.sol\":3996:4032  isApprovedForAll(from, _msgSender()) */\n      tag_187\n        /* \"contracts/ERC1155.sol\":4013:4017  from */\n      dup6\n        /* \"contracts/Context.sol\":719:729  msg.sender */\n      caller\n        /* \"contracts/ERC1155.sol\":3495:3705  function isApprovedForAll(address account, address operator)... */\n      tag_75\n      jump\t// in\n        /* \"contracts/ERC1155.sol\":3996:4032  isApprovedForAll(from, _msgSender()) */\n    tag_187:\n        /* \"contracts/ERC1155.sol\":3951:4099  require(... */\n      tag_189\n      jumpi\n      mload(0x40)\n      shl(0xe5, 0x461bcd)\n      dup2\n      mstore\n        /* \"#utility.yul\":13295:13297   */\n      0x20\n        /* \"contracts/ERC1155.sol\":3951:4099  require(... */\n      0x04\n      dup3\n      add\n        /* \"#utility.yul\":13277:13298   */\n      mstore\n        /* \"#utility.yul\":13334:13336   */\n      0x29\n        /* \"#utility.yul\":13314:13332   */\n      0x24\n      dup3\n      add\n        /* \"#utility.yul\":13307:13337   */\n      mstore\n        /* \"#utility.yul\":13373:13407   */\n      0x455243313135353a2063616c6c6572206973206e6f74206f776e6572206e6f72\n        /* \"#utility.yul\":13353:13371   */\n      0x44\n      dup3\n      add\n        /* \"#utility.yul\":13346:13408   */\n      mstore\n        /* \"#utility.yul\":13444:13455   */\n      0x20617070726f7665640000000000000000000000000000000000000000000000\n        /* \"#utility.yul\":13424:13442   */\n      0x64\n      dup3\n      add\n        /* \"#utility.yul\":13417:13456   */\n      mstore\n        /* \"#utility.yul\":13473:13492   */\n      0x84\n      add\n        /* \"contracts/ERC1155.sol\":3951:4099  require(... */\n      tag_89\n        /* \"#utility.yul\":13093:13498   */\n      jump\n        /* \"contracts/ERC1155.sol\":3951:4099  require(... */\n    tag_189:\n        /* \"contracts/ERC1155.sol\":4109:4154  _safeTransferFrom(from, to, id, amount, data) */\n      tag_126\n        /* \"contracts/ERC1155.sol\":4127:4131  from */\n      dup6\n        /* \"contracts/ERC1155.sol\":4133:4135  to */\n      dup6\n        /* \"contracts/ERC1155.sol\":4137:4139  id */\n      dup6\n        /* \"contracts/ERC1155.sol\":4141:4147  amount */\n      dup6\n        /* \"contracts/ERC1155.sol\":4149:4153  data */\n      dup6\n        /* \"contracts/ERC1155.sol\":4109:4126  _safeTransferFrom */\n      tag_193\n        /* \"contracts/ERC1155.sol\":4109:4154  _safeTransferFrom(from, to, id, amount, data) */\n      jump\t// in\n        /* \"contracts/Ownable.sol\":1933:2165  function transferOwnership(address newOwner) public virtual onlyOwner {... */\n    tag_86:\n        /* \"contracts/Ownable.sol\":1123:1129  _owner */\n      sload(0x03)\n        /* \"contracts/Ownable.sol\":1263:1286  owner() == _msgSender() */\n      0xffffffffffffffffffffffffffffffffffffffff\n        /* \"contracts/Ownable.sol\":1123:1129  _owner */\n      and\n        /* \"contracts/Context.sol\":719:729  msg.sender */\n      caller\n        /* \"contracts/Ownable.sol\":1263:1286  owner() == _msgSender() */\n      eq\n        /* \"contracts/Ownable.sol\":1255:1323  require(owner() == _msgSender(), \"Ownable: caller is not the owner\") */\n      tag_197\n      jumpi\n      mload(0x40)\n      shl(0xe5, 0x461bcd)\n      dup2\n      mstore\n        /* \"#utility.yul\":14941:14943   */\n      0x20\n        /* \"contracts/Ownable.sol\":1255:1323  require(owner() == _msgSender(), \"Ownable: caller is not the owner\") */\n      0x04\n      dup3\n      add\n        /* \"#utility.yul\":14923:14944   */\n      dup2\n      swap1\n      mstore\n        /* \"#utility.yul\":14960:14978   */\n      0x24\n      dup3\n      add\n        /* \"#utility.yul\":14953:14983   */\n      mstore\n        /* \"#utility.yul\":15019:15053   */\n      0x4f776e61626c653a2063616c6c6572206973206e6f7420746865206f776e6572\n        /* \"#utility.yul\":14999:15017   */\n      0x44\n      dup3\n      add\n        /* \"#utility.yul\":14992:15054   */\n      mstore\n        /* \"#utility.yul\":15071:15089   */\n      0x64\n      add\n        /* \"contracts/Ownable.sol\":1255:1323  require(owner() == _msgSender(), \"Ownable: caller is not the owner\") */\n      tag_89\n        /* \"#utility.yul\":14739:15095   */\n      jump\n        /* \"contracts/Ownable.sol\":1255:1323  require(owner() == _msgSender(), \"Ownable: caller is not the owner\") */\n    tag_197:\n        /* \"contracts/Ownable.sol\":2034:2056  newOwner != address(0) */\n      0xffffffffffffffffffffffffffffffffffffffff\n      dup2\n      and\n        /* \"contracts/Ownable.sol\":2013:2120  require(... */\n      tag_200\n      jumpi\n      mload(0x40)\n      shl(0xe5, 0x461bcd)\n      dup2\n      mstore\n        /* \"#utility.yul\":12888:12890   */\n      0x20\n        /* \"contracts/Ownable.sol\":2013:2120  require(... */\n      0x04\n      dup3\n      add\n        /* \"#utility.yul\":12870:12891   */\n      mstore\n        /* \"#utility.yul\":12927:12929   */\n      0x26\n        /* \"#utility.yul\":12907:12925   */\n      0x24\n      dup3\n      add\n        /* \"#utility.yul\":12900:12930   */\n      mstore\n        /* \"#utility.yul\":12966:13000   */\n      0x4f776e61626c653a206e6577206f776e657220697320746865207a65726f2061\n        /* \"#utility.yul\":12946:12964   */\n      0x44\n      dup3\n      add\n        /* \"#utility.yul\":12939:13001   */\n      mstore\n        /* \"#utility.yul\":13037:13045   */\n      0x6464726573730000000000000000000000000000000000000000000000000000\n        /* \"#utility.yul\":13017:13035   */\n      0x64\n      dup3\n      add\n        /* \"#utility.yul\":13010:13046   */\n      mstore\n        /* \"#utility.yul\":13063:13082   */\n      0x84\n      add\n        /* \"contracts/Ownable.sol\":2013:2120  require(... */\n      tag_89\n        /* \"#utility.yul\":12686:13088   */\n      jump\n        /* \"contracts/Ownable.sol\":2013:2120  require(... */\n    tag_200:\n        /* \"contracts/Ownable.sol\":2130:2158  _transferOwnership(newOwner) */\n      tag_104\n        /* \"contracts/Ownable.sol\":2149:2157  newOwner */\n      dup2\n        /* \"contracts/Ownable.sol\":2130:2148  _transferOwnership */\n      tag_156\n        /* \"contracts/Ownable.sol\":2130:2158  _transferOwnership(newOwner) */\n      jump\t// in\n        /* \"contracts/ERC1155.sol\":8540:8626  function _setURI(string memory newuri) internal virtual {... */\n    tag_105:\n        /* \"contracts/ERC1155.sol\":8606:8619  _uri = newuri */\n      dup1\n      mload\n      tag_159\n      swap1\n        /* \"contracts/ERC1155.sol\":8606:8610  _uri */\n      0x02\n      swap1\n        /* \"contracts/ERC1155.sol\":8606:8619  _uri = newuri */\n      0x20\n      dup5\n      add\n      swap1\n      tag_208\n      jump\t// in\n        /* \"contracts/ERC1155.sol\":6440:7717  function _safeBatchTransferFrom(... */\n    tag_127:\n        /* \"contracts/ERC1155.sol\":6673:6680  amounts */\n      dup2\n        /* \"contracts/ERC1155.sol\":6673:6687  amounts.length */\n      mload\n        /* \"contracts/ERC1155.sol\":6659:6662  ids */\n      dup4\n        /* \"contracts/ERC1155.sol\":6659:6669  ids.length */\n      mload\n        /* \"contracts/ERC1155.sol\":6659:6687  ids.length == amounts.length */\n      eq\n        /* \"contracts/ERC1155.sol\":6638:6753  require(... */\n      tag_210\n      jumpi\n      mload(0x40)\n      shl(0xe5, 0x461bcd)\n      dup2\n      mstore\n        /* \"#utility.yul\":16122:16124   */\n      0x20\n        /* \"contracts/ERC1155.sol\":6638:6753  require(... */\n      0x04\n      dup3\n      add\n        /* \"#utility.yul\":16104:16125   */\n      mstore\n        /* \"#utility.yul\":16161:16163   */\n      0x28\n        /* \"#utility.yul\":16141:16159   */\n      0x24\n      dup3\n      add\n        /* \"#utility.yul\":16134:16164   */\n      mstore\n        /* \"#utility.yul\":16200:16234   */\n      0x455243313135353a2069647320616e6420616d6f756e7473206c656e67746820\n        /* \"#utility.yul\":16180:16198   */\n      0x44\n      dup3\n      add\n        /* \"#utility.yul\":16173:16235   */\n      mstore\n        /* \"#utility.yul\":16271:16281   */\n      0x6d69736d61746368000000000000000000000000000000000000000000000000\n        /* \"#utility.yul\":16251:16269   */\n      0x64\n      dup3\n      add\n        /* \"#utility.yul\":16244:16282   */\n      mstore\n        /* \"#utility.yul\":16299:16318   */\n      0x84\n      add\n        /* \"contracts/ERC1155.sol\":6638:6753  require(... */\n      tag_89\n        /* \"#utility.yul\":15920:16324   */\n      jump\n        /* \"contracts/ERC1155.sol\":6638:6753  require(... */\n    tag_210:\n        /* \"contracts/ERC1155.sol\":6771:6787  to != address(0) */\n      0xffffffffffffffffffffffffffffffffffffffff\n      dup5\n      and\n        /* \"contracts/ERC1155.sol\":6763:6829  require(to != address(0), \"ERC1155: transfer to the zero address\") */\n      tag_213\n      jumpi\n      mload(0x40)\n      shl(0xe5, 0x461bcd)\n      dup2\n      mstore\n        /* \"#utility.yul\":13705:13707   */\n      0x20\n        /* \"contracts/ERC1155.sol\":6763:6829  require(to != address(0), \"ERC1155: transfer to the zero address\") */\n      0x04\n      dup3\n      add\n        /* \"#utility.yul\":13687:13708   */\n      mstore\n        /* \"#utility.yul\":13744:13746   */\n      0x25\n        /* \"#utility.yul\":13724:13742   */\n      0x24\n      dup3\n      add\n        /* \"#utility.yul\":13717:13747   */\n      mstore\n        /* \"#utility.yul\":13783:13817   */\n      0x455243313135353a207472616e7366657220746f20746865207a65726f206164\n        /* \"#utility.yul\":13763:13781   */\n      0x44\n      dup3\n      add\n        /* \"#utility.yul\":13756:13818   */\n      mstore\n        /* \"#utility.yul\":13854:13861   */\n      0x6472657373000000000000000000000000000000000000000000000000000000\n        /* \"#utility.yul\":13834:13852   */\n      0x64\n      dup3\n      add\n        /* \"#utility.yul\":13827:13862   */\n      mstore\n        /* \"#utility.yul\":13879:13898   */\n      0x84\n      add\n        /* \"contracts/ERC1155.sol\":6763:6829  require(to != address(0), \"ERC1155: transfer to the zero address\") */\n      tag_89\n        /* \"#utility.yul\":13503:13904   */\n      jump\n        /* \"contracts/ERC1155.sol\":6763:6829  require(to != address(0), \"ERC1155: transfer to the zero address\") */\n    tag_213:\n        /* \"contracts/Context.sol\":719:729  msg.sender */\n      caller\n        /* \"contracts/ERC1155.sol\":6840:6856  address operator */\n      0x00\n        /* \"contracts/ERC1155.sol\":6953:7410  for (uint256 i = 0; i < ids.length; ++i) {... */\n    tag_219:\n        /* \"contracts/ERC1155.sol\":6977:6980  ids */\n      dup5\n        /* \"contracts/ERC1155.sol\":6977:6987  ids.length */\n      mload\n        /* \"contracts/ERC1155.sol\":6973:6974  i */\n      dup2\n        /* \"contracts/ERC1155.sol\":6973:6987  i < ids.length */\n      lt\n        /* \"contracts/ERC1155.sol\":6953:7410  for (uint256 i = 0; i < ids.length; ++i) {... */\n      iszero\n      tag_220\n      jumpi\n        /* \"contracts/ERC1155.sol\":7008:7018  uint256 id */\n      0x00\n        /* \"contracts/ERC1155.sol\":7021:7024  ids */\n      dup6\n        /* \"contracts/ERC1155.sol\":7025:7026  i */\n      dup3\n        /* \"contracts/ERC1155.sol\":7021:7027  ids[i] */\n      dup2\n      mload\n      dup2\n      lt\n      tag_223\n      jumpi\n      tag_223\n      tag_142\n      jump\t// in\n    tag_223:\n      0x20\n      mul\n      0x20\n      add\n      add\n      mload\n        /* \"contracts/ERC1155.sol\":7008:7027  uint256 id = ids[i] */\n      swap1\n      pop\n        /* \"contracts/ERC1155.sol\":7041:7055  uint256 amount */\n      0x00\n        /* \"contracts/ERC1155.sol\":7058:7065  amounts */\n      dup6\n        /* \"contracts/ERC1155.sol\":7066:7067  i */\n      dup4\n        /* \"contracts/ERC1155.sol\":7058:7068  amounts[i] */\n      dup2\n      mload\n      dup2\n      lt\n      tag_225\n      jumpi\n      tag_225\n      tag_142\n      jump\t// in\n    tag_225:\n      0x20\n      swap1\n      dup2\n      mul\n      swap2\n      swap1\n      swap2\n      add\n      dup2\n      add\n      mload\n        /* \"contracts/ERC1155.sol\":7083:7102  uint256 fromBalance */\n      0x00\n        /* \"contracts/ERC1155.sol\":7105:7118  _balances[id] */\n      dup5\n      dup2\n      mstore\n      dup1\n      dup4\n      mstore\n      0x40\n      dup1\n      dup3\n      keccak256\n        /* \"contracts/ERC1155.sol\":7105:7124  _balances[id][from] */\n      0xffffffffffffffffffffffffffffffffffffffff\n      dup15\n      and\n      dup4\n      mstore\n      swap1\n      swap4\n      mstore\n      swap2\n      swap1\n      swap2\n      keccak256\n      sload\n        /* \"contracts/ERC1155.sol\":7058:7068  amounts[i] */\n      swap1\n      swap2\n      pop\n        /* \"contracts/ERC1155.sol\":7163:7184  fromBalance >= amount */\n      dup2\n      dup2\n      lt\n      iszero\n        /* \"contracts/ERC1155.sol\":7138:7260  require(... */\n      tag_226\n      jumpi\n      mload(0x40)\n      shl(0xe5, 0x461bcd)\n      dup2\n      mstore\n        /* \"#utility.yul\":14530:14532   */\n      0x20\n        /* \"contracts/ERC1155.sol\":7138:7260  require(... */\n      0x04\n      dup3\n      add\n        /* \"#utility.yul\":14512:14533   */\n      mstore\n        /* \"#utility.yul\":14569:14571   */\n      0x2a\n        /* \"#utility.yul\":14549:14567   */\n      0x24\n      dup3\n      add\n        /* \"#utility.yul\":14542:14572   */\n      mstore\n        /* \"#utility.yul\":14608:14642   */\n      0x455243313135353a20696e73756666696369656e742062616c616e636520666f\n        /* \"#utility.yul\":14588:14606   */\n      0x44\n      dup3\n      add\n        /* \"#utility.yul\":14581:14643   */\n      mstore\n        /* \"#utility.yul\":14679:14691   */\n      0x72207472616e7366657200000000000000000000000000000000000000000000\n        /* \"#utility.yul\":14659:14677   */\n      0x64\n      dup3\n      add\n        /* \"#utility.yul\":14652:14692   */\n      mstore\n        /* \"#utility.yul\":14709:14728   */\n      0x84\n      add\n        /* \"contracts/ERC1155.sol\":7138:7260  require(... */\n      tag_89\n        /* \"#utility.yul\":14328:14734   */\n      jump\n        /* \"contracts/ERC1155.sol\":7138:7260  require(... */\n    tag_226:\n        /* \"contracts/ERC1155.sol\":7302:7311  _balances */\n      0x00\n        /* \"contracts/ERC1155.sol\":7302:7315  _balances[id] */\n      dup4\n      dup2\n      mstore\n      0x20\n      dup2\n      dup2\n      mstore\n      0x40\n      dup1\n      dup4\n      keccak256\n        /* \"contracts/ERC1155.sol\":7302:7321  _balances[id][from] */\n      0xffffffffffffffffffffffffffffffffffffffff\n      dup15\n      dup2\n      and\n      dup6\n      mstore\n      swap3\n      mstore\n      dup1\n      dup4\n      keccak256\n        /* \"contracts/ERC1155.sol\":7324:7344  fromBalance - amount */\n      dup6\n      dup6\n      sub\n        /* \"contracts/ERC1155.sol\":7302:7344  _balances[id][from] = fromBalance - amount */\n      swap1\n      sstore\n        /* \"contracts/ERC1155.sol\":7372:7389  _balances[id][to] */\n      swap1\n      dup12\n      and\n      dup3\n      mstore\n      dup2\n      keccak256\n        /* \"contracts/ERC1155.sol\":7372:7399  _balances[id][to] += amount */\n      dup1\n      sload\n        /* \"contracts/ERC1155.sol\":7324:7344  fromBalance - amount */\n      dup5\n      swap3\n        /* \"contracts/ERC1155.sol\":7302:7311  _balances */\n      swap1\n        /* \"contracts/ERC1155.sol\":7372:7399  _balances[id][to] += amount */\n      tag_229\n      swap1\n        /* \"contracts/ERC1155.sol\":7324:7344  fromBalance - amount */\n      dup5\n      swap1\n        /* \"contracts/ERC1155.sol\":7372:7399  _balances[id][to] += amount */\n      tag_230\n      jump\t// in\n    tag_229:\n      swap3\n      pop\n      pop\n      dup2\n      swap1\n      sstore\n      pop\n        /* \"contracts/ERC1155.sol\":6994:7410  {... */\n      pop\n      pop\n      pop\n        /* \"contracts/ERC1155.sol\":6989:6992  ++i */\n      dup1\n      tag_231\n      swap1\n      tag_148\n      jump\t// in\n    tag_231:\n      swap1\n      pop\n        /* \"contracts/ERC1155.sol\":6953:7410  for (uint256 i = 0; i < ids.length; ++i) {... */\n      jump(tag_219)\n    tag_220:\n      pop\n        /* \"contracts/ERC1155.sol\":7455:7457  to */\n      dup5\n        /* \"contracts/ERC1155.sol\":7425:7472  TransferBatch(operator, from, to, ids, amounts) */\n      0xffffffffffffffffffffffffffffffffffffffff\n      and\n        /* \"contracts/ERC1155.sol\":7449:7453  from */\n      dup7\n        /* \"contracts/ERC1155.sol\":7425:7472  TransferBatch(operator, from, to, ids, amounts) */\n      0xffffffffffffffffffffffffffffffffffffffff\n      and\n        /* \"contracts/ERC1155.sol\":7439:7447  operator */\n      dup3\n        /* \"contracts/ERC1155.sol\":7425:7472  TransferBatch(operator, from, to, ids, amounts) */\n      0xffffffffffffffffffffffffffffffffffffffff\n      and\n      0x4a39dc06d4c0dbc64b70af90fd698a233a518aa5d07e595d983b8c0526c8f7fb\n        /* \"contracts/ERC1155.sol\":7459:7462  ids */\n      dup8\n        /* \"contracts/ERC1155.sol\":7464:7471  amounts */\n      dup8\n        /* \"contracts/ERC1155.sol\":7425:7472  TransferBatch(operator, from, to, ids, amounts) */\n      mload(0x40)\n      tag_232\n      swap3\n      swap2\n      swap1\n      tag_233\n      jump\t// in\n    tag_232:\n      mload(0x40)\n      dup1\n      swap2\n      sub\n      swap1\n      log4\n        /* \"contracts/ERC1155.sol\":7553:7710  _doSafeBatchTransferAcceptanceCheck(... */\n      tag_236\n        /* \"contracts/ERC1155.sol\":7602:7610  operator */\n      dup2\n        /* \"contracts/ERC1155.sol\":7624:7628  from */\n      dup8\n        /* \"contracts/ERC1155.sol\":7642:7644  to */\n      dup8\n        /* \"contracts/ERC1155.sol\":7658:7661  ids */\n      dup8\n        /* \"contracts/ERC1155.sol\":7675:7682  amounts */\n      dup8\n        /* \"contracts/ERC1155.sol\":7696:7700  data */\n      dup8\n        /* \"contracts/ERC1155.sol\":7553:7588  _doSafeBatchTransferAcceptanceCheck */\n      tag_237\n        /* \"contracts/ERC1155.sol\":7553:7710  _doSafeBatchTransferAcceptanceCheck(... */\n      jump\t// in\n    tag_236:\n        /* \"contracts/ERC1155.sol\":6628:7717  {... */\n      pop\n        /* \"contracts/ERC1155.sol\":6440:7717  function _safeBatchTransferFrom(... */\n      pop\n      pop\n      pop\n      pop\n      pop\n      jump\t// out\n        /* \"contracts/Ownable.sol\":2319:2506  function _transferOwnership(address newOwner) internal virtual {... */\n    tag_156:\n        /* \"contracts/Ownable.sol\":2411:2417  _owner */\n      0x03\n      dup1\n      sload\n      0xffffffffffffffffffffffffffffffffffffffff\n        /* \"contracts/Ownable.sol\":2427:2444  _owner = newOwner */\n      dup4\n      dup2\n      and\n      0xffffffffffffffffffffffff0000000000000000000000000000000000000000\n      dup4\n      and\n      dup2\n      or\n      swap1\n      swap4\n      sstore\n        /* \"contracts/Ownable.sol\":2459:2499  OwnershipTransferred(oldOwner, newOwner) */\n      mload(0x40)\n        /* \"contracts/Ownable.sol\":2411:2417  _owner */\n      swap2\n      and\n      swap2\n        /* \"contracts/Ownable.sol\":2427:2444  _owner = newOwner */\n      swap1\n        /* \"contracts/Ownable.sol\":2411:2417  _owner */\n      dup3\n      swap1\n        /* \"contracts/Ownable.sol\":2459:2499  OwnershipTransferred(oldOwner, newOwner) */\n      0x8be0079c531659141344cd1fd0a4f28419497f9722a3daafe3b4186f6b6457e0\n      swap1\n        /* \"contracts/Ownable.sol\":2392:2408  address oldOwner */\n      0x00\n      swap1\n        /* \"contracts/Ownable.sol\":2459:2499  OwnershipTransferred(oldOwner, newOwner) */\n      log3\n        /* \"contracts/Ownable.sol\":2382:2506  {... */\n      pop\n        /* \"contracts/Ownable.sol\":2319:2506  function _transferOwnership(address newOwner) internal virtual {... */\n      pop\n      jump\t// out\n        /* \"contracts/ERC1155.sol\":13326:13649  function _setApprovalForAll(... */\n    tag_161:\n        /* \"contracts/ERC1155.sol\":13476:13484  operator */\n      dup2\n        /* \"contracts/ERC1155.sol\":13467:13484  owner != operator */\n      0xffffffffffffffffffffffffffffffffffffffff\n      and\n        /* \"contracts/ERC1155.sol\":13467:13472  owner */\n      dup4\n        /* \"contracts/ERC1155.sol\":13467:13484  owner != operator */\n      0xffffffffffffffffffffffffffffffffffffffff\n      and\n      eq\n      iszero\n        /* \"contracts/ERC1155.sol\":13459:13530  require(owner != operator, \"ERC1155: setting approval status for self\") */\n      tag_240\n      jumpi\n      mload(0x40)\n      shl(0xe5, 0x461bcd)\n      dup2\n      mstore\n        /* \"#utility.yul\":15302:15304   */\n      0x20\n        /* \"contracts/ERC1155.sol\":13459:13530  require(owner != operator, \"ERC1155: setting approval status for self\") */\n      0x04\n      dup3\n      add\n        /* \"#utility.yul\":15284:15305   */\n      mstore\n        /* \"#utility.yul\":15341:15343   */\n      0x29\n        /* \"#utility.yul\":15321:15339   */\n      0x24\n      dup3\n      add\n        /* \"#utility.yul\":15314:15344   */\n      mstore\n        /* \"#utility.yul\":15380:15414   */\n      0x455243313135353a2073657474696e6720617070726f76616c20737461747573\n        /* \"#utility.yul\":15360:15378   */\n      0x44\n      dup3\n      add\n        /* \"#utility.yul\":15353:15415   */\n      mstore\n        /* \"#utility.yul\":15451:15462   */\n      0x20666f722073656c660000000000000000000000000000000000000000000000\n        /* \"#utility.yul\":15431:15449   */\n      0x64\n      dup3\n      add\n        /* \"#utility.yul\":15424:15463   */\n      mstore\n        /* \"#utility.yul\":15480:15499   */\n      0x84\n      add\n        /* \"contracts/ERC1155.sol\":13459:13530  require(owner != operator, \"ERC1155: setting approval status for self\") */\n      tag_89\n        /* \"#utility.yul\":15100:15505   */\n      jump\n        /* \"contracts/ERC1155.sol\":13459:13530  require(owner != operator, \"ERC1155: setting approval status for self\") */\n    tag_240:\n        /* \"contracts/ERC1155.sol\":13540:13565  _operatorApprovals[owner] */\n      0xffffffffffffffffffffffffffffffffffffffff\n      dup4\n      dup2\n      and\n      0x00\n      dup2\n      dup2\n      mstore\n        /* \"contracts/ERC1155.sol\":13540:13558  _operatorApprovals */\n      0x01\n        /* \"contracts/ERC1155.sol\":13540:13565  _operatorApprovals[owner] */\n      0x20\n      swap1\n      dup2\n      mstore\n      0x40\n      dup1\n      dup4\n      keccak256\n        /* \"contracts/ERC1155.sol\":13540:13575  _operatorApprovals[owner][operator] */\n      swap5\n      dup8\n      and\n      dup1\n      dup5\n      mstore\n      swap5\n      dup3\n      mstore\n      swap2\n      dup3\n      swap1\n      keccak256\n        /* \"contracts/ERC1155.sol\":13540:13586  _operatorApprovals[owner][operator] = approved */\n      dup1\n      sload\n      0xffffffffffffffffffffffffffffffffffffffffffffffffffffffffffffff00\n      and\n      dup7\n      iszero\n      iszero\n      swap1\n      dup2\n      or\n      swap1\n      swap2\n      sstore\n        /* \"contracts/ERC1155.sol\":13601:13642  ApprovalForAll(owner, operator, approved) */\n      swap2\n      mload\n        /* \"#utility.yul\":11168:11209   */\n      swap2\n      dup3\n      mstore\n        /* \"contracts/ERC1155.sol\":13601:13642  ApprovalForAll(owner, operator, approved) */\n      0x17307eab39ab6107e8899845ad3d59bd9653f200f220920489ca2b5937696c31\n      swap2\n        /* \"#utility.yul\":11141:11159   */\n      add\n        /* \"contracts/ERC1155.sol\":13601:13642  ApprovalForAll(owner, operator, approved) */\n      mload(0x40)\n      dup1\n      swap2\n      sub\n      swap1\n      log3\n        /* \"contracts/ERC1155.sol\":13326:13649  function _setApprovalForAll(... */\n      pop\n      pop\n      pop\n      jump\t// out\n        /* \"contracts/ERC1155.sol\":8999:9696  function _mint(... */\n    tag_169:\n        /* \"contracts/ERC1155.sol\":9119:9135  to != address(0) */\n      0xffffffffffffffffffffffffffffffffffffffff\n      dup4\n      and\n        /* \"contracts/ERC1155.sol\":9111:9173  require(to != address(0), \"ERC1155: mint to the zero address\") */\n      tag_245\n      jumpi\n      mload(0x40)\n      shl(0xe5, 0x461bcd)\n      dup2\n      mstore\n        /* \"#utility.yul\":16531:16533   */\n      0x20\n        /* \"contracts/ERC1155.sol\":9111:9173  require(to != address(0), \"ERC1155: mint to the zero address\") */\n      0x04\n      dup3\n      add\n        /* \"#utility.yul\":16513:16534   */\n      mstore\n        /* \"#utility.yul\":16570:16572   */\n      0x21\n        /* \"#utility.yul\":16550:16568   */\n      0x24\n      dup3\n      add\n        /* \"#utility.yul\":16543:16573   */\n      mstore\n        /* \"#utility.yul\":16609:16643   */\n      0x455243313135353a206d696e7420746f20746865207a65726f20616464726573\n        /* \"#utility.yul\":16589:16607   */\n      0x44\n      dup3\n      add\n        /* \"#utility.yul\":16582:16644   */\n      mstore\n        /* \"#utility.yul\":16680:16683   */\n      0x7300000000000000000000000000000000000000000000000000000000000000\n        /* \"#utility.yul\":16660:16678   */\n      0x64\n      dup3\n      add\n        /* \"#utility.yul\":16653:16684   */\n      mstore\n        /* \"#utility.yul\":16701:16720   */\n      0x84\n      add\n        /* \"contracts/ERC1155.sol\":9111:9173  require(to != address(0), \"ERC1155: mint to the zero address\") */\n      tag_89\n        /* \"#utility.yul\":16329:16726   */\n      jump\n        /* \"contracts/ERC1155.sol\":9111:9173  require(to != address(0), \"ERC1155: mint to the zero address\") */\n    tag_245:\n        /* \"contracts/ERC1155.sol\":9184:9200  address operator */\n      0x00\n        /* \"contracts/ERC1155.sol\":9428:9441  _balances[id] */\n      dup3\n      dup2\n      mstore\n      0x20\n      dup2\n      dup2\n      mstore\n      0x40\n      dup1\n      dup4\n      keccak256\n        /* \"contracts/ERC1155.sol\":9428:9445  _balances[id][to] */\n      0xffffffffffffffffffffffffffffffffffffffff\n      dup8\n      and\n      dup5\n      mstore\n      swap1\n      swap2\n      mstore\n      dup2\n      keccak256\n        /* \"contracts/ERC1155.sol\":9428:9455  _balances[id][to] += amount */\n      dup1\n      sload\n        /* \"contracts/Context.sol\":719:729  msg.sender */\n      caller\n      swap3\n        /* \"contracts/ERC1155.sol\":9449:9455  amount */\n      dup5\n      swap3\n        /* \"contracts/ERC1155.sol\":9428:9445  _balances[id][to] */\n      swap2\n        /* \"contracts/ERC1155.sol\":9428:9455  _balances[id][to] += amount */\n      tag_249\n      swap1\n        /* \"contracts/ERC1155.sol\":9449:9455  amount */\n      dup5\n      swap1\n        /* \"contracts/ERC1155.sol\":9428:9455  _balances[id][to] += amount */\n      tag_230\n      jump\t// in\n    tag_249:\n      swap1\n      swap2\n      sstore\n      pop\n      pop\n        /* \"contracts/ERC1155.sol\":9470:9522  TransferSingle(operator, address(0), to, id, amount) */\n      0x40\n      dup1\n      mload\n        /* \"#utility.yul\":17087:17112   */\n      dup5\n      dup2\n      mstore\n        /* \"#utility.yul\":17143:17145   */\n      0x20\n        /* \"#utility.yul\":17128:17146   */\n      dup2\n      add\n        /* \"#utility.yul\":17121:17155   */\n      dup5\n      swap1\n      mstore\n        /* \"contracts/ERC1155.sol\":9470:9522  TransferSingle(operator, address(0), to, id, amount) */\n      0xffffffffffffffffffffffffffffffffffffffff\n      dup1\n      dup8\n      and\n      swap3\n        /* \"contracts/ERC1155.sol\":9503:9504  0 */\n      0x00\n      swap3\n        /* \"contracts/ERC1155.sol\":9470:9522  TransferSingle(operator, address(0), to, id, amount) */\n      swap2\n      dup6\n      and\n      swap2\n      0xc3d58168c5ae7397731d063d5bbf3d657854427343f4c083240f7aacaa2d0f62\n      swap2\n        /* \"#utility.yul\":17060:17078   */\n      add\n        /* \"contracts/ERC1155.sol\":9470:9522  TransferSingle(operator, address(0), to, id, amount) */\n      mload(0x40)\n      dup1\n      swap2\n      sub\n      swap1\n      log4\n        /* \"contracts/ERC1155.sol\":9101:9696  {... */\n      pop\n        /* \"contracts/ERC1155.sol\":8999:9696  function _mint(... */\n      pop\n      pop\n      pop\n      jump\t// out\n        /* \"contracts/ERC1155.sol\":5113:6094  function _safeTransferFrom(... */\n    tag_193:\n        /* \"contracts/ERC1155.sol\":5294:5310  to != address(0) */\n      0xffffffffffffffffffffffffffffffffffffffff\n      dup5\n      and\n        /* \"contracts/ERC1155.sol\":5286:5352  require(to != address(0), \"ERC1155: transfer to the zero address\") */\n      tag_253\n      jumpi\n      mload(0x40)\n      shl(0xe5, 0x461bcd)\n      dup2\n      mstore\n        /* \"#utility.yul\":13705:13707   */\n      0x20\n        /* \"contracts/ERC1155.sol\":5286:5352  require(to != address(0), \"ERC1155: transfer to the zero address\") */\n      0x04\n      dup3\n      add\n        /* \"#utility.yul\":13687:13708   */\n      mstore\n        /* \"#utility.yul\":13744:13746   */\n      0x25\n        /* \"#utility.yul\":13724:13742   */\n      0x24\n      dup3\n      add\n        /* \"#utility.yul\":13717:13747   */\n      mstore\n        /* \"#utility.yul\":13783:13817   */\n      0x455243313135353a207472616e7366657220746f20746865207a65726f206164\n        /* \"#utility.yul\":13763:13781   */\n      0x44\n      dup3\n      add\n        /* \"#utility.yul\":13756:13818   */\n      mstore\n        /* \"#utility.yul\":13854:13861   */\n      0x6472657373000000000000000000000000000000000000000000000000000000\n        /* \"#utility.yul\":13834:13852   */\n      0x64\n      dup3\n      add\n        /* \"#utility.yul\":13827:13862   */\n      mstore\n        /* \"#utility.yul\":13879:13898   */\n      0x84\n      add\n        /* \"contracts/ERC1155.sol\":5286:5352  require(to != address(0), \"ERC1155: transfer to the zero address\") */\n      tag_89\n        /* \"#utility.yul\":13503:13904   */\n      jump\n        /* \"contracts/ERC1155.sol\":5286:5352  require(to != address(0), \"ERC1155: transfer to the zero address\") */\n    tag_253:\n        /* \"contracts/Context.sol\":719:729  msg.sender */\n      caller\n        /* \"contracts/ERC1155.sol\":5363:5379  address operator */\n      0x00\n        /* \"contracts/ERC1155.sol\":5427:5448  _asSingletonArray(id) */\n      tag_256\n        /* \"contracts/ERC1155.sol\":5445:5447  id */\n      dup6\n        /* \"contracts/ERC1155.sol\":5427:5444  _asSingletonArray */\n      tag_257\n        /* \"contracts/ERC1155.sol\":5427:5448  _asSingletonArray(id) */\n      jump\t// in\n    tag_256:\n        /* \"contracts/ERC1155.sol\":5404:5448  uint256[] memory ids = _asSingletonArray(id) */\n      swap1\n      pop\n        /* \"contracts/ERC1155.sol\":5458:5482  uint256[] memory amounts */\n      0x00\n        /* \"contracts/ERC1155.sol\":5485:5510  _asSingletonArray(amount) */\n      tag_258\n        /* \"contracts/ERC1155.sol\":5503:5509  amount */\n      dup6\n        /* \"contracts/ERC1155.sol\":5485:5502  _asSingletonArray */\n      tag_257\n        /* \"contracts/ERC1155.sol\":5485:5510  _asSingletonArray(amount) */\n      jump\t// in\n    tag_258:\n        /* \"contracts/ERC1155.sol\":5458:5510  uint256[] memory amounts = _asSingletonArray(amount) */\n      swap1\n      pop\n        /* \"contracts/ERC1155.sol\":5592:5611  uint256 fromBalance */\n      0x00\n        /* \"contracts/ERC1155.sol\":5614:5627  _balances[id] */\n      dup7\n      dup2\n      mstore\n      0x20\n      dup2\n      dup2\n      mstore\n      0x40\n      dup1\n      dup4\n      keccak256\n        /* \"contracts/ERC1155.sol\":5614:5633  _balances[id][from] */\n      0xffffffffffffffffffffffffffffffffffffffff\n      dup13\n      and\n      dup5\n      mstore\n      swap1\n      swap2\n      mstore\n      swap1\n      keccak256\n      sload\n        /* \"contracts/ERC1155.sol\":5664:5685  fromBalance >= amount */\n      dup6\n      dup2\n      lt\n      iszero\n        /* \"contracts/ERC1155.sol\":5643:5753  require(... */\n      tag_260\n      jumpi\n      mload(0x40)\n      shl(0xe5, 0x461bcd)\n      dup2\n      mstore\n        /* \"#utility.yul\":14530:14532   */\n      0x20\n        /* \"contracts/ERC1155.sol\":5643:5753  require(... */\n      0x04\n      dup3\n      add\n        /* \"#utility.yul\":14512:14533   */\n      mstore\n        /* \"#utility.yul\":14569:14571   */\n      0x2a\n        /* \"#utility.yul\":14549:14567   */\n      0x24\n      dup3\n      add\n        /* \"#utility.yul\":14542:14572   */\n      mstore\n        /* \"#utility.yul\":14608:14642   */\n      0x455243313135353a20696e73756666696369656e742062616c616e636520666f\n        /* \"#utility.yul\":14588:14606   */\n      0x44\n      dup3\n      add\n        /* \"#utility.yul\":14581:14643   */\n      mstore\n        /* \"#utility.yul\":14679:14691   */\n      0x72207472616e7366657200000000000000000000000000000000000000000000\n        /* \"#utility.yul\":14659:14677   */\n      0x64\n      dup3\n      add\n        /* \"#utility.yul\":14652:14692   */\n      mstore\n        /* \"#utility.yul\":14709:14728   */\n      0x84\n      add\n        /* \"contracts/ERC1155.sol\":5643:5753  require(... */\n      tag_89\n        /* \"#utility.yul\":14328:14734   */\n      jump\n        /* \"contracts/ERC1155.sol\":5643:5753  require(... */\n    tag_260:\n        /* \"contracts/ERC1155.sol\":5787:5796  _balances */\n      0x00\n        /* \"contracts/ERC1155.sol\":5787:5800  _balances[id] */\n      dup8\n      dup2\n      mstore\n      0x20\n      dup2\n      dup2\n      mstore\n      0x40\n      dup1\n      dup4\n      keccak256\n        /* \"contracts/ERC1155.sol\":5787:5806  _balances[id][from] */\n      0xffffffffffffffffffffffffffffffffffffffff\n      dup14\n      dup2\n      and\n      dup6\n      mstore\n      swap3\n      mstore\n      dup1\n      dup4\n      keccak256\n        /* \"contracts/ERC1155.sol\":5809:5829  fromBalance - amount */\n      dup10\n      dup6\n      sub\n        /* \"contracts/ERC1155.sol\":5787:5829  _balances[id][from] = fromBalance - amount */\n      swap1\n      sstore\n        /* \"contracts/ERC1155.sol\":5849:5866  _balances[id][to] */\n      swap1\n      dup11\n      and\n      dup3\n      mstore\n      dup2\n      keccak256\n        /* \"contracts/ERC1155.sol\":5849:5876  _balances[id][to] += amount */\n      dup1\n      sload\n        /* \"contracts/ERC1155.sol\":5809:5829  fromBalance - amount */\n      dup9\n      swap3\n        /* \"contracts/ERC1155.sol\":5787:5796  _balances */\n      swap1\n        /* \"contracts/ERC1155.sol\":5849:5876  _balances[id][to] += amount */\n      tag_262\n      swap1\n        /* \"contracts/ERC1155.sol\":5809:5829  fromBalance - amount */\n      dup5\n      swap1\n        /* \"contracts/ERC1155.sol\":5849:5876  _balances[id][to] += amount */\n      tag_230\n      jump\t// in\n    tag_262:\n      swap1\n      swap2\n      sstore\n      pop\n      pop\n        /* \"contracts/ERC1155.sol\":5892:5938  TransferSingle(operator, from, to, id, amount) */\n      0x40\n      dup1\n      mload\n        /* \"#utility.yul\":17087:17112   */\n      dup9\n      dup2\n      mstore\n        /* \"#utility.yul\":17143:17145   */\n      0x20\n        /* \"#utility.yul\":17128:17146   */\n      dup2\n      add\n        /* \"#utility.yul\":17121:17155   */\n      dup9\n      swap1\n      mstore\n        /* \"contracts/ERC1155.sol\":5892:5938  TransferSingle(operator, from, to, id, amount) */\n      0xffffffffffffffffffffffffffffffffffffffff\n      dup1\n      dup12\n      and\n      swap3\n      dup13\n      dup3\n      and\n      swap3\n      swap2\n      dup9\n      and\n      swap2\n      0xc3d58168c5ae7397731d063d5bbf3d657854427343f4c083240f7aacaa2d0f62\n      swap2\n        /* \"#utility.yul\":17060:17078   */\n      add\n        /* \"contracts/ERC1155.sol\":5892:5938  TransferSingle(operator, from, to, id, amount) */\n      mload(0x40)\n      dup1\n      swap2\n      sub\n      swap1\n      log4\n        /* \"contracts/ERC1155.sol\":6019:6087  _doSafeTransferAcceptanceCheck(operator, from, to, id, amount, data) */\n      tag_265\n        /* \"contracts/ERC1155.sol\":6050:6058  operator */\n      dup5\n        /* \"contracts/ERC1155.sol\":6060:6064  from */\n      dup11\n        /* \"contracts/ERC1155.sol\":6066:6068  to */\n      dup11\n        /* \"contracts/ERC1155.sol\":6070:6072  id */\n      dup11\n        /* \"contracts/ERC1155.sol\":6074:6080  amount */\n      dup11\n        /* \"contracts/ERC1155.sol\":6082:6086  data */\n      dup11\n        /* \"contracts/ERC1155.sol\":6019:6049  _doSafeTransferAcceptanceCheck */\n      tag_266\n        /* \"contracts/ERC1155.sol\":6019:6087  _doSafeTransferAcceptanceCheck(operator, from, to, id, amount, data) */\n      jump\t// in\n    tag_265:\n        /* \"contracts/ERC1155.sol\":5276:6094  {... */\n      pop\n      pop\n      pop\n      pop\n        /* \"contracts/ERC1155.sol\":5113:6094  function _safeTransferFrom(... */\n      pop\n      pop\n      pop\n      pop\n      pop\n      jump\t// out\n        /* \"contracts/ERC1155.sol\":16826:17772  function _doSafeBatchTransferAcceptanceCheck(... */\n    tag_237:\n        /* \"contracts/ERC1155.sol\":17058:17071  to.isContract */\n      0xffffffffffffffffffffffffffffffffffffffff\n      dup5\n      and\n        /* \"contracts/Address.sol\":1465:1484  account.code.length */\n      extcodesize\n        /* \"contracts/Address.sol\":1465:1488  account.code.length > 0 */\n      iszero\n        /* \"contracts/ERC1155.sol\":17054:17766  if (to.isContract()) {... */\n      tag_236\n      jumpi\n        /* \"contracts/ERC1155.sol\":17109:17306  IERC1155Receiver(to).onERC1155BatchReceived(... */\n      mload(0x40)\n      0xbc197c8100000000000000000000000000000000000000000000000000000000\n      dup2\n      mstore\n        /* \"contracts/ERC1155.sol\":17109:17152  IERC1155Receiver(to).onERC1155BatchReceived */\n      0xffffffffffffffffffffffffffffffffffffffff\n      dup6\n      and\n      swap1\n      0xbc197c81\n      swap1\n        /* \"contracts/ERC1155.sol\":17109:17306  IERC1155Receiver(to).onERC1155BatchReceived(... */\n      tag_273\n      swap1\n        /* \"contracts/ERC1155.sol\":17174:17182  operator */\n      dup10\n      swap1\n        /* \"contracts/ERC1155.sol\":17204:17208  from */\n      dup10\n      swap1\n        /* \"contracts/ERC1155.sol\":17230:17233  ids */\n      dup9\n      swap1\n        /* \"contracts/ERC1155.sol\":17255:17262  amounts */\n      dup9\n      swap1\n        /* \"contracts/ERC1155.sol\":17284:17288  data */\n      dup9\n      swap1\n        /* \"contracts/ERC1155.sol\":17109:17306  IERC1155Receiver(to).onERC1155BatchReceived(... */\n      0x04\n      add\n      tag_274\n      jump\t// in\n    tag_273:\n      0x20\n      mload(0x40)\n      dup1\n      dup4\n      sub\n      dup2\n      0x00\n      dup8\n      dup1\n      extcodesize\n      iszero\n      dup1\n      iszero\n      tag_275\n      jumpi\n      0x00\n      dup1\n      revert\n    tag_275:\n      pop\n      gas\n      call\n      swap3\n      pop\n      pop\n      pop\n      dup1\n      iszero\n      tag_276\n      jumpi\n      pop\n      0x40\n      dup1\n      mload\n      0x1f\n      returndatasize\n      swap1\n      dup2\n      add\n      0xffffffffffffffffffffffffffffffffffffffffffffffffffffffffffffffe0\n      and\n      dup3\n      add\n      swap1\n      swap3\n      mstore\n      tag_277\n      swap2\n      dup2\n      add\n      swap1\n      tag_278\n      jump\t// in\n    tag_277:\n      0x01\n    tag_276:\n        /* \"contracts/ERC1155.sol\":17089:17756  try... */\n      tag_279\n      jumpi\n      tag_283\n      tag_284\n      jump\t// in\n    tag_283:\n      dup1\n      0x08c379a0\n      eq\n      iszero\n      tag_282\n      jumpi\n      pop\n      tag_285\n      tag_286\n      jump\t// in\n    tag_285:\n      dup1\n      tag_287\n      jumpi\n      pop\n      jump(tag_281)\n    tag_287:\n        /* \"contracts/ERC1155.sol\":17632:17638  reason */\n      dup1\n        /* \"contracts/ERC1155.sol\":17625:17639  revert(reason) */\n      mload(0x40)\n      shl(0xe5, 0x461bcd)\n      dup2\n      mstore\n      0x04\n      add\n      tag_89\n      swap2\n      swap1\n      tag_40\n      jump\t// in\n        /* \"contracts/ERC1155.sol\":17089:17756  try... */\n    tag_282:\n      pop\n    tag_281:\n        /* \"contracts/ERC1155.sol\":17679:17741  revert(\"ERC1155: transfer to non ERC1155Receiver implementer\") */\n      mload(0x40)\n      shl(0xe5, 0x461bcd)\n      dup2\n      mstore\n        /* \"#utility.yul\":11646:11648   */\n      0x20\n        /* \"contracts/ERC1155.sol\":17679:17741  revert(\"ERC1155: transfer to non ERC1155Receiver implementer\") */\n      0x04\n      dup3\n      add\n        /* \"#utility.yul\":11628:11649   */\n      mstore\n        /* \"#utility.yul\":11685:11687   */\n      0x34\n        /* \"#utility.yul\":11665:11683   */\n      0x24\n      dup3\n      add\n        /* \"#utility.yul\":11658:11688   */\n      mstore\n        /* \"#utility.yul\":11724:11758   */\n      0x455243313135353a207472616e7366657220746f206e6f6e2045524331313535\n        /* \"#utility.yul\":11704:11722   */\n      0x44\n      dup3\n      add\n        /* \"#utility.yul\":11697:11759   */\n      mstore\n        /* \"#utility.yul\":11795:11817   */\n      0x526563656976657220696d706c656d656e746572000000000000000000000000\n        /* \"#utility.yul\":11775:11793   */\n      0x64\n      dup3\n      add\n        /* \"#utility.yul\":11768:11818   */\n      mstore\n        /* \"#utility.yul\":11835:11854   */\n      0x84\n      add\n        /* \"contracts/ERC1155.sol\":17679:17741  revert(\"ERC1155: transfer to non ERC1155Receiver implementer\") */\n      tag_89\n        /* \"#utility.yul\":11444:11860   */\n      jump\n        /* \"contracts/ERC1155.sol\":17089:17756  try... */\n    tag_279:\n        /* \"contracts/ERC1155.sol\":17388:17448  response != IERC1155Receiver.onERC1155BatchReceived.selector */\n      0xffffffff00000000000000000000000000000000000000000000000000000000\n      dup2\n      and\n        /* \"contracts/ERC1155.sol\":17400:17448  IERC1155Receiver.onERC1155BatchReceived.selector */\n      0xbc197c8100000000000000000000000000000000000000000000000000000000\n        /* \"contracts/ERC1155.sol\":17388:17448  response != IERC1155Receiver.onERC1155BatchReceived.selector */\n      eq\n        /* \"contracts/ERC1155.sol\":17363:17558  if (... */\n      tag_292\n      jumpi\n        /* \"contracts/ERC1155.sol\":17489:17539  revert(\"ERC1155: ERC1155Receiver rejected tokens\") */\n      mload(0x40)\n      shl(0xe5, 0x461bcd)\n      dup2\n      mstore\n        /* \"#utility.yul\":12067:12069   */\n      0x20\n        /* \"contracts/ERC1155.sol\":17489:17539  revert(\"ERC1155: ERC1155Receiver rejected tokens\") */\n      0x04\n      dup3\n      add\n        /* \"#utility.yul\":12049:12070   */\n      mstore\n        /* \"#utility.yul\":12106:12108   */\n      0x28\n        /* \"#utility.yul\":12086:12104   */\n      0x24\n      dup3\n      add\n        /* \"#utility.yul\":12079:12109   */\n      mstore\n        /* \"#utility.yul\":12145:12179   */\n      0x455243313135353a204552433131353552656365697665722072656a65637465\n        /* \"#utility.yul\":12125:12143   */\n      0x44\n      dup3\n      add\n        /* \"#utility.yul\":12118:12180   */\n      mstore\n        /* \"#utility.yul\":12216:12226   */\n      0x6420746f6b656e73000000000000000000000000000000000000000000000000\n        /* \"#utility.yul\":12196:12214   */\n      0x64\n      dup3\n      add\n        /* \"#utility.yul\":12189:12227   */\n      mstore\n        /* \"#utility.yul\":12244:12263   */\n      0x84\n      add\n        /* \"contracts/ERC1155.sol\":17489:17539  revert(\"ERC1155: ERC1155Receiver rejected tokens\") */\n      tag_89\n        /* \"#utility.yul\":11865:12269   */\n      jump\n        /* \"contracts/ERC1155.sol\":17363:17558  if (... */\n    tag_292:\n        /* \"contracts/ERC1155.sol\":17319:17572  returns (bytes4 response) {... */\n      pop\n        /* \"contracts/ERC1155.sol\":16826:17772  function _doSafeBatchTransferAcceptanceCheck(... */\n      pop\n      pop\n      pop\n      pop\n      pop\n      pop\n      jump\t// out\n        /* \"contracts/ERC1155.sol\":17778:17999  function _asSingletonArray(uint256 element)... */\n    tag_257:\n        /* \"contracts/ERC1155.sol\":17925:17941  new uint256[](1) */\n      0x40\n      dup1\n      mload\n        /* \"contracts/ERC1155.sol\":17939:17940  1 */\n      0x01\n        /* \"contracts/ERC1155.sol\":17925:17941  new uint256[](1) */\n      dup1\n      dup3\n      mstore\n      dup2\n      dup4\n      add\n      swap1\n      swap3\n      mstore\n        /* \"contracts/ERC1155.sol\":17868:17884  uint256[] memory */\n      0x60\n      swap2\n        /* \"contracts/ERC1155.sol\":17900:17922  uint256[] memory array */\n      0x00\n      swap2\n        /* \"contracts/ERC1155.sol\":17925:17941  new uint256[](1) */\n      swap1\n      0x20\n      dup1\n      dup4\n      add\n      swap1\n      dup1\n      calldatasize\n      dup4\n      calldatacopy\n      add\n      swap1\n      pop\n      pop\n        /* \"contracts/ERC1155.sol\":17900:17941  uint256[] memory array = new uint256[](1) */\n      swap1\n      pop\n        /* \"contracts/ERC1155.sol\":17962:17969  element */\n      dup3\n        /* \"contracts/ERC1155.sol\":17951:17956  array */\n      dup2\n        /* \"contracts/ERC1155.sol\":17957:17958  0 */\n      0x00\n        /* \"contracts/ERC1155.sol\":17951:17959  array[0] */\n      dup2\n      mload\n      dup2\n      lt\n      tag_300\n      jumpi\n      tag_300\n      tag_142\n      jump\t// in\n    tag_300:\n      0x20\n      swap1\n      dup2\n      mul\n      swap2\n      swap1\n      swap2\n      add\n      add\n        /* \"contracts/ERC1155.sol\":17951:17969  array[0] = element */\n      mstore\n        /* \"contracts/ERC1155.sol\":17987:17992  array */\n      swap3\n        /* \"contracts/ERC1155.sol\":17778:17999  function _asSingletonArray(uint256 element)... */\n      swap2\n      pop\n      pop\n      jump\t// out\n        /* \"contracts/ERC1155.sol\":15949:16820  function _doSafeTransferAcceptanceCheck(... */\n    tag_266:\n        /* \"contracts/ERC1155.sol\":16156:16169  to.isContract */\n      0xffffffffffffffffffffffffffffffffffffffff\n      dup5\n      and\n        /* \"contracts/Address.sol\":1465:1484  account.code.length */\n      extcodesize\n        /* \"contracts/Address.sol\":1465:1488  account.code.length > 0 */\n      iszero\n        /* \"contracts/ERC1155.sol\":16152:16814  if (to.isContract()) {... */\n      tag_236\n      jumpi\n        /* \"contracts/ERC1155.sol\":16207:16397  IERC1155Receiver(to).onERC1155Received(... */\n      mload(0x40)\n      0xf23a6e6100000000000000000000000000000000000000000000000000000000\n      dup2\n      mstore\n        /* \"contracts/ERC1155.sol\":16207:16245  IERC1155Receiver(to).onERC1155Received */\n      0xffffffffffffffffffffffffffffffffffffffff\n      dup6\n      and\n      swap1\n      0xf23a6e61\n      swap1\n        /* \"contracts/ERC1155.sol\":16207:16397  IERC1155Receiver(to).onERC1155Received(... */\n      tag_304\n      swap1\n        /* \"contracts/ERC1155.sol\":16267:16275  operator */\n      dup10\n      swap1\n        /* \"contracts/ERC1155.sol\":16297:16301  from */\n      dup10\n      swap1\n        /* \"contracts/ERC1155.sol\":16323:16325  id */\n      dup9\n      swap1\n        /* \"contracts/ERC1155.sol\":16347:16353  amount */\n      dup9\n      swap1\n        /* \"contracts/ERC1155.sol\":16375:16379  data */\n      dup9\n      swap1\n        /* \"contracts/ERC1155.sol\":16207:16397  IERC1155Receiver(to).onERC1155Received(... */\n      0x04\n      add\n      tag_305\n      jump\t// in\n    tag_304:\n      0x20\n      mload(0x40)\n      dup1\n      dup4\n      sub\n      dup2\n      0x00\n      dup8\n      dup1\n      extcodesize\n      iszero\n      dup1\n      iszero\n      tag_306\n      jumpi\n      0x00\n      dup1\n      revert\n    tag_306:\n      pop\n      gas\n      call\n      swap3\n      pop\n      pop\n      pop\n      dup1\n      iszero\n      tag_307\n      jumpi\n      pop\n      0x40\n      dup1\n      mload\n      0x1f\n      returndatasize\n      swap1\n      dup2\n      add\n      0xffffffffffffffffffffffffffffffffffffffffffffffffffffffffffffffe0\n      and\n      dup3\n      add\n      swap1\n      swap3\n      mstore\n      tag_308\n      swap2\n      dup2\n      add\n      swap1\n      tag_278\n      jump\t// in\n    tag_308:\n      0x01\n    tag_307:\n        /* \"contracts/ERC1155.sol\":16187:16804  try... */\n      tag_309\n      jumpi\n      tag_283\n      tag_284\n      jump\t// in\n    tag_309:\n        /* \"contracts/ERC1155.sol\":16458:16513  response != IERC1155Receiver.onERC1155Received.selector */\n      0xffffffff00000000000000000000000000000000000000000000000000000000\n      dup2\n      and\n        /* \"contracts/ERC1155.sol\":16470:16513  IERC1155Receiver.onERC1155Received.selector */\n      0xf23a6e6100000000000000000000000000000000000000000000000000000000\n        /* \"contracts/ERC1155.sol\":16458:16513  response != IERC1155Receiver.onERC1155Received.selector */\n      eq\n        /* \"contracts/ERC1155.sol\":16454:16606  if (response != IERC1155Receiver.onERC1155Received.selector) {... */\n      tag_292\n      jumpi\n        /* \"contracts/ERC1155.sol\":16537:16587  revert(\"ERC1155: ERC1155Receiver rejected tokens\") */\n      mload(0x40)\n      shl(0xe5, 0x461bcd)\n      dup2\n      mstore\n        /* \"#utility.yul\":12067:12069   */\n      0x20\n        /* \"contracts/ERC1155.sol\":16537:16587  revert(\"ERC1155: ERC1155Receiver rejected tokens\") */\n      0x04\n      dup3\n      add\n        /* \"#utility.yul\":12049:12070   */\n      mstore\n        /* \"#utility.yul\":12106:12108   */\n      0x28\n        /* \"#utility.yul\":12086:12104   */\n      0x24\n      dup3\n      add\n        /* \"#utility.yul\":12079:12109   */\n      mstore\n        /* \"#utility.yul\":12145:12179   */\n      0x455243313135353a204552433131353552656365697665722072656a65637465\n        /* \"#utility.yul\":12125:12143   */\n      0x44\n      dup3\n      add\n        /* \"#utility.yul\":12118:12180   */\n      mstore\n        /* \"#utility.yul\":12216:12226   */\n      0x6420746f6b656e73000000000000000000000000000000000000000000000000\n        /* \"#utility.yul\":12196:12214   */\n      0x64\n      dup3\n      add\n        /* \"#utility.yul\":12189:12227   */\n      mstore\n        /* \"#utility.yul\":12244:12263   */\n      0x84\n      add\n        /* \"contracts/ERC1155.sol\":16537:16587  revert(\"ERC1155: ERC1155Receiver rejected tokens\") */\n      tag_89\n        /* \"#utility.yul\":11865:12269   */\n      jump\n    tag_208:\n      dup3\n      dup1\n      sload\n      tag_322\n      swap1\n      tag_107\n      jump\t// in\n    tag_322:\n      swap1\n      0x00\n      mstore\n      keccak256(0x00, 0x20)\n      swap1\n      0x1f\n      add\n      0x20\n      swap1\n      div\n      dup2\n      add\n      swap3\n      dup3\n      tag_324\n      jumpi\n      0x00\n      dup6\n      sstore\n      jump(tag_327)\n    tag_324:\n      dup3\n      0x1f\n      lt\n      tag_325\n      jumpi\n      dup1\n      mload\n      not(0xff)\n      and\n      dup4\n      dup1\n      add\n      or\n      dup6\n      sstore\n      jump(tag_327)\n    tag_325:\n      dup3\n      dup1\n      add\n      0x01\n      add\n      dup6\n      sstore\n      dup3\n      iszero\n      tag_327\n      jumpi\n      swap2\n      dup3\n      add\n    tag_326:\n      dup3\n      dup2\n      gt\n      iszero\n      tag_327\n      jumpi\n      dup3\n      mload\n      dup3\n      sstore\n      swap2\n      0x20\n      add\n      swap2\n      swap1\n      0x01\n      add\n      swap1\n      jump(tag_326)\n    tag_327:\n      pop\n      tag_328\n      swap3\n      swap2\n      pop\n      tag_329\n      jump\t// in\n    tag_328:\n      pop\n      swap1\n      jump\t// out\n    tag_329:\n    tag_330:\n      dup1\n      dup3\n      gt\n      iszero\n      tag_328\n      jumpi\n      0x00\n      dup2\n      sstore\n      0x01\n      add\n      jump(tag_330)\n        /* \"#utility.yul\":14:541   */\n    tag_333:\n        /* \"#utility.yul\":78:83   */\n      0x00\n        /* \"#utility.yul\":112:130   */\n      0xffffffffffffffff\n        /* \"#utility.yul\":104:110   */\n      dup4\n        /* \"#utility.yul\":101:131   */\n      gt\n        /* \"#utility.yul\":98:154   */\n      iszero\n      tag_336\n      jumpi\n        /* \"#utility.yul\":134:152   */\n      tag_336\n      tag_134\n      jump\t// in\n    tag_336:\n        /* \"#utility.yul\":183:185   */\n      0x40\n        /* \"#utility.yul\":177:186   */\n      mload\n        /* \"#utility.yul\":195:323   */\n      tag_337\n        /* \"#utility.yul\":317:321   */\n      0x20\n        /* \"#utility.yul\":248:314   */\n      0xffffffffffffffffffffffffffffffffffffffffffffffffffffffffffffffe0\n        /* \"#utility.yul\":243:245   */\n      0x1f\n        /* \"#utility.yul\":235:241   */\n      dup8\n        /* \"#utility.yul\":231:246   */\n      add\n        /* \"#utility.yul\":227:315   */\n      and\n        /* \"#utility.yul\":223:322   */\n      add\n        /* \"#utility.yul\":215:221   */\n      dup3\n        /* \"#utility.yul\":195:323   */\n      tag_338\n      jump\t// in\n    tag_337:\n        /* \"#utility.yul\":341:347   */\n      dup1\n        /* \"#utility.yul\":332:347   */\n      swap2\n      pop\n        /* \"#utility.yul\":371:377   */\n      dup4\n        /* \"#utility.yul\":363:369   */\n      dup2\n        /* \"#utility.yul\":356:378   */\n      mstore\n        /* \"#utility.yul\":411:414   */\n      dup5\n        /* \"#utility.yul\":402:408   */\n      dup5\n        /* \"#utility.yul\":397:400   */\n      dup5\n        /* \"#utility.yul\":393:409   */\n      add\n        /* \"#utility.yul\":390:415   */\n      gt\n        /* \"#utility.yul\":387:432   */\n      iszero\n      tag_339\n      jumpi\n        /* \"#utility.yul\":428:429   */\n      0x00\n        /* \"#utility.yul\":425:426   */\n      dup1\n        /* \"#utility.yul\":418:430   */\n      revert\n        /* \"#utility.yul\":387:432   */\n    tag_339:\n        /* \"#utility.yul\":478:484   */\n      dup4\n        /* \"#utility.yul\":473:476   */\n      dup4\n        /* \"#utility.yul\":466:470   */\n      0x20\n        /* \"#utility.yul\":458:464   */\n      dup4\n        /* \"#utility.yul\":454:471   */\n      add\n        /* \"#utility.yul\":441:485   */\n      calldatacopy\n        /* \"#utility.yul\":533:534   */\n      0x00\n        /* \"#utility.yul\":526:530   */\n      0x20\n        /* \"#utility.yul\":517:523   */\n      dup6\n        /* \"#utility.yul\":509:515   */\n      dup4\n        /* \"#utility.yul\":505:524   */\n      add\n        /* \"#utility.yul\":501:531   */\n      add\n        /* \"#utility.yul\":494:535   */\n      mstore\n      pop\n        /* \"#utility.yul\":14:541   */\n      swap4\n      swap3\n      pop\n      pop\n      pop\n      jump\t// out\n        /* \"#utility.yul\":546:742   */\n    tag_340:\n        /* \"#utility.yul\":614:634   */\n      dup1\n      calldataload\n        /* \"#utility.yul\":674:716   */\n      0xffffffffffffffffffffffffffffffffffffffff\n        /* \"#utility.yul\":663:717   */\n      dup2\n      and\n        /* \"#utility.yul\":653:718   */\n      dup2\n      eq\n        /* \"#utility.yul\":643:736   */\n      tag_342\n      jumpi\n        /* \"#utility.yul\":732:733   */\n      0x00\n        /* \"#utility.yul\":729:730   */\n      dup1\n        /* \"#utility.yul\":722:734   */\n      revert\n        /* \"#utility.yul\":643:736   */\n    tag_342:\n        /* \"#utility.yul\":546:742   */\n      swap2\n      swap1\n      pop\n      jump\t// out\n        /* \"#utility.yul\":747:1488   */\n    tag_343:\n        /* \"#utility.yul\":801:806   */\n      0x00\n        /* \"#utility.yul\":854:857   */\n      dup3\n        /* \"#utility.yul\":847:851   */\n      0x1f\n        /* \"#utility.yul\":839:845   */\n      dup4\n        /* \"#utility.yul\":835:852   */\n      add\n        /* \"#utility.yul\":831:858   */\n      slt\n        /* \"#utility.yul\":821:876   */\n      tag_345\n      jumpi\n        /* \"#utility.yul\":872:873   */\n      0x00\n        /* \"#utility.yul\":869:870   */\n      dup1\n        /* \"#utility.yul\":862:874   */\n      revert\n        /* \"#utility.yul\":821:876   */\n    tag_345:\n        /* \"#utility.yul\":908:914   */\n      dup2\n        /* \"#utility.yul\":895:915   */\n      calldataload\n        /* \"#utility.yul\":934:938   */\n      0x20\n        /* \"#utility.yul\":957:1000   */\n      tag_346\n        /* \"#utility.yul\":997:999   */\n      dup3\n        /* \"#utility.yul\":957:1000   */\n      tag_347\n      jump\t// in\n    tag_346:\n        /* \"#utility.yul\":1029:1031   */\n      0x40\n        /* \"#utility.yul\":1023:1032   */\n      mload\n        /* \"#utility.yul\":1041:1072   */\n      tag_348\n        /* \"#utility.yul\":1069:1071   */\n      dup3\n        /* \"#utility.yul\":1061:1067   */\n      dup3\n        /* \"#utility.yul\":1041:1072   */\n      tag_338\n      jump\t// in\n    tag_348:\n        /* \"#utility.yul\":1107:1125   */\n      dup4\n      dup2\n      mstore\n        /* \"#utility.yul\":1141:1156   */\n      dup3\n      dup2\n      add\n      swap2\n      pop\n        /* \"#utility.yul\":1176:1191   */\n      dup6\n      dup4\n      add\n        /* \"#utility.yul\":1226:1227   */\n      0x05\n        /* \"#utility.yul\":1222:1232   */\n      dup6\n      swap1\n      shl\n        /* \"#utility.yul\":1210:1233   */\n      dup8\n      add\n        /* \"#utility.yul\":1206:1238   */\n      dup5\n      add\n        /* \"#utility.yul\":1203:1244   */\n      dup9\n      lt\n        /* \"#utility.yul\":1200:1261   */\n      iszero\n      tag_349\n      jumpi\n        /* \"#utility.yul\":1257:1258   */\n      0x00\n        /* \"#utility.yul\":1254:1255   */\n      dup1\n        /* \"#utility.yul\":1247:1259   */\n      revert\n        /* \"#utility.yul\":1200:1261   */\n    tag_349:\n        /* \"#utility.yul\":1279:1280   */\n      0x00\n        /* \"#utility.yul\":1289:1458   */\n    tag_350:\n        /* \"#utility.yul\":1303:1305   */\n      dup6\n        /* \"#utility.yul\":1300:1301   */\n      dup2\n        /* \"#utility.yul\":1297:1306   */\n      lt\n        /* \"#utility.yul\":1289:1458   */\n      iszero\n      tag_352\n      jumpi\n        /* \"#utility.yul\":1360:1383   */\n      tag_353\n        /* \"#utility.yul\":1379:1382   */\n      dup3\n        /* \"#utility.yul\":1360:1383   */\n      tag_340\n      jump\t// in\n    tag_353:\n        /* \"#utility.yul\":1348:1384   */\n      dup5\n      mstore\n        /* \"#utility.yul\":1404:1416   */\n      swap3\n      dup5\n      add\n      swap3\n        /* \"#utility.yul\":1436:1448   */\n      swap1\n      dup5\n      add\n      swap1\n        /* \"#utility.yul\":1321:1322   */\n      0x01\n        /* \"#utility.yul\":1314:1323   */\n      add\n        /* \"#utility.yul\":1289:1458   */\n      jump(tag_350)\n    tag_352:\n      pop\n        /* \"#utility.yul\":1476:1482   */\n      swap1\n      swap8\n        /* \"#utility.yul\":747:1488   */\n      swap7\n      pop\n      pop\n      pop\n      pop\n      pop\n      pop\n      pop\n      jump\t// out\n        /* \"#utility.yul\":1493:2228   */\n    tag_354:\n        /* \"#utility.yul\":1547:1552   */\n      0x00\n        /* \"#utility.yul\":1600:1603   */\n      dup3\n        /* \"#utility.yul\":1593:1597   */\n      0x1f\n        /* \"#utility.yul\":1585:1591   */\n      dup4\n        /* \"#utility.yul\":1581:1598   */\n      add\n        /* \"#utility.yul\":1577:1604   */\n      slt\n        /* \"#utility.yul\":1567:1622   */\n      tag_356\n      jumpi\n        /* \"#utility.yul\":1618:1619   */\n      0x00\n        /* \"#utility.yul\":1615:1616   */\n      dup1\n        /* \"#utility.yul\":1608:1620   */\n      revert\n        /* \"#utility.yul\":1567:1622   */\n    tag_356:\n        /* \"#utility.yul\":1654:1660   */\n      dup2\n        /* \"#utility.yul\":1641:1661   */\n      calldataload\n        /* \"#utility.yul\":1680:1684   */\n      0x20\n        /* \"#utility.yul\":1703:1746   */\n      tag_357\n        /* \"#utility.yul\":1743:1745   */\n      dup3\n        /* \"#utility.yul\":1703:1746   */\n      tag_347\n      jump\t// in\n    tag_357:\n        /* \"#utility.yul\":1775:1777   */\n      0x40\n        /* \"#utility.yul\":1769:1778   */\n      mload\n        /* \"#utility.yul\":1787:1818   */\n      tag_358\n        /* \"#utility.yul\":1815:1817   */\n      dup3\n        /* \"#utility.yul\":1807:1813   */\n      dup3\n        /* \"#utility.yul\":1787:1818   */\n      tag_338\n      jump\t// in\n    tag_358:\n        /* \"#utility.yul\":1853:1871   */\n      dup4\n      dup2\n      mstore\n        /* \"#utility.yul\":1887:1902   */\n      dup3\n      dup2\n      add\n      swap2\n      pop\n        /* \"#utility.yul\":1922:1937   */\n      dup6\n      dup4\n      add\n        /* \"#utility.yul\":1972:1973   */\n      0x05\n        /* \"#utility.yul\":1968:1978   */\n      dup6\n      swap1\n      shl\n        /* \"#utility.yul\":1956:1979   */\n      dup8\n      add\n        /* \"#utility.yul\":1952:1984   */\n      dup5\n      add\n        /* \"#utility.yul\":1949:1990   */\n      dup9\n      lt\n        /* \"#utility.yul\":1946:2007   */\n      iszero\n      tag_359\n      jumpi\n        /* \"#utility.yul\":2003:2004   */\n      0x00\n        /* \"#utility.yul\":2000:2001   */\n      dup1\n        /* \"#utility.yul\":1993:2005   */\n      revert\n        /* \"#utility.yul\":1946:2007   */\n    tag_359:\n        /* \"#utility.yul\":2025:2026   */\n      0x00\n        /* \"#utility.yul\":2035:2198   */\n    tag_360:\n        /* \"#utility.yul\":2049:2051   */\n      dup6\n        /* \"#utility.yul\":2046:2047   */\n      dup2\n        /* \"#utility.yul\":2043:2052   */\n      lt\n        /* \"#utility.yul\":2035:2198   */\n      iszero\n      tag_352\n      jumpi\n        /* \"#utility.yul\":2106:2123   */\n      dup2\n      calldataload\n        /* \"#utility.yul\":2094:2124   */\n      dup5\n      mstore\n        /* \"#utility.yul\":2144:2156   */\n      swap3\n      dup5\n      add\n      swap3\n        /* \"#utility.yul\":2176:2188   */\n      swap1\n      dup5\n      add\n      swap1\n        /* \"#utility.yul\":2067:2068   */\n      0x01\n        /* \"#utility.yul\":2060:2069   */\n      add\n        /* \"#utility.yul\":2035:2198   */\n      jump(tag_360)\n        /* \"#utility.yul\":2233:2453   */\n    tag_363:\n        /* \"#utility.yul\":2275:2280   */\n      0x00\n        /* \"#utility.yul\":2328:2331   */\n      dup3\n        /* \"#utility.yul\":2321:2325   */\n      0x1f\n        /* \"#utility.yul\":2313:2319   */\n      dup4\n        /* \"#utility.yul\":2309:2326   */\n      add\n        /* \"#utility.yul\":2305:2332   */\n      slt\n        /* \"#utility.yul\":2295:2350   */\n      tag_365\n      jumpi\n        /* \"#utility.yul\":2346:2347   */\n      0x00\n        /* \"#utility.yul\":2343:2344   */\n      dup1\n        /* \"#utility.yul\":2336:2348   */\n      revert\n        /* \"#utility.yul\":2295:2350   */\n    tag_365:\n        /* \"#utility.yul\":2368:2447   */\n      tag_366\n        /* \"#utility.yul\":2443:2446   */\n      dup4\n        /* \"#utility.yul\":2434:2440   */\n      dup4\n        /* \"#utility.yul\":2421:2441   */\n      calldataload\n        /* \"#utility.yul\":2414:2418   */\n      0x20\n        /* \"#utility.yul\":2406:2412   */\n      dup6\n        /* \"#utility.yul\":2402:2419   */\n      add\n        /* \"#utility.yul\":2368:2447   */\n      tag_333\n      jump\t// in\n    tag_366:\n        /* \"#utility.yul\":2359:2447   */\n      swap4\n        /* \"#utility.yul\":2233:2453   */\n      swap3\n      pop\n      pop\n      pop\n      jump\t// out\n        /* \"#utility.yul\":2458:2644   */\n    tag_85:\n        /* \"#utility.yul\":2517:2523   */\n      0x00\n        /* \"#utility.yul\":2570:2572   */\n      0x20\n        /* \"#utility.yul\":2558:2567   */\n      dup3\n        /* \"#utility.yul\":2549:2556   */\n      dup5\n        /* \"#utility.yul\":2545:2568   */\n      sub\n        /* \"#utility.yul\":2541:2573   */\n      slt\n        /* \"#utility.yul\":2538:2590   */\n      iszero\n      tag_368\n      jumpi\n        /* \"#utility.yul\":2586:2587   */\n      0x00\n        /* \"#utility.yul\":2583:2584   */\n      dup1\n        /* \"#utility.yul\":2576:2588   */\n      revert\n        /* \"#utility.yul\":2538:2590   */\n    tag_368:\n        /* \"#utility.yul\":2609:2638   */\n      tag_366\n        /* \"#utility.yul\":2628:2637   */\n      dup3\n        /* \"#utility.yul\":2609:2638   */\n      tag_340\n      jump\t// in\n        /* \"#utility.yul\":2649:2909   */\n    tag_76:\n        /* \"#utility.yul\":2717:2723   */\n      0x00\n        /* \"#utility.yul\":2725:2731   */\n      dup1\n        /* \"#utility.yul\":2778:2780   */\n      0x40\n        /* \"#utility.yul\":2766:2775   */\n      dup4\n        /* \"#utility.yul\":2757:2764   */\n      dup6\n        /* \"#utility.yul\":2753:2776   */\n      sub\n        /* \"#utility.yul\":2749:2781   */\n      slt\n        /* \"#utility.yul\":2746:2798   */\n      iszero\n      tag_371\n      jumpi\n        /* \"#utility.yul\":2794:2795   */\n      0x00\n        /* \"#utility.yul\":2791:2792   */\n      dup1\n        /* \"#utility.yul\":2784:2796   */\n      revert\n        /* \"#utility.yul\":2746:2798   */\n    tag_371:\n        /* \"#utility.yul\":2817:2846   */\n      tag_372\n        /* \"#utility.yul\":2836:2845   */\n      dup4\n        /* \"#utility.yul\":2817:2846   */\n      tag_340\n      jump\t// in\n    tag_372:\n        /* \"#utility.yul\":2807:2846   */\n      swap2\n      pop\n        /* \"#utility.yul\":2865:2903   */\n      tag_373\n        /* \"#utility.yul\":2899:2901   */\n      0x20\n        /* \"#utility.yul\":2888:2897   */\n      dup5\n        /* \"#utility.yul\":2884:2902   */\n      add\n        /* \"#utility.yul\":2865:2903   */\n      tag_340\n      jump\t// in\n    tag_373:\n        /* \"#utility.yul\":2855:2903   */\n      swap1\n      pop\n        /* \"#utility.yul\":2649:2909   */\n      swap3\n      pop\n      swap3\n      swap1\n      pop\n      jump\t// out\n        /* \"#utility.yul\":2914:3857   */\n    tag_48:\n        /* \"#utility.yul\":3068:3074   */\n      0x00\n        /* \"#utility.yul\":3076:3082   */\n      dup1\n        /* \"#utility.yul\":3084:3090   */\n      0x00\n        /* \"#utility.yul\":3092:3098   */\n      dup1\n        /* \"#utility.yul\":3100:3106   */\n      0x00\n        /* \"#utility.yul\":3153:3156   */\n      0xa0\n        /* \"#utility.yul\":3141:3150   */\n      dup7\n        /* \"#utility.yul\":3132:3139   */\n      dup9\n        /* \"#utility.yul\":3128:3151   */\n      sub\n        /* \"#utility.yul\":3124:3157   */\n      slt\n        /* \"#utility.yul\":3121:3174   */\n      iszero\n      tag_375\n      jumpi\n        /* \"#utility.yul\":3170:3171   */\n      0x00\n        /* \"#utility.yul\":3167:3168   */\n      dup1\n        /* \"#utility.yul\":3160:3172   */\n      revert\n        /* \"#utility.yul\":3121:3174   */\n    tag_375:\n        /* \"#utility.yul\":3193:3222   */\n      tag_376\n        /* \"#utility.yul\":3212:3221   */\n      dup7\n        /* \"#utility.yul\":3193:3222   */\n      tag_340\n      jump\t// in\n    tag_376:\n        /* \"#utility.yul\":3183:3222   */\n      swap5\n      pop\n        /* \"#utility.yul\":3241:3279   */\n      tag_377\n        /* \"#utility.yul\":3275:3277   */\n      0x20\n        /* \"#utility.yul\":3264:3273   */\n      dup8\n        /* \"#utility.yul\":3260:3278   */\n      add\n        /* \"#utility.yul\":3241:3279   */\n      tag_340\n      jump\t// in\n    tag_377:\n        /* \"#utility.yul\":3231:3279   */\n      swap4\n      pop\n        /* \"#utility.yul\":3330:3332   */\n      0x40\n        /* \"#utility.yul\":3319:3328   */\n      dup7\n        /* \"#utility.yul\":3315:3333   */\n      add\n        /* \"#utility.yul\":3302:3334   */\n      calldataload\n        /* \"#utility.yul\":3353:3371   */\n      0xffffffffffffffff\n        /* \"#utility.yul\":3394:3396   */\n      dup1\n        /* \"#utility.yul\":3386:3392   */\n      dup3\n        /* \"#utility.yul\":3383:3397   */\n      gt\n        /* \"#utility.yul\":3380:3414   */\n      iszero\n      tag_378\n      jumpi\n        /* \"#utility.yul\":3410:3411   */\n      0x00\n        /* \"#utility.yul\":3407:3408   */\n      dup1\n        /* \"#utility.yul\":3400:3412   */\n      revert\n        /* \"#utility.yul\":3380:3414   */\n    tag_378:\n        /* \"#utility.yul\":3433:3494   */\n      tag_379\n        /* \"#utility.yul\":3486:3493   */\n      dup10\n        /* \"#utility.yul\":3477:3483   */\n      dup4\n        /* \"#utility.yul\":3466:3475   */\n      dup11\n        /* \"#utility.yul\":3462:3484   */\n      add\n        /* \"#utility.yul\":3433:3494   */\n      tag_354\n      jump\t// in\n    tag_379:\n        /* \"#utility.yul\":3423:3494   */\n      swap5\n      pop\n        /* \"#utility.yul\":3547:3549   */\n      0x60\n        /* \"#utility.yul\":3536:3545   */\n      dup9\n        /* \"#utility.yul\":3532:3550   */\n      add\n        /* \"#utility.yul\":3519:3551   */\n      calldataload\n        /* \"#utility.yul\":3503:3551   */\n      swap2\n      pop\n        /* \"#utility.yul\":3576:3578   */\n      dup1\n        /* \"#utility.yul\":3566:3574   */\n      dup3\n        /* \"#utility.yul\":3563:3579   */\n      gt\n        /* \"#utility.yul\":3560:3596   */\n      iszero\n      tag_380\n      jumpi\n        /* \"#utility.yul\":3592:3593   */\n      0x00\n        /* \"#utility.yul\":3589:3590   */\n      dup1\n        /* \"#utility.yul\":3582:3594   */\n      revert\n        /* \"#utility.yul\":3560:3596   */\n    tag_380:\n        /* \"#utility.yul\":3615:3678   */\n      tag_381\n        /* \"#utility.yul\":3670:3677   */\n      dup10\n        /* \"#utility.yul\":3659:3667   */\n      dup4\n        /* \"#utility.yul\":3648:3657   */\n      dup11\n        /* \"#utility.yul\":3644:3668   */\n      add\n        /* \"#utility.yul\":3615:3678   */\n      tag_354\n      jump\t// in\n    tag_381:\n        /* \"#utility.yul\":3605:3678   */\n      swap4\n      pop\n        /* \"#utility.yul\":3731:3734   */\n      0x80\n        /* \"#utility.yul\":3720:3729   */\n      dup9\n        /* \"#utility.yul\":3716:3735   */\n      add\n        /* \"#utility.yul\":3703:3736   */\n      calldataload\n        /* \"#utility.yul\":3687:3736   */\n      swap2\n      pop\n        /* \"#utility.yul\":3761:3763   */\n      dup1\n        /* \"#utility.yul\":3751:3759   */\n      dup3\n        /* \"#utility.yul\":3748:3764   */\n      gt\n        /* \"#utility.yul\":3745:3781   */\n      iszero\n      tag_382\n      jumpi\n        /* \"#utility.yul\":3777:3778   */\n      0x00\n        /* \"#utility.yul\":3774:3775   */\n      dup1\n        /* \"#utility.yul\":3767:3779   */\n      revert\n        /* \"#utility.yul\":3745:3781   */\n    tag_382:\n      pop\n        /* \"#utility.yul\":3800:3851   */\n      tag_383\n        /* \"#utility.yul\":3843:3850   */\n      dup9\n        /* \"#utility.yul\":3832:3840   */\n      dup3\n        /* \"#utility.yul\":3821:3830   */\n      dup10\n        /* \"#utility.yul\":3817:3841   */\n      add\n        /* \"#utility.yul\":3800:3851   */\n      tag_363\n      jump\t// in\n    tag_383:\n        /* \"#utility.yul\":3790:3851   */\n      swap2\n      pop\n      pop\n        /* \"#utility.yul\":2914:3857   */\n      swap3\n      swap6\n      pop\n      swap3\n      swap6\n      swap1\n      swap4\n      pop\n      jump\t// out\n        /* \"#utility.yul\":3862:4468   */\n    tag_81:\n        /* \"#utility.yul\":3966:3972   */\n      0x00\n        /* \"#utility.yul\":3974:3980   */\n      dup1\n        /* \"#utility.yul\":3982:3988   */\n      0x00\n        /* \"#utility.yul\":3990:3996   */\n      dup1\n        /* \"#utility.yul\":3998:4004   */\n      0x00\n        /* \"#utility.yul\":4051:4054   */\n      0xa0\n        /* \"#utility.yul\":4039:4048   */\n      dup7\n        /* \"#utility.yul\":4030:4037   */\n      dup9\n        /* \"#utility.yul\":4026:4049   */\n      sub\n        /* \"#utility.yul\":4022:4055   */\n      slt\n        /* \"#utility.yul\":4019:4072   */\n      iszero\n      tag_385\n      jumpi\n        /* \"#utility.yul\":4068:4069   */\n      0x00\n        /* \"#utility.yul\":4065:4066   */\n      dup1\n        /* \"#utility.yul\":4058:4070   */\n      revert\n        /* \"#utility.yul\":4019:4072   */\n    tag_385:\n        /* \"#utility.yul\":4091:4120   */\n      tag_386\n        /* \"#utility.yul\":4110:4119   */\n      dup7\n        /* \"#utility.yul\":4091:4120   */\n      tag_340\n      jump\t// in\n    tag_386:\n        /* \"#utility.yul\":4081:4120   */\n      swap5\n      pop\n        /* \"#utility.yul\":4139:4177   */\n      tag_387\n        /* \"#utility.yul\":4173:4175   */\n      0x20\n        /* \"#utility.yul\":4162:4171   */\n      dup8\n        /* \"#utility.yul\":4158:4176   */\n      add\n        /* \"#utility.yul\":4139:4177   */\n      tag_340\n      jump\t// in\n    tag_387:\n        /* \"#utility.yul\":4129:4177   */\n      swap4\n      pop\n        /* \"#utility.yul\":4224:4226   */\n      0x40\n        /* \"#utility.yul\":4213:4222   */\n      dup7\n        /* \"#utility.yul\":4209:4227   */\n      add\n        /* \"#utility.yul\":4196:4228   */\n      calldataload\n        /* \"#utility.yul\":4186:4228   */\n      swap3\n      pop\n        /* \"#utility.yul\":4275:4277   */\n      0x60\n        /* \"#utility.yul\":4264:4273   */\n      dup7\n        /* \"#utility.yul\":4260:4278   */\n      add\n        /* \"#utility.yul\":4247:4279   */\n      calldataload\n        /* \"#utility.yul\":4237:4279   */\n      swap2\n      pop\n        /* \"#utility.yul\":4330:4333   */\n      0x80\n        /* \"#utility.yul\":4319:4328   */\n      dup7\n        /* \"#utility.yul\":4315:4334   */\n      add\n        /* \"#utility.yul\":4302:4335   */\n      calldataload\n        /* \"#utility.yul\":4358:4376   */\n      0xffffffffffffffff\n        /* \"#utility.yul\":4350:4356   */\n      dup2\n        /* \"#utility.yul\":4347:4377   */\n      gt\n        /* \"#utility.yul\":4344:4394   */\n      iszero\n      tag_388\n      jumpi\n        /* \"#utility.yul\":4390:4391   */\n      0x00\n        /* \"#utility.yul\":4387:4388   */\n      dup1\n        /* \"#utility.yul\":4380:4392   */\n      revert\n        /* \"#utility.yul\":4344:4394   */\n    tag_388:\n        /* \"#utility.yul\":4413:4462   */\n      tag_383\n        /* \"#utility.yul\":4454:4461   */\n      dup9\n        /* \"#utility.yul\":4445:4451   */\n      dup3\n        /* \"#utility.yul\":4434:4443   */\n      dup10\n        /* \"#utility.yul\":4430:4452   */\n      add\n        /* \"#utility.yul\":4413:4462   */\n      tag_363\n      jump\t// in\n        /* \"#utility.yul\":4473:4820   */\n    tag_64:\n        /* \"#utility.yul\":4538:4544   */\n      0x00\n        /* \"#utility.yul\":4546:4552   */\n      dup1\n        /* \"#utility.yul\":4599:4601   */\n      0x40\n        /* \"#utility.yul\":4587:4596   */\n      dup4\n        /* \"#utility.yul\":4578:4585   */\n      dup6\n        /* \"#utility.yul\":4574:4597   */\n      sub\n        /* \"#utility.yul\":4570:4602   */\n      slt\n        /* \"#utility.yul\":4567:4619   */\n      iszero\n      tag_391\n      jumpi\n        /* \"#utility.yul\":4615:4616   */\n      0x00\n        /* \"#utility.yul\":4612:4613   */\n      dup1\n        /* \"#utility.yul\":4605:4617   */\n      revert\n        /* \"#utility.yul\":4567:4619   */\n    tag_391:\n        /* \"#utility.yul\":4638:4667   */\n      tag_392\n        /* \"#utility.yul\":4657:4666   */\n      dup4\n        /* \"#utility.yul\":4638:4667   */\n      tag_340\n      jump\t// in\n    tag_392:\n        /* \"#utility.yul\":4628:4667   */\n      swap2\n      pop\n        /* \"#utility.yul\":4717:4719   */\n      0x20\n        /* \"#utility.yul\":4706:4715   */\n      dup4\n        /* \"#utility.yul\":4702:4720   */\n      add\n        /* \"#utility.yul\":4689:4721   */\n      calldataload\n        /* \"#utility.yul\":4764:4769   */\n      dup1\n        /* \"#utility.yul\":4757:4770   */\n      iszero\n        /* \"#utility.yul\":4750:4771   */\n      iszero\n        /* \"#utility.yul\":4743:4748   */\n      dup2\n        /* \"#utility.yul\":4740:4772   */\n      eq\n        /* \"#utility.yul\":4730:4790   */\n      tag_393\n      jumpi\n        /* \"#utility.yul\":4786:4787   */\n      0x00\n        /* \"#utility.yul\":4783:4784   */\n      dup1\n        /* \"#utility.yul\":4776:4788   */\n      revert\n        /* \"#utility.yul\":4730:4790   */\n    tag_393:\n        /* \"#utility.yul\":4809:4814   */\n      dup1\n        /* \"#utility.yul\":4799:4814   */\n      swap2\n      pop\n      pop\n        /* \"#utility.yul\":4473:4820   */\n      swap3\n      pop\n      swap3\n      swap1\n      pop\n      jump\t// out\n        /* \"#utility.yul\":4825:5079   */\n    tag_23:\n        /* \"#utility.yul\":4893:4899   */\n      0x00\n        /* \"#utility.yul\":4901:4907   */\n      dup1\n        /* \"#utility.yul\":4954:4956   */\n      0x40\n        /* \"#utility.yul\":4942:4951   */\n      dup4\n        /* \"#utility.yul\":4933:4940   */\n      dup6\n        /* \"#utility.yul\":4929:4952   */\n      sub\n        /* \"#utility.yul\":4925:4957   */\n      slt\n        /* \"#utility.yul\":4922:4974   */\n      iszero\n      tag_395\n      jumpi\n        /* \"#utility.yul\":4970:4971   */\n      0x00\n        /* \"#utility.yul\":4967:4968   */\n      dup1\n        /* \"#utility.yul\":4960:4972   */\n      revert\n        /* \"#utility.yul\":4922:4974   */\n    tag_395:\n        /* \"#utility.yul\":4993:5022   */\n      tag_396\n        /* \"#utility.yul\":5012:5021   */\n      dup4\n        /* \"#utility.yul\":4993:5022   */\n      tag_340\n      jump\t// in\n    tag_396:\n        /* \"#utility.yul\":4983:5022   */\n      swap5\n        /* \"#utility.yul\":5069:5071   */\n      0x20\n        /* \"#utility.yul\":5054:5072   */\n      swap4\n      swap1\n      swap4\n      add\n        /* \"#utility.yul\":5041:5073   */\n      calldataload\n      swap4\n      pop\n      pop\n      pop\n        /* \"#utility.yul\":4825:5079   */\n      jump\t// out\n        /* \"#utility.yul\":5084:5406   */\n    tag_68:\n        /* \"#utility.yul\":5161:5167   */\n      0x00\n        /* \"#utility.yul\":5169:5175   */\n      dup1\n        /* \"#utility.yul\":5177:5183   */\n      0x00\n        /* \"#utility.yul\":5230:5232   */\n      0x60\n        /* \"#utility.yul\":5218:5227   */\n      dup5\n        /* \"#utility.yul\":5209:5216   */\n      dup7\n        /* \"#utility.yul\":5205:5228   */\n      sub\n        /* \"#utility.yul\":5201:5233   */\n      slt\n        /* \"#utility.yul\":5198:5250   */\n      iszero\n      tag_398\n      jumpi\n        /* \"#utility.yul\":5246:5247   */\n      0x00\n        /* \"#utility.yul\":5243:5244   */\n      dup1\n        /* \"#utility.yul\":5236:5248   */\n      revert\n        /* \"#utility.yul\":5198:5250   */\n    tag_398:\n        /* \"#utility.yul\":5269:5298   */\n      tag_399\n        /* \"#utility.yul\":5288:5297   */\n      dup5\n        /* \"#utility.yul\":5269:5298   */\n      tag_340\n      jump\t// in\n    tag_399:\n        /* \"#utility.yul\":5259:5298   */\n      swap6\n        /* \"#utility.yul\":5345:5347   */\n      0x20\n        /* \"#utility.yul\":5330:5348   */\n      dup6\n      add\n        /* \"#utility.yul\":5317:5349   */\n      calldataload\n      swap6\n      pop\n        /* \"#utility.yul\":5396:5398   */\n      0x40\n        /* \"#utility.yul\":5381:5399   */\n      swap1\n      swap5\n      add\n        /* \"#utility.yul\":5368:5400   */\n      calldataload\n      swap4\n        /* \"#utility.yul\":5084:5406   */\n      swap3\n      pop\n      pop\n      pop\n      jump\t// out\n        /* \"#utility.yul\":5411:6006   */\n    tag_52:\n        /* \"#utility.yul\":5529:5535   */\n      0x00\n        /* \"#utility.yul\":5537:5543   */\n      dup1\n        /* \"#utility.yul\":5590:5592   */\n      0x40\n        /* \"#utility.yul\":5578:5587   */\n      dup4\n        /* \"#utility.yul\":5569:5576   */\n      dup6\n        /* \"#utility.yul\":5565:5588   */\n      sub\n        /* \"#utility.yul\":5561:5593   */\n      slt\n        /* \"#utility.yul\":5558:5610   */\n      iszero\n      tag_401\n      jumpi\n        /* \"#utility.yul\":5606:5607   */\n      0x00\n        /* \"#utility.yul\":5603:5604   */\n      dup1\n        /* \"#utility.yul\":5596:5608   */\n      revert\n        /* \"#utility.yul\":5558:5610   */\n    tag_401:\n        /* \"#utility.yul\":5646:5655   */\n      dup3\n        /* \"#utility.yul\":5633:5656   */\n      calldataload\n        /* \"#utility.yul\":5675:5693   */\n      0xffffffffffffffff\n        /* \"#utility.yul\":5716:5718   */\n      dup1\n        /* \"#utility.yul\":5708:5714   */\n      dup3\n        /* \"#utility.yul\":5705:5719   */\n      gt\n        /* \"#utility.yul\":5702:5736   */\n      iszero\n      tag_402\n      jumpi\n        /* \"#utility.yul\":5732:5733   */\n      0x00\n        /* \"#utility.yul\":5729:5730   */\n      dup1\n        /* \"#utility.yul\":5722:5734   */\n      revert\n        /* \"#utility.yul\":5702:5736   */\n    tag_402:\n        /* \"#utility.yul\":5755:5816   */\n      tag_403\n        /* \"#utility.yul\":5808:5815   */\n      dup7\n        /* \"#utility.yul\":5799:5805   */\n      dup4\n        /* \"#utility.yul\":5788:5797   */\n      dup8\n        /* \"#utility.yul\":5784:5806   */\n      add\n        /* \"#utility.yul\":5755:5816   */\n      tag_343\n      jump\t// in\n    tag_403:\n        /* \"#utility.yul\":5745:5816   */\n      swap4\n      pop\n        /* \"#utility.yul\":5869:5871   */\n      0x20\n        /* \"#utility.yul\":5858:5867   */\n      dup6\n        /* \"#utility.yul\":5854:5872   */\n      add\n        /* \"#utility.yul\":5841:5873   */\n      calldataload\n        /* \"#utility.yul\":5825:5873   */\n      swap2\n      pop\n        /* \"#utility.yul\":5898:5900   */\n      dup1\n        /* \"#utility.yul\":5888:5896   */\n      dup3\n        /* \"#utility.yul\":5885:5901   */\n      gt\n        /* \"#utility.yul\":5882:5918   */\n      iszero\n      tag_404\n      jumpi\n        /* \"#utility.yul\":5914:5915   */\n      0x00\n        /* \"#utility.yul\":5911:5912   */\n      dup1\n        /* \"#utility.yul\":5904:5916   */\n      revert\n        /* \"#utility.yul\":5882:5918   */\n    tag_404:\n      pop\n        /* \"#utility.yul\":5937:6000   */\n      tag_405\n        /* \"#utility.yul\":5992:5999   */\n      dup6\n        /* \"#utility.yul\":5981:5989   */\n      dup3\n        /* \"#utility.yul\":5970:5979   */\n      dup7\n        /* \"#utility.yul\":5966:5990   */\n      add\n        /* \"#utility.yul\":5937:6000   */\n      tag_354\n      jump\t// in\n    tag_405:\n        /* \"#utility.yul\":5927:6000   */\n      swap2\n      pop\n      pop\n        /* \"#utility.yul\":5411:6006   */\n      swap3\n      pop\n      swap3\n      swap1\n      pop\n      jump\t// out\n        /* \"#utility.yul\":6011:6495   */\n    tag_72:\n        /* \"#utility.yul\":6113:6119   */\n      0x00\n        /* \"#utility.yul\":6121:6127   */\n      dup1\n        /* \"#utility.yul\":6129:6135   */\n      0x00\n        /* \"#utility.yul\":6182:6184   */\n      0x60\n        /* \"#utility.yul\":6170:6179   */\n      dup5\n        /* \"#utility.yul\":6161:6168   */\n      dup7\n        /* \"#utility.yul\":6157:6180   */\n      sub\n        /* \"#utility.yul\":6153:6185   */\n      slt\n        /* \"#utility.yul\":6150:6202   */\n      iszero\n      tag_407\n      jumpi\n        /* \"#utility.yul\":6198:6199   */\n      0x00\n        /* \"#utility.yul\":6195:6196   */\n      dup1\n        /* \"#utility.yul\":6188:6200   */\n      revert\n        /* \"#utility.yul\":6150:6202   */\n    tag_407:\n        /* \"#utility.yul\":6238:6247   */\n      dup4\n        /* \"#utility.yul\":6225:6248   */\n      calldataload\n        /* \"#utility.yul\":6271:6289   */\n      0xffffffffffffffff\n        /* \"#utility.yul\":6263:6269   */\n      dup2\n        /* \"#utility.yul\":6260:6290   */\n      gt\n        /* \"#utility.yul\":6257:6307   */\n      iszero\n      tag_408\n      jumpi\n        /* \"#utility.yul\":6303:6304   */\n      0x00\n        /* \"#utility.yul\":6300:6301   */\n      dup1\n        /* \"#utility.yul\":6293:6305   */\n      revert\n        /* \"#utility.yul\":6257:6307   */\n    tag_408:\n        /* \"#utility.yul\":6326:6387   */\n      tag_409\n        /* \"#utility.yul\":6379:6386   */\n      dup7\n        /* \"#utility.yul\":6370:6376   */\n      dup3\n        /* \"#utility.yul\":6359:6368   */\n      dup8\n        /* \"#utility.yul\":6355:6377   */\n      add\n        /* \"#utility.yul\":6326:6387   */\n      tag_343\n      jump\t// in\n    tag_409:\n        /* \"#utility.yul\":6316:6387   */\n      swap7\n        /* \"#utility.yul\":6434:6436   */\n      0x20\n        /* \"#utility.yul\":6419:6437   */\n      dup7\n      add\n        /* \"#utility.yul\":6406:6438   */\n      calldataload\n      swap7\n      pop\n        /* \"#utility.yul\":6485:6487   */\n      0x40\n        /* \"#utility.yul\":6470:6488   */\n      swap1\n      swap6\n      add\n        /* \"#utility.yul\":6457:6489   */\n      calldataload\n      swap5\n        /* \"#utility.yul\":6011:6495   */\n      swap4\n      pop\n      pop\n      pop\n      pop\n      jump\t// out\n        /* \"#utility.yul\":6500:6745   */\n    tag_29:\n        /* \"#utility.yul\":6558:6564   */\n      0x00\n        /* \"#utility.yul\":6611:6613   */\n      0x20\n        /* \"#utility.yul\":6599:6608   */\n      dup3\n        /* \"#utility.yul\":6590:6597   */\n      dup5\n        /* \"#utility.yul\":6586:6609   */\n      sub\n        /* \"#utility.yul\":6582:6614   */\n      slt\n        /* \"#utility.yul\":6579:6631   */\n      iszero\n      tag_411\n      jumpi\n        /* \"#utility.yul\":6627:6628   */\n      0x00\n        /* \"#utility.yul\":6624:6625   */\n      dup1\n        /* \"#utility.yul\":6617:6629   */\n      revert\n        /* \"#utility.yul\":6579:6631   */\n    tag_411:\n        /* \"#utility.yul\":6666:6675   */\n      dup2\n        /* \"#utility.yul\":6653:6676   */\n      calldataload\n        /* \"#utility.yul\":6685:6715   */\n      tag_366\n        /* \"#utility.yul\":6709:6714   */\n      dup2\n        /* \"#utility.yul\":6685:6715   */\n      tag_413\n      jump\t// in\n        /* \"#utility.yul\":6750:6999   */\n    tag_278:\n        /* \"#utility.yul\":6819:6825   */\n      0x00\n        /* \"#utility.yul\":6872:6874   */\n      0x20\n        /* \"#utility.yul\":6860:6869   */\n      dup3\n        /* \"#utility.yul\":6851:6858   */\n      dup5\n        /* \"#utility.yul\":6847:6870   */\n      sub\n        /* \"#utility.yul\":6843:6875   */\n      slt\n        /* \"#utility.yul\":6840:6892   */\n      iszero\n      tag_415\n      jumpi\n        /* \"#utility.yul\":6888:6889   */\n      0x00\n        /* \"#utility.yul\":6885:6886   */\n      dup1\n        /* \"#utility.yul\":6878:6890   */\n      revert\n        /* \"#utility.yul\":6840:6892   */\n    tag_415:\n        /* \"#utility.yul\":6920:6929   */\n      dup2\n        /* \"#utility.yul\":6914:6930   */\n      mload\n        /* \"#utility.yul\":6939:6969   */\n      tag_366\n        /* \"#utility.yul\":6963:6968   */\n      dup2\n        /* \"#utility.yul\":6939:6969   */\n      tag_413\n      jump\t// in\n        /* \"#utility.yul\":7004:7454   */\n    tag_35:\n        /* \"#utility.yul\":7073:7079   */\n      0x00\n        /* \"#utility.yul\":7126:7128   */\n      0x20\n        /* \"#utility.yul\":7114:7123   */\n      dup3\n        /* \"#utility.yul\":7105:7112   */\n      dup5\n        /* \"#utility.yul\":7101:7124   */\n      sub\n        /* \"#utility.yul\":7097:7129   */\n      slt\n        /* \"#utility.yul\":7094:7146   */\n      iszero\n      tag_418\n      jumpi\n        /* \"#utility.yul\":7142:7143   */\n      0x00\n        /* \"#utility.yul\":7139:7140   */\n      dup1\n        /* \"#utility.yul\":7132:7144   */\n      revert\n        /* \"#utility.yul\":7094:7146   */\n    tag_418:\n        /* \"#utility.yul\":7182:7191   */\n      dup2\n        /* \"#utility.yul\":7169:7192   */\n      calldataload\n        /* \"#utility.yul\":7215:7233   */\n      0xffffffffffffffff\n        /* \"#utility.yul\":7207:7213   */\n      dup2\n        /* \"#utility.yul\":7204:7234   */\n      gt\n        /* \"#utility.yul\":7201:7251   */\n      iszero\n      tag_419\n      jumpi\n        /* \"#utility.yul\":7247:7248   */\n      0x00\n        /* \"#utility.yul\":7244:7245   */\n      dup1\n        /* \"#utility.yul\":7237:7249   */\n      revert\n        /* \"#utility.yul\":7201:7251   */\n    tag_419:\n        /* \"#utility.yul\":7270:7292   */\n      dup3\n      add\n        /* \"#utility.yul\":7323:7327   */\n      0x1f\n        /* \"#utility.yul\":7315:7328   */\n      dup2\n      add\n        /* \"#utility.yul\":7311:7338   */\n      dup5\n      sgt\n        /* \"#utility.yul\":7301:7356   */\n      tag_420\n      jumpi\n        /* \"#utility.yul\":7352:7353   */\n      0x00\n        /* \"#utility.yul\":7349:7350   */\n      dup1\n        /* \"#utility.yul\":7342:7354   */\n      revert\n        /* \"#utility.yul\":7301:7356   */\n    tag_420:\n        /* \"#utility.yul\":7375:7448   */\n      tag_421\n        /* \"#utility.yul\":7440:7447   */\n      dup5\n        /* \"#utility.yul\":7435:7437   */\n      dup3\n        /* \"#utility.yul\":7422:7438   */\n      calldataload\n        /* \"#utility.yul\":7417:7419   */\n      0x20\n        /* \"#utility.yul\":7413:7415   */\n      dup5\n        /* \"#utility.yul\":7409:7420   */\n      add\n        /* \"#utility.yul\":7375:7448   */\n      tag_333\n      jump\t// in\n    tag_421:\n        /* \"#utility.yul\":7365:7448   */\n      swap5\n        /* \"#utility.yul\":7004:7454   */\n      swap4\n      pop\n      pop\n      pop\n      pop\n      jump\t// out\n        /* \"#utility.yul\":7459:7639   */\n    tag_43:\n        /* \"#utility.yul\":7518:7524   */\n      0x00\n        /* \"#utility.yul\":7571:7573   */\n      0x20\n        /* \"#utility.yul\":7559:7568   */\n      dup3\n        /* \"#utility.yul\":7550:7557   */\n      dup5\n        /* \"#utility.yul\":7546:7569   */\n      sub\n        /* \"#utility.yul\":7542:7574   */\n      slt\n        /* \"#utility.yul\":7539:7591   */\n      iszero\n      tag_423\n      jumpi\n        /* \"#utility.yul\":7587:7588   */\n      0x00\n        /* \"#utility.yul\":7584:7585   */\n      dup1\n        /* \"#utility.yul\":7577:7589   */\n      revert\n        /* \"#utility.yul\":7539:7591   */\n    tag_423:\n      pop\n        /* \"#utility.yul\":7610:7633   */\n      calldataload\n      swap2\n        /* \"#utility.yul\":7459:7639   */\n      swap1\n      pop\n      jump\t// out\n        /* \"#utility.yul\":7644:8079   */\n    tag_424:\n        /* \"#utility.yul\":7697:7700   */\n      0x00\n        /* \"#utility.yul\":7735:7740   */\n      dup2\n        /* \"#utility.yul\":7729:7741   */\n      mload\n        /* \"#utility.yul\":7762:7768   */\n      dup1\n        /* \"#utility.yul\":7757:7760   */\n      dup5\n        /* \"#utility.yul\":7750:7769   */\n      mstore\n        /* \"#utility.yul\":7788:7792   */\n      0x20\n        /* \"#utility.yul\":7817:7819   */\n      dup1\n        /* \"#utility.yul\":7812:7815   */\n      dup6\n        /* \"#utility.yul\":7808:7820   */\n      add\n        /* \"#utility.yul\":7801:7820   */\n      swap5\n      pop\n        /* \"#utility.yul\":7854:7856   */\n      dup1\n        /* \"#utility.yul\":7847:7852   */\n      dup5\n        /* \"#utility.yul\":7843:7857   */\n      add\n        /* \"#utility.yul\":7875:7876   */\n      0x00\n        /* \"#utility.yul\":7885:8054   */\n    tag_426:\n        /* \"#utility.yul\":7899:7905   */\n      dup4\n        /* \"#utility.yul\":7896:7897   */\n      dup2\n        /* \"#utility.yul\":7893:7906   */\n      lt\n        /* \"#utility.yul\":7885:8054   */\n      iszero\n      tag_428\n      jumpi\n        /* \"#utility.yul\":7960:7973   */\n      dup2\n      mload\n        /* \"#utility.yul\":7948:7974   */\n      dup8\n      mstore\n        /* \"#utility.yul\":7994:8006   */\n      swap6\n      dup3\n      add\n      swap6\n        /* \"#utility.yul\":8029:8044   */\n      swap1\n      dup3\n      add\n      swap1\n        /* \"#utility.yul\":7921:7922   */\n      0x01\n        /* \"#utility.yul\":7914:7923   */\n      add\n        /* \"#utility.yul\":7885:8054   */\n      jump(tag_426)\n    tag_428:\n      pop\n        /* \"#utility.yul\":8070:8073   */\n      swap5\n      swap6\n        /* \"#utility.yul\":7644:8079   */\n      swap5\n      pop\n      pop\n      pop\n      pop\n      pop\n      jump\t// out\n        /* \"#utility.yul\":8084:8614   */\n    tag_429:\n        /* \"#utility.yul\":8125:8128   */\n      0x00\n        /* \"#utility.yul\":8163:8168   */\n      dup2\n        /* \"#utility.yul\":8157:8169   */\n      mload\n        /* \"#utility.yul\":8190:8196   */\n      dup1\n        /* \"#utility.yul\":8185:8188   */\n      dup5\n        /* \"#utility.yul\":8178:8197   */\n      mstore\n        /* \"#utility.yul\":8215:8216   */\n      0x00\n        /* \"#utility.yul\":8225:8387   */\n    tag_431:\n        /* \"#utility.yul\":8239:8245   */\n      dup2\n        /* \"#utility.yul\":8236:8237   */\n      dup2\n        /* \"#utility.yul\":8233:8246   */\n      lt\n        /* \"#utility.yul\":8225:8387   */\n      iszero\n      tag_433\n      jumpi\n        /* \"#utility.yul\":8301:8305   */\n      0x20\n        /* \"#utility.yul\":8357:8370   */\n      dup2\n      dup6\n      add\n        /* \"#utility.yul\":8353:8375   */\n      dup2\n      add\n        /* \"#utility.yul\":8347:8376   */\n      mload\n        /* \"#utility.yul\":8329:8340   */\n      dup7\n      dup4\n      add\n        /* \"#utility.yul\":8325:8345   */\n      dup3\n      add\n        /* \"#utility.yul\":8318:8377   */\n      mstore\n        /* \"#utility.yul\":8254:8266   */\n      add\n        /* \"#utility.yul\":8225:8387   */\n      jump(tag_431)\n    tag_433:\n        /* \"#utility.yul\":8405:8411   */\n      dup2\n        /* \"#utility.yul\":8402:8403   */\n      dup2\n        /* \"#utility.yul\":8399:8412   */\n      gt\n        /* \"#utility.yul\":8396:8483   */\n      iszero\n      tag_434\n      jumpi\n        /* \"#utility.yul\":8471:8472   */\n      0x00\n        /* \"#utility.yul\":8464:8468   */\n      0x20\n        /* \"#utility.yul\":8455:8461   */\n      dup4\n        /* \"#utility.yul\":8450:8453   */\n      dup8\n        /* \"#utility.yul\":8446:8462   */\n      add\n        /* \"#utility.yul\":8442:8469   */\n      add\n        /* \"#utility.yul\":8435:8473   */\n      mstore\n        /* \"#utility.yul\":8396:8483   */\n    tag_434:\n      pop\n        /* \"#utility.yul\":8528:8530   */\n      0x1f\n        /* \"#utility.yul\":8516:8531   */\n      add\n        /* \"#utility.yul\":8533:8599   */\n      0xffffffffffffffffffffffffffffffffffffffffffffffffffffffffffffffe0\n        /* \"#utility.yul\":8512:8600   */\n      and\n        /* \"#utility.yul\":8503:8601   */\n      swap3\n      swap1\n      swap3\n      add\n        /* \"#utility.yul\":8603:8607   */\n      0x20\n        /* \"#utility.yul\":8499:8608   */\n      add\n      swap3\n        /* \"#utility.yul\":8084:8614   */\n      swap2\n      pop\n      pop\n      jump\t// out\n        /* \"#utility.yul\":8850:9699   */\n    tag_274:\n        /* \"#utility.yul\":9172:9176   */\n      0x00\n        /* \"#utility.yul\":9201:9243   */\n      0xffffffffffffffffffffffffffffffffffffffff\n        /* \"#utility.yul\":9282:9284   */\n      dup1\n        /* \"#utility.yul\":9274:9280   */\n      dup9\n        /* \"#utility.yul\":9270:9285   */\n      and\n        /* \"#utility.yul\":9259:9268   */\n      dup4\n        /* \"#utility.yul\":9252:9286   */\n      mstore\n        /* \"#utility.yul\":9334:9336   */\n      dup1\n        /* \"#utility.yul\":9326:9332   */\n      dup8\n        /* \"#utility.yul\":9322:9337   */\n      and\n        /* \"#utility.yul\":9317:9319   */\n      0x20\n        /* \"#utility.yul\":9306:9315   */\n      dup5\n        /* \"#utility.yul\":9302:9320   */\n      add\n        /* \"#utility.yul\":9295:9338   */\n      mstore\n      pop\n        /* \"#utility.yul\":9374:9377   */\n      0xa0\n        /* \"#utility.yul\":9369:9371   */\n      0x40\n        /* \"#utility.yul\":9358:9367   */\n      dup4\n        /* \"#utility.yul\":9354:9372   */\n      add\n        /* \"#utility.yul\":9347:9378   */\n      mstore\n        /* \"#utility.yul\":9401:9458   */\n      tag_437\n        /* \"#utility.yul\":9453:9456   */\n      0xa0\n        /* \"#utility.yul\":9442:9451   */\n      dup4\n        /* \"#utility.yul\":9438:9457   */\n      add\n        /* \"#utility.yul\":9430:9436   */\n      dup7\n        /* \"#utility.yul\":9401:9458   */\n      tag_424\n      jump\t// in\n    tag_437:\n        /* \"#utility.yul\":9506:9515   */\n      dup3\n        /* \"#utility.yul\":9498:9504   */\n      dup2\n        /* \"#utility.yul\":9494:9516   */\n      sub\n        /* \"#utility.yul\":9489:9491   */\n      0x60\n        /* \"#utility.yul\":9478:9487   */\n      dup5\n        /* \"#utility.yul\":9474:9492   */\n      add\n        /* \"#utility.yul\":9467:9517   */\n      mstore\n        /* \"#utility.yul\":9540:9584   */\n      tag_438\n        /* \"#utility.yul\":9577:9583   */\n      dup2\n        /* \"#utility.yul\":9569:9575   */\n      dup7\n        /* \"#utility.yul\":9540:9584   */\n      tag_424\n      jump\t// in\n    tag_438:\n        /* \"#utility.yul\":9526:9584   */\n      swap1\n      pop\n        /* \"#utility.yul\":9633:9642   */\n      dup3\n        /* \"#utility.yul\":9625:9631   */\n      dup2\n        /* \"#utility.yul\":9621:9643   */\n      sub\n        /* \"#utility.yul\":9615:9618   */\n      0x80\n        /* \"#utility.yul\":9604:9613   */\n      dup5\n        /* \"#utility.yul\":9600:9619   */\n      add\n        /* \"#utility.yul\":9593:9644   */\n      mstore\n        /* \"#utility.yul\":9661:9693   */\n      tag_439\n        /* \"#utility.yul\":9686:9692   */\n      dup2\n        /* \"#utility.yul\":9678:9684   */\n      dup6\n        /* \"#utility.yul\":9661:9693   */\n      tag_429\n      jump\t// in\n    tag_439:\n        /* \"#utility.yul\":9653:9693   */\n      swap9\n        /* \"#utility.yul\":8850:9699   */\n      swap8\n      pop\n      pop\n      pop\n      pop\n      pop\n      pop\n      pop\n      pop\n      jump\t// out\n        /* \"#utility.yul\":9704:10287   */\n    tag_305:\n        /* \"#utility.yul\":9926:9930   */\n      0x00\n        /* \"#utility.yul\":9955:9997   */\n      0xffffffffffffffffffffffffffffffffffffffff\n        /* \"#utility.yul\":10036:10038   */\n      dup1\n        /* \"#utility.yul\":10028:10034   */\n      dup9\n        /* \"#utility.yul\":10024:10039   */\n      and\n        /* \"#utility.yul\":10013:10022   */\n      dup4\n        /* \"#utility.yul\":10006:10040   */\n      mstore\n        /* \"#utility.yul\":10088:10090   */\n      dup1\n        /* \"#utility.yul\":10080:10086   */\n      dup8\n        /* \"#utility.yul\":10076:10091   */\n      and\n        /* \"#utility.yul\":10071:10073   */\n      0x20\n        /* \"#utility.yul\":10060:10069   */\n      dup5\n        /* \"#utility.yul\":10056:10074   */\n      add\n        /* \"#utility.yul\":10049:10092   */\n      mstore\n      pop\n        /* \"#utility.yul\":10128:10134   */\n      dup5\n        /* \"#utility.yul\":10123:10125   */\n      0x40\n        /* \"#utility.yul\":10112:10121   */\n      dup4\n        /* \"#utility.yul\":10108:10126   */\n      add\n        /* \"#utility.yul\":10101:10135   */\n      mstore\n        /* \"#utility.yul\":10171:10177   */\n      dup4\n        /* \"#utility.yul\":10166:10168   */\n      0x60\n        /* \"#utility.yul\":10155:10164   */\n      dup4\n        /* \"#utility.yul\":10151:10169   */\n      add\n        /* \"#utility.yul\":10144:10178   */\n      mstore\n        /* \"#utility.yul\":10215:10218   */\n      0xa0\n        /* \"#utility.yul\":10209:10212   */\n      0x80\n        /* \"#utility.yul\":10198:10207   */\n      dup4\n        /* \"#utility.yul\":10194:10213   */\n      add\n        /* \"#utility.yul\":10187:10219   */\n      mstore\n        /* \"#utility.yul\":10236:10281   */\n      tag_441\n        /* \"#utility.yul\":10276:10279   */\n      0xa0\n        /* \"#utility.yul\":10265:10274   */\n      dup4\n        /* \"#utility.yul\":10261:10280   */\n      add\n        /* \"#utility.yul\":10253:10259   */\n      dup5\n        /* \"#utility.yul\":10236:10281   */\n      tag_429\n      jump\t// in\n    tag_441:\n        /* \"#utility.yul\":10228:10281   */\n      swap8\n        /* \"#utility.yul\":9704:10287   */\n      swap7\n      pop\n      pop\n      pop\n      pop\n      pop\n      pop\n      pop\n      jump\t// out\n        /* \"#utility.yul\":10292:10553   */\n    tag_55:\n        /* \"#utility.yul\":10471:10473   */\n      0x20\n        /* \"#utility.yul\":10460:10469   */\n      dup2\n        /* \"#utility.yul\":10453:10474   */\n      mstore\n        /* \"#utility.yul\":10434:10438   */\n      0x00\n        /* \"#utility.yul\":10491:10547   */\n      tag_366\n        /* \"#utility.yul\":10543:10545   */\n      0x20\n        /* \"#utility.yul\":10532:10541   */\n      dup4\n        /* \"#utility.yul\":10528:10546   */\n      add\n        /* \"#utility.yul\":10520:10526   */\n      dup5\n        /* \"#utility.yul\":10491:10547   */\n      tag_424\n      jump\t// in\n        /* \"#utility.yul\":10558:11023   */\n    tag_233:\n        /* \"#utility.yul\":10815:10817   */\n      0x40\n        /* \"#utility.yul\":10804:10813   */\n      dup2\n        /* \"#utility.yul\":10797:10818   */\n      mstore\n        /* \"#utility.yul\":10778:10782   */\n      0x00\n        /* \"#utility.yul\":10841:10897   */\n      tag_445\n        /* \"#utility.yul\":10893:10895   */\n      0x40\n        /* \"#utility.yul\":10882:10891   */\n      dup4\n        /* \"#utility.yul\":10878:10896   */\n      add\n        /* \"#utility.yul\":10870:10876   */\n      dup6\n        /* \"#utility.yul\":10841:10897   */\n      tag_424\n      jump\t// in\n    tag_445:\n        /* \"#utility.yul\":10945:10954   */\n      dup3\n        /* \"#utility.yul\":10937:10943   */\n      dup2\n        /* \"#utility.yul\":10933:10955   */\n      sub\n        /* \"#utility.yul\":10928:10930   */\n      0x20\n        /* \"#utility.yul\":10917:10926   */\n      dup5\n        /* \"#utility.yul\":10913:10931   */\n      add\n        /* \"#utility.yul\":10906:10956   */\n      mstore\n        /* \"#utility.yul\":10973:11017   */\n      tag_446\n        /* \"#utility.yul\":11010:11016   */\n      dup2\n        /* \"#utility.yul\":11002:11008   */\n      dup6\n        /* \"#utility.yul\":10973:11017   */\n      tag_424\n      jump\t// in\n    tag_446:\n        /* \"#utility.yul\":10965:11017   */\n      swap6\n        /* \"#utility.yul\":10558:11023   */\n      swap5\n      pop\n      pop\n      pop\n      pop\n      pop\n      jump\t// out\n        /* \"#utility.yul\":11220:11439   */\n    tag_40:\n        /* \"#utility.yul\":11369:11371   */\n      0x20\n        /* \"#utility.yul\":11358:11367   */\n      dup2\n        /* \"#utility.yul\":11351:11372   */\n      mstore\n        /* \"#utility.yul\":11332:11336   */\n      0x00\n        /* \"#utility.yul\":11389:11433   */\n      tag_366\n        /* \"#utility.yul\":11429:11431   */\n      0x20\n        /* \"#utility.yul\":11418:11427   */\n      dup4\n        /* \"#utility.yul\":11414:11432   */\n      add\n        /* \"#utility.yul\":11406:11412   */\n      dup5\n        /* \"#utility.yul\":11389:11433   */\n      tag_429\n      jump\t// in\n        /* \"#utility.yul\":17166:17349   */\n    tag_347:\n        /* \"#utility.yul\":17226:17230   */\n      0x00\n        /* \"#utility.yul\":17259:17277   */\n      0xffffffffffffffff\n        /* \"#utility.yul\":17251:17257   */\n      dup3\n        /* \"#utility.yul\":17248:17278   */\n      gt\n        /* \"#utility.yul\":17245:17301   */\n      iszero\n      tag_467\n      jumpi\n        /* \"#utility.yul\":17281:17299   */\n      tag_467\n      tag_134\n      jump\t// in\n    tag_467:\n      pop\n        /* \"#utility.yul\":17326:17327   */\n      0x05\n        /* \"#utility.yul\":17322:17336   */\n      shl\n        /* \"#utility.yul\":17338:17342   */\n      0x20\n        /* \"#utility.yul\":17318:17343   */\n      add\n      swap1\n        /* \"#utility.yul\":17166:17349   */\n      jump\t// out\n        /* \"#utility.yul\":17354:17482   */\n    tag_230:\n        /* \"#utility.yul\":17394:17397   */\n      0x00\n        /* \"#utility.yul\":17425:17426   */\n      dup3\n        /* \"#utility.yul\":17421:17427   */\n      not\n        /* \"#utility.yul\":17418:17419   */\n      dup3\n        /* \"#utility.yul\":17415:17428   */\n      gt\n        /* \"#utility.yul\":17412:17451   */\n      iszero\n      tag_470\n      jumpi\n        /* \"#utility.yul\":17431:17449   */\n      tag_470\n      tag_471\n      jump\t// in\n    tag_470:\n      pop\n        /* \"#utility.yul\":17467:17476   */\n      add\n      swap1\n        /* \"#utility.yul\":17354:17482   */\n      jump\t// out\n        /* \"#utility.yul\":17487:17924   */\n    tag_107:\n        /* \"#utility.yul\":17566:17567   */\n      0x01\n        /* \"#utility.yul\":17562:17574   */\n      dup2\n      dup2\n      shr\n      swap1\n        /* \"#utility.yul\":17609:17621   */\n      dup3\n      and\n      dup1\n        /* \"#utility.yul\":17630:17691   */\n      tag_473\n      jumpi\n        /* \"#utility.yul\":17684:17688   */\n      0x7f\n        /* \"#utility.yul\":17676:17682   */\n      dup3\n        /* \"#utility.yul\":17672:17689   */\n      and\n        /* \"#utility.yul\":17662:17689   */\n      swap2\n      pop\n        /* \"#utility.yul\":17630:17691   */\n    tag_473:\n        /* \"#utility.yul\":17737:17739   */\n      0x20\n        /* \"#utility.yul\":17729:17735   */\n      dup3\n        /* \"#utility.yul\":17726:17740   */\n      lt\n        /* \"#utility.yul\":17706:17724   */\n      dup2\n        /* \"#utility.yul\":17703:17741   */\n      eq\n        /* \"#utility.yul\":17700:17918   */\n      iszero\n      tag_474\n      jumpi\n        /* \"#utility.yul\":17774:17851   */\n      0x4e487b7100000000000000000000000000000000000000000000000000000000\n        /* \"#utility.yul\":17771:17772   */\n      0x00\n        /* \"#utility.yul\":17764:17852   */\n      mstore\n        /* \"#utility.yul\":17875:17879   */\n      0x22\n        /* \"#utility.yul\":17872:17873   */\n      0x04\n        /* \"#utility.yul\":17865:17880   */\n      mstore\n        /* \"#utility.yul\":17903:17907   */\n      0x24\n        /* \"#utility.yul\":17900:17901   */\n      0x00\n        /* \"#utility.yul\":17893:17908   */\n      revert\n        /* \"#utility.yul\":17700:17918   */\n    tag_474:\n      pop\n        /* \"#utility.yul\":17487:17924   */\n      swap2\n      swap1\n      pop\n      jump\t// out\n        /* \"#utility.yul\":17929:18237   */\n    tag_338:\n        /* \"#utility.yul\":18035:18101   */\n      0xffffffffffffffffffffffffffffffffffffffffffffffffffffffffffffffe0\n        /* \"#utility.yul\":18030:18032   */\n      0x1f\n        /* \"#utility.yul\":18024:18028   */\n      dup4\n        /* \"#utility.yul\":18020:18033   */\n      add\n        /* \"#utility.yul\":18016:18102   */\n      and\n        /* \"#utility.yul\":18008:18014   */\n      dup2\n        /* \"#utility.yul\":18004:18103   */\n      add\n        /* \"#utility.yul\":18169:18175   */\n      dup2\n        /* \"#utility.yul\":18157:18167   */\n      dup2\n        /* \"#utility.yul\":18154:18176   */\n      lt\n        /* \"#utility.yul\":18133:18151   */\n      0xffffffffffffffff\n        /* \"#utility.yul\":18121:18131   */\n      dup3\n        /* \"#utility.yul\":18118:18152   */\n      gt\n        /* \"#utility.yul\":18115:18177   */\n      or\n        /* \"#utility.yul\":18112:18200   */\n      iszero\n      tag_477\n      jumpi\n        /* \"#utility.yul\":18180:18198   */\n      tag_477\n      tag_134\n      jump\t// in\n    tag_477:\n        /* \"#utility.yul\":18216:18218   */\n      0x40\n        /* \"#utility.yul\":18209:18231   */\n      mstore\n      pop\n      pop\n        /* \"#utility.yul\":17929:18237   */\n      jump\t// out\n        /* \"#utility.yul\":18242:18437   */\n    tag_148:\n        /* \"#utility.yul\":18281:18284   */\n      0x00\n        /* \"#utility.yul\":18312:18378   */\n      0xffffffffffffffffffffffffffffffffffffffffffffffffffffffffffffffff\n        /* \"#utility.yul\":18305:18310   */\n      dup3\n        /* \"#utility.yul\":18302:18379   */\n      eq\n        /* \"#utility.yul\":18299:18402   */\n      iszero\n      tag_480\n      jumpi\n        /* \"#utility.yul\":18382:18400   */\n      tag_480\n      tag_471\n      jump\t// in\n    tag_480:\n      pop\n        /* \"#utility.yul\":18429:18430   */\n      0x01\n        /* \"#utility.yul\":18418:18431   */\n      add\n      swap1\n        /* \"#utility.yul\":18242:18437   */\n      jump\t// out\n        /* \"#utility.yul\":18442:18626   */\n    tag_471:\n        /* \"#utility.yul\":18494:18571   */\n      0x4e487b7100000000000000000000000000000000000000000000000000000000\n        /* \"#utility.yul\":18491:18492   */\n      0x00\n        /* \"#utility.yul\":18484:18572   */\n      mstore\n        /* \"#utility.yul\":18591:18595   */\n      0x11\n        /* \"#utility.yul\":18588:18589   */\n      0x04\n        /* \"#utility.yul\":18581:18596   */\n      mstore\n        /* \"#utility.yul\":18615:18619   */\n      0x24\n        /* \"#utility.yul\":18612:18613   */\n      0x00\n        /* \"#utility.yul\":18605:18620   */\n      revert\n        /* \"#utility.yul\":18631:18815   */\n    tag_142:\n        /* \"#utility.yul\":18683:18760   */\n      0x4e487b7100000000000000000000000000000000000000000000000000000000\n        /* \"#utility.yul\":18680:18681   */\n      0x00\n        /* \"#utility.yul\":18673:18761   */\n      mstore\n        /* \"#utility.yul\":18780:18784   */\n      0x32\n        /* \"#utility.yul\":18777:18778   */\n      0x04\n        /* \"#utility.yul\":18770:18785   */\n      mstore\n        /* \"#utility.yul\":18804:18808   */\n      0x24\n        /* \"#utility.yul\":18801:18802   */\n      0x00\n        /* \"#utility.yul\":18794:18809   */\n      revert\n        /* \"#utility.yul\":18820:19004   */\n    tag_134:\n        /* \"#utility.yul\":18872:18949   */\n      0x4e487b7100000000000000000000000000000000000000000000000000000000\n        /* \"#utility.yul\":18869:18870   */\n      0x00\n        /* \"#utility.yul\":18862:18950   */\n      mstore\n        /* \"#utility.yul\":18969:18973   */\n      0x41\n        /* \"#utility.yul\":18966:18967   */\n      0x04\n        /* \"#utility.yul\":18959:18974   */\n      mstore\n        /* \"#utility.yul\":18993:18997   */\n      0x24\n        /* \"#utility.yul\":18990:18991   */\n      0x00\n        /* \"#utility.yul\":18983:18998   */\n      revert\n        /* \"#utility.yul\":19009:19188   */\n    tag_284:\n        /* \"#utility.yul\":19044:19047   */\n      0x00\n        /* \"#utility.yul\":19086:19087   */\n      0x03\n        /* \"#utility.yul\":19068:19084   */\n      returndatasize\n        /* \"#utility.yul\":19065:19088   */\n      gt\n        /* \"#utility.yul\":19062:19182   */\n      iszero\n      tag_485\n      jumpi\n        /* \"#utility.yul\":19132:19133   */\n      0x04\n        /* \"#utility.yul\":19129:19130   */\n      0x00\n        /* \"#utility.yul\":19126:19127   */\n      dup1\n        /* \"#utility.yul\":19111:19134   */\n      returndatacopy\n      pop\n        /* \"#utility.yul\":19169:19170   */\n      0x00\n        /* \"#utility.yul\":19163:19171   */\n      mload\n        /* \"#utility.yul\":19158:19161   */\n      0xe0\n        /* \"#utility.yul\":19154:19172   */\n      shr\n        /* \"#utility.yul\":19062:19182   */\n    tag_485:\n        /* \"#utility.yul\":19009:19188   */\n      swap1\n      jump\t// out\n        /* \"#utility.yul\":19193:19924   */\n    tag_286:\n        /* \"#utility.yul\":19232:19235   */\n      0x00\n        /* \"#utility.yul\":19274:19278   */\n      0x44\n        /* \"#utility.yul\":19256:19272   */\n      returndatasize\n        /* \"#utility.yul\":19253:19279   */\n      lt\n        /* \"#utility.yul\":19250:19289   */\n      iszero\n      tag_487\n      jumpi\n        /* \"#utility.yul\":19193:19924   */\n      swap1\n      jump\t// out\n        /* \"#utility.yul\":19250:19289   */\n    tag_487:\n        /* \"#utility.yul\":19316:19318   */\n      0x40\n        /* \"#utility.yul\":19310:19319   */\n      mload\n        /* \"#utility.yul\":19338:19404   */\n      0xfffffffffffffffffffffffffffffffffffffffffffffffffffffffffffffffc\n        /* \"#utility.yul\":19459:19461   */\n      dup1\n        /* \"#utility.yul\":19441:19457   */\n      returndatasize\n        /* \"#utility.yul\":19437:19462   */\n      add\n        /* \"#utility.yul\":19434:19435   */\n      0x04\n        /* \"#utility.yul\":19428:19432   */\n      dup4\n        /* \"#utility.yul\":19413:19463   */\n      returndatacopy\n        /* \"#utility.yul\":19492:19496   */\n      dup2\n        /* \"#utility.yul\":19486:19497   */\n      mload\n        /* \"#utility.yul\":19516:19532   */\n      returndatasize\n        /* \"#utility.yul\":19551:19569   */\n      0xffffffffffffffff\n        /* \"#utility.yul\":19622:19624   */\n      dup2\n        /* \"#utility.yul\":19615:19619   */\n      0x24\n        /* \"#utility.yul\":19607:19613   */\n      dup5\n        /* \"#utility.yul\":19603:19620   */\n      add\n        /* \"#utility.yul\":19600:19625   */\n      gt\n        /* \"#utility.yul\":19595:19597   */\n      dup2\n        /* \"#utility.yul\":19587:19593   */\n      dup5\n        /* \"#utility.yul\":19584:19598   */\n      gt\n        /* \"#utility.yul\":19581:19626   */\n      or\n        /* \"#utility.yul\":19578:19636   */\n      iszero\n      tag_488\n      jumpi\n        /* \"#utility.yul\":19629:19634   */\n      pop\n      pop\n      pop\n      pop\n      pop\n        /* \"#utility.yul\":19193:19924   */\n      swap1\n      jump\t// out\n        /* \"#utility.yul\":19578:19636   */\n    tag_488:\n        /* \"#utility.yul\":19666:19672   */\n      dup3\n        /* \"#utility.yul\":19660:19664   */\n      dup6\n        /* \"#utility.yul\":19656:19673   */\n      add\n        /* \"#utility.yul\":19645:19673   */\n      swap2\n      pop\n        /* \"#utility.yul\":19702:19705   */\n      dup2\n        /* \"#utility.yul\":19696:19706   */\n      mload\n        /* \"#utility.yul\":19729:19731   */\n      dup2\n        /* \"#utility.yul\":19721:19727   */\n      dup2\n        /* \"#utility.yul\":19718:19732   */\n      gt\n        /* \"#utility.yul\":19715:19742   */\n      iszero\n      tag_489\n      jumpi\n        /* \"#utility.yul\":19735:19740   */\n      pop\n      pop\n      pop\n      pop\n      pop\n      pop\n        /* \"#utility.yul\":19193:19924   */\n      swap1\n      jump\t// out\n        /* \"#utility.yul\":19715:19742   */\n    tag_489:\n        /* \"#utility.yul\":19819:19821   */\n      dup5\n        /* \"#utility.yul\":19800:19816   */\n      returndatasize\n        /* \"#utility.yul\":19794:19798   */\n      dup8\n        /* \"#utility.yul\":19790:19817   */\n      add\n        /* \"#utility.yul\":19786:19822   */\n      add\n        /* \"#utility.yul\":19779:19783   */\n      0x20\n        /* \"#utility.yul\":19770:19776   */\n      dup3\n        /* \"#utility.yul\":19765:19768   */\n      dup6\n        /* \"#utility.yul\":19761:19777   */\n      add\n        /* \"#utility.yul\":19757:19784   */\n      add\n        /* \"#utility.yul\":19754:19823   */\n      gt\n        /* \"#utility.yul\":19751:19833   */\n      iszero\n      tag_490\n      jumpi\n        /* \"#utility.yul\":19826:19831   */\n      pop\n      pop\n      pop\n      pop\n      pop\n      pop\n        /* \"#utility.yul\":19193:19924   */\n      swap1\n      jump\t// out\n        /* \"#utility.yul\":19751:19833   */\n    tag_490:\n        /* \"#utility.yul\":19842:19899   */\n      tag_491\n        /* \"#utility.yul\":19893:19897   */\n      0x20\n        /* \"#utility.yul\":19884:19890   */\n      dup3\n        /* \"#utility.yul\":19876:19882   */\n      dup7\n        /* \"#utility.yul\":19872:19891   */\n      add\n        /* \"#utility.yul\":19868:19898   */\n      add\n        /* \"#utility.yul\":19862:19866   */\n      dup8\n        /* \"#utility.yul\":19842:19899   */\n      tag_338\n      jump\t// in\n    tag_491:\n      pop\n        /* \"#utility.yul\":19915:19918   */\n      swap1\n      swap6\n        /* \"#utility.yul\":19193:19924   */\n      swap5\n      pop\n      pop\n      pop\n      pop\n      pop\n      jump\t// out\n        /* \"#utility.yul\":19929:20106   */\n    tag_413:\n        /* \"#utility.yul\":20014:20080   */\n      0xffffffff00000000000000000000000000000000000000000000000000000000\n        /* \"#utility.yul\":20007:20012   */\n      dup2\n        /* \"#utility.yul\":20003:20081   */\n      and\n        /* \"#utility.yul\":19996:20001   */\n      dup2\n        /* \"#utility.yul\":19993:20082   */\n      eq\n        /* \"#utility.yul\":19983:20100   */\n      tag_104\n      jumpi\n        /* \"#utility.yul\":20096:20097   */\n      0x00\n        /* \"#utility.yul\":20093:20094   */\n      dup1\n        /* \"#utility.yul\":20086:20098   */\n      revert\n\n    auxdata: 0xa26469706673582212206d6650be382ad67d7bae57489b8a3cb1d568f8084a8fd473b6aebd3c3137864964736f6c63430008070033\n}\n",
				"bytecode": {
					"linkReferences": {},
					"object": "60c0604052601860808190527f50616e74686572205175616e7420476f6c64656e20456767000000000000000060a0908152620000409160049190620000f1565b503480156200004e57600080fd5b506040518060600160405280603581526020016200232060359139620000748162000086565b5062000080336200009f565b620001d4565b80516200009b906002906020840190620000f1565b5050565b600380546001600160a01b038381166001600160a01b0319831681179093556040519116919082907f8be0079c531659141344cd1fd0a4f28419497f9722a3daafe3b4186f6b6457e090600090a35050565b828054620000ff9062000197565b90600052602060002090601f0160209004810192826200012357600085556200016e565b82601f106200013e57805160ff19168380011785556200016e565b828001600101855582156200016e579182015b828111156200016e57825182559160200191906001019062000151565b506200017c92915062000180565b5090565b5b808211156200017c576000815560010162000181565b600181811c90821680620001ac57607f821691505b60208210811415620001ce57634e487b7160e01b600052602260045260246000fd5b50919050565b61213c80620001e46000396000f3fe608060405234801561001057600080fd5b50600436106100f45760003560e01c8063715018a611610097578063be8c592211610066578063be8c592214610208578063e985e9c51461021b578063f242432a14610264578063f2fde38b1461027757600080fd5b8063715018a6146101b25780638da5cb5b146101ba578063a22cb465146101e2578063b3a447b4146101f557600080fd5b806306fdde03116100d357806306fdde03146101575780630e89341c1461016c5780632eb2c2d61461017f5780634e1273f41461019257600080fd5b8062fdd58e146100f957806301ffc9a71461011f57806302fe530514610142575b600080fd5b61010c610107366004611b0b565b61028a565b6040519081526020015b60405180910390f35b61013261012d366004611c1a565b61034d565b6040519015158152602001610116565b610155610150366004611c54565b610432565b005b61015f6104a5565b6040516101169190611e60565b61015f61017a366004611ca5565b610533565b61015561018d3660046119c0565b6105c7565b6101a56101a0366004611b68565b610676565b6040516101169190611e1f565b6101556107b4565b60035460405173ffffffffffffffffffffffffffffffffffffffff9091168152602001610116565b6101556101f0366004611acf565b610827565b610155610203366004611b35565b610836565b610155610216366004611bcc565b6108ad565b61013261022936600461198d565b73ffffffffffffffffffffffffffffffffffffffff918216600090815260016020908152604080832093909416825291909152205460ff1690565b610155610272366004611a6a565b61095c565b610155610285366004611972565b610a04565b600073ffffffffffffffffffffffffffffffffffffffff831661031a5760405162461bcd60e51b815260206004820152602b60248201527f455243313135353a2062616c616e636520717565727920666f7220746865207a60448201527f65726f206164647265737300000000000000000000000000000000000000000060648201526084015b60405180910390fd5b5060009081526020818152604080832073ffffffffffffffffffffffffffffffffffffffff949094168352929052205490565b60007fffffffff0000000000000000000000000000000000000000000000000000000082167fd9b67a260000000000000000000000000000000000000000000000000000000014806103e057507fffffffff0000000000000000000000000000000000000000000000000000000082167f0e89341c00000000000000000000000000000000000000000000000000000000145b8061042c57507f01ffc9a7000000000000000000000000000000000000000000000000000000007fffffffff000000000000000000000000000000000000000000000000000000008316145b92915050565b60035473ffffffffffffffffffffffffffffffffffffffff1633146104995760405162461bcd60e51b815260206004820181905260248201527f4f776e61626c653a2063616c6c6572206973206e6f7420746865206f776e65726044820152606401610311565b6104a281610afd565b50565b600480546104b290611eaf565b80601f01602080910402602001604051908101604052809291908181526020018280546104de90611eaf565b801561052b5780601f106105005761010080835404028352916020019161052b565b820191906000526020600020905b81548152906001019060200180831161050e57829003601f168201915b505050505081565b60606002805461054290611eaf565b80601f016020809104026020016040519081016040528092919081815260200182805461056e90611eaf565b80156105bb5780601f10610590576101008083540402835291602001916105bb565b820191906000526020600020905b81548152906001019060200180831161059e57829003601f168201915b50505050509050919050565b73ffffffffffffffffffffffffffffffffffffffff85163314806105f057506105f08533610229565b6106625760405162461bcd60e51b815260206004820152603260248201527f455243313135353a207472616e736665722063616c6c6572206973206e6f742060448201527f6f776e6572206e6f7220617070726f76656400000000000000000000000000006064820152608401610311565b61066f8585858585610b10565b5050505050565b606081518351146106ef5760405162461bcd60e51b815260206004820152602960248201527f455243313135353a206163636f756e747320616e6420696473206c656e67746860448201527f206d69736d6174636800000000000000000000000000000000000000000000006064820152608401610311565b6000835167ffffffffffffffff81111561070b5761070b611fe5565b604051908082528060200260200182016040528015610734578160200160208202803683370190505b50905060005b84518110156107ac5761077f85828151811061075857610758611fb6565b602002602001015185838151811061077257610772611fb6565b602002602001015161028a565b82828151811061079157610791611fb6565b60209081029190910101526107a581611f4e565b905061073a565b509392505050565b60035473ffffffffffffffffffffffffffffffffffffffff16331461081b5760405162461bcd60e51b815260206004820181905260248201527f4f776e61626c653a2063616c6c6572206973206e6f7420746865206f776e65726044820152606401610311565b6108256000610dfc565b565b610832338383610e73565b5050565b60035473ffffffffffffffffffffffffffffffffffffffff16331461089d5760405162461bcd60e51b815260206004820181905260248201527f4f776e61626c653a2063616c6c6572206973206e6f7420746865206f776e65726044820152606401610311565b6108a8838383610fad565b505050565b60035473ffffffffffffffffffffffffffffffffffffffff1633146109145760405162461bcd60e51b815260206004820181905260248201527f4f776e61626c653a2063616c6c6572206973206e6f7420746865206f776e65726044820152606401610311565b60005b83518110156109565761094484828151811061093557610935611fb6565b60200260200101518484610fad565b8061094e81611f4e565b915050610917565b50505050565b73ffffffffffffffffffffffffffffffffffffffff851633148061098557506109858533610229565b6109f75760405162461bcd60e51b815260206004820152602960248201527f455243313135353a2063616c6c6572206973206e6f74206f776e6572206e6f7260448201527f20617070726f76656400000000000000000000000000000000000000000000006064820152608401610311565b61066f85858585856110d9565b60035473ffffffffffffffffffffffffffffffffffffffff163314610a6b5760405162461bcd60e51b815260206004820181905260248201527f4f776e61626c653a2063616c6c6572206973206e6f7420746865206f776e65726044820152606401610311565b73ffffffffffffffffffffffffffffffffffffffff8116610af45760405162461bcd60e51b815260206004820152602660248201527f4f776e61626c653a206e6577206f776e657220697320746865207a65726f206160448201527f64647265737300000000000000000000000000000000000000000000000000006064820152608401610311565b6104a281610dfc565b8051610832906002906020840190611725565b8151835114610b875760405162461bcd60e51b815260206004820152602860248201527f455243313135353a2069647320616e6420616d6f756e7473206c656e6774682060448201527f6d69736d617463680000000000000000000000000000000000000000000000006064820152608401610311565b73ffffffffffffffffffffffffffffffffffffffff8416610c105760405162461bcd60e51b815260206004820152602560248201527f455243313135353a207472616e7366657220746f20746865207a65726f20616460448201527f64726573730000000000000000000000000000000000000000000000000000006064820152608401610311565b3360005b8451811015610d67576000858281518110610c3157610c31611fb6565b602002602001015190506000858381518110610c4f57610c4f611fb6565b6020908102919091018101516000848152808352604080822073ffffffffffffffffffffffffffffffffffffffff8e168352909352919091205490915081811015610d025760405162461bcd60e51b815260206004820152602a60248201527f455243313135353a20696e73756666696369656e742062616c616e636520666f60448201527f72207472616e73666572000000000000000000000000000000000000000000006064820152608401610311565b60008381526020818152604080832073ffffffffffffffffffffffffffffffffffffffff8e8116855292528083208585039055908b16825281208054849290610d4c908490611e97565b9250508190555050505080610d6090611f4e565b9050610c14565b508473ffffffffffffffffffffffffffffffffffffffff168673ffffffffffffffffffffffffffffffffffffffff168273ffffffffffffffffffffffffffffffffffffffff167f4a39dc06d4c0dbc64b70af90fd698a233a518aa5d07e595d983b8c0526c8f7fb8787604051610dde929190611e32565b60405180910390a4610df48187878787876112e3565b505050505050565b6003805473ffffffffffffffffffffffffffffffffffffffff8381167fffffffffffffffffffffffff0000000000000000000000000000000000000000831681179093556040519116919082907f8be0079c531659141344cd1fd0a4f28419497f9722a3daafe3b4186f6b6457e090600090a35050565b8173ffffffffffffffffffffffffffffffffffffffff168373ffffffffffffffffffffffffffffffffffffffff161415610f155760405162461bcd60e51b815260206004820152602960248201527f455243313135353a2073657474696e6720617070726f76616c2073746174757360448201527f20666f722073656c6600000000000000000000000000000000000000000000006064820152608401610311565b73ffffffffffffffffffffffffffffffffffffffff83811660008181526001602090815260408083209487168084529482529182902080547fffffffffffffffffffffffffffffffffffffffffffffffffffffffffffffff001686151590811790915591519182527f17307eab39ab6107e8899845ad3d59bd9653f200f220920489ca2b5937696c31910160405180910390a3505050565b73ffffffffffffffffffffffffffffffffffffffff83166110365760405162461bcd60e51b815260206004820152602160248201527f455243313135353a206d696e7420746f20746865207a65726f2061646472657360448201527f73000000000000000000000000000000000000000000000000000000000000006064820152608401610311565b60008281526020818152604080832073ffffffffffffffffffffffffffffffffffffffff87168452909152812080543392849291611075908490611e97565b9091555050604080518481526020810184905273ffffffffffffffffffffffffffffffffffffffff80871692600092918516917fc3d58168c5ae7397731d063d5bbf3d657854427343f4c083240f7aacaa2d0f62910160405180910390a450505050565b73ffffffffffffffffffffffffffffffffffffffff84166111625760405162461bcd60e51b815260206004820152602560248201527f455243313135353a207472616e7366657220746f20746865207a65726f20616460448201527f64726573730000000000000000000000000000000000000000000000000000006064820152608401610311565b33600061116e85611538565b9050600061117b85611538565b905060008681526020818152604080832073ffffffffffffffffffffffffffffffffffffffff8c168452909152902054858110156112215760405162461bcd60e51b815260206004820152602a60248201527f455243313135353a20696e73756666696369656e742062616c616e636520666f60448201527f72207472616e73666572000000000000000000000000000000000000000000006064820152608401610311565b60008781526020818152604080832073ffffffffffffffffffffffffffffffffffffffff8d8116855292528083208985039055908a1682528120805488929061126b908490611e97565b9091555050604080518881526020810188905273ffffffffffffffffffffffffffffffffffffffff808b16928c821692918816917fc3d58168c5ae7397731d063d5bbf3d657854427343f4c083240f7aacaa2d0f62910160405180910390a46112d8848a8a8a8a8a611583565b505050505050505050565b73ffffffffffffffffffffffffffffffffffffffff84163b15610df4576040517fbc197c8100000000000000000000000000000000000000000000000000000000815273ffffffffffffffffffffffffffffffffffffffff85169063bc197c819061135a9089908990889088908890600401611d64565b602060405180830381600087803b15801561137457600080fd5b505af19250505080156113c2575060408051601f3d9081017fffffffffffffffffffffffffffffffffffffffffffffffffffffffffffffffe01682019092526113bf91810190611c37565b60015b611478576113ce612014565b806308c379a0141561140857506113e3612030565b806113ee575061140a565b8060405162461bcd60e51b81526004016103119190611e60565b505b60405162461bcd60e51b815260206004820152603460248201527f455243313135353a207472616e7366657220746f206e6f6e204552433131353560448201527f526563656976657220696d706c656d656e7465720000000000000000000000006064820152608401610311565b7fffffffff0000000000000000000000000000000000000000000000000000000081167fbc197c81000000000000000000000000000000000000000000000000000000001461152f5760405162461bcd60e51b815260206004820152602860248201527f455243313135353a204552433131353552656365697665722072656a6563746560448201527f6420746f6b656e730000000000000000000000000000000000000000000000006064820152608401610311565b50505050505050565b6040805160018082528183019092526060916000919060208083019080368337019050509050828160008151811061157257611572611fb6565b602090810291909101015292915050565b73ffffffffffffffffffffffffffffffffffffffff84163b15610df4576040517ff23a6e6100000000000000000000000000000000000000000000000000000000815273ffffffffffffffffffffffffffffffffffffffff85169063f23a6e61906115fa9089908990889088908890600401611dcf565b602060405180830381600087803b15801561161457600080fd5b505af1925050508015611662575060408051601f3d9081017fffffffffffffffffffffffffffffffffffffffffffffffffffffffffffffffe016820190925261165f91810190611c37565b60015b61166e576113ce612014565b7fffffffff0000000000000000000000000000000000000000000000000000000081167ff23a6e61000000000000000000000000000000000000000000000000000000001461152f5760405162461bcd60e51b815260206004820152602860248201527f455243313135353a204552433131353552656365697665722072656a6563746560448201527f6420746f6b656e730000000000000000000000000000000000000000000000006064820152608401610311565b82805461173190611eaf565b90600052602060002090601f0160209004810192826117535760008555611799565b82601f1061176c57805160ff1916838001178555611799565b82800160010185558215611799579182015b8281111561179957825182559160200191906001019061177e565b506117a59291506117a9565b5090565b5b808211156117a557600081556001016117aa565b600067ffffffffffffffff8311156117d8576117d8611fe5565b60405161180d60207fffffffffffffffffffffffffffffffffffffffffffffffffffffffffffffffe0601f8701160182611f03565b80915083815284848401111561182257600080fd5b83836020830137600060208583010152509392505050565b803573ffffffffffffffffffffffffffffffffffffffff8116811461185e57600080fd5b919050565b600082601f83011261187457600080fd5b8135602061188182611e73565b60405161188e8282611f03565b8381528281019150858301600585901b870184018810156118ae57600080fd5b60005b858110156118d4576118c28261183a565b845292840192908401906001016118b1565b5090979650505050505050565b600082601f8301126118f257600080fd5b813560206118ff82611e73565b60405161190c8282611f03565b8381528281019150858301600585901b8701840188101561192c57600080fd5b60005b858110156118d45781358452928401929084019060010161192f565b600082601f83011261195c57600080fd5b61196b838335602085016117be565b9392505050565b60006020828403121561198457600080fd5b61196b8261183a565b600080604083850312156119a057600080fd5b6119a98361183a565b91506119b76020840161183a565b90509250929050565b600080600080600060a086880312156119d857600080fd5b6119e18661183a565b94506119ef6020870161183a565b9350604086013567ffffffffffffffff80821115611a0c57600080fd5b611a1889838a016118e1565b94506060880135915080821115611a2e57600080fd5b611a3a89838a016118e1565b93506080880135915080821115611a5057600080fd5b50611a5d8882890161194b565b9150509295509295909350565b600080600080600060a08688031215611a8257600080fd5b611a8b8661183a565b9450611a996020870161183a565b93506040860135925060608601359150608086013567ffffffffffffffff811115611ac357600080fd5b611a5d8882890161194b565b60008060408385031215611ae257600080fd5b611aeb8361183a565b915060208301358015158114611b0057600080fd5b809150509250929050565b60008060408385031215611b1e57600080fd5b611b278361183a565b946020939093013593505050565b600080600060608486031215611b4a57600080fd5b611b538461183a565b95602085013595506040909401359392505050565b60008060408385031215611b7b57600080fd5b823567ffffffffffffffff80821115611b9357600080fd5b611b9f86838701611863565b93506020850135915080821115611bb557600080fd5b50611bc2858286016118e1565b9150509250929050565b600080600060608486031215611be157600080fd5b833567ffffffffffffffff811115611bf857600080fd5b611c0486828701611863565b9660208601359650604090950135949350505050565b600060208284031215611c2c57600080fd5b813561196b816120d8565b600060208284031215611c4957600080fd5b815161196b816120d8565b600060208284031215611c6657600080fd5b813567ffffffffffffffff811115611c7d57600080fd5b8201601f81018413611c8e57600080fd5b611c9d848235602084016117be565b949350505050565b600060208284031215611cb757600080fd5b5035919050565b600081518084526020808501945080840160005b83811015611cee57815187529582019590820190600101611cd2565b509495945050505050565b6000815180845260005b81811015611d1f57602081850181015186830182015201611d03565b81811115611d31576000602083870101525b50601f017fffffffffffffffffffffffffffffffffffffffffffffffffffffffffffffffe0169290920160200192915050565b600073ffffffffffffffffffffffffffffffffffffffff808816835280871660208401525060a06040830152611d9d60a0830186611cbe565b8281036060840152611daf8186611cbe565b90508281036080840152611dc38185611cf9565b98975050505050505050565b600073ffffffffffffffffffffffffffffffffffffffff808816835280871660208401525084604083015283606083015260a06080830152611e1460a0830184611cf9565b979650505050505050565b60208152600061196b6020830184611cbe565b604081526000611e456040830185611cbe565b8281036020840152611e578185611cbe565b95945050505050565b60208152600061196b6020830184611cf9565b600067ffffffffffffffff821115611e8d57611e8d611fe5565b5060051b60200190565b60008219821115611eaa57611eaa611f87565b500190565b600181811c90821680611ec357607f821691505b60208210811415611efd577f4e487b7100000000000000000000000000000000000000000000000000000000600052602260045260246000fd5b50919050565b7fffffffffffffffffffffffffffffffffffffffffffffffffffffffffffffffe0601f830116810181811067ffffffffffffffff82111715611f4757611f47611fe5565b6040525050565b60007fffffffffffffffffffffffffffffffffffffffffffffffffffffffffffffffff821415611f8057611f80611f87565b5060010190565b7f4e487b7100000000000000000000000000000000000000000000000000000000600052601160045260246000fd5b7f4e487b7100000000000000000000000000000000000000000000000000000000600052603260045260246000fd5b7f4e487b7100000000000000000000000000000000000000000000000000000000600052604160045260246000fd5b600060033d111561202d5760046000803e5060005160e01c5b90565b600060443d101561203e5790565b6040517ffffffffffffffffffffffffffffffffffffffffffffffffffffffffffffffffc803d016004833e81513d67ffffffffffffffff816024840111818411171561208c57505050505090565b82850191508151818111156120a45750505050505090565b843d87010160208285010111156120be5750505050505090565b6120cd60208286010187611f03565b509095945050505050565b7fffffffff00000000000000000000000000000000000000000000000000000000811681146104a257600080fdfea26469706673582212206d6650be382ad67d7bae57489b8a3cb1d568f8084a8fd473b6aebd3c3137864964736f6c63430008070033697066733a2f2f516d645332315270415a685468693658446f4c4b76706f6e516b315862716570614757457a4444794c6d73347569",
					"opcodes": "PUSH1 0xC0 PUSH1 0x40 MSTORE PUSH1 0x18 PUSH1 0x80 DUP2 SWAP1 MSTORE PUSH32 0x50616E74686572205175616E7420476F6C64656E204567670000000000000000 PUSH1 0xA0 SWAP1 DUP2 MSTORE PUSH3 0x40 SWAP2 PUSH1 0x4 SWAP2 SWAP1 PUSH3 0xF1 JUMP JUMPDEST POP CALLVALUE DUP1 ISZERO PUSH3 0x4E JUMPI PUSH1 0x0 DUP1 REVERT JUMPDEST POP PUSH1 0x40 MLOAD DUP1 PUSH1 0x60 ADD PUSH1 0x40 MSTORE DUP1 PUSH1 0x35 DUP2 MSTORE PUSH1 0x20 ADD PUSH3 0x2320 PUSH1 0x35 SWAP2 CODECOPY PUSH3 0x74 DUP2 PUSH3 0x86 JUMP JUMPDEST POP PUSH3 0x80 CALLER PUSH3 0x9F JUMP JUMPDEST PUSH3 0x1D4 JUMP JUMPDEST DUP1 MLOAD PUSH3 0x9B SWAP1 PUSH1 0x2 SWAP1 PUSH1 0x20 DUP5 ADD SWAP1 PUSH3 0xF1 JUMP JUMPDEST POP POP JUMP JUMPDEST PUSH1 0x3 DUP1 SLOAD PUSH1 0x1 PUSH1 0x1 PUSH1 0xA0 SHL SUB DUP4 DUP2 AND PUSH1 0x1 PUSH1 0x1 PUSH1 0xA0 SHL SUB NOT DUP4 AND DUP2 OR SWAP1 SWAP4 SSTORE PUSH1 0x40 MLOAD SWAP2 AND SWAP2 SWAP1 DUP3 SWAP1 PUSH32 0x8BE0079C531659141344CD1FD0A4F28419497F9722A3DAAFE3B4186F6B6457E0 SWAP1 PUSH1 0x0 SWAP1 LOG3 POP POP JUMP JUMPDEST DUP3 DUP1 SLOAD PUSH3 0xFF SWAP1 PUSH3 0x197 JUMP JUMPDEST SWAP1 PUSH1 0x0 MSTORE PUSH1 0x20 PUSH1 0x0 KECCAK256 SWAP1 PUSH1 0x1F ADD PUSH1 0x20 SWAP1 DIV DUP2 ADD SWAP3 DUP3 PUSH3 0x123 JUMPI PUSH1 0x0 DUP6 SSTORE PUSH3 0x16E JUMP JUMPDEST DUP3 PUSH1 0x1F LT PUSH3 0x13E JUMPI DUP1 MLOAD PUSH1 0xFF NOT AND DUP4 DUP1 ADD OR DUP6 SSTORE PUSH3 0x16E JUMP JUMPDEST DUP3 DUP1 ADD PUSH1 0x1 ADD DUP6 SSTORE DUP3 ISZERO PUSH3 0x16E JUMPI SWAP2 DUP3 ADD JUMPDEST DUP3 DUP2 GT ISZERO PUSH3 0x16E JUMPI DUP3 MLOAD DUP3 SSTORE SWAP2 PUSH1 0x20 ADD SWAP2 SWAP1 PUSH1 0x1 ADD SWAP1 PUSH3 0x151 JUMP JUMPDEST POP PUSH3 0x17C SWAP3 SWAP2 POP PUSH3 0x180 JUMP JUMPDEST POP SWAP1 JUMP JUMPDEST JUMPDEST DUP1 DUP3 GT ISZERO PUSH3 0x17C JUMPI PUSH1 0x0 DUP2 SSTORE PUSH1 0x1 ADD PUSH3 0x181 JUMP JUMPDEST PUSH1 0x1 DUP2 DUP2 SHR SWAP1 DUP3 AND DUP1 PUSH3 0x1AC JUMPI PUSH1 0x7F DUP3 AND SWAP2 POP JUMPDEST PUSH1 0x20 DUP3 LT DUP2 EQ ISZERO PUSH3 0x1CE JUMPI PUSH4 0x4E487B71 PUSH1 0xE0 SHL PUSH1 0x0 MSTORE PUSH1 0x22 PUSH1 0x4 MSTORE PUSH1 0x24 PUSH1 0x0 REVERT JUMPDEST POP SWAP2 SWAP1 POP JUMP JUMPDEST PUSH2 0x213C DUP1 PUSH3 0x1E4 PUSH1 0x0 CODECOPY PUSH1 0x0 RETURN INVALID PUSH1 0x80 PUSH1 0x40 MSTORE CALLVALUE DUP1 ISZERO PUSH2 0x10 JUMPI PUSH1 0x0 DUP1 REVERT JUMPDEST POP PUSH1 0x4 CALLDATASIZE LT PUSH2 0xF4 JUMPI PUSH1 0x0 CALLDATALOAD PUSH1 0xE0 SHR DUP1 PUSH4 0x715018A6 GT PUSH2 0x97 JUMPI DUP1 PUSH4 0xBE8C5922 GT PUSH2 0x66 JUMPI DUP1 PUSH4 0xBE8C5922 EQ PUSH2 0x208 JUMPI DUP1 PUSH4 0xE985E9C5 EQ PUSH2 0x21B JUMPI DUP1 PUSH4 0xF242432A EQ PUSH2 0x264 JUMPI DUP1 PUSH4 0xF2FDE38B EQ PUSH2 0x277 JUMPI PUSH1 0x0 DUP1 REVERT JUMPDEST DUP1 PUSH4 0x715018A6 EQ PUSH2 0x1B2 JUMPI DUP1 PUSH4 0x8DA5CB5B EQ PUSH2 0x1BA JUMPI DUP1 PUSH4 0xA22CB465 EQ PUSH2 0x1E2 JUMPI DUP1 PUSH4 0xB3A447B4 EQ PUSH2 0x1F5 JUMPI PUSH1 0x0 DUP1 REVERT JUMPDEST DUP1 PUSH4 0x6FDDE03 GT PUSH2 0xD3 JUMPI DUP1 PUSH4 0x6FDDE03 EQ PUSH2 0x157 JUMPI DUP1 PUSH4 0xE89341C EQ PUSH2 0x16C JUMPI DUP1 PUSH4 0x2EB2C2D6 EQ PUSH2 0x17F JUMPI DUP1 PUSH4 0x4E1273F4 EQ PUSH2 0x192 JUMPI PUSH1 0x0 DUP1 REVERT JUMPDEST DUP1 PUSH3 0xFDD58E EQ PUSH2 0xF9 JUMPI DUP1 PUSH4 0x1FFC9A7 EQ PUSH2 0x11F JUMPI DUP1 PUSH4 0x2FE5305 EQ PUSH2 0x142 JUMPI JUMPDEST PUSH1 0x0 DUP1 REVERT JUMPDEST PUSH2 0x10C PUSH2 0x107 CALLDATASIZE PUSH1 0x4 PUSH2 0x1B0B JUMP JUMPDEST PUSH2 0x28A JUMP JUMPDEST PUSH1 0x40 MLOAD SWAP1 DUP2 MSTORE PUSH1 0x20 ADD JUMPDEST PUSH1 0x40 MLOAD DUP1 SWAP2 SUB SWAP1 RETURN JUMPDEST PUSH2 0x132 PUSH2 0x12D CALLDATASIZE PUSH1 0x4 PUSH2 0x1C1A JUMP JUMPDEST PUSH2 0x34D JUMP JUMPDEST PUSH1 0x40 MLOAD SWAP1 ISZERO ISZERO DUP2 MSTORE PUSH1 0x20 ADD PUSH2 0x116 JUMP JUMPDEST PUSH2 0x155 PUSH2 0x150 CALLDATASIZE PUSH1 0x4 PUSH2 0x1C54 JUMP JUMPDEST PUSH2 0x432 JUMP JUMPDEST STOP JUMPDEST PUSH2 0x15F PUSH2 0x4A5 JUMP JUMPDEST PUSH1 0x40 MLOAD PUSH2 0x116 SWAP2 SWAP1 PUSH2 0x1E60 JUMP JUMPDEST PUSH2 0x15F PUSH2 0x17A CALLDATASIZE PUSH1 0x4 PUSH2 0x1CA5 JUMP JUMPDEST PUSH2 0x533 JUMP JUMPDEST PUSH2 0x155 PUSH2 0x18D CALLDATASIZE PUSH1 0x4 PUSH2 0x19C0 JUMP JUMPDEST PUSH2 0x5C7 JUMP JUMPDEST PUSH2 0x1A5 PUSH2 0x1A0 CALLDATASIZE PUSH1 0x4 PUSH2 0x1B68 JUMP JUMPDEST PUSH2 0x676 JUMP JUMPDEST PUSH1 0x40 MLOAD PUSH2 0x116 SWAP2 SWAP1 PUSH2 0x1E1F JUMP JUMPDEST PUSH2 0x155 PUSH2 0x7B4 JUMP JUMPDEST PUSH1 0x3 SLOAD PUSH1 0x40 MLOAD PUSH20 0xFFFFFFFFFFFFFFFFFFFFFFFFFFFFFFFFFFFFFFFF SWAP1 SWAP2 AND DUP2 MSTORE PUSH1 0x20 ADD PUSH2 0x116 JUMP JUMPDEST PUSH2 0x155 PUSH2 0x1F0 CALLDATASIZE PUSH1 0x4 PUSH2 0x1ACF JUMP JUMPDEST PUSH2 0x827 JUMP JUMPDEST PUSH2 0x155 PUSH2 0x203 CALLDATASIZE PUSH1 0x4 PUSH2 0x1B35 JUMP JUMPDEST PUSH2 0x836 JUMP JUMPDEST PUSH2 0x155 PUSH2 0x216 CALLDATASIZE PUSH1 0x4 PUSH2 0x1BCC JUMP JUMPDEST PUSH2 0x8AD JUMP JUMPDEST PUSH2 0x132 PUSH2 0x229 CALLDATASIZE PUSH1 0x4 PUSH2 0x198D JUMP JUMPDEST PUSH20 0xFFFFFFFFFFFFFFFFFFFFFFFFFFFFFFFFFFFFFFFF SWAP2 DUP3 AND PUSH1 0x0 SWAP1 DUP2 MSTORE PUSH1 0x1 PUSH1 0x20 SWAP1 DUP2 MSTORE PUSH1 0x40 DUP1 DUP4 KECCAK256 SWAP4 SWAP1 SWAP5 AND DUP3 MSTORE SWAP2 SWAP1 SWAP2 MSTORE KECCAK256 SLOAD PUSH1 0xFF AND SWAP1 JUMP JUMPDEST PUSH2 0x155 PUSH2 0x272 CALLDATASIZE PUSH1 0x4 PUSH2 0x1A6A JUMP JUMPDEST PUSH2 0x95C JUMP JUMPDEST PUSH2 0x155 PUSH2 0x285 CALLDATASIZE PUSH1 0x4 PUSH2 0x1972 JUMP JUMPDEST PUSH2 0xA04 JUMP JUMPDEST PUSH1 0x0 PUSH20 0xFFFFFFFFFFFFFFFFFFFFFFFFFFFFFFFFFFFFFFFF DUP4 AND PUSH2 0x31A JUMPI PUSH1 0x40 MLOAD PUSH3 0x461BCD PUSH1 0xE5 SHL DUP2 MSTORE PUSH1 0x20 PUSH1 0x4 DUP3 ADD MSTORE PUSH1 0x2B PUSH1 0x24 DUP3 ADD MSTORE PUSH32 0x455243313135353A2062616C616E636520717565727920666F7220746865207A PUSH1 0x44 DUP3 ADD MSTORE PUSH32 0x65726F2061646472657373000000000000000000000000000000000000000000 PUSH1 0x64 DUP3 ADD MSTORE PUSH1 0x84 ADD JUMPDEST PUSH1 0x40 MLOAD DUP1 SWAP2 SUB SWAP1 REVERT JUMPDEST POP PUSH1 0x0 SWAP1 DUP2 MSTORE PUSH1 0x20 DUP2 DUP2 MSTORE PUSH1 0x40 DUP1 DUP4 KECCAK256 PUSH20 0xFFFFFFFFFFFFFFFFFFFFFFFFFFFFFFFFFFFFFFFF SWAP5 SWAP1 SWAP5 AND DUP4 MSTORE SWAP3 SWAP1 MSTORE KECCAK256 SLOAD SWAP1 JUMP JUMPDEST PUSH1 0x0 PUSH32 0xFFFFFFFF00000000000000000000000000000000000000000000000000000000 DUP3 AND PUSH32 0xD9B67A2600000000000000000000000000000000000000000000000000000000 EQ DUP1 PUSH2 0x3E0 JUMPI POP PUSH32 0xFFFFFFFF00000000000000000000000000000000000000000000000000000000 DUP3 AND PUSH32 0xE89341C00000000000000000000000000000000000000000000000000000000 EQ JUMPDEST DUP1 PUSH2 0x42C JUMPI POP PUSH32 0x1FFC9A700000000000000000000000000000000000000000000000000000000 PUSH32 0xFFFFFFFF00000000000000000000000000000000000000000000000000000000 DUP4 AND EQ JUMPDEST SWAP3 SWAP2 POP POP JUMP JUMPDEST PUSH1 0x3 SLOAD PUSH20 0xFFFFFFFFFFFFFFFFFFFFFFFFFFFFFFFFFFFFFFFF AND CALLER EQ PUSH2 0x499 JUMPI PUSH1 0x40 MLOAD PUSH3 0x461BCD PUSH1 0xE5 SHL DUP2 MSTORE PUSH1 0x20 PUSH1 0x4 DUP3 ADD DUP2 SWAP1 MSTORE PUSH1 0x24 DUP3 ADD MSTORE PUSH32 0x4F776E61626C653A2063616C6C6572206973206E6F7420746865206F776E6572 PUSH1 0x44 DUP3 ADD MSTORE PUSH1 0x64 ADD PUSH2 0x311 JUMP JUMPDEST PUSH2 0x4A2 DUP2 PUSH2 0xAFD JUMP JUMPDEST POP JUMP JUMPDEST PUSH1 0x4 DUP1 SLOAD PUSH2 0x4B2 SWAP1 PUSH2 0x1EAF JUMP JUMPDEST DUP1 PUSH1 0x1F ADD PUSH1 0x20 DUP1 SWAP2 DIV MUL PUSH1 0x20 ADD PUSH1 0x40 MLOAD SWAP1 DUP2 ADD PUSH1 0x40 MSTORE DUP1 SWAP3 SWAP2 SWAP1 DUP2 DUP2 MSTORE PUSH1 0x20 ADD DUP3 DUP1 SLOAD PUSH2 0x4DE SWAP1 PUSH2 0x1EAF JUMP JUMPDEST DUP1 ISZERO PUSH2 0x52B JUMPI DUP1 PUSH1 0x1F LT PUSH2 0x500 JUMPI PUSH2 0x100 DUP1 DUP4 SLOAD DIV MUL DUP4 MSTORE SWAP2 PUSH1 0x20 ADD SWAP2 PUSH2 0x52B JUMP JUMPDEST DUP3 ADD SWAP2 SWAP1 PUSH1 0x0 MSTORE PUSH1 0x20 PUSH1 0x0 KECCAK256 SWAP1 JUMPDEST DUP2 SLOAD DUP2 MSTORE SWAP1 PUSH1 0x1 ADD SWAP1 PUSH1 0x20 ADD DUP1 DUP4 GT PUSH2 0x50E JUMPI DUP3 SWAP1 SUB PUSH1 0x1F AND DUP3 ADD SWAP2 JUMPDEST POP POP POP POP POP DUP2 JUMP JUMPDEST PUSH1 0x60 PUSH1 0x2 DUP1 SLOAD PUSH2 0x542 SWAP1 PUSH2 0x1EAF JUMP JUMPDEST DUP1 PUSH1 0x1F ADD PUSH1 0x20 DUP1 SWAP2 DIV MUL PUSH1 0x20 ADD PUSH1 0x40 MLOAD SWAP1 DUP2 ADD PUSH1 0x40 MSTORE DUP1 SWAP3 SWAP2 SWAP1 DUP2 DUP2 MSTORE PUSH1 0x20 ADD DUP3 DUP1 SLOAD PUSH2 0x56E SWAP1 PUSH2 0x1EAF JUMP JUMPDEST DUP1 ISZERO PUSH2 0x5BB JUMPI DUP1 PUSH1 0x1F LT PUSH2 0x590 JUMPI PUSH2 0x100 DUP1 DUP4 SLOAD DIV MUL DUP4 MSTORE SWAP2 PUSH1 0x20 ADD SWAP2 PUSH2 0x5BB JUMP JUMPDEST DUP3 ADD SWAP2 SWAP1 PUSH1 0x0 MSTORE PUSH1 0x20 PUSH1 0x0 KECCAK256 SWAP1 JUMPDEST DUP2 SLOAD DUP2 MSTORE SWAP1 PUSH1 0x1 ADD SWAP1 PUSH1 0x20 ADD DUP1 DUP4 GT PUSH2 0x59E JUMPI DUP3 SWAP1 SUB PUSH1 0x1F AND DUP3 ADD SWAP2 JUMPDEST POP POP POP POP POP SWAP1 POP SWAP2 SWAP1 POP JUMP JUMPDEST PUSH20 0xFFFFFFFFFFFFFFFFFFFFFFFFFFFFFFFFFFFFFFFF DUP6 AND CALLER EQ DUP1 PUSH2 0x5F0 JUMPI POP PUSH2 0x5F0 DUP6 CALLER PUSH2 0x229 JUMP JUMPDEST PUSH2 0x662 JUMPI PUSH1 0x40 MLOAD PUSH3 0x461BCD PUSH1 0xE5 SHL DUP2 MSTORE PUSH1 0x20 PUSH1 0x4 DUP3 ADD MSTORE PUSH1 0x32 PUSH1 0x24 DUP3 ADD MSTORE PUSH32 0x455243313135353A207472616E736665722063616C6C6572206973206E6F7420 PUSH1 0x44 DUP3 ADD MSTORE PUSH32 0x6F776E6572206E6F7220617070726F7665640000000000000000000000000000 PUSH1 0x64 DUP3 ADD MSTORE PUSH1 0x84 ADD PUSH2 0x311 JUMP JUMPDEST PUSH2 0x66F DUP6 DUP6 DUP6 DUP6 DUP6 PUSH2 0xB10 JUMP JUMPDEST POP POP POP POP POP JUMP JUMPDEST PUSH1 0x60 DUP2 MLOAD DUP4 MLOAD EQ PUSH2 0x6EF JUMPI PUSH1 0x40 MLOAD PUSH3 0x461BCD PUSH1 0xE5 SHL DUP2 MSTORE PUSH1 0x20 PUSH1 0x4 DUP3 ADD MSTORE PUSH1 0x29 PUSH1 0x24 DUP3 ADD MSTORE PUSH32 0x455243313135353A206163636F756E747320616E6420696473206C656E677468 PUSH1 0x44 DUP3 ADD MSTORE PUSH32 0x206D69736D617463680000000000000000000000000000000000000000000000 PUSH1 0x64 DUP3 ADD MSTORE PUSH1 0x84 ADD PUSH2 0x311 JUMP JUMPDEST PUSH1 0x0 DUP4 MLOAD PUSH8 0xFFFFFFFFFFFFFFFF DUP2 GT ISZERO PUSH2 0x70B JUMPI PUSH2 0x70B PUSH2 0x1FE5 JUMP JUMPDEST PUSH1 0x40 MLOAD SWAP1 DUP1 DUP3 MSTORE DUP1 PUSH1 0x20 MUL PUSH1 0x20 ADD DUP3 ADD PUSH1 0x40 MSTORE DUP1 ISZERO PUSH2 0x734 JUMPI DUP2 PUSH1 0x20 ADD PUSH1 0x20 DUP3 MUL DUP1 CALLDATASIZE DUP4 CALLDATACOPY ADD SWAP1 POP JUMPDEST POP SWAP1 POP PUSH1 0x0 JUMPDEST DUP5 MLOAD DUP2 LT ISZERO PUSH2 0x7AC JUMPI PUSH2 0x77F DUP6 DUP3 DUP2 MLOAD DUP2 LT PUSH2 0x758 JUMPI PUSH2 0x758 PUSH2 0x1FB6 JUMP JUMPDEST PUSH1 0x20 MUL PUSH1 0x20 ADD ADD MLOAD DUP6 DUP4 DUP2 MLOAD DUP2 LT PUSH2 0x772 JUMPI PUSH2 0x772 PUSH2 0x1FB6 JUMP JUMPDEST PUSH1 0x20 MUL PUSH1 0x20 ADD ADD MLOAD PUSH2 0x28A JUMP JUMPDEST DUP3 DUP3 DUP2 MLOAD DUP2 LT PUSH2 0x791 JUMPI PUSH2 0x791 PUSH2 0x1FB6 JUMP JUMPDEST PUSH1 0x20 SWAP1 DUP2 MUL SWAP2 SWAP1 SWAP2 ADD ADD MSTORE PUSH2 0x7A5 DUP2 PUSH2 0x1F4E JUMP JUMPDEST SWAP1 POP PUSH2 0x73A JUMP JUMPDEST POP SWAP4 SWAP3 POP POP POP JUMP JUMPDEST PUSH1 0x3 SLOAD PUSH20 0xFFFFFFFFFFFFFFFFFFFFFFFFFFFFFFFFFFFFFFFF AND CALLER EQ PUSH2 0x81B JUMPI PUSH1 0x40 MLOAD PUSH3 0x461BCD PUSH1 0xE5 SHL DUP2 MSTORE PUSH1 0x20 PUSH1 0x4 DUP3 ADD DUP2 SWAP1 MSTORE PUSH1 0x24 DUP3 ADD MSTORE PUSH32 0x4F776E61626C653A2063616C6C6572206973206E6F7420746865206F776E6572 PUSH1 0x44 DUP3 ADD MSTORE PUSH1 0x64 ADD PUSH2 0x311 JUMP JUMPDEST PUSH2 0x825 PUSH1 0x0 PUSH2 0xDFC JUMP JUMPDEST JUMP JUMPDEST PUSH2 0x832 CALLER DUP4 DUP4 PUSH2 0xE73 JUMP JUMPDEST POP POP JUMP JUMPDEST PUSH1 0x3 SLOAD PUSH20 0xFFFFFFFFFFFFFFFFFFFFFFFFFFFFFFFFFFFFFFFF AND CALLER EQ PUSH2 0x89D JUMPI PUSH1 0x40 MLOAD PUSH3 0x461BCD PUSH1 0xE5 SHL DUP2 MSTORE PUSH1 0x20 PUSH1 0x4 DUP3 ADD DUP2 SWAP1 MSTORE PUSH1 0x24 DUP3 ADD MSTORE PUSH32 0x4F776E61626C653A2063616C6C6572206973206E6F7420746865206F776E6572 PUSH1 0x44 DUP3 ADD MSTORE PUSH1 0x64 ADD PUSH2 0x311 JUMP JUMPDEST PUSH2 0x8A8 DUP4 DUP4 DUP4 PUSH2 0xFAD JUMP JUMPDEST POP POP POP JUMP JUMPDEST PUSH1 0x3 SLOAD PUSH20 0xFFFFFFFFFFFFFFFFFFFFFFFFFFFFFFFFFFFFFFFF AND CALLER EQ PUSH2 0x914 JUMPI PUSH1 0x40 MLOAD PUSH3 0x461BCD PUSH1 0xE5 SHL DUP2 MSTORE PUSH1 0x20 PUSH1 0x4 DUP3 ADD DUP2 SWAP1 MSTORE PUSH1 0x24 DUP3 ADD MSTORE PUSH32 0x4F776E61626C653A2063616C6C6572206973206E6F7420746865206F776E6572 PUSH1 0x44 DUP3 ADD MSTORE PUSH1 0x64 ADD PUSH2 0x311 JUMP JUMPDEST PUSH1 0x0 JUMPDEST DUP4 MLOAD DUP2 LT ISZERO PUSH2 0x956 JUMPI PUSH2 0x944 DUP5 DUP3 DUP2 MLOAD DUP2 LT PUSH2 0x935 JUMPI PUSH2 0x935 PUSH2 0x1FB6 JUMP JUMPDEST PUSH1 0x20 MUL PUSH1 0x20 ADD ADD MLOAD DUP5 DUP5 PUSH2 0xFAD JUMP JUMPDEST DUP1 PUSH2 0x94E DUP2 PUSH2 0x1F4E JUMP JUMPDEST SWAP2 POP POP PUSH2 0x917 JUMP JUMPDEST POP POP POP POP JUMP JUMPDEST PUSH20 0xFFFFFFFFFFFFFFFFFFFFFFFFFFFFFFFFFFFFFFFF DUP6 AND CALLER EQ DUP1 PUSH2 0x985 JUMPI POP PUSH2 0x985 DUP6 CALLER PUSH2 0x229 JUMP JUMPDEST PUSH2 0x9F7 JUMPI PUSH1 0x40 MLOAD PUSH3 0x461BCD PUSH1 0xE5 SHL DUP2 MSTORE PUSH1 0x20 PUSH1 0x4 DUP3 ADD MSTORE PUSH1 0x29 PUSH1 0x24 DUP3 ADD MSTORE PUSH32 0x455243313135353A2063616C6C6572206973206E6F74206F776E6572206E6F72 PUSH1 0x44 DUP3 ADD MSTORE PUSH32 0x20617070726F7665640000000000000000000000000000000000000000000000 PUSH1 0x64 DUP3 ADD MSTORE PUSH1 0x84 ADD PUSH2 0x311 JUMP JUMPDEST PUSH2 0x66F DUP6 DUP6 DUP6 DUP6 DUP6 PUSH2 0x10D9 JUMP JUMPDEST PUSH1 0x3 SLOAD PUSH20 0xFFFFFFFFFFFFFFFFFFFFFFFFFFFFFFFFFFFFFFFF AND CALLER EQ PUSH2 0xA6B JUMPI PUSH1 0x40 MLOAD PUSH3 0x461BCD PUSH1 0xE5 SHL DUP2 MSTORE PUSH1 0x20 PUSH1 0x4 DUP3 ADD DUP2 SWAP1 MSTORE PUSH1 0x24 DUP3 ADD MSTORE PUSH32 0x4F776E61626C653A2063616C6C6572206973206E6F7420746865206F776E6572 PUSH1 0x44 DUP3 ADD MSTORE PUSH1 0x64 ADD PUSH2 0x311 JUMP JUMPDEST PUSH20 0xFFFFFFFFFFFFFFFFFFFFFFFFFFFFFFFFFFFFFFFF DUP2 AND PUSH2 0xAF4 JUMPI PUSH1 0x40 MLOAD PUSH3 0x461BCD PUSH1 0xE5 SHL DUP2 MSTORE PUSH1 0x20 PUSH1 0x4 DUP3 ADD MSTORE PUSH1 0x26 PUSH1 0x24 DUP3 ADD MSTORE PUSH32 0x4F776E61626C653A206E6577206F776E657220697320746865207A65726F2061 PUSH1 0x44 DUP3 ADD MSTORE PUSH32 0x6464726573730000000000000000000000000000000000000000000000000000 PUSH1 0x64 DUP3 ADD MSTORE PUSH1 0x84 ADD PUSH2 0x311 JUMP JUMPDEST PUSH2 0x4A2 DUP2 PUSH2 0xDFC JUMP JUMPDEST DUP1 MLOAD PUSH2 0x832 SWAP1 PUSH1 0x2 SWAP1 PUSH1 0x20 DUP5 ADD SWAP1 PUSH2 0x1725 JUMP JUMPDEST DUP2 MLOAD DUP4 MLOAD EQ PUSH2 0xB87 JUMPI PUSH1 0x40 MLOAD PUSH3 0x461BCD PUSH1 0xE5 SHL DUP2 MSTORE PUSH1 0x20 PUSH1 0x4 DUP3 ADD MSTORE PUSH1 0x28 PUSH1 0x24 DUP3 ADD MSTORE PUSH32 0x455243313135353A2069647320616E6420616D6F756E7473206C656E67746820 PUSH1 0x44 DUP3 ADD MSTORE PUSH32 0x6D69736D61746368000000000000000000000000000000000000000000000000 PUSH1 0x64 DUP3 ADD MSTORE PUSH1 0x84 ADD PUSH2 0x311 JUMP JUMPDEST PUSH20 0xFFFFFFFFFFFFFFFFFFFFFFFFFFFFFFFFFFFFFFFF DUP5 AND PUSH2 0xC10 JUMPI PUSH1 0x40 MLOAD PUSH3 0x461BCD PUSH1 0xE5 SHL DUP2 MSTORE PUSH1 0x20 PUSH1 0x4 DUP3 ADD MSTORE PUSH1 0x25 PUSH1 0x24 DUP3 ADD MSTORE PUSH32 0x455243313135353A207472616E7366657220746F20746865207A65726F206164 PUSH1 0x44 DUP3 ADD MSTORE PUSH32 0x6472657373000000000000000000000000000000000000000000000000000000 PUSH1 0x64 DUP3 ADD MSTORE PUSH1 0x84 ADD PUSH2 0x311 JUMP JUMPDEST CALLER PUSH1 0x0 JUMPDEST DUP5 MLOAD DUP2 LT ISZERO PUSH2 0xD67 JUMPI PUSH1 0x0 DUP6 DUP3 DUP2 MLOAD DUP2 LT PUSH2 0xC31 JUMPI PUSH2 0xC31 PUSH2 0x1FB6 JUMP JUMPDEST PUSH1 0x20 MUL PUSH1 0x20 ADD ADD MLOAD SWAP1 POP PUSH1 0x0 DUP6 DUP4 DUP2 MLOAD DUP2 LT PUSH2 0xC4F JUMPI PUSH2 0xC4F PUSH2 0x1FB6 JUMP JUMPDEST PUSH1 0x20 SWAP1 DUP2 MUL SWAP2 SWAP1 SWAP2 ADD DUP2 ADD MLOAD PUSH1 0x0 DUP5 DUP2 MSTORE DUP1 DUP4 MSTORE PUSH1 0x40 DUP1 DUP3 KECCAK256 PUSH20 0xFFFFFFFFFFFFFFFFFFFFFFFFFFFFFFFFFFFFFFFF DUP15 AND DUP4 MSTORE SWAP1 SWAP4 MSTORE SWAP2 SWAP1 SWAP2 KECCAK256 SLOAD SWAP1 SWAP2 POP DUP2 DUP2 LT ISZERO PUSH2 0xD02 JUMPI PUSH1 0x40 MLOAD PUSH3 0x461BCD PUSH1 0xE5 SHL DUP2 MSTORE PUSH1 0x20 PUSH1 0x4 DUP3 ADD MSTORE PUSH1 0x2A PUSH1 0x24 DUP3 ADD MSTORE PUSH32 0x455243313135353A20696E73756666696369656E742062616C616E636520666F PUSH1 0x44 DUP3 ADD MSTORE PUSH32 0x72207472616E7366657200000000000000000000000000000000000000000000 PUSH1 0x64 DUP3 ADD MSTORE PUSH1 0x84 ADD PUSH2 0x311 JUMP JUMPDEST PUSH1 0x0 DUP4 DUP2 MSTORE PUSH1 0x20 DUP2 DUP2 MSTORE PUSH1 0x40 DUP1 DUP4 KECCAK256 PUSH20 0xFFFFFFFFFFFFFFFFFFFFFFFFFFFFFFFFFFFFFFFF DUP15 DUP2 AND DUP6 MSTORE SWAP3 MSTORE DUP1 DUP4 KECCAK256 DUP6 DUP6 SUB SWAP1 SSTORE SWAP1 DUP12 AND DUP3 MSTORE DUP2 KECCAK256 DUP1 SLOAD DUP5 SWAP3 SWAP1 PUSH2 0xD4C SWAP1 DUP5 SWAP1 PUSH2 0x1E97 JUMP JUMPDEST SWAP3 POP POP DUP2 SWAP1 SSTORE POP POP POP POP DUP1 PUSH2 0xD60 SWAP1 PUSH2 0x1F4E JUMP JUMPDEST SWAP1 POP PUSH2 0xC14 JUMP JUMPDEST POP DUP5 PUSH20 0xFFFFFFFFFFFFFFFFFFFFFFFFFFFFFFFFFFFFFFFF AND DUP7 PUSH20 0xFFFFFFFFFFFFFFFFFFFFFFFFFFFFFFFFFFFFFFFF AND DUP3 PUSH20 0xFFFFFFFFFFFFFFFFFFFFFFFFFFFFFFFFFFFFFFFF AND PUSH32 0x4A39DC06D4C0DBC64B70AF90FD698A233A518AA5D07E595D983B8C0526C8F7FB DUP8 DUP8 PUSH1 0x40 MLOAD PUSH2 0xDDE SWAP3 SWAP2 SWAP1 PUSH2 0x1E32 JUMP JUMPDEST PUSH1 0x40 MLOAD DUP1 SWAP2 SUB SWAP1 LOG4 PUSH2 0xDF4 DUP2 DUP8 DUP8 DUP8 DUP8 DUP8 PUSH2 0x12E3 JUMP JUMPDEST POP POP POP POP POP POP JUMP JUMPDEST PUSH1 0x3 DUP1 SLOAD PUSH20 0xFFFFFFFFFFFFFFFFFFFFFFFFFFFFFFFFFFFFFFFF DUP4 DUP2 AND PUSH32 0xFFFFFFFFFFFFFFFFFFFFFFFF0000000000000000000000000000000000000000 DUP4 AND DUP2 OR SWAP1 SWAP4 SSTORE PUSH1 0x40 MLOAD SWAP2 AND SWAP2 SWAP1 DUP3 SWAP1 PUSH32 0x8BE0079C531659141344CD1FD0A4F28419497F9722A3DAAFE3B4186F6B6457E0 SWAP1 PUSH1 0x0 SWAP1 LOG3 POP POP JUMP JUMPDEST DUP2 PUSH20 0xFFFFFFFFFFFFFFFFFFFFFFFFFFFFFFFFFFFFFFFF AND DUP4 PUSH20 0xFFFFFFFFFFFFFFFFFFFFFFFFFFFFFFFFFFFFFFFF AND EQ ISZERO PUSH2 0xF15 JUMPI PUSH1 0x40 MLOAD PUSH3 0x461BCD PUSH1 0xE5 SHL DUP2 MSTORE PUSH1 0x20 PUSH1 0x4 DUP3 ADD MSTORE PUSH1 0x29 PUSH1 0x24 DUP3 ADD MSTORE PUSH32 0x455243313135353A2073657474696E6720617070726F76616C20737461747573 PUSH1 0x44 DUP3 ADD MSTORE PUSH32 0x20666F722073656C660000000000000000000000000000000000000000000000 PUSH1 0x64 DUP3 ADD MSTORE PUSH1 0x84 ADD PUSH2 0x311 JUMP JUMPDEST PUSH20 0xFFFFFFFFFFFFFFFFFFFFFFFFFFFFFFFFFFFFFFFF DUP4 DUP2 AND PUSH1 0x0 DUP2 DUP2 MSTORE PUSH1 0x1 PUSH1 0x20 SWAP1 DUP2 MSTORE PUSH1 0x40 DUP1 DUP4 KECCAK256 SWAP5 DUP8 AND DUP1 DUP5 MSTORE SWAP5 DUP3 MSTORE SWAP2 DUP3 SWAP1 KECCAK256 DUP1 SLOAD PUSH32 0xFFFFFFFFFFFFFFFFFFFFFFFFFFFFFFFFFFFFFFFFFFFFFFFFFFFFFFFFFFFFFF00 AND DUP7 ISZERO ISZERO SWAP1 DUP2 OR SWAP1 SWAP2 SSTORE SWAP2 MLOAD SWAP2 DUP3 MSTORE PUSH32 0x17307EAB39AB6107E8899845AD3D59BD9653F200F220920489CA2B5937696C31 SWAP2 ADD PUSH1 0x40 MLOAD DUP1 SWAP2 SUB SWAP1 LOG3 POP POP POP JUMP JUMPDEST PUSH20 0xFFFFFFFFFFFFFFFFFFFFFFFFFFFFFFFFFFFFFFFF DUP4 AND PUSH2 0x1036 JUMPI PUSH1 0x40 MLOAD PUSH3 0x461BCD PUSH1 0xE5 SHL DUP2 MSTORE PUSH1 0x20 PUSH1 0x4 DUP3 ADD MSTORE PUSH1 0x21 PUSH1 0x24 DUP3 ADD MSTORE PUSH32 0x455243313135353A206D696E7420746F20746865207A65726F20616464726573 PUSH1 0x44 DUP3 ADD MSTORE PUSH32 0x7300000000000000000000000000000000000000000000000000000000000000 PUSH1 0x64 DUP3 ADD MSTORE PUSH1 0x84 ADD PUSH2 0x311 JUMP JUMPDEST PUSH1 0x0 DUP3 DUP2 MSTORE PUSH1 0x20 DUP2 DUP2 MSTORE PUSH1 0x40 DUP1 DUP4 KECCAK256 PUSH20 0xFFFFFFFFFFFFFFFFFFFFFFFFFFFFFFFFFFFFFFFF DUP8 AND DUP5 MSTORE SWAP1 SWAP2 MSTORE DUP2 KECCAK256 DUP1 SLOAD CALLER SWAP3 DUP5 SWAP3 SWAP2 PUSH2 0x1075 SWAP1 DUP5 SWAP1 PUSH2 0x1E97 JUMP JUMPDEST SWAP1 SWAP2 SSTORE POP POP PUSH1 0x40 DUP1 MLOAD DUP5 DUP2 MSTORE PUSH1 0x20 DUP2 ADD DUP5 SWAP1 MSTORE PUSH20 0xFFFFFFFFFFFFFFFFFFFFFFFFFFFFFFFFFFFFFFFF DUP1 DUP8 AND SWAP3 PUSH1 0x0 SWAP3 SWAP2 DUP6 AND SWAP2 PUSH32 0xC3D58168C5AE7397731D063D5BBF3D657854427343F4C083240F7AACAA2D0F62 SWAP2 ADD PUSH1 0x40 MLOAD DUP1 SWAP2 SUB SWAP1 LOG4 POP POP POP POP JUMP JUMPDEST PUSH20 0xFFFFFFFFFFFFFFFFFFFFFFFFFFFFFFFFFFFFFFFF DUP5 AND PUSH2 0x1162 JUMPI PUSH1 0x40 MLOAD PUSH3 0x461BCD PUSH1 0xE5 SHL DUP2 MSTORE PUSH1 0x20 PUSH1 0x4 DUP3 ADD MSTORE PUSH1 0x25 PUSH1 0x24 DUP3 ADD MSTORE PUSH32 0x455243313135353A207472616E7366657220746F20746865207A65726F206164 PUSH1 0x44 DUP3 ADD MSTORE PUSH32 0x6472657373000000000000000000000000000000000000000000000000000000 PUSH1 0x64 DUP3 ADD MSTORE PUSH1 0x84 ADD PUSH2 0x311 JUMP JUMPDEST CALLER PUSH1 0x0 PUSH2 0x116E DUP6 PUSH2 0x1538 JUMP JUMPDEST SWAP1 POP PUSH1 0x0 PUSH2 0x117B DUP6 PUSH2 0x1538 JUMP JUMPDEST SWAP1 POP PUSH1 0x0 DUP7 DUP2 MSTORE PUSH1 0x20 DUP2 DUP2 MSTORE PUSH1 0x40 DUP1 DUP4 KECCAK256 PUSH20 0xFFFFFFFFFFFFFFFFFFFFFFFFFFFFFFFFFFFFFFFF DUP13 AND DUP5 MSTORE SWAP1 SWAP2 MSTORE SWAP1 KECCAK256 SLOAD DUP6 DUP2 LT ISZERO PUSH2 0x1221 JUMPI PUSH1 0x40 MLOAD PUSH3 0x461BCD PUSH1 0xE5 SHL DUP2 MSTORE PUSH1 0x20 PUSH1 0x4 DUP3 ADD MSTORE PUSH1 0x2A PUSH1 0x24 DUP3 ADD MSTORE PUSH32 0x455243313135353A20696E73756666696369656E742062616C616E636520666F PUSH1 0x44 DUP3 ADD MSTORE PUSH32 0x72207472616E7366657200000000000000000000000000000000000000000000 PUSH1 0x64 DUP3 ADD MSTORE PUSH1 0x84 ADD PUSH2 0x311 JUMP JUMPDEST PUSH1 0x0 DUP8 DUP2 MSTORE PUSH1 0x20 DUP2 DUP2 MSTORE PUSH1 0x40 DUP1 DUP4 KECCAK256 PUSH20 0xFFFFFFFFFFFFFFFFFFFFFFFFFFFFFFFFFFFFFFFF DUP14 DUP2 AND DUP6 MSTORE SWAP3 MSTORE DUP1 DUP4 KECCAK256 DUP10 DUP6 SUB SWAP1 SSTORE SWAP1 DUP11 AND DUP3 MSTORE DUP2 KECCAK256 DUP1 SLOAD DUP9 SWAP3 SWAP1 PUSH2 0x126B SWAP1 DUP5 SWAP1 PUSH2 0x1E97 JUMP JUMPDEST SWAP1 SWAP2 SSTORE POP POP PUSH1 0x40 DUP1 MLOAD DUP9 DUP2 MSTORE PUSH1 0x20 DUP2 ADD DUP9 SWAP1 MSTORE PUSH20 0xFFFFFFFFFFFFFFFFFFFFFFFFFFFFFFFFFFFFFFFF DUP1 DUP12 AND SWAP3 DUP13 DUP3 AND SWAP3 SWAP2 DUP9 AND SWAP2 PUSH32 0xC3D58168C5AE7397731D063D5BBF3D657854427343F4C083240F7AACAA2D0F62 SWAP2 ADD PUSH1 0x40 MLOAD DUP1 SWAP2 SUB SWAP1 LOG4 PUSH2 0x12D8 DUP5 DUP11 DUP11 DUP11 DUP11 DUP11 PUSH2 0x1583 JUMP JUMPDEST POP POP POP POP POP POP POP POP POP JUMP JUMPDEST PUSH20 0xFFFFFFFFFFFFFFFFFFFFFFFFFFFFFFFFFFFFFFFF DUP5 AND EXTCODESIZE ISZERO PUSH2 0xDF4 JUMPI PUSH1 0x40 MLOAD PUSH32 0xBC197C8100000000000000000000000000000000000000000000000000000000 DUP2 MSTORE PUSH20 0xFFFFFFFFFFFFFFFFFFFFFFFFFFFFFFFFFFFFFFFF DUP6 AND SWAP1 PUSH4 0xBC197C81 SWAP1 PUSH2 0x135A SWAP1 DUP10 SWAP1 DUP10 SWAP1 DUP9 SWAP1 DUP9 SWAP1 DUP9 SWAP1 PUSH1 0x4 ADD PUSH2 0x1D64 JUMP JUMPDEST PUSH1 0x20 PUSH1 0x40 MLOAD DUP1 DUP4 SUB DUP2 PUSH1 0x0 DUP8 DUP1 EXTCODESIZE ISZERO DUP1 ISZERO PUSH2 0x1374 JUMPI PUSH1 0x0 DUP1 REVERT JUMPDEST POP GAS CALL SWAP3 POP POP POP DUP1 ISZERO PUSH2 0x13C2 JUMPI POP PUSH1 0x40 DUP1 MLOAD PUSH1 0x1F RETURNDATASIZE SWAP1 DUP2 ADD PUSH32 0xFFFFFFFFFFFFFFFFFFFFFFFFFFFFFFFFFFFFFFFFFFFFFFFFFFFFFFFFFFFFFFE0 AND DUP3 ADD SWAP1 SWAP3 MSTORE PUSH2 0x13BF SWAP2 DUP2 ADD SWAP1 PUSH2 0x1C37 JUMP JUMPDEST PUSH1 0x1 JUMPDEST PUSH2 0x1478 JUMPI PUSH2 0x13CE PUSH2 0x2014 JUMP JUMPDEST DUP1 PUSH4 0x8C379A0 EQ ISZERO PUSH2 0x1408 JUMPI POP PUSH2 0x13E3 PUSH2 0x2030 JUMP JUMPDEST DUP1 PUSH2 0x13EE JUMPI POP PUSH2 0x140A JUMP JUMPDEST DUP1 PUSH1 0x40 MLOAD PUSH3 0x461BCD PUSH1 0xE5 SHL DUP2 MSTORE PUSH1 0x4 ADD PUSH2 0x311 SWAP2 SWAP1 PUSH2 0x1E60 JUMP JUMPDEST POP JUMPDEST PUSH1 0x40 MLOAD PUSH3 0x461BCD PUSH1 0xE5 SHL DUP2 MSTORE PUSH1 0x20 PUSH1 0x4 DUP3 ADD MSTORE PUSH1 0x34 PUSH1 0x24 DUP3 ADD MSTORE PUSH32 0x455243313135353A207472616E7366657220746F206E6F6E2045524331313535 PUSH1 0x44 DUP3 ADD MSTORE PUSH32 0x526563656976657220696D706C656D656E746572000000000000000000000000 PUSH1 0x64 DUP3 ADD MSTORE PUSH1 0x84 ADD PUSH2 0x311 JUMP JUMPDEST PUSH32 0xFFFFFFFF00000000000000000000000000000000000000000000000000000000 DUP2 AND PUSH32 0xBC197C8100000000000000000000000000000000000000000000000000000000 EQ PUSH2 0x152F JUMPI PUSH1 0x40 MLOAD PUSH3 0x461BCD PUSH1 0xE5 SHL DUP2 MSTORE PUSH1 0x20 PUSH1 0x4 DUP3 ADD MSTORE PUSH1 0x28 PUSH1 0x24 DUP3 ADD MSTORE PUSH32 0x455243313135353A204552433131353552656365697665722072656A65637465 PUSH1 0x44 DUP3 ADD MSTORE PUSH32 0x6420746F6B656E73000000000000000000000000000000000000000000000000 PUSH1 0x64 DUP3 ADD MSTORE PUSH1 0x84 ADD PUSH2 0x311 JUMP JUMPDEST POP POP POP POP POP POP POP JUMP JUMPDEST PUSH1 0x40 DUP1 MLOAD PUSH1 0x1 DUP1 DUP3 MSTORE DUP2 DUP4 ADD SWAP1 SWAP3 MSTORE PUSH1 0x60 SWAP2 PUSH1 0x0 SWAP2 SWAP1 PUSH1 0x20 DUP1 DUP4 ADD SWAP1 DUP1 CALLDATASIZE DUP4 CALLDATACOPY ADD SWAP1 POP POP SWAP1 POP DUP3 DUP2 PUSH1 0x0 DUP2 MLOAD DUP2 LT PUSH2 0x1572 JUMPI PUSH2 0x1572 PUSH2 0x1FB6 JUMP JUMPDEST PUSH1 0x20 SWAP1 DUP2 MUL SWAP2 SWAP1 SWAP2 ADD ADD MSTORE SWAP3 SWAP2 POP POP JUMP JUMPDEST PUSH20 0xFFFFFFFFFFFFFFFFFFFFFFFFFFFFFFFFFFFFFFFF DUP5 AND EXTCODESIZE ISZERO PUSH2 0xDF4 JUMPI PUSH1 0x40 MLOAD PUSH32 0xF23A6E6100000000000000000000000000000000000000000000000000000000 DUP2 MSTORE PUSH20 0xFFFFFFFFFFFFFFFFFFFFFFFFFFFFFFFFFFFFFFFF DUP6 AND SWAP1 PUSH4 0xF23A6E61 SWAP1 PUSH2 0x15FA SWAP1 DUP10 SWAP1 DUP10 SWAP1 DUP9 SWAP1 DUP9 SWAP1 DUP9 SWAP1 PUSH1 0x4 ADD PUSH2 0x1DCF JUMP JUMPDEST PUSH1 0x20 PUSH1 0x40 MLOAD DUP1 DUP4 SUB DUP2 PUSH1 0x0 DUP8 DUP1 EXTCODESIZE ISZERO DUP1 ISZERO PUSH2 0x1614 JUMPI PUSH1 0x0 DUP1 REVERT JUMPDEST POP GAS CALL SWAP3 POP POP POP DUP1 ISZERO PUSH2 0x1662 JUMPI POP PUSH1 0x40 DUP1 MLOAD PUSH1 0x1F RETURNDATASIZE SWAP1 DUP2 ADD PUSH32 0xFFFFFFFFFFFFFFFFFFFFFFFFFFFFFFFFFFFFFFFFFFFFFFFFFFFFFFFFFFFFFFE0 AND DUP3 ADD SWAP1 SWAP3 MSTORE PUSH2 0x165F SWAP2 DUP2 ADD SWAP1 PUSH2 0x1C37 JUMP JUMPDEST PUSH1 0x1 JUMPDEST PUSH2 0x166E JUMPI PUSH2 0x13CE PUSH2 0x2014 JUMP JUMPDEST PUSH32 0xFFFFFFFF00000000000000000000000000000000000000000000000000000000 DUP2 AND PUSH32 0xF23A6E6100000000000000000000000000000000000000000000000000000000 EQ PUSH2 0x152F JUMPI PUSH1 0x40 MLOAD PUSH3 0x461BCD PUSH1 0xE5 SHL DUP2 MSTORE PUSH1 0x20 PUSH1 0x4 DUP3 ADD MSTORE PUSH1 0x28 PUSH1 0x24 DUP3 ADD MSTORE PUSH32 0x455243313135353A204552433131353552656365697665722072656A65637465 PUSH1 0x44 DUP3 ADD MSTORE PUSH32 0x6420746F6B656E73000000000000000000000000000000000000000000000000 PUSH1 0x64 DUP3 ADD MSTORE PUSH1 0x84 ADD PUSH2 0x311 JUMP JUMPDEST DUP3 DUP1 SLOAD PUSH2 0x1731 SWAP1 PUSH2 0x1EAF JUMP JUMPDEST SWAP1 PUSH1 0x0 MSTORE PUSH1 0x20 PUSH1 0x0 KECCAK256 SWAP1 PUSH1 0x1F ADD PUSH1 0x20 SWAP1 DIV DUP2 ADD SWAP3 DUP3 PUSH2 0x1753 JUMPI PUSH1 0x0 DUP6 SSTORE PUSH2 0x1799 JUMP JUMPDEST DUP3 PUSH1 0x1F LT PUSH2 0x176C JUMPI DUP1 MLOAD PUSH1 0xFF NOT AND DUP4 DUP1 ADD OR DUP6 SSTORE PUSH2 0x1799 JUMP JUMPDEST DUP3 DUP1 ADD PUSH1 0x1 ADD DUP6 SSTORE DUP3 ISZERO PUSH2 0x1799 JUMPI SWAP2 DUP3 ADD JUMPDEST DUP3 DUP2 GT ISZERO PUSH2 0x1799 JUMPI DUP3 MLOAD DUP3 SSTORE SWAP2 PUSH1 0x20 ADD SWAP2 SWAP1 PUSH1 0x1 ADD SWAP1 PUSH2 0x177E JUMP JUMPDEST POP PUSH2 0x17A5 SWAP3 SWAP2 POP PUSH2 0x17A9 JUMP JUMPDEST POP SWAP1 JUMP JUMPDEST JUMPDEST DUP1 DUP3 GT ISZERO PUSH2 0x17A5 JUMPI PUSH1 0x0 DUP2 SSTORE PUSH1 0x1 ADD PUSH2 0x17AA JUMP JUMPDEST PUSH1 0x0 PUSH8 0xFFFFFFFFFFFFFFFF DUP4 GT ISZERO PUSH2 0x17D8 JUMPI PUSH2 0x17D8 PUSH2 0x1FE5 JUMP JUMPDEST PUSH1 0x40 MLOAD PUSH2 0x180D PUSH1 0x20 PUSH32 0xFFFFFFFFFFFFFFFFFFFFFFFFFFFFFFFFFFFFFFFFFFFFFFFFFFFFFFFFFFFFFFE0 PUSH1 0x1F DUP8 ADD AND ADD DUP3 PUSH2 0x1F03 JUMP JUMPDEST DUP1 SWAP2 POP DUP4 DUP2 MSTORE DUP5 DUP5 DUP5 ADD GT ISZERO PUSH2 0x1822 JUMPI PUSH1 0x0 DUP1 REVERT JUMPDEST DUP4 DUP4 PUSH1 0x20 DUP4 ADD CALLDATACOPY PUSH1 0x0 PUSH1 0x20 DUP6 DUP4 ADD ADD MSTORE POP SWAP4 SWAP3 POP POP POP JUMP JUMPDEST DUP1 CALLDATALOAD PUSH20 0xFFFFFFFFFFFFFFFFFFFFFFFFFFFFFFFFFFFFFFFF DUP2 AND DUP2 EQ PUSH2 0x185E JUMPI PUSH1 0x0 DUP1 REVERT JUMPDEST SWAP2 SWAP1 POP JUMP JUMPDEST PUSH1 0x0 DUP3 PUSH1 0x1F DUP4 ADD SLT PUSH2 0x1874 JUMPI PUSH1 0x0 DUP1 REVERT JUMPDEST DUP2 CALLDATALOAD PUSH1 0x20 PUSH2 0x1881 DUP3 PUSH2 0x1E73 JUMP JUMPDEST PUSH1 0x40 MLOAD PUSH2 0x188E DUP3 DUP3 PUSH2 0x1F03 JUMP JUMPDEST DUP4 DUP2 MSTORE DUP3 DUP2 ADD SWAP2 POP DUP6 DUP4 ADD PUSH1 0x5 DUP6 SWAP1 SHL DUP8 ADD DUP5 ADD DUP9 LT ISZERO PUSH2 0x18AE JUMPI PUSH1 0x0 DUP1 REVERT JUMPDEST PUSH1 0x0 JUMPDEST DUP6 DUP2 LT ISZERO PUSH2 0x18D4 JUMPI PUSH2 0x18C2 DUP3 PUSH2 0x183A JUMP JUMPDEST DUP5 MSTORE SWAP3 DUP5 ADD SWAP3 SWAP1 DUP5 ADD SWAP1 PUSH1 0x1 ADD PUSH2 0x18B1 JUMP JUMPDEST POP SWAP1 SWAP8 SWAP7 POP POP POP POP POP POP POP JUMP JUMPDEST PUSH1 0x0 DUP3 PUSH1 0x1F DUP4 ADD SLT PUSH2 0x18F2 JUMPI PUSH1 0x0 DUP1 REVERT JUMPDEST DUP2 CALLDATALOAD PUSH1 0x20 PUSH2 0x18FF DUP3 PUSH2 0x1E73 JUMP JUMPDEST PUSH1 0x40 MLOAD PUSH2 0x190C DUP3 DUP3 PUSH2 0x1F03 JUMP JUMPDEST DUP4 DUP2 MSTORE DUP3 DUP2 ADD SWAP2 POP DUP6 DUP4 ADD PUSH1 0x5 DUP6 SWAP1 SHL DUP8 ADD DUP5 ADD DUP9 LT ISZERO PUSH2 0x192C JUMPI PUSH1 0x0 DUP1 REVERT JUMPDEST PUSH1 0x0 JUMPDEST DUP6 DUP2 LT ISZERO PUSH2 0x18D4 JUMPI DUP2 CALLDATALOAD DUP5 MSTORE SWAP3 DUP5 ADD SWAP3 SWAP1 DUP5 ADD SWAP1 PUSH1 0x1 ADD PUSH2 0x192F JUMP JUMPDEST PUSH1 0x0 DUP3 PUSH1 0x1F DUP4 ADD SLT PUSH2 0x195C JUMPI PUSH1 0x0 DUP1 REVERT JUMPDEST PUSH2 0x196B DUP4 DUP4 CALLDATALOAD PUSH1 0x20 DUP6 ADD PUSH2 0x17BE JUMP JUMPDEST SWAP4 SWAP3 POP POP POP JUMP JUMPDEST PUSH1 0x0 PUSH1 0x20 DUP3 DUP5 SUB SLT ISZERO PUSH2 0x1984 JUMPI PUSH1 0x0 DUP1 REVERT JUMPDEST PUSH2 0x196B DUP3 PUSH2 0x183A JUMP JUMPDEST PUSH1 0x0 DUP1 PUSH1 0x40 DUP4 DUP6 SUB SLT ISZERO PUSH2 0x19A0 JUMPI PUSH1 0x0 DUP1 REVERT JUMPDEST PUSH2 0x19A9 DUP4 PUSH2 0x183A JUMP JUMPDEST SWAP2 POP PUSH2 0x19B7 PUSH1 0x20 DUP5 ADD PUSH2 0x183A JUMP JUMPDEST SWAP1 POP SWAP3 POP SWAP3 SWAP1 POP JUMP JUMPDEST PUSH1 0x0 DUP1 PUSH1 0x0 DUP1 PUSH1 0x0 PUSH1 0xA0 DUP7 DUP9 SUB SLT ISZERO PUSH2 0x19D8 JUMPI PUSH1 0x0 DUP1 REVERT JUMPDEST PUSH2 0x19E1 DUP7 PUSH2 0x183A JUMP JUMPDEST SWAP5 POP PUSH2 0x19EF PUSH1 0x20 DUP8 ADD PUSH2 0x183A JUMP JUMPDEST SWAP4 POP PUSH1 0x40 DUP7 ADD CALLDATALOAD PUSH8 0xFFFFFFFFFFFFFFFF DUP1 DUP3 GT ISZERO PUSH2 0x1A0C JUMPI PUSH1 0x0 DUP1 REVERT JUMPDEST PUSH2 0x1A18 DUP10 DUP4 DUP11 ADD PUSH2 0x18E1 JUMP JUMPDEST SWAP5 POP PUSH1 0x60 DUP9 ADD CALLDATALOAD SWAP2 POP DUP1 DUP3 GT ISZERO PUSH2 0x1A2E JUMPI PUSH1 0x0 DUP1 REVERT JUMPDEST PUSH2 0x1A3A DUP10 DUP4 DUP11 ADD PUSH2 0x18E1 JUMP JUMPDEST SWAP4 POP PUSH1 0x80 DUP9 ADD CALLDATALOAD SWAP2 POP DUP1 DUP3 GT ISZERO PUSH2 0x1A50 JUMPI PUSH1 0x0 DUP1 REVERT JUMPDEST POP PUSH2 0x1A5D DUP9 DUP3 DUP10 ADD PUSH2 0x194B JUMP JUMPDEST SWAP2 POP POP SWAP3 SWAP6 POP SWAP3 SWAP6 SWAP1 SWAP4 POP JUMP JUMPDEST PUSH1 0x0 DUP1 PUSH1 0x0 DUP1 PUSH1 0x0 PUSH1 0xA0 DUP7 DUP9 SUB SLT ISZERO PUSH2 0x1A82 JUMPI PUSH1 0x0 DUP1 REVERT JUMPDEST PUSH2 0x1A8B DUP7 PUSH2 0x183A JUMP JUMPDEST SWAP5 POP PUSH2 0x1A99 PUSH1 0x20 DUP8 ADD PUSH2 0x183A JUMP JUMPDEST SWAP4 POP PUSH1 0x40 DUP7 ADD CALLDATALOAD SWAP3 POP PUSH1 0x60 DUP7 ADD CALLDATALOAD SWAP2 POP PUSH1 0x80 DUP7 ADD CALLDATALOAD PUSH8 0xFFFFFFFFFFFFFFFF DUP2 GT ISZERO PUSH2 0x1AC3 JUMPI PUSH1 0x0 DUP1 REVERT JUMPDEST PUSH2 0x1A5D DUP9 DUP3 DUP10 ADD PUSH2 0x194B JUMP JUMPDEST PUSH1 0x0 DUP1 PUSH1 0x40 DUP4 DUP6 SUB SLT ISZERO PUSH2 0x1AE2 JUMPI PUSH1 0x0 DUP1 REVERT JUMPDEST PUSH2 0x1AEB DUP4 PUSH2 0x183A JUMP JUMPDEST SWAP2 POP PUSH1 0x20 DUP4 ADD CALLDATALOAD DUP1 ISZERO ISZERO DUP2 EQ PUSH2 0x1B00 JUMPI PUSH1 0x0 DUP1 REVERT JUMPDEST DUP1 SWAP2 POP POP SWAP3 POP SWAP3 SWAP1 POP JUMP JUMPDEST PUSH1 0x0 DUP1 PUSH1 0x40 DUP4 DUP6 SUB SLT ISZERO PUSH2 0x1B1E JUMPI PUSH1 0x0 DUP1 REVERT JUMPDEST PUSH2 0x1B27 DUP4 PUSH2 0x183A JUMP JUMPDEST SWAP5 PUSH1 0x20 SWAP4 SWAP1 SWAP4 ADD CALLDATALOAD SWAP4 POP POP POP JUMP JUMPDEST PUSH1 0x0 DUP1 PUSH1 0x0 PUSH1 0x60 DUP5 DUP7 SUB SLT ISZERO PUSH2 0x1B4A JUMPI PUSH1 0x0 DUP1 REVERT JUMPDEST PUSH2 0x1B53 DUP5 PUSH2 0x183A JUMP JUMPDEST SWAP6 PUSH1 0x20 DUP6 ADD CALLDATALOAD SWAP6 POP PUSH1 0x40 SWAP1 SWAP5 ADD CALLDATALOAD SWAP4 SWAP3 POP POP POP JUMP JUMPDEST PUSH1 0x0 DUP1 PUSH1 0x40 DUP4 DUP6 SUB SLT ISZERO PUSH2 0x1B7B JUMPI PUSH1 0x0 DUP1 REVERT JUMPDEST DUP3 CALLDATALOAD PUSH8 0xFFFFFFFFFFFFFFFF DUP1 DUP3 GT ISZERO PUSH2 0x1B93 JUMPI PUSH1 0x0 DUP1 REVERT JUMPDEST PUSH2 0x1B9F DUP7 DUP4 DUP8 ADD PUSH2 0x1863 JUMP JUMPDEST SWAP4 POP PUSH1 0x20 DUP6 ADD CALLDATALOAD SWAP2 POP DUP1 DUP3 GT ISZERO PUSH2 0x1BB5 JUMPI PUSH1 0x0 DUP1 REVERT JUMPDEST POP PUSH2 0x1BC2 DUP6 DUP3 DUP7 ADD PUSH2 0x18E1 JUMP JUMPDEST SWAP2 POP POP SWAP3 POP SWAP3 SWAP1 POP JUMP JUMPDEST PUSH1 0x0 DUP1 PUSH1 0x0 PUSH1 0x60 DUP5 DUP7 SUB SLT ISZERO PUSH2 0x1BE1 JUMPI PUSH1 0x0 DUP1 REVERT JUMPDEST DUP4 CALLDATALOAD PUSH8 0xFFFFFFFFFFFFFFFF DUP2 GT ISZERO PUSH2 0x1BF8 JUMPI PUSH1 0x0 DUP1 REVERT JUMPDEST PUSH2 0x1C04 DUP7 DUP3 DUP8 ADD PUSH2 0x1863 JUMP JUMPDEST SWAP7 PUSH1 0x20 DUP7 ADD CALLDATALOAD SWAP7 POP PUSH1 0x40 SWAP1 SWAP6 ADD CALLDATALOAD SWAP5 SWAP4 POP POP POP POP JUMP JUMPDEST PUSH1 0x0 PUSH1 0x20 DUP3 DUP5 SUB SLT ISZERO PUSH2 0x1C2C JUMPI PUSH1 0x0 DUP1 REVERT JUMPDEST DUP2 CALLDATALOAD PUSH2 0x196B DUP2 PUSH2 0x20D8 JUMP JUMPDEST PUSH1 0x0 PUSH1 0x20 DUP3 DUP5 SUB SLT ISZERO PUSH2 0x1C49 JUMPI PUSH1 0x0 DUP1 REVERT JUMPDEST DUP2 MLOAD PUSH2 0x196B DUP2 PUSH2 0x20D8 JUMP JUMPDEST PUSH1 0x0 PUSH1 0x20 DUP3 DUP5 SUB SLT ISZERO PUSH2 0x1C66 JUMPI PUSH1 0x0 DUP1 REVERT JUMPDEST DUP2 CALLDATALOAD PUSH8 0xFFFFFFFFFFFFFFFF DUP2 GT ISZERO PUSH2 0x1C7D JUMPI PUSH1 0x0 DUP1 REVERT JUMPDEST DUP3 ADD PUSH1 0x1F DUP2 ADD DUP5 SGT PUSH2 0x1C8E JUMPI PUSH1 0x0 DUP1 REVERT JUMPDEST PUSH2 0x1C9D DUP5 DUP3 CALLDATALOAD PUSH1 0x20 DUP5 ADD PUSH2 0x17BE JUMP JUMPDEST SWAP5 SWAP4 POP POP POP POP JUMP JUMPDEST PUSH1 0x0 PUSH1 0x20 DUP3 DUP5 SUB SLT ISZERO PUSH2 0x1CB7 JUMPI PUSH1 0x0 DUP1 REVERT JUMPDEST POP CALLDATALOAD SWAP2 SWAP1 POP JUMP JUMPDEST PUSH1 0x0 DUP2 MLOAD DUP1 DUP5 MSTORE PUSH1 0x20 DUP1 DUP6 ADD SWAP5 POP DUP1 DUP5 ADD PUSH1 0x0 JUMPDEST DUP4 DUP2 LT ISZERO PUSH2 0x1CEE JUMPI DUP2 MLOAD DUP8 MSTORE SWAP6 DUP3 ADD SWAP6 SWAP1 DUP3 ADD SWAP1 PUSH1 0x1 ADD PUSH2 0x1CD2 JUMP JUMPDEST POP SWAP5 SWAP6 SWAP5 POP POP POP POP POP JUMP JUMPDEST PUSH1 0x0 DUP2 MLOAD DUP1 DUP5 MSTORE PUSH1 0x0 JUMPDEST DUP2 DUP2 LT ISZERO PUSH2 0x1D1F JUMPI PUSH1 0x20 DUP2 DUP6 ADD DUP2 ADD MLOAD DUP7 DUP4 ADD DUP3 ADD MSTORE ADD PUSH2 0x1D03 JUMP JUMPDEST DUP2 DUP2 GT ISZERO PUSH2 0x1D31 JUMPI PUSH1 0x0 PUSH1 0x20 DUP4 DUP8 ADD ADD MSTORE JUMPDEST POP PUSH1 0x1F ADD PUSH32 0xFFFFFFFFFFFFFFFFFFFFFFFFFFFFFFFFFFFFFFFFFFFFFFFFFFFFFFFFFFFFFFE0 AND SWAP3 SWAP1 SWAP3 ADD PUSH1 0x20 ADD SWAP3 SWAP2 POP POP JUMP JUMPDEST PUSH1 0x0 PUSH20 0xFFFFFFFFFFFFFFFFFFFFFFFFFFFFFFFFFFFFFFFF DUP1 DUP9 AND DUP4 MSTORE DUP1 DUP8 AND PUSH1 0x20 DUP5 ADD MSTORE POP PUSH1 0xA0 PUSH1 0x40 DUP4 ADD MSTORE PUSH2 0x1D9D PUSH1 0xA0 DUP4 ADD DUP7 PUSH2 0x1CBE JUMP JUMPDEST DUP3 DUP2 SUB PUSH1 0x60 DUP5 ADD MSTORE PUSH2 0x1DAF DUP2 DUP7 PUSH2 0x1CBE JUMP JUMPDEST SWAP1 POP DUP3 DUP2 SUB PUSH1 0x80 DUP5 ADD MSTORE PUSH2 0x1DC3 DUP2 DUP6 PUSH2 0x1CF9 JUMP JUMPDEST SWAP9 SWAP8 POP POP POP POP POP POP POP POP JUMP JUMPDEST PUSH1 0x0 PUSH20 0xFFFFFFFFFFFFFFFFFFFFFFFFFFFFFFFFFFFFFFFF DUP1 DUP9 AND DUP4 MSTORE DUP1 DUP8 AND PUSH1 0x20 DUP5 ADD MSTORE POP DUP5 PUSH1 0x40 DUP4 ADD MSTORE DUP4 PUSH1 0x60 DUP4 ADD MSTORE PUSH1 0xA0 PUSH1 0x80 DUP4 ADD MSTORE PUSH2 0x1E14 PUSH1 0xA0 DUP4 ADD DUP5 PUSH2 0x1CF9 JUMP JUMPDEST SWAP8 SWAP7 POP POP POP POP POP POP POP JUMP JUMPDEST PUSH1 0x20 DUP2 MSTORE PUSH1 0x0 PUSH2 0x196B PUSH1 0x20 DUP4 ADD DUP5 PUSH2 0x1CBE JUMP JUMPDEST PUSH1 0x40 DUP2 MSTORE PUSH1 0x0 PUSH2 0x1E45 PUSH1 0x40 DUP4 ADD DUP6 PUSH2 0x1CBE JUMP JUMPDEST DUP3 DUP2 SUB PUSH1 0x20 DUP5 ADD MSTORE PUSH2 0x1E57 DUP2 DUP6 PUSH2 0x1CBE JUMP JUMPDEST SWAP6 SWAP5 POP POP POP POP POP JUMP JUMPDEST PUSH1 0x20 DUP2 MSTORE PUSH1 0x0 PUSH2 0x196B PUSH1 0x20 DUP4 ADD DUP5 PUSH2 0x1CF9 JUMP JUMPDEST PUSH1 0x0 PUSH8 0xFFFFFFFFFFFFFFFF DUP3 GT ISZERO PUSH2 0x1E8D JUMPI PUSH2 0x1E8D PUSH2 0x1FE5 JUMP JUMPDEST POP PUSH1 0x5 SHL PUSH1 0x20 ADD SWAP1 JUMP JUMPDEST PUSH1 0x0 DUP3 NOT DUP3 GT ISZERO PUSH2 0x1EAA JUMPI PUSH2 0x1EAA PUSH2 0x1F87 JUMP JUMPDEST POP ADD SWAP1 JUMP JUMPDEST PUSH1 0x1 DUP2 DUP2 SHR SWAP1 DUP3 AND DUP1 PUSH2 0x1EC3 JUMPI PUSH1 0x7F DUP3 AND SWAP2 POP JUMPDEST PUSH1 0x20 DUP3 LT DUP2 EQ ISZERO PUSH2 0x1EFD JUMPI PUSH32 0x4E487B7100000000000000000000000000000000000000000000000000000000 PUSH1 0x0 MSTORE PUSH1 0x22 PUSH1 0x4 MSTORE PUSH1 0x24 PUSH1 0x0 REVERT JUMPDEST POP SWAP2 SWAP1 POP JUMP JUMPDEST PUSH32 0xFFFFFFFFFFFFFFFFFFFFFFFFFFFFFFFFFFFFFFFFFFFFFFFFFFFFFFFFFFFFFFE0 PUSH1 0x1F DUP4 ADD AND DUP2 ADD DUP2 DUP2 LT PUSH8 0xFFFFFFFFFFFFFFFF DUP3 GT OR ISZERO PUSH2 0x1F47 JUMPI PUSH2 0x1F47 PUSH2 0x1FE5 JUMP JUMPDEST PUSH1 0x40 MSTORE POP POP JUMP JUMPDEST PUSH1 0x0 PUSH32 0xFFFFFFFFFFFFFFFFFFFFFFFFFFFFFFFFFFFFFFFFFFFFFFFFFFFFFFFFFFFFFFFF DUP3 EQ ISZERO PUSH2 0x1F80 JUMPI PUSH2 0x1F80 PUSH2 0x1F87 JUMP JUMPDEST POP PUSH1 0x1 ADD SWAP1 JUMP JUMPDEST PUSH32 0x4E487B7100000000000000000000000000000000000000000000000000000000 PUSH1 0x0 MSTORE PUSH1 0x11 PUSH1 0x4 MSTORE PUSH1 0x24 PUSH1 0x0 REVERT JUMPDEST PUSH32 0x4E487B7100000000000000000000000000000000000000000000000000000000 PUSH1 0x0 MSTORE PUSH1 0x32 PUSH1 0x4 MSTORE PUSH1 0x24 PUSH1 0x0 REVERT JUMPDEST PUSH32 0x4E487B7100000000000000000000000000000000000000000000000000000000 PUSH1 0x0 MSTORE PUSH1 0x41 PUSH1 0x4 MSTORE PUSH1 0x24 PUSH1 0x0 REVERT JUMPDEST PUSH1 0x0 PUSH1 0x3 RETURNDATASIZE GT ISZERO PUSH2 0x202D JUMPI PUSH1 0x4 PUSH1 0x0 DUP1 RETURNDATACOPY POP PUSH1 0x0 MLOAD PUSH1 0xE0 SHR JUMPDEST SWAP1 JUMP JUMPDEST PUSH1 0x0 PUSH1 0x44 RETURNDATASIZE LT ISZERO PUSH2 0x203E JUMPI SWAP1 JUMP JUMPDEST PUSH1 0x40 MLOAD PUSH32 0xFFFFFFFFFFFFFFFFFFFFFFFFFFFFFFFFFFFFFFFFFFFFFFFFFFFFFFFFFFFFFFFC DUP1 RETURNDATASIZE ADD PUSH1 0x4 DUP4 RETURNDATACOPY DUP2 MLOAD RETURNDATASIZE PUSH8 0xFFFFFFFFFFFFFFFF DUP2 PUSH1 0x24 DUP5 ADD GT DUP2 DUP5 GT OR ISZERO PUSH2 0x208C JUMPI POP POP POP POP POP SWAP1 JUMP JUMPDEST DUP3 DUP6 ADD SWAP2 POP DUP2 MLOAD DUP2 DUP2 GT ISZERO PUSH2 0x20A4 JUMPI POP POP POP POP POP POP SWAP1 JUMP JUMPDEST DUP5 RETURNDATASIZE DUP8 ADD ADD PUSH1 0x20 DUP3 DUP6 ADD ADD GT ISZERO PUSH2 0x20BE JUMPI POP POP POP POP POP POP SWAP1 JUMP JUMPDEST PUSH2 0x20CD PUSH1 0x20 DUP3 DUP7 ADD ADD DUP8 PUSH2 0x1F03 JUMP JUMPDEST POP SWAP1 SWAP6 SWAP5 POP POP POP POP POP JUMP JUMPDEST PUSH32 0xFFFFFFFF00000000000000000000000000000000000000000000000000000000 DUP2 AND DUP2 EQ PUSH2 0x4A2 JUMPI PUSH1 0x0 DUP1 REVERT INVALID LOG2 PUSH5 0x6970667358 0x22 SLT KECCAK256 PUSH14 0x6650BE382AD67D7BAE57489B8A3C 0xB1 0xD5 PUSH9 0xF8084A8FD473B6AEBD EXTCODECOPY BALANCE CALLDATACOPY DUP7 0x49 PUSH5 0x736F6C6343 STOP ADDMOD SMOD STOP CALLER PUSH10 0x7066733A2F2F516D6453 ORIGIN BALANCE MSTORE PUSH17 0x415A685468693658446F4C4B76706F6E51 PUSH12 0x315862716570614757457A44 DIFFICULTY PUSH26 0x4C6D733475690000000000000000000000000000000000000000 "
				},
				"gasEstimates": {
					"creation": {
						"codeDepositCost": "1701600",
						"executionCost": "infinite",
						"totalCost": "infinite"
					},
					"external": {
						"balanceOf(address,uint256)": "2659",
						"balanceOfBatch(address[],uint256[])": "infinite",
						"isApprovedForAll(address,address)": "infinite",
						"mint(address[],uint256,uint256)": "infinite",
						"mintOne(address,uint256,uint256)": "29554",
						"name()": "infinite",
						"owner()": "2334",
						"renounceOwnership()": "28101",
						"safeBatchTransferFrom(address,address,uint256[],uint256[],bytes)": "infinite",
						"safeTransferFrom(address,address,uint256,uint256,bytes)": "infinite",
						"setApprovalForAll(address,bool)": "26702",
						"setURI(string)": "infinite",
						"supportsInterface(bytes4)": "489",
						"transferOwnership(address)": "28337",
						"uri(uint256)": "infinite"
					}
				},
				"methodIdentifiers": {
					"balanceOf(address,uint256)": "00fdd58e",
					"balanceOfBatch(address[],uint256[])": "4e1273f4",
					"isApprovedForAll(address,address)": "e985e9c5",
					"mint(address[],uint256,uint256)": "be8c5922",
					"mintOne(address,uint256,uint256)": "b3a447b4",
					"name()": "06fdde03",
					"owner()": "8da5cb5b",
					"renounceOwnership()": "715018a6",
					"safeBatchTransferFrom(address,address,uint256[],uint256[],bytes)": "2eb2c2d6",
					"safeTransferFrom(address,address,uint256,uint256,bytes)": "f242432a",
					"setApprovalForAll(address,bool)": "a22cb465",
					"setURI(string)": "02fe5305",
					"supportsInterface(bytes4)": "01ffc9a7",
					"transferOwnership(address)": "f2fde38b",
					"uri(uint256)": "0e89341c"
				}
			},
			"storageLayout": {
				"storage": [
					{
						"astId": 342,
						"contract": "contracts/PantherQuant.sol:PantherQuant",
						"label": "_balances",
						"offset": 0,
						"slot": "0",
						"type": "t_mapping(t_uint256,t_mapping(t_address,t_uint256))"
					},
					{
						"astId": 348,
						"contract": "contracts/PantherQuant.sol:PantherQuant",
						"label": "_operatorApprovals",
						"offset": 0,
						"slot": "1",
						"type": "t_mapping(t_address,t_mapping(t_address,t_bool))"
					},
					{
						"astId": 350,
						"contract": "contracts/PantherQuant.sol:PantherQuant",
						"label": "_uri",
						"offset": 0,
						"slot": "2",
						"type": "t_string_storage"
					},
					{
						"astId": 1705,
						"contract": "contracts/PantherQuant.sol:PantherQuant",
						"label": "_owner",
						"offset": 0,
						"slot": "3",
						"type": "t_address"
					},
					{
						"astId": 1820,
						"contract": "contracts/PantherQuant.sol:PantherQuant",
						"label": "name",
						"offset": 0,
						"slot": "4",
						"type": "t_string_storage"
					}
				],
				"types": {
					"t_address": {
						"encoding": "inplace",
						"label": "address",
						"numberOfBytes": "20"
					},
					"t_bool": {
						"encoding": "inplace",
						"label": "bool",
						"numberOfBytes": "1"
					},
					"t_mapping(t_address,t_bool)": {
						"encoding": "mapping",
						"key": "t_address",
						"label": "mapping(address => bool)",
						"numberOfBytes": "32",
						"value": "t_bool"
					},
					"t_mapping(t_address,t_mapping(t_address,t_bool))": {
						"encoding": "mapping",
						"key": "t_address",
						"label": "mapping(address => mapping(address => bool))",
						"numberOfBytes": "32",
						"value": "t_mapping(t_address,t_bool)"
					},
					"t_mapping(t_address,t_uint256)": {
						"encoding": "mapping",
						"key": "t_address",
						"label": "mapping(address => uint256)",
						"numberOfBytes": "32",
						"value": "t_uint256"
					},
					"t_mapping(t_uint256,t_mapping(t_address,t_uint256))": {
						"encoding": "mapping",
						"key": "t_uint256",
						"label": "mapping(uint256 => mapping(address => uint256))",
						"numberOfBytes": "32",
						"value": "t_mapping(t_address,t_uint256)"
					},
					"t_string_storage": {
						"encoding": "bytes",
						"label": "string",
						"numberOfBytes": "32"
					},
					"t_uint256": {
						"encoding": "inplace",
						"label": "uint256",
						"numberOfBytes": "32"
					}
				}
			},
			"userdoc": {
				"kind": "user",
				"methods": {},
				"version": 1
			}
		}
	}
}